:1000000030C200000C940D170C9438170C94631731
:100010000C948E170C94B9170C94E4170C940F18C9
:100020000C943A1848C2000046C2000044C20000C6
:100030000C94380D0C94700D0C94E20D3CC2000031
:100040003AC2000038C200000C94DF0B0C940C0C78
:1000500032C2000030C200002EC200002CC20000DC
:100060000C94A80D28C200000C94070E0C94430EAB
:100070000C947F0E0C94BB0E0C947B0C0C94B30C64
:100080001AC2000018C2000016C200002712731224
:10009000EE145812651279128612B312BC12F712BE
:1000A00034135913EE14791396139D13A413C51327
:1000B000C7134D14EE14EE14EE14F51300010203F1
:1000C00004050607363738393A3B3C3D3E3F41414F
:1000D00042434445508555567D8A2B2C1D19545951
:1000E0004B4C7E54000102030405060735363738B1
:1000F0003A3B3C3D3F40414244454647508555567A
:10010000868A2A2B1D1958594B4C7E5496AD810274
:1001100024022016D6AE80021B97AFD6AF58CE551C
:10012000BF3A1AEE0018A60097AF96AD81002702DD
:100130002004C6F5D7AF96AD81012702200A86FFBD
:10014000D6AE5454541097AF96AD81092702200BB8
:10015000D6AE86081B97AE86FF97AD96AE81282255
:10016000022004C600D7AE18CEB000D6AFB6B02E6F
:100170002AFBF7B02F7C00ADCC0350F3B00EFDB0DE
:10018000168680B7B023181C22803BB7B009863092
:10019000B7B02B8608B7B02D181C2280CC0000DD2C
:1001A000AD398E00FF860BB7103D8608B7B00086CC
:1001B000C1B7B0248690B7B03918CEB00086804E53
:1001C0006F7420737570706F727465642062696EED
:1001D000617279004469676966616E7420334D41CC
:1001E000502066696C65004469676966616E7420B9
:1001F000314D41502066696C6500776970696E67A2
:1002000020646F6E6500776970696E672062616E49
:100210006B73004665622032342032303230000A7F
:1002200056657273696F6E3A52322E325F323130D8
:10023000323230000A425420454550524F4D20453D
:100240004D554C41544F5220520A436F6D70696CAA
:100250006174696F6E20646174653A0064697361EA
:10026000626C696E6720626F6F746C6F6164657237
:10027000000A5372616D206C6F6164656420696E61
:10028000202575206D73000A4F6E54696D653A2004
:10029000256C75206D730042616E6B206E616D651B
:1002A000207365743A202573007061636B65747305
:1002B0002072656365697665642025640A00706153
:1002C000636B657473207772697474656E2025643E
:1002D0000A0077726974696E672073746174730AB7
:1002E000005372616D2072656C6F616465640A0011
:1002F00062616E6B6E616D653A257300656D756C3C
:100300006174653A007365745F62616E6B5F6E6104
:100310006D653A00647478006E616B0061636B0018
:10032000626F6F746C6F6164657200726561645FA7
:10033000627974650073656E6465725F7465737469
:100340000064696769646961675F6F666600646914
:100350006769646961675F6F6E0077726974696E5F
:100360006774696D650076657273696F6E006469A4
:100370007361626C655F626F6F746C6F61646572EC
:100380000072756E5F626F6F746C6F61646572008E
:100390006370755F6C6F61640065726173655F6245
:1003A000616E6B006765745F62616E6B5F696E663C
:1003B0006F0062616E6B735F696E666F007265736A
:1003C00065745F62616E6B735F73746174730062F6
:1003D000616E6B696E7573650062616E6B616464FA
:1003E000720062616E6B337365740062616E6B32B2
:1003F0007365740062616E6B317365740068656C5F
:10040000700068616E647368616B65007278666C19
:10041000757368007265736574656D7500646869ED
:1004200064006F6F720061636B000A52656C6561F6
:10043000736520666C61673A202564000A56657210
:1004400073696F6E3A52322E325F3231303232304F
:1004500000454D554254522000005C02A3084C1D3B
:10046000A71D11241FBECFEFD0E1DEBFCDBF12E02C
:10047000A0E0B1E0EAE4F9E400E00BBF02C00790BD
:100480000D92AA31B107D9F723E0AAE1B2E001C089
:100490001D92A334B207E1F712E0C0E3D2E004C03A
:1004A0002197FE010E943E1FCD32D107C9F70E945D
:1004B000131B0C949924A4CDE2E2F2E022E330E095
:1004C0003183208387E0828380E390E09483838379
:1004D000EDE1F2E03183208326E02283948383835D
:1004E00080910601EAE1F2E021E330E031832083EC
:1004F00082830895CF93DF93EC018C819D81AE813F
:10050000BF8128893989F901E80FF91F60838C813F
:100510009D81AE81BF812A893B894C895D89BC015F
:10052000CD016F5F7F4F8F4F9F4F0E941C1F6C83C9
:100530007D838E839F834C855D856E857F858A89CB
:100540009B89AC89BD89481759076A077B0758F40E
:100550008C859D85AE85BF850196A11DB11D8C87BB
:100560009D87AE87BF874C855D856E857F858A892F
:100570009B89AC89BD89481759076A077B0741F4F5
:100580008C819D81AE81BF8188839983AA83BB833F
:10059000DF91CF910895CF93DF93EC018FEF8883A4
:1005A00019821A8281E08B831C821D821E821F8227
:1005B000188619861A861B8684E18D87188A198AFF
:1005C0001A8A1B8A8AE090E0A0E0B0E08E8B9F8BB5
:1005D000A88FB98F84E190E00E9421209F878E87A9
:1005E0008E899F89A88DB98D0E9421209D8B8C8B2F
:1005F0001C86DF91CF91089581E0809307018FEFF2
:100600009FEF9093090180930801089581E0209164
:10061000080130910901232B09F480E08093070140
:10062000109209011092080108959F92AF92BF9213
:10063000CF92DF92EF92FF920F931F93CF93DF93AE
:10064000CDB7DEB765970FB6F894DEBF0FBECDBF4E
:100650008C01F62E85EF681305C081E0F8018183D7
:1006600065EF22C0F80181818823C9F08081681775
:1006700019F0FFEF6F1313C081E0F801828311823C
:100680006F2DC801049636DFFFEFFF1621F0F80149
:100690008081815002C08EEFF801808318C0F8017C
:1006A0008281882329F06F2DC801049623DF0FC0B3
:1006B000F80114821582168217821086118612861E
:1006C0001386108A118A128A138A12821182F80103
:1006D00080899189A289B3890A97A105B10509F09A
:1006E00077C0128211827E01FCE0EF0EF11C5E01E8
:1006F00086E1A80EB11CCE2C9F2CF801808991892F
:10070000A289B389892B8A2B8B2BF1F1F80180897F
:100710009189A289B389892B8A2B8B2B09F456C026
:10072000F80184819581A681B78124893589F901F1
:10073000E80FF91FD080F80180899189A289B389D7
:100740000197A109B109808B918BA28BB38B848116
:100750009581A681B78126893789408D518DBC014D
:10076000CD016F5F7F4F8F4F9F4F0E941C1FF8017D
:1007700064837583868397838D2DF70181937F0131
:10078000EA15FB0509F0B9CFF8018381882389F0C8
:1007900040E050E065E070E0CE01019633D34AE0DE
:1007A00050E06C2D792DCE010196F9D3CE01019642
:1007B000F5D38091080190910901019611F481E02F
:1007C00090E0909309018093080102C080E0D5CFAA
:1007D00065960FB6F894DEBF0FBECDBFDF91CF9107
:1007E0001F910F91FF90EF90DF90CF90BF90AF904F
:1007F0009F900895AC01092E000C660B770B4F3FBC
:100800002FEF52076105710518F4FC0184910895DA
:100810006BBFFA014791842F08956F3F2FEF720746
:100820008105910518F4FB01849108958BBFFB01AC
:100830006791862F08956F3F2FEF7207810591050D
:1008400058F4FB0124913196E491822F90E0982F87
:1008500088278E0F911D08958BBFFB012791AB0157
:10086000BC014F5F5F4F6F4F7F4F6BBFFA014791E6
:10087000822F90E0982F8827840F911D0895FC0106
:1008800080819181A281B381BC01CD016250704809
:100890008F4F9F4FD0CFCF92DF92EF92FF92CF93A7
:1008A000DF93D82FC42FC42ED52E7B018C2D8C1B0B
:1008B0008D1760F48FEFC81AD80AE80AF80AC70142
:1008C000B601ABDF813491F380E001C081E0DF91BC
:1008D000CF91FF90EF90DF90CF9008958F929F92ED
:1008E000AF92BF92CF92DF92EF92FF921F93CF937E
:1008F000DF93EC01162FC880D980EA80FB80C40EFC
:10090000D51EE11CF11C862E912CA12CB12C8881C6
:100910009981AA81BB819058AF4FBF4F881999091F
:10092000AA09BB09C816D906EA06FB06A8F4B7014E
:10093000A601812FB0DF882349F02881398181E029
:1009400090E0821B930B8C0D9D1D08C08FEFC81A81
:10095000D80AE80AF80ADBCF80E090E0DF91CF9177
:100960001F91FF90EF90DF90CF90BF90AF909F903E
:100970008F900895FC0180819181A281B381BC0197
:10098000CD01605170488F4F9F4F55DF8831F1E6A0
:100990009F0711F480E090E00895BF92CF92DF921C
:1009A000EF92FF920F931F93CF93DF9300D01F928C
:1009B000CDB7DEB77C018DEB8983D7011A968C9178
:1009C0001A971B969C919A838B83FE01319680E047
:1009D00090E058E048EA219120936200D7015396B5
:1009E0002D913C915497280F391F35BB53962C916C
:1009F0005397280F2BBB58BB48BB019683309105FA
:100A000051F71A96DC901A970D2D1B961C9188E0D1
:100A1000B82E98EAC92E802F8D19F7019785228567
:100A20003385290F311D0217130768F490E08557AD
:100A30009E4FE0DE8093620015BB0BBBB8BAC8BA0C
:100A40000F5F1F4FE8CF0F900F900F90DF91CF9166
:100A50001F910F91FF90EF90DF90CF90BF9008957E
:100A6000DF92EF92FF920F931F93CF93DF93EC01EE
:100A7000FC800F2D1D8188E0D82E98EAE92E802F6A
:100A80008F199E852C813D81290F311D0217130777
:100A900068F490E0845F9E4FADDE8093620015BBEA
:100AA0000BBBD8BAE8BA0F5F1F4FE9CF8F81809395
:100AB00062008C819D81439695BB8C818D5E8BBB42
:100AC00038E038BB28EA28BB8E81809362008C8195
:100AD0009D81449695BB8C818C5E8BBB38BB28BBBB
:100AE000DF91CF911F910F91FF90EF90DF900895CC
:100AF000DF92EF92FF920F931F93CF93DF937C01CE
:100B0000FC01C681D78110E088E0D82E08EAF70101
:100B100081891817B8F410926200D5BBCBBBD8BA44
:100B200008BBF7018789908D810F911D63DE80934B
:100B30006200CE01019695BB8BBBD8BA08BB22964A
:100B40001F5FE5CFDF91CF911F910F91FF90EF9045
:100B5000DF900895FC0181E880936200858585BB64
:100B600084858BBB98E098BB88EA88BB22892111D9
:100B70000BC02EE6209362002FE725BB30EF3BBB76
:100B800098BB88BB38E10CC0213089F426E720935C
:100B900062002FE725BB30EF3BBB98BB88BB34E13D
:100BA0003093620025BB21EF2BBB98BB88BB8581AE
:100BB000809362002FE725BB88EE8BBB98E098BB43
:100BC00088EA88BB34813093620025BB29EE2BBBB9
:100BD00098BB88BB0895CF93DF93EC018A8982305C
:100BE00098F48A859B85892B79F08E819F81892B4A
:100BF00059F0CE01AFDFCE01D0DECE0131DFCE0124
:100C000077DFFADC81E001C080E0DF91CF910895C9
:100C10000F931F93CF93DF938C01C0E0F80180897D
:100C2000C817E0F48C2F90E08E559E4FE3DDD82F4F
:100C3000F8012085318580819181A281B381820F65
:100C4000931FA11DB11DBC01CD016C0F711D811D34
:100C5000911DE3DDD81304C0CF5FE0CF81E001C078
:100C600080E0DF91CF911F910F910895CF93DF9393
:100C7000EC0188819981AA81BB81CC96A11DB11D0F
:100C800028853985BC01CD01620F731F811D911D1F
:100C9000C4DD8E3441F0823561F487EE91E09E8BA5
:100CA0008D8B80E00BC084ED91E09E8B8D8B81E07D
:100CB00005C08FEB91E09E8B8D8B82E0DF91CF9111
:100CC0000895CF93DF93EC01488359836A837B8334
:100CD0008FE78E8787E18F878DE1888B198A8FEB6D
:100CE00091E09E8B8D8BCE01CADD99878887CE01DE
:100CF00041DE9D838C83888599859C01225F3F4FCF
:100D00003D872C87C8969C8B8B8B1F821E821B86EF
:100D10001A86CE017DDF882331F1CE01A7DF8A8BD1
:100D2000882339F0813059F488E2898B8CEB90E08C
:100D300004C088E2898B84EE90E0988F8F8B488581
:100D400059856F85CE01CADD9C019B878A879F8567
:100D5000492F50E041505109420F531F6989CE017C
:100D6000BDDD9F838E83DF91CF910895EF92FF9237
:100D70000F931F93CF93DF93CDB7DEB72B970FB6AB
:100D8000F894DEBF0FBECDBFFC01F588E68840E0D9
:100D900050E063E070E08E010F5F1F4FC80132D05A
:100DA000EF92FF921F930F939CD1C801F7D00F9041
:100DB0000F900F900F902B960FB6F894DEBF0FBEDA
:100DC000CDBFDF91CF911F910F91FF90EF900895CC
:100DD0009627092E0294202D2F702927692F602530
:100DE000660F607E2627602D6927607F6695092E35
:100DF000000C661F9695969596959F719627982755
:100E0000822F0895FC018CE3808316821582108660
:100E100017828EE3818712867283618354834383B2
:100E20000895FC018CE3808314821382168215825C
:100E3000108617828EE38187128683E090E092838A
:100E40008183089580912702909128028FC30F9388
:100E50001F93CF93DF938C01EB0188818823A1F04E
:100E6000F8018581968101969683858368818781C3
:100E70009085AEDFF8019087878369918091270282
:100E80009091280273D3E9CFDF91CF911F910F91F9
:100E90000895EF92FF921F93CF93DF937C01FB01A4
:100EA0001491EB0121961123B1F0F7018581968110
:100EB000019696838583612F8781908589DFF7016D
:100EC00090878783612F80912702909128024ED3CB
:100ED000FE011491E7CFDF91CF911F91FF90EF902A
:100EE00008951F93CF93DF93EC01162F8091270273
:100EF000909128023BD38D819E8101969E838D83A4
:100F0000612F8F81988564DF98878F83DF91CF91E0
:100F10001F910895CF92DF92EF92FF920F931F934C
:100F2000CF93DF9300D0CDB7DEB71A821982FC01D0
:100F30002285211128C08C0181E08287CE2E7F017D
:100F400090910A018E2D8C19891780F06981C80152
:100F500079DF6A81C8010F900F90DF91CF911F91C7
:100F60000F91FF90EF90DF90CF906CCFF701D19071
:100F70007F016D2DC80166DF6D2D89819A8128DF83
:100F80009A838983DDCF0F900F90DF91CF911F91CE
:100F90000F91FF90EF90DF90CF900895BBCFEF922D
:100FA000FF920F931F93CF93DF93EC018B017B0193
:100FB000E40EF51E0E151F05A9F08D819E81019688
:100FC0009E838D83F80160818F81988501DF9887EA
:100FD0008F83F80161918F018091270290912802FF
:100FE000C5D2E8CFCE01DF91CF911F910F91FF9035
:100FF000EF9090CFCF93DF93EC0129DFCE01DF910B
:10100000CF9188CFCF93DF93EC0143DFCE01DF9107
:10101000CF9180CF0F931F93CF93DF93CDB7DEB7E0
:10102000E2970FB6F894DEBF0FBECDBF6BAD7CADBF
:10103000FB0101900020E9F73197E61BF70BE6343E
:10104000F10580F4AE01435C5F4FCE0101960E9432
:101050006E218C01BE016F5F7F4F89AD9AADCADFF3
:10106000C80102C080E090E0E2960FB6F894DEBFBF
:101070000FBECDBFDF91CF911F910F9108950F93B8
:101080001F93CF93DF93CDB7DEB7E2970FB6F894F7
:10109000DEBF0FBECDBF8BAD9CAD0E944621863416
:1010A000910590F4AE01435C5F4F6BAD7CADCE011A
:1010B00001960E9496218C01BE016F5F7F4F89AD22
:1010C0009AADC5DEC80102C080E090E0E2960FB69E
:1010D000F894DEBF0FBECDBFDF91CF911F910F916E
:1010E00008950F931F93CF93DF93CDB7DEB7E297A9
:1010F0000FB6F894DEBF0FBECDBF8BAD9CAD0E9486
:1011000046218634910590F4AE01435C5F4F6BAD90
:101110007CADCE0101960E9496218C01BE016F5FCD
:101120007F4F89AD9AAD66DFC80102C080E090E0D4
:10113000E2960FB6F894DEBF0FBECDBFDF91CF9120
:101140001F910F9108950E94101B90932802809385
:10115000270208951F93CF93DF93EC018C859D8523
:10116000AE85BF85892B8A2B8B2B59F1888199817C
:10117000AA81BB8128893989F901E80FF91F1081FB
:101180008C859D85AE85BF850197A109B1098C87A6
:101190009D87AE87BF8788819981AA81BB812A8973
:1011A0003B894C895D89BC01CD016F5F7F4F8F4FBB
:1011B0009F4F0E941C1F688379838A839B83812FA2
:1011C00001C080E0DF91CF911F910895CF93DF930D
:1011D000FC01A28DB38D4D915D916D917C91A685A1
:1011E000B785CD91DC91048CF58DE02D9A01AB0192
:1011F00044275527AFEFBFEF0E94471F6C0F7D1F9D
:10120000811D911DAF01DF91CF9119C6AF92BF92A1
:10121000CF92DF92EF92FF920F931F93CF93DF93C2
:10122000EC01EC85FD8535812681978180858E01D5
:10123000005F1F4FEE85FF85448555856685778560
:101240004C8F5D8F6E8F7F8F408151816281738162
:10125000488B598B6A8B7B8B448155816681778162
:101260004C8B5D8B6E8B7F8BC32ED22EE92EF82E8E
:10127000A12CB12CC114D104E104F10409F423C060
:10128000C80168DF95013827032E0294802D8F70E6
:101290008327932F9025990F907E8927902D932750
:1012A000907F9695032E000C991F369536953695AE
:1012B0003F7139273227282F590181E0C81AD108F8
:1012C000E108F108D7CFEC85FD8521853285A2168E
:1012D000B30621F08FEF9FEF9283818381E0A21606
:1012E000B30609F080E0DF91CF911F910F91FF903D
:1012F000EF90DF90CF90BF90AF900895CF92DF92A4
:10130000EF92FF920F931F93CF93DF93DC011E9612
:10131000ED91FC911F9704851585268537854091B1
:101320000B0150E060E070E004171507260737074F
:1013300008F459C0EC018C01005F1F4FEE85FF855A
:1013400084859585A685B785892B8A2B8B2B09F4F7
:101350004AC084859585A685B7858C8F9D8FAE8F75
:10136000BF8F80819181A281B381888B998BAA8B59
:10137000BB8B84819581A681B7818C8B9D8BAE8B35
:10138000BF8BC801E7DE8E3351F58883D12CED2C5D
:10139000F12CC0900B012C2D30E021503109E216C8
:1013A000F30644F4C801D6DEFE01EE0DFF1D818375
:1013B000D394EDCF8C3399F40E84DF85C02DD12CDE
:1013C000E12CF12CC114D104E104F10471F0CE013F
:1013D000C1DEB1E0CB1AD108E108F108F3CF8E8568
:1013E0009F85B8DEABCF80E001C081E0DF91CF9177
:1013F0001F910F91FF90EF90DF90CF9008958F9203
:101400009F92AF92BF92CF92DF92EF92FF92CF93D3
:10141000DF93EC01FB019D878C877F876E8784E1DA
:10142000898F80819181A281B381888B998BAA8BCE
:10143000BB8B82899389A489B5898AA39BA3ACA31A
:10144000BDA384859585A685B7858C8F9D8FAE8F2E
:10145000BF8F828593859B8F8A8F8089918999A37D
:1014600088A381E0888F1D821E821F8218861EA29B
:101470008BEF92E0ABDE4B015C01CE013FDF8823B6
:1014800009F469C080E090E0DC01EC85FD854581D0
:1014900056816781708584179507A607B70720F0E6
:1014A000C12CD12C760125C02CEA2A95F1F7000039
:1014B0000196A11DB11DE9CF8BEF92E087DEDC0123
:1014C000CB0188199909AA09BB09883C9105A10596
:1014D000B10500F58FEF97E40197F1F700C0000028
:1014E0008BEF92E073DE6B017C01C818D908EA0823
:1014F000FB08EE85FF854485558566857785EC85F7
:10150000FD8585819681A781B085481759076A07AF
:101510007B0790F298ECC916D104E104F10438F489
:10152000CE0174DE8823B9F081E08EA314C0EE856D
:10153000FF85108211821282138214821582168214
:1015400017821486158616861786EC85FD858EEF24
:101550009FEF92878187DF91CF91FF90EF90DF908F
:10156000CF90BF90AF909F908F9008950F931F934F
:10157000CF93DF93EC010AA91BA92CA93DA988AD43
:1015800099ADAAADBBAD081719072A073B0799F318
:10159000CE0186960E947A02EA81FB81208181E059
:1015A00090E00E8402C0880F991F0A94E2F7822B04
:1015B0008083DF91CF911F910F910895CF93DF9397
:1015C000EC019A01AB0160E070E18EE090E00E94D6
:1015D0001C1FBA01A901415051096109710957FF46
:1015E0000EC0E881F98181E090E00F8402C0880F8D
:1015F000991F0A94E2F780835F7766277727E8854B
:10160000F985BB27A72F962F852F8083EA85FB8539
:101610004083EA81FB818C858083EC81FD818D850F
:101620008083DF91CF9108952F923F924F925F92E6
:101630006F927F928F929F92AF92BF92CF92DF92E2
:10164000EF92FF920F931F93CF93DF93EC01962EAF
:1016500029013A011C0180E1280E311C188A198ADF
:101660001A8A1B8A1C8A1D8A1E8A1F8A84E1882E78
:10167000898E1C8E1D8E1E8E1F8EEAA2FBA20CA3CD
:101680001DA384E190E00E9421209B8F8A8F8AA174
:101690009BA1ACA1BDA10E94212099A388A3188E73
:1016A0007E0186E2E80EF11C1EA21FA218A619A652
:1016B0001AA61BA61CA61DA68FA61AAA1BAA1CAAA0
:1016C0001DAAA8AEB9AECAAEDBAE84E190E00E941E
:1016D000212099AB88AB88AD99ADAAADBBAD0E9476
:1016E00021209FAB8EAB1EA6911029C08BE290E00B
:1016F000998388838AE290E09B838A8385E990E0DE
:101700009D838C838CE290E09F838E8380E990E0C0
:101710009987888789E290E09B878A8785E08E8712
:1017200081E08F8788E98C8786E08D873092300250
:1017300020922F02F0922E02E0922D022AC081E028
:10174000981227C08BE990E0998388838AE990E01A
:101750009B838A838DE990E09D838C838CE990E064
:101760009F838E8388E990E09987888789E990E054
:101770009B878A8785E08E879F8688E98C8786E0AD
:101780008D8730922C0220922B02F0922A02E09256
:101790002902B301A201CE01DF91CF911F910F91D8
:1017A000FF90EF90DF90CF90BF90AF909F908F9081
:1017B0007F906F905F904F903F902F90FFCE1F9241
:1017C0000F920FB60F9211240BB60F922F933F93E7
:1017D0004F935F936F937F938F939F93AF93BF9339
:1017E000EF93FF936CB180912F02909130020E9491
:1017F0007A02FF91EF91BF91AF919F918F917F916D
:101800006F915F914F913F912F910F900BBE0F9071
:101810000FBE0F901F9018951F920F920FB60F9248
:1018200011240BB60F921F932F933F934F935F9307
:101830006F937F938F939F93AF93BF93CF93DF93D8
:10184000EF93FF93C0912D02D0912E028C859D8540
:10185000AE85BF85892B8A2B8B2BB1F18C859D851D
:10186000AE85BF85892B8A2B8B2B59F18881998175
:10187000AA81BB8128893989F901E80FF91F1081F4
:101880008C859D85AE85BF850197A109B1098C879F
:101890009D87AE87BF8788819981AA81BB812A896C
:1018A0003B894C895D89BC01CD016F5F7F4F8F4FB4
:1018B0009F4F0E941C1F688379838A839B83812F9B
:1018C00001C080E08CB901C05598FF91EF91DF9184
:1018D000CF91BF91AF919F918F917F916F915F91C8
:1018E0004F913F912F911F910F900BBE0F900FBE04
:1018F0000F901F9018951F920F920FB60F92112400
:101900000BB60F922F933F934F935F936F937F93F9
:101910008F939F93AF93BF93EF93FF93CF93DF93F7
:101920001F92CDB7DEB780919C0089836981809139
:101930002B0290912C020E947A020F90DF91CF919E
:10194000FF91EF91BF91AF919F918F917F916F9197
:101950005F914F913F912F910F900BBE0F900FBE53
:101960000F901F9018951F920F920FB60F9211248F
:101970000BB60F921F932F933F934F935F936F93E9
:101980007F938F939F93AF93BF93CF93DF93EF9307
:10199000FF93C0912902D0912A028C859D85AE8546
:1019A000BF85892B8A2B8B2BB9F18C859D85AE85C4
:1019B000BF85892B8A2B8B2B59F188819981AA812C
:1019C000BB8128893989F901E80FF91F10818C85BD
:1019D0009D85AE85BF850197A109B1098C879D873B
:1019E000AE87BF8788819981AA81BB812A893B897B
:1019F0004C895D89BC01CD016F5F7F4F8F4F9F4F39
:101A00000E941C1F688379838A839B83812F01C076
:101A100080E080939C0015C080919A008F7D809318
:101A20009A00E0912902F0912A021082118212821A
:101A300013821482158216821782148615861686E2
:101A40001786FF91EF91DF91CF91BF91AF919F9159
:101A50008F917F916F915F914F913F912F911F9146
:101A60000F900BBE0F900FBE0F901F90189508950A
:101A70001F920F920FB60F9211240BB60F922F9355
:101A80003F934F935F936F937F938F939F93AF9306
:101A9000BF93EF93FF93E0911601F0911701099521
:101AA00020913F02309140022115310531F08CB573
:101AB0009DB5820F931F9BBD8ABDFF91EF91BF9192
:101AC000AF919F918F917F916F915F914F913F91D6
:101AD0002F910F900BBE0F900FBE0F901F90189577
:101AE0001F920F920FB60F9211240BB60F922F93E5
:101AF0003F934F935F936F937F938F939F93AF9396
:101B0000BF93EF93FF93E0911401F09115010995B4
:101B100020913D0230913E022115310531F08CB506
:101B20009DB5820F931F99BD88BDFF91EF91BF9125
:101B3000AF919F918F917F916F915F914F913F9165
:101B40002F910F900BBE0F900FBE0F901F90189506
:101B50001F920F920FB60F9211240BB60F922F9374
:101B60003F934F935F936F937F938F939F93AF9325
:101B7000BF93EF93FF93E0911201F0911301099548
:101B800020913B0230913C022115310541F08CB58A
:101B90009DB5820F931F9093790080937800FF91F9
:101BA000EF91BF91AF919F918F917F916F915F91D5
:101BB0004F913F912F910F900BBE0F900FBE0F9042
:101BC0001F9018951F920F920FB60F9211248F93AA
:101BD0009F93AF93BF938091410290914202A09155
:101BE0004302B09144020196A11DB11D80934102B0
:101BF00090934202A0934302B0934402BF91AF91ED
:101C00009F918F910F900FBE0F901F9018951F926C
:101C10000F920FB60F9211240BB60F922F933F9392
:101C20004F935F936F937F938F939F93AF93BF93E4
:101C3000EF93FF93E0911001F0911101099520912C
:101C40003502309136022115310551F0809188001E
:101C500090918900820F931F909387008093860054
:101C6000FF91EF91BF91AF919F918F917F916F9174
:101C70005F914F913F912F910F900BBE0F900FBE30
:101C80000F901F9018951F920F920FB60F9211246C
:101C90000BB60F922F933F934F935F936F937F9366
:101CA0008F939F93AF93BF93EF93FF93E0910E01B8
:101CB000F0910F01099520913302309134022115E2
:101CC000310551F08091880090918900820F931F17
:101CD0009093850080938400FF91EF91BF91AF9125
:101CE0009F918F917F916F915F914F913F912F9134
:101CF0000F900BBE0F900FBE0F901F9018951F9264
:101D00000F920FB60F9211240BB60F922F933F93A1
:101D10004F935F936F937F938F939F93AF93BF93F3
:101D2000EF93FF93E0910C01F0910D010995209143
:101D30003102309132022115310551F08091880035
:101D400090918900820F931F90938300809382006B
:101D5000FF91EF91BF91AF919F918F917F916F9183
:101D60005F914F913F912F910F900BBE0F900FBE3F
:101D70000F901F9018951F920F920FB60F9211247B
:101D80008F939F93AF93BF938091370290913802C6
:101D9000A0913902B0913A020196A11DB11D809324
:101DA000370290933802A0933902B0933A02BF9160
:101DB000AF919F918F910F900FBE0F901F9018952C
:101DC000FC01A089B1892D933C93A681B78111961E
:101DD0005C934E93709317016093160106A4F7A5C8
:101DE000E02D8081806180830895FC01A289B38900
:101DF0002D933C93A085B18511965C934E9370937F
:101E000015016093140106A4F7A5E02D8081886078
:101E100080830895FC01A089B1892D933C93A6810C
:101E2000B78111965C934E937093110160931001EA
:101E300006A4F7A5E02D80818061808308954F92EC
:101E40005F926F927F928F929F92AF92BF92CF924A
:101E5000DF92EF92FF920F931F93CF93DF938A014C
:101E600028EE33E040E050E00E94511F29013A0182
:101E70004B01D82FC92F980140E050E060E070E09E
:101E800081EE90E00E941C1F89019A0158016901AE
:101E9000E12CF12C00E010E09201A301B4018D2FA0
:101EA0009C2F0E947A1FB901CA01DF91CF911F9127
:101EB0000F91FF90EF90DF90CF90BF90AF909F90E9
:101EC0008F907F906F905F904F9008954F925F92A8
:101ED0006F927F928F929F92AF92BF92CF92DF923A
:101EE000EF92FF920F931F938B01BC0180E090E073
:101EF00029E939E340E050E00E94511F5801C12C0C
:101F0000D12CE12CF12C00E010E00E947A1F290175
:101F10003A014114510481E06806710450F02AE34B
:101F200031E045ED50E06EE471E08BE691E00E9417
:101F3000ED1FC2011F910F91FF90EF90DF90CF90A6
:101F4000BF90AF909F908F907F906F905F904F90D9
:101F50000895CF93DF93CDB7DEB760970FB6F894AF
:101F6000DEBF0FBECDBF1A82198281E090E09C8354
:101F70008B8388E090E09E838D8380E490E0988757
:101F80008F8380E091E09A87898780E094E09C8746
:101F90008B871E861D86188A1F86FE01E60FF11D9F
:101FA000E60FF11D8181928160960FB6F894DEBF35
:101FB0000FBECDBFDF91CF910895CF93DF93EC019A
:101FC0008FE490E0998388838EE490E09B838A83FA
:101FD0008AE790E09D838C838AE490E09F838E83E0
:101FE00088E490E09987888788E790E09B878A87D4
:101FF00086E490E09D878C878CE490E09F878E87B5
:102000008FE392E0998B888B8DE392E09B8B8A8B98
:102010008BE392E09D8B8C8B86E590E09F8B8E8B83
:102020008CE790E0998F888F81E492E09B8F8A8F74
:102030001E8E1F8E18A219A21AA21BA21CA21DA2DC
:102040001EA21FA218A619A61AA61BA61CA61DA68C
:1020500087E590E09FA78EA78EB560FB80F98EBDC7
:10206000EA81FB8161FB992790F9808190FB81F9DE
:102070008083EA81FB8162FB992790F9808190FB44
:1020800082F98083E881F981808140FB80F9808337
:10209000E881F98141FB992790F9808190FB81F9D2
:1020A0008083EA81FB8142FB992790F9808190FB34
:1020B00083F98083EA81FB8143FB442740F98081D7
:1020C00040FB84F98083CE0144DF9D8F8C8FEEA589
:1020D000FFA5808184608083DF91CF910895CF93A5
:1020E000DF93EC018BE890E099838883EAE8F0E0E5
:1020F000FB83EA838CE890E09D838C8386E890E004
:102100009F838E8384E890E09987888782E890E0B7
:102110009B878A8780E890E09D878C8788E890E09D
:102120009F878E8785E392E0998B888B83E392E08B
:102130009B8B8A8B81E392E09D8B8C8B86E590E074
:102140009F8B8E8B8CE790E0998F888F87E392E04E
:102150009B8F8A8F1E8E1F8E18A219A21AA21BA2F5
:102160001CA21DA21EA21FA218A619A61AA61BA673
:102170001CA61DA68DE790E09FA78EA7808160FB1F
:1021800080F98083EA81FB8161FB992790F9808146
:1021900090FB81F98083EA81FB8162FB992790F9AA
:1021A000808190FB82F98083E881F981808140FB06
:1021B00080F98083E881F98141FB992790F980813A
:1021C00090FB81F98083EA81FB8142FB992790F99A
:1021D000808190FB83F98083EA81FB8143FB442764
:1021E00040F9808140FB84F98083CE01B2DE9D8F6F
:1021F0008C8FEEA5FFA5808184608083DF91CF91D5
:102200000895FC01108211821282138214821582B9
:102210001682178214861586168617860895CF9320
:10222000DF93EC0178876F835A8749873C872B8738
:1022300081E08D871E821D8288E18A8380E390E0A1
:102240000E942120FC019C838B8384E194E0918394
:10225000808382E094E0938382838DEF93E0958383
:10226000848382EB93E0978386838DEB93E0918761
:10227000808789E993E09387828780E993E0958757
:10228000848784EF93E0978786878BEE93E0918B2A
:10229000808B82EE93E0938B828B89ED93E0958B1C
:1022A000848B8FEC93E0978B868B84EA93E0918FFD
:1022B000808F85E093E0938F828F8CEF92E0958FF3
:1022C000848F81E893E0978F868F8EE693E091A3C9
:1022D00080A386E693E093A382A385E393E095A38E
:1022E00084A38BE293E097A386A38AE593E091A76A
:1022F00080A78CE094E093A782A78EE493E095A753
:1023000084A781E493E097A786A719821882DF91BA
:10231000CF910895CF92DF92EF92FF920F931F9388
:10232000CF93DF93CDB7DEB7AB970FB6F894DEBF90
:102330000FBECDBF7C0186E0E4E3F1E0DE019696BE
:1023400001900D928A95E1F7D7011996ED91FC91D4
:102350001A9783818E010F5F1F4FF801E80FF11D5F
:10236000E80FF11DD5A0C6A0DB011C96ED91FC91F4
:102370001D974381548160E070E0C8010E9402070C
:10238000CF92DF921F930F930E947108C8010E94A1
:10239000CE07B801F70181859285C1D3F82EE92EC9
:1023A000065E1F4F40E050E060E070E0C8010E9410
:1023B0000207EF92FF9280EF92E09F938F931F931B
:1023C0000F930E947108C8010E94CE070FB6F894BF
:1023D000DEBF0FBECDBFAB960FB6F894DEBF0FBE0B
:1023E000CDBFDF91CF911F910F91FF90EF90DF90C4
:1023F000CF9008952F923F924F925F926F927F926B
:102400008F929F92AF92BF92CF92DF92EF92FF9204
:102410000F931F93CF93DF93CDB7DEB7CB50D1404F
:102420000FB6F894DEBF0FBECDBFFB01A485B58506
:102430001196ED91FC9112973197E831F10508F072
:10244000CDC27B018C01EA5BFF4F0C943E1FDC0187
:102450001B96ED91FC911C97868197810E94E6085E
:102460004B015C01B701F8018385948552D6D801F0
:102470001B96ED91FC911C97868197810E94E6083E
:10248000D8011B96ED91FC911C970285138524853C
:102490003585DC01CB01800F911FA21FB31F881966
:1024A0009909AA09BB0982879387A487B58796C231
:1024B000DC0117968D919C91189740960E94AA086E
:1024C000682FC7010E94B91E89C2FC0187819085CF
:1024D00040960E94AA08482FB701D8011B968D91FB
:1024E0009C911C972FD7F80187819085409689DEB3
:1024F00075C288EA87BB14BA1ABA109261001092AA
:10250000620015BA1BBA80E688BB68C213964D916B
:102510005C9114977E01F1E0EF0EFF1E60E070E029
:10252000C7010E940207D80119968D919C911A97B4
:102530008FD38CE193E09F938F93FF92EF920E9451
:1025400071088E010F5F1F4FC8010E94110781EEB5
:1025500092E09F938F931F930F930E947108C8017D
:102560000E94CE077FC0CB010E94B91DD8011796EB
:102570008D919C911897BACF13964D915C911497B9
:1025800063E070E0FE0131967F01CF010E940207F7
:1025900064E372E0C7010E94490763E172E0C7018A
:1025A0000E9449076FE172E0C7010E9449078BEF63
:1025B00092E00E94E6089F938F937F936F9387E842
:1025C00092E09F938F93FF92EF920E943F08D80171
:1025D00011968C9111978F938C918F9381E792E054
:1025E0009F938F93FF92EF920E943F083BC040E081
:1025F00050E060E070E09E012F5F3F4F7901C9011C
:102600000E94020762ED72E0C7010E944907D801EB
:102610001B96ED91FC911C9781898F9380898F93F4
:102620008EEB92E09F938F93FF92EF920E943F0870
:10263000D8011B96ED91FC911C9787858F93868519
:102640008F9389EA92E09F938F93FF92EF920E947B
:102650003F08D8011B96ED91FC911C9717861686B2
:10266000118A108AC70171C113964D915C9114971C
:1026700060E070E0CE0101960E94020760E273E024
:10268000CE0101960E940208CE0101960E94CE075B
:1026900061E0D80115968D919C9116970E948C242B
:1026A00098E088E10FB6F894A89581BD0FBE91BD62
:1026B000FFCF13964D915C91149763E070E0FE019B
:1026C00031967F01CF010E9402078CE592E09F9333
:1026D0008F93FF92EF920E947108C7010E94CE076C
:1026E00060E0D80115968D919C9116970E948C24DC
:1026F000CFC013964D915C91149760E070E0CE01CD
:1027000001960E94020762E871E0CE0101960E94E4
:10271000FA07CE0101960E94CE0798E088E10FB635
:10272000F894A89581BD0FBE91BDFFCF60E0FC017C
:10273000818592850CD360E00DC061E0FC0181854C
:10274000928505D361E006C062E0FC018185928537
:10275000FED262E0D80119968D919C911A97DBD137
:10276000B701C801D7DDD8011B96ED91FC911C97EC
:102770004081518162817381CE0101960E94610680
:10278000CE0101960E94B60629C1C4DD27C1159667
:102790004D905D906D907C901897FC01A780B0845F
:1027A0004501F0E18F0E911C9E012F5F3F4F6901A3
:1027B0001901411451046104710409F4CEC0F501FA
:1027C000848D958DA68DB78D892B8A2B8B2B09F443
:1027D000C4C0C4010E94AA08D6018D936D01B1E066
:1027E0004B1A510861087108E4CF13964D915C9122
:1027F000149763E070E0FE0131967F01CF010E94E3
:10280000020786E092E09F938F93FF92EF920E94DF
:102810007108C7010E94CE0780E091E0D701FC015A
:102820001D923197E9F70F900F900F900F90812C28
:1028300080E6982EA12CB12CD8011B96ED91FC912D
:102840001C970288F389E02DA701C501B401099501
:10285000BFEF9B1AAB0ABB0A8114E0EE9E06E1E0D3
:10286000AE06B10449F78E010F5F1E4F40E050E005
:1028700063E070E0C8010E9402078AEF91E09F9335
:102880008F931F930F930E947108C8010E94CE0777
:102890000F900F900F900F90A1C0DC011B96ED914F
:1028A000FC911C974081518162817381CE01019618
:1028B0000E946106DE88CF88D7011C96ED91FC91BD
:1028C0001D97438154818E010F5F1E4F63E070E0BE
:1028D000C8010E940207CF92DF921F930F930E94BC
:1028E0007108C8010E94CE07CE0101960E94080619
:1028F000F82E40E050E063E070E0C8010E9402075B
:102900001F92FF9286E891E09F938F931F930F93FE
:102910000E940A08C8010E94CE07CE0101960E94BB
:102920003F04F82EE92E40E050E063E070E0C8017B
:102930000E940207EF92FF9281E991E09F938F93AB
:102940001F930F930E940A08C8010E94CE070FB67A
:10295000F894DEBF0FBECDBF41C0D7011C96ED91EC
:10296000FC911D9785819681A781B0858A3191055B
:10297000A105B10528F4F101E80FF91F108201C08B
:102980001A8EB101D80119968D919C911A97DBD0BE
:10299000D7011C96ED91FC911D97438154816E01E6
:1029A000B1E0CB0EDB1E63E070E0C6010E940207BF
:1029B0003F922F9287E992E09F938F93DF92CF927D
:1029C0000E947108C6010E94CE07B701C801A2DCAF
:1029D0000F900F900F900F900F900F9081E0C55FB8
:1029E000DE4F0FB6F894DEBF0FBECDBFDF91CF91A3
:1029F0001F910F91FF90EF90DF90CF90BF90AF901D
:102A00009F908F907F906F905F904F903F902F900E
:102A100008950F931F93CF93DF93CDB7DEB72B9716
:102A20000FB6F894DEBF0FBECDBF8B01DB011C9645
:102A3000ED91FC911D97218132812E3FBFEF3B0725
:102A4000D1F02F3F3F4FA1F5DC0117968D919C915E
:102A500018974096D6DBD8011C96ED91FC911D97F6
:102A60004381548161817281CE0101960E940207E7
:102A700068E173E014C0FC01878190854096C1DB5A
:102A8000D8011C96ED91FC911D9743815481618181
:102A90007281CE0101960E94020764E173E0CE01CB
:102AA00001960E940208CE0101960E94CE0701C045
:102AB000A1DC2B960FB6F894DEBF0FBECDBFDF9121
:102AC000CF911F910F910895FC0171836083089548
:102AD000CF93DF93EC01798368838FE78A835E83EA
:102AE0004D831F8282E090E00E947B248B8381E0F3
:102AF00090E00E947B248C8388EA87BB14BA1ABAC0
:102B0000109261001092620015BA1BBA80E688BB71
:102B1000DF91CF91089582E090E00C948C24CF93C4
:102B2000DF93EB01FC016381FCE16F9FB001112495
:102B30006D5F7F4F4AE150E0CE010E946B24CE01D1
:102B4000DF91CF910895EF92FF920F931F93CF9350
:102B5000DF93CDB7DEB76A970FB6F894DEBF0FBE2E
:102B6000CDBF8C017B01BE016F5F7F4FD8DFBE01FF
:102B70006F5F7F4FC7010E944F21892BA9F0B701DA
:102B8000CE0101960E945821F8016381FCE16F9FFC
:102B9000B00111246D5F7F4F4AE150E0CE010196F4
:102BA0000E94832481E001C080E06A960FB6F89409
:102BB000DEBF0FBECDBFDF91CF911F910F91FF9070
:102BC000EF9008951F93CF93DF93DC011596ED915D
:102BD000FC91169780819181A281B38120E030E041
:102BE000AC01BD0150586F4F7F4FD8E0C8EA841741
:102BF0009507A607B70740F50097E1E0AE07B105D6
:102C000070F4FC0114911093620035BB2BBBD8BB50
:102C1000C8BB0196A11DB11D2F5F3F4FE8CFD8E083
:102C2000C8EAABBFFC0117911093620035BB2BBB08
:102C3000D8BBC8BB0196A11DB11D2F5F3F4F8417A4
:102C40009507A607B70768F3DF91CF911F91089505
:102C5000DF92EF92FF920F931F93CF93DF93CDB745
:102C6000DEB769970FB6F894DEBF0FBECDBF8C01FB
:102C700088EE87BB81E6E82EF12C8FEFD7018C938D
:102C80008ABB84BB98EAD92ED8BAC8019BDFD80189
:102C90001596ED91FC911697408151816281738167
:102CA000CE0101960E946106CE0101960E94EB05BD
:102CB000F8018783D7BA14BA1ABAD7011C921092B6
:102CC000620015BA1BBA80E688BB69960FB6F89405
:102CD000DEBF0FBECDBFDF91CF911F910F91FF904F
:102CE000EF90DF9008950F931F93CF93DF938C01A4
:102CF00081E090E00E947B24F8018483882311F115
:102D0000E0913403F09135032281C1E0D0E0CE019F
:102D10000090330302C0880F991F0A94E2F7822BB8
:102D20008283C80195DFE0913403F09135038281FD
:102D30000090330302C0CC0FDD1F0A94E2F7C09568
:102D4000C823C283DF91CF911F910F9108950F93F4
:102D50001F93FC01A581B68124E0629FF00111243C
:102D6000E85DFE4F00811181228133810D931D9317
:102D70002D933C931397FC0163831F910F91B3CF65
:102D8000FF920F931F93CF93DF93CDB7DEB72B97AF
:102D90000FB6F894DEBF0FBECDBFFC01178288EEE0
:102DA00087BB01E610E09FEFD8019C939ABB94BBD0
:102DB00088EAF82EF8BACF0105DFF7BA14BA1ABAC2
:102DC000F80110821092620015BA1BBA80E688BB27
:102DD00040E050E064E070E08E010F5F1F4FC801DB
:102DE0000E9402078DE194E09F938F931F930F93AE
:102DF0000E947108C8010E94CE070F900F900F909B
:102E00000F902B960FB6F894DEBF0FBECDBFDF91AB
:102E1000CF911F910F91FF9008951F920F920FB6BF
:102E20000F9211240BB60F922F933F934F935F9302
:102E30006F937F938F939F93AF93BF93EF93FF9382
:102E4000E0912601F09127010995FF91EF91BF9143
:102E5000AF919F918F917F916F915F914F913F9132
:102E60002F910F900BBE0F900FBE0F901F901895D3
:102E70001F920F920FB60F9211240BB60F922F9341
:102E80003F934F935F936F937F938F939F93AF93F2
:102E9000BF93EF93FF93E0912401F09125010995F1
:102EA000FF91EF91BF91AF919F918F917F916F9122
:102EB0005F914F913F912F910F900BBE0F900FBEDE
:102EC0000F901F9018951F920F920FB60F9211241A
:102ED0000BB60F922F933F934F935F936F937F9314
:102EE0008F939F93AF93BF93EF93FF93E091220152
:102EF000F09123010995FF91EF91BF91AF919F91BF
:102F00008F917F916F915F914F913F912F910F9092
:102F10000BBE0F900FBE0F901F9018951F920F922F
:102F20000FB60F9211240BB60F922F933F934F932E
:102F30005F936F937F938F939F93AF93BF93EF9321
:102F4000FF93E0912001F09121010995FF91EF910C
:102F5000BF91AF919F918F917F916F915F914F91B1
:102F60003F912F910F900BBE0F900FBE0F901F90AF
:102F700018951F920F920FB60F9211240BB60F9255
:102F80002F933F934F935F936F937F938F939F9371
:102F9000AF93BF93EF93FF93E0911E01F0911F0158
:102FA0000995FF91EF91BF91AF919F918F917F9183
:102FB0006F915F914F913F912F910F900BBE0F90AA
:102FC0000FBE0F901F9018951F920F920FB60F9281
:102FD00011240BB60F922F933F934F935F936F93F0
:102FE0007F938F939F93AF93BF93EF93FF93E09162
:102FF0001C01F0911D010995FF91EF91BF91AF91D7
:103000009F918F917F916F915F914F913F912F9100
:103010000F900BBE0F900FBE0F901F9018951F9230
:103020000F920FB60F9211240BB60F922F933F936E
:103030004F935F936F937F938F939F93AF93BF93C0
:10304000EF93FF93E0911A01F0911B010995FF9115
:10305000EF91BF91AF919F918F917F916F915F9110
:103060004F913F912F910F900BBE0F900FBE0F907D
:103070001F9018951F920F920FB60F9211240BB646
:103080000F922F933F934F935F936F937F938F9301
:103090009F93AF93BF93EF93FF93E0911801F0914B
:1030A00019010995FF91EF91BF91AF919F918F9178
:1030B0007F916F915F914F913F912F910F900BBE38
:1030C0000F900FBE0F901F9018950F931F93DA016A
:1030D000B3958B019C01011580E11807210531058D
:1030E00018F4F801849103C02BBFF8018791FA010D
:1030F0009191AF01891309C00F5F1F4F2F4F3F4FB1
:10310000EA17FB0741F780E001C081E01F910F91B2
:1031100008952F923F924F925F926F927F928F927B
:103120009F92AF92BF92CF92DF92EF92FF920F9356
:103130001F93CF93DF93CDB7DEB72C970FB6F894DC
:10314000DEBF0FBECDBF8C016B01DC011496ED918B
:10315000FC91159740A151A180910B0190E0FA01DB
:10316000E80FF91F20812031C8F0DB011C96ED919A
:10317000FC911D974381548161E070E0CE0101967E
:103180000E94020762E274E0CE0101960E940208EA
:10319000CE0101960E94CE0780E0ABC0822E912C1A
:1031A000982C8824990C990C990C092C000CAA08CD
:1031B000BB087C01BFEFEB1AFB0AE40EF51E412CA5
:1031C000512C32011C8622242394312CF801808159
:1031D0009181A281B381880D991DAA1DBB1DBC01DF
:1031E000CD01640D751D861D971DA7016EDF882317
:1031F00039F1F801A085B1851196ED91FC911297F6
:103200002281C1010C9002C0880F991F0A94E2F735
:1032100082278283F80180819181A281B381880D08
:10322000991DAA1DBB1DBC01CD01640D751D861D18
:10323000971D0288F389E02DA7010995F1E0FC872D
:103240002FEF521A620A720AF3944114A8E05A0648
:103250006104710409F0BACFF801A085B185119617
:10326000ED91FC911297228181E090E00C9002C0D8
:10327000880F991F0A94E2F7809582238283FC8548
:10328000FF2351F0D80150968D919C915197019652
:1032900051969C938E935097F80186859785019659
:1032A000978786870480F581E02D108A118A128A1B
:1032B000138A148A158A168A178A148E158E168E0A
:1032C000178ED6011C96ED91FC911D974381548178
:1032D00060E070E0CE0101960E94020766E274E0B1
:1032E000CE0101960E940208CE0101960E94CE07EF
:1032F00081E02C960FB6F894DEBF0FBECDBFDF91F4
:10330000CF911F910F91FF90EF90DF90CF90BF90E2
:10331000AF909F908F907F906F905F904F903F9075
:103320002F90089524E0629FF0011124E85DFE4F84
:103330004081518162817381FC01408351836283AA
:10334000738308958F929F92AF92BF92CF92DF9234
:10335000EF92FF920F931F93CF93DF93CDB7DEB71A
:103360002B970FB6F894DEBF0FBECDBF8C01F42EA5
:10337000DB011C96ED91FC911D974381548160E027
:1033800070E0CE0101960E940207BFE0BF1540F435
:1033900098E088E10FB6F894A89581BD0FBE91BD65
:1033A0004F2D50E0542F4427550F550F550F4A010C
:1033B000E8EF9E1A052E000C660B770BD801CD9016
:1033C000DD90ED90FC90C40ED51EE61EF71EA12CDC
:1033D000B12CF80180819181A281B381880D991D62
:1033E000AA1DBB1DC816D906EA06FB06B0F4C11417
:1033F000F0E1DF06E104F10418F4F601649103C082
:10340000EBBEF6016791CE0101960E947107FFEFB6
:10341000CF1ADF0AEF0AFF0ADCCFCE0101960E9425
:10342000CE072B960FB6F894DEBF0FBECDBFDF914F
:10343000CF911F910F91FF90EF90DF90CF90BF90B1
:10344000AF909F908F900895E0913B03F0913C03E3
:1034500080E090E0309749F0029620813181820F20
:10346000931F0280F381E02DF5CF08950F931F93F2
:10347000CF93DF9300D0CDB7DEB780913903909121
:103480003A038E010F5F1F4F009729F40354134036
:103490001A83098309C0081B190B1A830983D4DF17
:1034A000800F911F9A83898389819A810F900F9051
:1034B000DF91CF911F910F910895CF93DF93A6E3F2
:1034C000B3E01196ED91FC911297228181E090E09A
:1034D0000C9002C0880F991F0A94E2F7809582230E
:1034E0008283EBEFF2E0A685B785CD91DC91648D08
:1034F000758D88EE93E00E94660FAC014C0F5D1F46
:1035000020E030E065EC7AE18BEF92E0DF91CF9143
:103510000C94E00EABDF9C0160912D0370912E03A3
:103520006115710559F0E0E1F7E2CF0171D4CF01E7
:103530006FD484E690E0861B970B02C084E690E08F
:1035400040912F03509130034817590720F490936E
:10355000300380932F0380912B0390912C038217CB
:10356000930720F430932C0320932B0310922E0307
:1035700010922D030895682F8091310390913203AA
:103580000E94B60A80E090E00895CF93DF93A6E30F
:10359000B3E01196ED91FC911297228181E090E0C9
:1035A0000C9002C0880F991F0A94E2F7822B828345
:1035B000EBEFF2E0A685B785CD91DC91648D758D3A
:1035C00081E090E00E94660FAC014C0F5D1F20E08F
:1035D00030E06DE57AE18BEF92E0DF91CF910C94D2
:1035E000E00EFC012085211103C080899189C1C5AD
:1035F0000895EDEBF2E08BEB9AE1918780871386DB
:10360000128682E0838315861486ADE3B3E01396B9
:10361000FC93EE9312971596FC93EE9314970895EE
:1036200081E892E00895CF93DF93CDB7DEB7CD5612
:10363000D1090FB6F894DEBF0FBECDBFE0910903EC
:10364000F0910A0380819181E0911503F0911603B6
:103650004081518162817381A0E0B0E080931903C1
:1036600090931A03A0931B03B0931C0340931D0374
:1036700050931E0360931F0370932003CE0188961E
:103680000E94CB0282E090E00E947B2401E812E0DD
:1036900028961FAF0EAF28972BEF32E02A963FAF48
:1036A0002EAF2A9723E333E02C963FAF2EAF2C9713
:1036B000682FCE018E5B9F4F35DE8CE890EEA1E047
:1036C000B0E0ABBFFC018791969166969FAF8EAF3D
:1036D000669760961CAE1DAE1EAE1FAE60976296DA
:1036E0001FAE1EAE629764961FAE1EAE6497AE010B
:1036F0004E5B5F4FB801CE018C599F4FE9D9CE0187
:103700008C599F4FF0DAE0910903F0910A03E080B1
:10371000F180E0911503F09116034081518162819F
:103720007381E0911703F091180380911D0390912C
:103730001E03A0911F03B09120039A01AB01281B27
:10374000390B4A0B5B0BAFEFBFEFA1D34701A12CA5
:10375000B12CC0901903D0901A03E0901B03F09095
:103760001C03A50194012C193D094E095F09620F44
:10377000731F841F951FAF010E941F0FAE967FAF6E
:103780006EAFAE971093320300933103789431DF1C
:10379000609117037091180384EF91E00E94660F07
:1037A000E0910903F0910A03408151814C595F4F28
:1037B0009C0165EC7AE18BEF92E00E94E00E609153
:1037C00017037091180384E690E00E94660FE09161
:1037D0000903F0910A03408151814C595F4F9C01CC
:1037E0006AE87AE18BEF92E00E94F50E6091E702C1
:1037F0007091E80288EC90E00E94660F9C0140E026
:1038000050E066E073E08BEC92E00E940A0F9E01AC
:103810002E5B3F4FAE014C595F4FB801CE018A5A23
:103820009F4F0E940F11AE966EAD7FADAE97CE0149
:103830008A5A9F4F49D9CE0184599F4F9AD41092EA
:10384000910210929202109293021092940210929E
:10385000950210929602109297021092980210927E
:103860009D0210929E0210929F021092A00240E0D0
:1038700050E063E070E08E010F5F1F4FC8010E94AF
:10388000020761E574E0C8010E9449076CE374E037
:10389000C8010E9449071F921F928AE294E09F93F9
:1038A0008F931F930F930E943F08C8010E94CE0779
:1038B0000F900F900F900F900F900F9080EDE82ECB
:1038C00087E0F82E98E1C92E2FE0B22E40919D029C
:1038D00050919E0260919F027091A00280910B0115
:1038E00090E0A0E0B0E0481759076A077B0790F026
:1038F00061E972E0C8010E94FF098FA1882339F0B5
:10390000B801CE018A5A9F4F84D8E12CF12CCE0108
:10391000419667DE31EDE31637E0F30608F54FEF29
:10392000E41AF40A6090D1027090D202E091D902B8
:10393000F091DA02808091806091E7027091E80254
:103940008CE291E00E94660F880D991DF30191832E
:103950008083F0EDEF16F7E0FF0608F485C00DC098
:10396000AC968FADAC97882341F08091070181110F
:1039700004C0CE018C599F4F03DA8091610290916F
:103980006202A0916302B0916402892B8A2B8B2B77
:1039900009F079C069C08091610290916202A091A2
:1039A0006302B0916402892B8A2B8B2B09F472C0BD
:1039B0008091550290915602A0915702B091580201
:1039C0002091650230916602F901E80FF91FD0805D
:1039D0008091610290916202A0916302B0916402B1
:1039E0000197A109B1098093610290936202A093AB
:1039F0006302B09364028091550290915602A091A7
:103A00005702B091580220916702309168024091AC
:103A1000690250916A02BC01CD016F5F7F4F8F4FE9
:103A20009F4F0AD2609355027093560280935702BB
:103A3000909358026D2DCE0188960E9415038091B7
:103A4000610290916202A0916302B0916402892B9D
:103A50008A2B8B2B09F09FCF0FB6F894A89581B5D0
:103A6000886181BD11BC0FBE80912D0390912E0302
:103A7000019690932E0380932D0386E69EE0019796
:103A8000F1F7000023CF0FB6F894A895C1BC0FBE84
:103A9000B1BCD5CF60E0CFCFAF92BF92CF92DF92D3
:103AA000EF92FF920F931F93E6E3F3E087E08083AA
:103AB00080E390E0928381838F9AE3E3F3E026E052
:103AC0002083928381838E9AEBE2F3E0118210824D
:103AD000138212821582148240E065E08BEF92E03F
:103AE0000E94DD0F40E065E08BEC92E00E946F10D9
:103AF00080E2A82EB12CC12CD12C1EE1E12E18E0C1
:103B0000F12E00E010E020E032EC41E050E061E016
:103B100081E892E00E94140BA12CB12C6501A394C2
:103B20001AE0E12EF12C00E010E020E835E240E060
:103B300050E060E085E492E00E94140B1F910F9129
:103B4000FF90EF90DF90CF90BF90AF9008958BE6FD
:103B500092E047DD85E592E044DD87EA92E041DDD1
:103B600081E992E03ECD90E000009F5F8917E0F789
:103B700008953F924F925F926F927F928F929F92A1
:103B8000AF92BF92CF92DF92EF92FF920F931F936B
:103B9000CF93DF93CDB7DEB72E970FB6F894DEBF85
:103BA0000FBECDBF7C01E0913703F0913803228135
:103BB00081E090E00090360302C0880F991F0A94BC
:103BC000E2F7822B8283D7011C96ED91FC911D9721
:103BD000658176818781908523E030E040E050E088
:103BE0002BD1622E532E88EE87BB8FEF809361001E
:103BF0008ABB84BB88EA88BBC12CD12C4E01BFE0B4
:103C00008B0E911C88E0382E98EA492ED7011C961D
:103C1000ED91FC911D97C601A0E0B0E04581568171
:103C20006781708584179507A607B70708F05FC0FE
:103C3000F701068517855E01FCE0AF0EB11CF801A7
:103C400084859585A685B785892B8A2B8B2B09F4CE
:103C50003FC0F80184859585A685B785892B8A2B79
:103C60008B2BA1F1F80180819181A281B381208900
:103C70003189F901E80FF91F7080F8018485958575
:103C8000A685B7850197A109B10984879587A6877D
:103C9000B78780819181A281B38122893389448948
:103CA0005589BC01CD016F5F7F4F8F4F9F4FC4D0AF
:103CB000D8016D937D938D939C931397872DF50178
:103CC00081935F01E815F90519F0B9CF80E0F7CFCE
:103CD0008E85809362008D8585BB8C858BBB38BAC1
:103CE00048BA38BA48BAF3E0CF0ED11C8FCF43811F
:103CF000548163E070E08E010F5F1F4FC8010E9486
:103D000002075F926F928EE991E09F938F931F93CA
:103D10000F930E940A08C8010E94CE0788EA87BB59
:103D200014BA1ABA109261001092620015BA1BBA46
:103D300080E688BB0F900F900F900F900F900F9020
:103D400081E02E960FB6F894DEBF0FBECDBFDF9197
:103D5000CF911F910F91FF90EF90DF90CF90BF9088
:103D6000AF909F908F907F906F905F904F903F901B
:103D70000895EF92FF920F931F93CF93DF93CDB7E8
:103D8000DEB72B970FB6F894DEBF0FBECDBF062F60
:103D9000DC011C96ED91FC911D974381548160E0FC
:103DA00070E0CE0101960E94020788EC87BB10925A
:103DB00061008FEF8ABB84BB88EA88BB10E0102FBC
:103DC0000027110F110F110F7801B8EFFB1A0E1514
:103DD0001F0568F415BB0BBBC79885E0C4DE60B156
:103DE000CE0101960E9471070F5F1F4FF0CFCE01E9
:103DF00001960E94CE072B960FB6F894DEBF0FBE39
:103E0000CDBFDF91CF911F910F91FF90EF9008955B
:103E1000AA1BBB1B51E107C0AA1FBB1FA617B707F0
:103E200010F0A61BB70B881F991F5A95A9F780950C
:103E30009095BC01CD010895A1E21A2EAA1BBB1BCF
:103E4000FD010DC0AA1FBB1FEE1FFF1FA217B30766
:103E5000E407F50720F0A21BB30BE40BF50B661F7C
:103E6000771F881F991F1A9469F760957095809540
:103E700090959B01AC01BD01CF010895EE0FFF1F8E
:103E80000024001C0BBE0790F691E02D09948ED003
:103E9000A59F900DB49F900DA49F800D911D11249E
:103EA0000895E894DF93CF93FC01DB017FD07F93EB
:103EB0006F93E9019A01AC01BF93AF933F932F93A6
:103EC000DF0174D026F46C1B7D0B820B930B9E01DB
:103ED000EB01FC017AD0AF91BF912F913F9175D04A
:103EE000BE01CF01F9012F913F91CF91DF9108954C
:103EF000689401C0E8948F929F92CF93DF9305D08E
:103F0000DF91CF919F908F90089588249924F40198
:103F1000E401B0E49F93AA279A158B049C04ED0555
:103F2000FE05CF05D007A10798F4AD2FDC2FCF2FCA
:103F3000FE2FE92D982C892E982F872F762F652F0D
:103F4000542F432F322F2227B85031F7BF9127C06B
:103F50001B2EBF91BB27220F331F441F551F661F07
:103F6000771F881F991F881C991CEE1FFF1FCC1FED
:103F7000DD1FAA1FBB1F8A149B04EC05FD05CE059F
:103F8000DF05A007B10748F08A189B08EC09FD0976
:103F9000CE09DF09A00BB10B21601A94E1F62EF4D3
:103FA0009401AF01BE01CD01000C0895A29FB001A4
:103FB000B39FC001A39F700D811D1124911DB29F5D
:103FC000700D811D1124911D0895F0DF460F571FBC
:103FD000C81FD91F08F431960895F0914203E0916B
:103FE00041030097B1F45F934F937F936F933F9397
:103FF0002F9387EB91E09F938F93FF93EF935FD184
:104000008DB79EB70A960FB6F8949EBF0FBE8DBFB0
:1040100017C05F934F937F936F939F938F933F93BB
:104020002F9382EE91E09F938F93FF93EF9347D16D
:104030008DB79EB70C960FB6F8949EBF0FBE8DBF7E
:1040400021D10F931F93CF93DF938230910510F40A
:1040500082E090E0E0913B03F0913C0320E030E00F
:10406000A0E0B0E0309719F14081518102811381C5
:1040700048175907C8F08417950769F4109731F06D
:1040800012960C93129713961C9327C000933B0330
:1040900010933C0322C02115310519F04217530734
:1040A00018F49A01BD01EF01DF01F801DBCF211502
:1040B0003105F9F0281B390B2430310580F48A8151
:1040C0009B816115710521F0FB019383828304C0FC
:1040D00090933C0380933B03FE01329644C0FE0163
:1040E000E20FF31F81939193225031093983288382
:1040F0003AC02091390330913A03232B41F42091A7
:1041000002013091030130933A0320933903209147
:104110000001309101012115310541F42DB73EB761
:104120004091040150910501241B350BE0913903A6
:10413000F0913A03E217F307A0F42E1B3F0B281768
:10414000390778F0AC014E5F5F4F2417350748F010
:104150004E0F5F1F50933A0340933903819391931D
:1041600002C0E0E0F0E0CF01DF91CF911F910F910D
:104170000895CF93DF93009709F481C0FC01329733
:1041800013821282A0913B03B0913C03109781F4FB
:1041900020813181820F931F2091390330913A039E
:1041A0002817390751F5F0933A03E093390367C0B4
:1041B000ED0120E030E0CE17DF0740F44A815B815B
:1041C0009E0141155105F1F0EA01F5CFD383C28379
:1041D00040815181840F951FC817D90759F48881F0
:1041E0009981840F951F0296918380838A819B8198
:1041F000938382832115310529F4F0933C03E093E6
:104200003B033DC0E901FB83EA8349915991C40F07
:10421000D51FEC17FD0761F480819181840F951FF4
:104220000296E90199838883828193819B838A83A3
:10423000E0E0F0E012968D919C911397009719F0B1
:10424000FD01DC01F7CF8D919C9111979D012E5FAF
:104250003F4F820F931F2091390330913A03281763
:10426000390769F4309729F410923C0310923B030C
:1042700002C013821282B0933A03A0933903DF91F4
:10428000CF91089581E090E0F89453C3FC0105902C
:104290000020E9F7809590958E0F9F1F0895FB01F0
:1042A000DC018D91019080190110D9F3990B0895CB
:1042B000FB01DC0101900D920020E1F70895CF93FE
:1042C000DF93CDB7DEB7AE01475F5F4F6F81788573
:1042D0008D819E8153D0DF91CF9108950F931F93CD
:1042E000CF93DF93CDB7DEB72E970FB6F894DEBF2E
:1042F0000FBECDBF8C0186E08C831A8309838FEFBC
:104300009FE79E838D83CE01019638D0EF81F8859B
:10431000E00FF11F10822E960FB6F894DEBF0FBE8D
:10432000CDBFDF91CF911F910F9108950F931F93F0
:10433000CF93DF93CDB7DEB72E970FB6F894DEBFDD
:104340000FBECDBF8C018EE08C831A8309838FEF63
:104350009FE79E838D83CE01019610D0EF81F88573
:10436000E00FF11F10822E960FB6F894DEBF0FBE3D
:10437000CDBFDF91CF911F910F9108952F923F9262
:104380004F925F926F927F928F929F92AF92BF9265
:10439000CF92DF92EF92FF920F931F93CF93DF9311
:1043A000CDB7DEB72B970FB6F894DEBF0FBECDBFEB
:1043B0006C017B018A01FC0117821682838181FFD7
:1043C000BFC1CE0101963C01F6019381F70193FD37
:1043D000859193FF81917F01882309F4ADC18532D6
:1043E00039F493FD859193FF81917F01853221F40A
:1043F000B60190E0D6D1E8CF912C212C312CFFE1F1
:10440000F315D8F08B3279F038F4803279F08332BA
:10441000A1F4232D20611DC08D3261F0803369F439
:10442000232D216016C0832D8260382EE32DE46099
:104430003E2E2AC0F32DF8601DC037FC2DC020EDA4
:10444000280F2A3040F08E32B9F436FC75C1232D86
:104450002064322E19C036FE06C08AE0989E200DD8
:104460001124922E11C0EAE02E9E200D1124222E3E
:10447000F32DF0623F2E08C08C3621F4832D806826
:10448000382E02C0883641F4F70193FD859193FFE1
:1044900081917F018111B3CF982F9F7D95549330E7
:1044A00028F40C5F1F4F9FE399830DC0833631F0D2
:1044B000833771F0833509F055C020C0F801808141
:1044C00089830E5F1F4F88248394912C530112C05F
:1044D0002801F2E04F0E511CF801A080B18036FE99
:1044E00003C0692D70E002C06FEF7FEFC5014ED1B0
:1044F0004C018201F32DFF773F2E15C0280122E0E9
:10450000420E511CF801A080B18036FE03C0692D17
:1045100070E002C06FEF7FEFC5012DD14C01F32D8C
:10452000F0683F2E820133FC19C0822D90E088167E
:104530009906A0F4B60180E290E033D12A94F5CF39
:10454000F50137FC859137FE81915F01B60190E05E
:1045500028D121102A9421E0821A91088114910413
:1045600079F7E1C0843611F0893639F5F80137FE64
:1045700007C060817181828193810C5F1F4F08C0E9
:1045800060817181072E000C880B990B0E5F1F4F05
:10459000F32DFF763F2E97FF09C09095809570957B
:1045A00061957F4F8F4F9F4FF0683F2E2AE030E09C
:1045B000A30133D1882E861844C0853731F4232DCA
:1045C0002F7EB22E2AE030E025C0932D997FB92EA0
:1045D0008F36C1F018F4883579F0AEC0803719F005
:1045E000883721F0A9C0E92FE061BE2EB4FE0DC0CE
:1045F000FB2DF460BF2E09C034FE0AC0292F2660AF
:10460000B22E06C028E030E005C020E130E002C054
:1046100020E132E0F801B7FE07C06081718182813C
:1046200093810C5F1F4F06C06081718180E090E034
:104630000E5F1F4FA301F1D0882E8618FB2DFF7748
:104640003F2E36FE0DC0232D2E7FA22E891458F446
:1046500034FE0BC032FC09C0832D8E7EA82E05C00F
:10466000B82CA32C03C0B82C01C0B92CA4FE0FC0D9
:10467000FE01E80DF11D8081803321F49A2D997E91
:10468000A92E09C0A2FE06C0B394B39404C08A2D1B
:10469000867809F0B394A3FC10C0A0FE06C0B21443
:1046A00080F4280C922C9B180DC0B21458F4B6015B
:1046B00080E290E076D0B394F8CFB21418F42B18BF
:1046C00002C0982C212CA4FE0FC0B60180E390E01C
:1046D00068D0A2FE16C0A1FC03C088E790E002C02B
:1046E00088E590E0B6010CC08A2D867851F0A1FED5
:1046F00002C08BE201C080E2A7FC8DE2B60190E02F
:1047000050D0891430F4B60180E390E04AD09A94F6
:10471000F8CF8A94F301E80DF11D8081B60190E095
:1047200040D08110F6CF222009F44ECEB60180E2AF
:1047300090E037D02A94F7CFF6018681978102C0A6
:104740008FEF9FEF2B960FB6F894DEBF0FBECDBF55
:10475000DF91CF911F910F91FF90EF90DF90CF905D
:10476000BF90AF909F908F907F906F905F904F9091
:104770003F902F900895FC0105906150704001100A
:10478000D8F7809590958E0F9F1F0895FC0161507A
:10479000704001900110D8F7809590958E0F9F1F63
:1047A00008950F931F93CF93DF93FB01238121FD86
:1047B00003C08FEF9FEF2CC022FF16C046815781A8
:1047C000248135814217530744F4A081B1819D01B2
:1047D0002F5F3F4F318320838C93268137812F5F5A
:1047E0003F4F3783268314C08B01EC01FB0100840B
:1047F000F185E02D0995892BE1F6D80116968D916A
:104800009C911797019617969C938E931697CE01BD
:10481000DF91CF911F910F910895FA01AA272830B7
:1048200051F1203181F1E8946F936E7F6E5F7F4F7D
:104830008F4F9F4FAF4FB1E03ED0B4E03CD0670FF9
:10484000781F891F9A1FA11D680F791F8A1F911D4C
:10485000A11D6A0F711D811D911DA11D20D009F49C
:1048600068943F912AE0269F11243019305D3193DE
:10487000DEF6CF010895462F4770405D4193B3E0C7
:104880000FD0C9F7F6CF462F4F70405D4A3318F06E
:10489000495D31FD4052419302D0A9F7EACFB4E01F
:1048A000A6959795879577956795BA95C9F70097D7
:1048B0006105710508959B01AC010A2E0694579578
:1048C000479537952795BA95C9F7620F731F841FCF
:1048D000951FA01D0895DC01CB01FC01E199FECFDD
:1048E00006C0FFBBEEBBE09A31960DB20D9241506F
:1048F0005040B8F70895E199FECF9FBB8EBBE09A78
:1049000099278DB30895DC01CB0102C02D9105D00C
:1049100041505040D8F70895262FE199FECF9FBB14
:104920008EBB2DBB0FB6F894E29AE19A0FBE0196AA
:10493000089512E0C0E3D2E003C0FE019FDA2196A1
:0A494000C133D107D1F7F894FFCF7F
:10494A00000043032000C001FFFF0A0C370D370D9A
:10495A00370D370D370D370D370D370D370D370D2D
:10496A00370D370D370D370D0060000000E00000ED
:10497A0000600100F403EB03E2036379636C65737F
:10498A00203C3D20307866666666554C4C002E2EDB
:10499A002F61746D3132385F74696D6572732F746B
:1049AA00696D65725F722E637070006D735F746FEC
:1049BA005F6379636C657300256420256320256431
:1049CA000A0061636B004973206466633A202564B8
:1049DA00004973206466633A2025303258005372C6
:1049EA00616D2075706461746564206F662025644A
:1049FA0020627974657300417373657274696F6EAE
:104A0A00206661696C65643A20282573292C206622
:104A1A00696C652025732C206C696E652025642ECF
:104A2A000A00417373657274696F6E206661696CFE
:104A3A0065643A20282573292C2066756E6374698B
:104A4A006F6E2025732C2066696C652025732C20D7
:0A4A5A006C696E652025642E0A00C9
:00000001FF
