:1000000027C100000C94AC100C94D7100C94021172
:100010000C942D110C9458110C9483110C94AE1166
:100020000C94D9113FC100003DC100003BC100004C
:100030000C944B080C9483080C94F50833C1000011
:1000400031C100002FC10000CEC60000F9C600007B
:1000500029C1000027C1000025C1000023C1000004
:100060000C94BB081FC100000C941A090C9456098B
:100070000C9492090C94CE0952C7000087C7000067
:1000800011C100000FC100000DC10000E10C750D91
:10009000120D3A0D5A0D670D7B0D880DB50DC70D6C
:1000A0000A0E440E690EAA0E8D0E53657020323270
:1000B0002032303139000A56657273696F6E3A52D8
:1000C000312E3031000A425420454550524F4D20C8
:1000D000454D554C41544F5220520A436F6D706943
:1000E0006C6174696F6E20646174653A20006469A4
:1000F0007361626C696E6720626F6F746C6F6164AC
:10010000657220666C6167000A5372616D206C6FC6
:100110006164656420696E202575206D73000A4F47
:100120006E54696D653A20256C75206D7300656DA0
:10013000756C6174653A007365745F62616E6B5FC4
:100140006E616D653A00647478006E616B00616386
:100150006B00726561645F627974650073656E64DB
:1001600065725F7465737400646967696469616767
:100170005F6F66660064696769646961675F6F6E77
:100180000077726974696E6774696D65007665726F
:1001900073696F6E0064697361626C655F626F6F33
:1001A000746C6F616465720072756E5F626F6F74FC
:1001B0006C6F61646572006370755F6C6F61640081
:1001C00065726173655F62616E6B006765745F6223
:1001D000616E6B5F696E666F0062616E6B735F6903
:1001E0006E666F0072657365745F62616E6B735FDC
:1001F00073746174730062616E6B696E7573650010
:1002000062616E6B616464720062616E6B33736510
:10021000740062616E6B327365740062616E6B3183
:100220007365740068656C700068616E6473686102
:100230006B65007278666C757368007265736574BF
:10024000656D75006F6F7200530150035916BB1630
:1002500011241FBECFEFD0E1DEBFCDBF13E0A0E081
:10026000B1E0ECE7FAE300E00BBF02C007900D92AB
:10027000AA35B107D9F724E0AAE5B3E001C01D9281
:10028000A738B207E1F711E0C7E2D1E004C0219737
:10029000FE010E94B617C432D107C9F70E94EA14C2
:1002A0000C94321DADCEE2E6F3E022E330E0318380
:1002B000208387E0828380E390E094838383EDE56D
:1002C000F3E03183208326E022839483838380912B
:1002D0000601EAE5F3E021E330E031832083828305
:1002E00008959627092E0294202D2F702927692F13
:1002F0006025660F607E2627602D6927607F6695E2
:10030000092E000C661F9695969596959F719627D7
:100310009827822F0895FC018CE380831682158232
:10032000108617828EE381871286728361835483DD
:1003300043830895FC018CE3808314821382168228
:100340001582108617828EE38187128683E090E003
:10035000928381830895809167039091680305C417
:100360000F931F93CF93DF938C01EB018881882338
:10037000A1F0F80185819681019696838583688135
:1003800087819085AEDFF80190878783699180919E
:10039000670390916803E9D3E9CFDF91CF911F9173
:1003A0000F910895EF92FF921F93CF93DF937C01FB
:1003B000FB011491EB0121961123B1F0F701858126
:1003C0009681019696838583612F8781908589DF49
:1003D000F70190878783612F80916703909168036D
:1003E000C4D3FE011491E7CFDF91CF911F91FF900D
:1003F000EF9008951F93CF93DF93EC01162F809118
:10040000670390916803B1D38D819E8101969E838D
:100410008D83612F8F81988564DF98878F83DF912B
:10042000CF911F910895CF92DF92EF92FF920F9399
:100430001F93CF93DF9300D0CDB7DEB71A82198216
:10044000FC012285211128C08C0181E08287CE2EFB
:100450007F01909107018E2D8C19891780F0698199
:10046000C80179DF6A81C8010F900F90DF91CF91A9
:100470001F910F91FF90EF90DF90CF906CCFF7011D
:10048000D1907F016D2DC80166DF6D2D89819A8124
:1004900028DF9A838983DDCF0F900F90DF91CF9172
:1004A0001F910F91FF90EF90DF90CF900895BBCFF9
:1004B0001F93CF93DF93EC01162F8D819E810196C0
:1004C0009E838D838F8198850CDF98878F83612F22
:1004D000809167039091680348D3CE01DF91CF915B
:1004E0001F91A1CFCF93DF93EC013ADFCE01DF91D3
:1004F000CF9199CFCF93DF93EC0154DFCE01DF9101
:10050000CF9191CF0F931F93CF93DF93CDB7DEB7EA
:10051000E2970FB6F894DEBF0FBECDBF6BAD7CADDA
:10052000FB0101900020E9F73197E61BF70BE63459
:10053000F10580F4AE01435C5F4FCE0101960E944D
:10054000431A8C01BE016F5F7F4F89AD9AAD08DF02
:10055000C80102C080E090E0E2960FB6F894DEBFDA
:100560000FBECDBFDF91CF911F910F9108950F93D3
:100570001F93CF93DF93CDB7DEB7E2970FB6F89412
:10058000DEBF0FBECDBF6BAD7CADFB010190002087
:10059000E9F73197E61BF70BE634F10580F4AE017D
:1005A000435C5F4FCE0101960E94431A8C01BE014D
:1005B0006F5F7F4F89AD9AAD95DFC80102C080E0C3
:1005C00090E0E2960FB6F894DEBF0FBECDBFDF918C
:1005D000CF911F910F9108950F931F93CF93DF93A6
:1005E000CDB7DEB7E2970FB6F894DEBF0FBECDBF32
:1005F0008BAD9CAD0E94BE198634910590F4AE017E
:10060000435C5F4F6BAD7CADCE0101960E946B1ACF
:100610008C01BE016F5F7F4F89AD9AADA1DEC8012D
:1006200002C080E090E0E2960FB6F894DEBF0FBE05
:10063000CDBFDF91CF911F910F9108950F931F931D
:10064000CF93DF93CDB7DEB7E2970FB6F894DEBF56
:100650000FBECDBF8BAD9CAD0E94BE1986349105F7
:1006600090F4AE01435C5F4F6BAD7CADCE01019663
:100670000E946B1A8C01BE016F5F7F4F89AD9AADEE
:1006800031DFC80102C080E090E0E2960FB6F89436
:10069000DEBF0FBECDBFDF91CF911F910F910895A7
:1006A0000E94E714909368038093670308951F9353
:1006B000CF93DF93EC018A899B89AC89BD89892B13
:1006C0008A2B8B2B59F188819981AA81BB8128893A
:1006D0003989F901E80FF91F10818A899B89AC8952
:1006E000BD890197A109B1098A8B9B8BAC8BBD8B0E
:1006F00088819981AA81BB812C853D854E855F8546
:10070000BC01CD016F5F7F4F8F4F9F4F0E949417A9
:10071000688379838A839B83812F01C080E0DF9186
:10072000CF911F910895CF93DF93FC01A28DB38DDC
:100730004D915D916D917C91A685B785CD91DC91B0
:10074000048CF58DE02D9A01AB0144275527AFEFBE
:10075000BFEF0E94BF176C0F7D1F811D911DAF0160
:10076000DF91CF916AC6AF92BF92CF92DF92EF92A4
:10077000FF920F931F93CF93DF93EC01EC85FD85E0
:1007800035812681978180858E01005F1F4FEE8520
:10079000FF8542895389648975894AA35BA36CA349
:1007A0007DA34081518162817381488B598B6A8B13
:1007B0007B8B44815581668177814C8B5D8B6E8B01
:1007C0007F8BC32ED22EE92EF82EA12CB12CC11472
:1007D000D104E104F10409F423C0C80168DF9501E4
:1007E0003827032E0294802D8F708327932F902516
:1007F000990F907E8927902D9327907F9695032EB1
:10080000000C991F3695369536953F71392732275A
:10081000282F590181E0C81AD108E108F108D7CF83
:10082000EC85FD8521853285A216B30621F08FEF78
:100830009FEF9283818381E0A216B30609F080E0E6
:10084000DF91CF911F910F91FF90EF90DF90CF90AC
:10085000BF90AF900895CF92DF92EF92FF920F93E7
:100860001F93CF93DF93DC011E96ED91FC911F97B0
:1008700002891389248935894091080150E060E09C
:1008800070E0041715072607370708F459C0EC0174
:100890008C01005F1F4FEE85FF8582899389A489B3
:1008A000B589892B8A2B8B2B09F44AC082899389BD
:1008B000A489B5898AA39BA3ACA3BDA380819181A0
:1008C000A281B381888B998BAA8BBB8B8481958104
:1008D000A681B7818C8B9D8BAE8BBF8BC801E7DE69
:1008E0008E3351F58883D12CED2CF12CC09008016A
:1008F0002C2D30E021503109E216F30644F4C801F2
:10090000D6DEFE01EE0DFF1D8183D394EDCF8C3337
:1009100099F40E84DF85C02DD12CE12CF12CC1146B
:10092000D104E104F10471F0CE01C1DEB1E0CB1AD3
:10093000D108E108F108F3CF8E859F85B8DEABCFF3
:1009400080E001C081E0DF91CF911F910F91FF9076
:10095000EF90DF90CF9008958F929F92AF92BF92C9
:10096000CF92DF92EF92FF92CF93DF93EC01FB01E6
:100970009D878C877F876E8782E38B8F80819181B3
:10098000A281B381888B998BAA8BBB8B848595853B
:10099000A685B7858C8F9D8FAE8FBF8F82899389F7
:1009A000A489B5898AA39BA3ACA3BDA380859185A7
:1009B000998F888F8089918999A388A381E08A8FF4
:1009C0001D821E821F8218861EA28FE394E0ABDE7A
:1009D0004B015C01CE013FDF882309F46AC080E04F
:1009E00090E0DC01EC85FD8545815681678170854D
:1009F00084179507A607B70720F0C12CD12C7601E4
:100A000025C02CEA2A95F1F700000196A11DB11D21
:100A1000E9CF8FE394E087DEDC01CB0188199909E7
:100A2000AA09BB0980399140A105B10500F58FEFF6
:100A30009FE80197F1F700C000008FE394E073DEB8
:100A40006B017C01C818D908EA08FB08EE85FF8510
:100A50004289538964897589EC85FD8585819681F4
:100A6000A781B085481759076A077B0790F290E97C
:100A7000C91691E0D906E104F10438F4CE0173DE21
:100A80008823B9F081E08EA314C0EE85FF85108223
:100A90001182128213821482158216821782128AA0
:100AA000138A148A158AEC85FD858EEF9FEF928755
:100AB0008187DF91CF91FF90EF90DF90CF90BF9033
:100AC000AF909F908F900895CF93DF93EC018C812E
:100AD0009D81AE81BF8128893989F901E80FF91F0D
:100AE00060838C819D81AE81BF812C853D854E8543
:100AF0005F85BC01CD016F5F7F4F8F4F9F4F0E947D
:100B000094176C837D838E839F834A895B896C896C
:100B10007D898C859D85AE85BF85481759076A07F5
:100B20007B0758F48A899B89AC89BD890196A11DF0
:100B3000B11D8A8B9B8BAC8BBD8B4A895B896C8981
:100B40007D898C859D85AE85BF85481759076A07C5
:100B50007B0741F48C819D81AE81BF81888399831D
:100B6000AA83BB83DF91CF9108950F931F93CF93F7
:100B7000DF93EC0108AD19AD2AAD3BAD8AA99BA965
:100B8000ACA9BDA9081719072A073B0799F3CE019D
:100B900086969ADFEA81FB81208181E090E00E84D5
:100BA00002C0880F991F0A94E2F7822B8083DF919D
:100BB000CF911F910F910895CF93DF93EC019A018C
:100BC000AB0160E070E18EE090E00E949417BA0102
:100BD000A901415051096109710957FF0EC0E8810F
:100BE000F98181E090E00F8402C0880F991F0A9478
:100BF000E2F780835F7766277727E885F985BB274B
:100C0000A72F962F852F8083EA85FB854083EA8175
:100C1000FB818C858083EC81FD818D858083DF91D4
:100C2000CF9108952F923F924F925F926F927F9251
:100C30008F929F92AF92BF92CF92DF92EF92FF92EC
:100C40000F931F93CF93DF9300D01F92CDB7DEB7E2
:100C50003C01698319012A0140969B838A83F30131
:100C6000108A118A128A138A148A158A168A178A98
:100C700082E3838FC48ED58EE68EF78E12A213A2E6
:100C800014A215A282E390E00E949918F301918FBB
:100C9000808F848D958DA68DB78D0E949918F30154
:100CA00091A380A3128E6301F6E2CF0ED11CF30153
:100CB00016A217A210A611A612A613A614A615A670
:100CC00082E381AB82AA93AAA4AAB5AA10AE11AE00
:100CD00012AE13AE82E390E00E949918F30197A739
:100CE00086A782A993A9A4A9B5A90E949918F3017E
:100CF00097AB86AB10AA15AF04AFF981F1112CC0E8
:100D00008BE290E0F301918380838AE290E0938309
:100D1000828385E990E0958384838CE290E09783D9
:100D2000868380E990E09187808789E290E09387CD
:100D3000828785E0868781E0878788E9848786E0E7
:100D400085878A819B819093700380936F03D092F3
:100D50006E03C0926D032EC09981913059F58BE9D5
:100D600090E0F301918380838AE990E0938382830A
:100D70008DE990E0958384838CE990E09783868366
:100D800088E990E09187808789E990E0938782875E
:100D900085E086878981878788E9848786E08587DB
:100DA000EA81FB81F0936C03E0936B03D0926A03BA
:100DB000C0926903B201A101C3010F900F900F907F
:100DC000DF91CF911F910F91FF90EF90DF90CF9027
:100DD000BF90AF909F908F907F906F905F904F905B
:100DE0003F902F90E9CE1F920F920FB60F921124D1
:100DF0000BB60F922F933F934F935F936F937F9315
:100E00008F939F93AF93BF93EF93FF938BB16CB18D
:100E100080916F039091700357DEFF91EF91BF9126
:100E2000AF919F918F917F916F915F914F913F9182
:100E30002F910F900BBE0F900FBE0F901F90189523
:100E40001F920F920FB60F9211240BB60F921F93A1
:100E50002F933F934F935F936F937F938F939F93C2
:100E6000AF93BF93CF93DF93EF93FF93C0916D0345
:100E7000D0916E038A899B89AC89BD89892B8A2B85
:100E80008B2BB1F18A899B89AC89BD89892B8A2BEF
:100E90008B2B59F188819981AA81BB812889398955
:100EA000F901E80FF91F10818A899B89AC89BD89F6
:100EB0000197A109B1098A8B9B8BAC8BBD8B888173
:100EC0009981AA81BB812C853D854E855F85BC01BA
:100ED000CD016F5F7F4F8F4F9F4F0E9494176883A4
:100EE00079838A839B83812F01C080E08CB901C004
:100EF0005598FF91EF91DF91CF91BF91AF919F9165
:100F00008F917F916F915F914F913F912F911F91A1
:100F10000F900BBE0F900FBE0F901F9018951F9251
:100F20000F920FB60F9211240BB60F922F933F938F
:100F30004F935F936F937F938F939F93AF93BF93E1
:100F4000EF93FF93CF93DF931F92CDB7DEB78091DE
:100F50009C008983698180916B0390916C03B4DD5F
:100F60000F90DF91CF91FF91EF91BF91AF919F9142
:100F70008F917F916F915F914F913F912F910F9042
:100F80000BBE0F900FBE0F901F9018951F920F92DF
:100F90000FB60F9211240BB60F921F932F933F930E
:100FA0004F935F936F937F938F939F93AF93BF9371
:100FB000CF93DF93EF93FF93C0916903D0916A03BE
:100FC0008A899B89AC89BD89892B8A2B8B2BB9F1A6
:100FD0008A899B89AC89BD89892B8A2B8B2B59F1F6
:100FE00088819981AA81BB8128893989F901E80F13
:100FF000F91F10818A899B89AC89BD890197A10954
:10100000B1098A8B9B8BAC8BBD8B88819981AA811E
:10101000BB812C853D854E855F85BC01CD016F5F11
:101020007F4F8F4F9F4F0E949417688379838A83E5
:101030009B83812F01C080E080939C0015C080912C
:101040009A008F7D80939A00E0916903F0916A0382
:1010500010821182128213821482158216821782E4
:10106000128A138A148A158AFF91EF91DF91CF912A
:10107000BF91AF919F918F917F916F915F914F91B0
:101080003F912F911F910F900BBE0F900FBE0F90AD
:101090001F90189508951F920F920FB60F9211246A
:1010A0000BB60F922F933F934F935F936F937F9362
:1010B0008F939F93AF93BF93EF93FF93E0911301AF
:1010C000F0911401099520917F033091800321153F
:1010D000310531F08CB59DB5820F931F9BBD8ABD44
:1010E000FF91EF91BF91AF919F918F917F916F9100
:1010F0005F914F913F912F910F900BBE0F900FBEBC
:101100000F901F9018951F920F920FB60F921124F7
:101110000BB60F922F933F934F935F936F937F93F1
:101120008F939F93AF93BF93EF93FF93E091110140
:10113000F0911201099520917D0330917E032115D4
:10114000310531F08CB59DB5820F931F99BD88BDD7
:10115000FF91EF91BF91AF919F918F917F916F918F
:101160005F914F913F912F910F900BBE0F900FBE4B
:101170000F901F9018951F920F920FB60F92112487
:101180000BB60F922F933F934F935F936F937F9381
:101190008F939F93AF93BF93EF93FF93E0910F01D2
:1011A000F0911001099520917B0330917C0321156A
:1011B000310541F08CB59DB5820F931F9093790056
:1011C00080937800FF91EF91BF91AF919F918F91A4
:1011D0007F916F915F914F913F912F910F900BBE37
:1011E0000F900FBE0F901F9018951F920F920FB681
:1011F0000F9211248F939F93AF93BF93809181039C
:1012000090918203A0918303B09184030196A11D64
:10121000B11D8093810390938203A0938303B093C5
:101220008403BF91AF919F918F910F900FBE0F904C
:101230001F9018951F920F920FB60F9211240BB6A4
:101240000F922F933F934F935F936F937F938F935F
:101250009F93AF93BF93EF93FF93E0910D01F091B4
:101260000E01099520917503309176032115310502
:1012700051F08091880090918900820F931F909384
:10128000870080938600FF91EF91BF91AF919F916E
:101290008F917F916F915F914F913F912F910F901F
:1012A0000BBE0F900FBE0F901F9018951F920F92BC
:1012B0000FB60F9211240BB60F922F933F934F93BB
:1012C0005F936F937F938F939F93AF93BF93EF93AE
:1012D000FF93E0910B01F0910C01099520917303AC
:1012E000309174032115310551F08091880090915F
:1012F0008900820F931F9093850080938400FF9153
:10130000EF91BF91AF919F918F917F916F915F917D
:101310004F913F912F910F900BBE0F900FBE0F90EA
:101320001F9018951F920F920FB60F9211240BB6B3
:101330000F922F933F934F935F936F937F938F936E
:101340009F93AF93BF93EF93FF93E0910901F091C7
:101350000A0109952091710330917203211531051D
:1013600051F08091880090918900820F931F909393
:10137000830080938200FF91EF91BF91AF919F9185
:101380008F917F916F915F914F913F912F910F902E
:101390000BBE0F900FBE0F901F9018951F920F92CB
:1013A0000FB60F9211248F939F93AF93BF938091A9
:1013B000770390917803A0917903B0917A03019615
:1013C000A11DB11D8093770390937803A0937903B7
:1013D000B0937A03BF91AF919F918F910F900FBE01
:1013E0000F901F901895FC01A089B1892D933C9313
:1013F000A681B78111965C934E937093140160930C
:10140000130106A4F7A5E02D8081806180830895F3
:10141000FC01A289B3892D933C93A085B1851196D7
:101420005C934E93709312016093110106A4F7A58B
:10143000E02D80818860808308954F925F926F9243
:101440007F928F929F92AF92BF92CF92DF92EF9254
:10145000FF920F931F93CF93DF938A0128EE33E01F
:1014600040E050E00E94C91729013A014B01D82FF2
:10147000C92F980140E050E060E070E081EE90E01C
:101480000E94941789019A0158016901E12CF12CFD
:1014900000E010E09201A301B4018D2F9C2F0E9467
:1014A000F217B901CA01DF91CF911F910F91FF90FF
:1014B000EF90DF90CF90BF90AF909F908F907F90F4
:1014C0006F905F904F9008954F925F926F927F92CE
:1014D0008F929F92AF92BF92CF92DF92EF92FF9244
:1014E0000F931F938B01BC0180E090E029E939E361
:1014F00040E050E00E94C9175801C12CD12CE12CCA
:10150000F12C00E010E00E94F21729013A01411489
:10151000510481E06806710450F021E331E045EDAB
:1015200050E065E471E082E691E00E946518C20136
:101530001F910F91FF90EF90DF90CF90BF90AF90F1
:101540009F908F907F906F905F904F900895CF9372
:10155000DF93CDB7DEB760970FB6F894DEBF0FBE4E
:10156000CDBF1A82198281E090E09C838B8388E052
:1015700090E09E838D8380E490E098878F8380E065
:1015800091E09A87898780E094E09C878B871E860C
:101590001D86188A1F86FE01E60FF11DE60FF11D5C
:1015A0008181928160960FB6F894DEBF0FBECDBFE9
:1015B000DF91CF910895CF93DF93EC018FE490E01A
:1015C000998388838EE490E09B838A838AE790E006
:1015D0009D838C838AE490E09F838E8388E490E0EF
:1015E0009987888788E790E09B878A8786E490E0E0
:1015F0009D878C878CE490E09F878E878FE793E0B0
:10160000998B888B8DE793E09B8B8A8B8BE793E09C
:101610009D8B8C8B86E590E09F8B8E8B8CE790E08A
:10162000998F888F81E893E09B8F8A8F1E8E1F8E03
:1016300018A219A21AA21BA21CA21DA21EA21FA2BE
:1016400018A619A61AA61BA61CA61DA687E590E03B
:101650009FA78EA78EB560FB80F98EBDEA81FB81C6
:1016600061FB992790F9808190FB81F98083EA8161
:10167000FB8162FB992790F9808190FB82F980833E
:10168000E881F981808140FB80F98083E881F981DC
:1016900041FB992790F9808190FB81F98083EA8151
:1016A000FB8142FB992790F9808190FB83F980832D
:1016B000EA81FB8143FB442740F9808140FB84F9A8
:1016C0008083CE0144DF9D8F8C8FEEA5FFA58081A6
:1016D00084608083DF91CF910895CF93DF93EC01F5
:1016E0008BE890E099838883EAE8F0E0FB83EA8363
:1016F0008CE890E09D838C8386E890E09F838E83C6
:1017000084E890E09987888782E890E09B878A87C1
:1017100080E890E09D878C8788E890E09F878E879F
:1017200085E793E0998B888B83E793E09B8B8A8B8B
:1017300081E793E09D8B8C8B86E590E09F8B8E8B71
:101740008CE790E0998F888F87E793E09B8F8A8F53
:101750001E8E1F8E18A219A21AA21BA21CA21DA2C5
:101760001EA21FA218A619A61AA61BA61CA61DA675
:101770008DE790E09FA78EA7808160FB80F9808332
:10178000EA81FB8161FB992790F9808190FB81F9C7
:101790008083EA81FB8162FB992790F9808190FB2D
:1017A00082F98083E881F981808140FB80F9808320
:1017B000E881F98141FB992790F9808190FB81F9BB
:1017C0008083EA81FB8142FB992790F9808190FB1D
:1017D00083F98083EA81FB8143FB442740F98081C0
:1017E00040FB84F98083CE01B2DE9D8F8C8FEEA505
:1017F000FFA5808184608083DF91CF910895FC01F3
:10180000108211821282138214821582168217822C
:10181000128A138A148A158A0895CF92DF92EF9262
:10182000FF920F931F93CF93DF938C016A017B018B
:10183000E901C114D104E104F10499F0F8018289AD
:101840009389A489B589892B8A2B8B2B51F0C801E8
:101850000E9457038993F1E0CF1AD108E108F108FB
:10186000E8CFDF91CF911F910F91FF90EF90DF9024
:10187000CF900895CF93DF93EC0178876F835A87D9
:1018800049873C872B8781E08D878EE890EEA1E029
:10189000B0E0ABBFFC01879190E09E838D8388E12F
:1018A0008A8380E390E00E949918FC019C838B83DB
:1018B0008BE392E09183808389E292E09383828339
:1018C00084E292E09583848389ED91E09783868317
:1018D00084EE91E09187808780EC91E09387828706
:1018E00087EB91E0958784878BE192E097878687E5
:1018F00082E192E0918B808B89E092E0938B828BE6
:1019000080E092E0958B848B86EF91E0978B868BBD
:101910008BEC91E0918F808F87E391E0938F828FA2
:101920008EE291E0958F848F88EA91E0978F868F81
:1019300085E991E091A380A38DE891E093A382A330
:101940008CE591E095A384A382E591E097A386A31B
:1019500081E891E091A780A783E392E093A782A713
:1019600085E791E095A784A788E691E097A786A7E9
:1019700019821882DF91CF9108958F929F92AF9232
:10198000BF92EF92FF920F931F93CF93DF93CDB748
:10199000DEB7A4970FB6F894DEBF0FBECDBFFB0134
:1019A000A485B5851196ED91FC9112973197EF3092
:1019B000F10508F0CFC17B018C01EA5BFF4F0C946D
:1019C000B617DC011B96ED91FC911C9786819781DF
:1019D0000E9493034B015C01B701F8018385948554
:1019E00037D5D8011B96ED91FC911C978681978184
:1019F0000E949303D8011B96ED91FC911C970285E0
:101A0000138524853585DC01CB01800F911FA21F32
:101A1000B31F88199909AA09BB0982879387A487EC
:101A2000B58798C115964D915D916D917C911897F0
:101A3000DC0117968D919C9118979E012F5F3F4F67
:101A40004096EBDED7011C96ED91FC911D978581A8
:101A50009681A781B085E1E0F0E0EC0FFD1FE80F73
:101A6000F91F1082BE016F5F7F4FF801818592855B
:101A700024D270C1DC0119968D919C911A975CD289
:101A8000F82EE92EBE016F5F7F4FF80181859285A8
:101A900000D2EF92FF929F938F9389E791E09F93FB
:101AA0008F930E94221A0F900F900F900F900F901B
:101AB0000F9050C1DC0117968D919C91189740961C
:101AC0000E945703682FC7010E94311743C1FC01D0
:101AD0008781908540960E945703482FB701D8010F
:101AE0001B968D919C911C97ECD5F8018781908570
:101AF000409685DE2FC188EA87BB14BA1ABA1092C5
:101B000061001092620015BA1BBA80E688BB22C140
:101B100013964D915C9114977E01FAE1EF0EF11C42
:101B200060E070E0C7010E948B01D80119968D9189
:101B30009C911A97D2D28EE491E09F938F93FF925B
:101B4000EF920E941E038E010F5F1F4FC8010E947B
:101B50009A0181E891E09F938F931F930F930E94C6
:101B6000B702C8010E9457024CC0CB010E94CD169B
:101B7000D80117968D919C911897409640DE8EE47F
:101B800091E09F938F9303D70F900F90E3C013962C
:101B90004D915C91149763E070E0FE0131967F01F6
:101BA000CF010E948B0165EC70E0C7010E94D20159
:101BB0006AEA70E0C7010E94D20166EB70E0C701DB
:101BC0000E94D2018FE394E00E9493039F938F932E
:101BD0007F936F938EE191E09F938F93FF92EF92AB
:101BE0000E94EC02D80111968C9111978F938C91E1
:101BF0008F9388E091E09F938F93FF92EF920E94E2
:101C0000EC02C7010E9457020FB6F894DEBF0FBE68
:101C1000CDBFA0C040E050E060E070E0CE01019692
:101C20007C010E948B0160E971E0C7010E94B00154
:101C3000D8011B96ED91FC911C9781898F93808927
:101C40008F938FE991E09F938F93FF92EF920E9481
:101C50008202D8011B96ED91FC911C9787858F938A
:101C600086858F9383EB91E09F938F93FF92EF9202
:101C70000E948202D8011B96ED91FC911C97178659
:101C80001686118A108ABDCF13964D915C911497D8
:101C900060E070E0CE0101960E948B0168EC71E07B
:101CA000CE0101960E947202CE0101960E94570257
:101CB00061E0D80115968D919C9116970E94251D83
:101CC00098E088E10FB6F894A89581BD0FBE91BD4C
:101CD000FFCF13964D915C91149763E070E0FE0185
:101CE00031967F01CF010E948B018EEE90E09F9391
:101CF0008F93FF92EF920E941E03C7010E9457022A
:101D000060E0D80115968D919C9116970E94251D33
:101D10000F900F900F900F901DC013964D915C91F6
:101D2000149760E070E0CE0101960E948B016CEE8A
:101D300072E0CE0101960E947202CE0101960E94CD
:101D4000570298E088E10FB6F894A89581BD0FBEC0
:101D500091BDFFCF81E0A4960FB6F894DEBF0FBE11
:101D6000CDBFDF91CF911F910F91FF90EF90BF906A
:101D7000AF909F908F9008950F931F93CF93DF9311
:101D8000CDB7DEB72B970FB6F894DEBF0FBECDBF31
:101D90008B01DB011C96ED91FC911D972181328115
:101DA0002E3FBFEF3B07D1F02F3F3F4FA1F5DC01A6
:101DB00017968D919C911897409621DDD8011C961D
:101DC000ED91FC911D974381548161817281CE0117
:101DD00001960E948B016AE471E014C0FC018781C6
:101DE000908540960CDDD8011C96ED91FC911D97D5
:101DF0004381548161817281CE0101960E948B01E1
:101E000066E471E0CE0101960E947A02CE0101964D
:101E10000E94570201C0B1DD2B960FB6F894DEBFC9
:101E20000FBECDBFDF91CF911F910F910895FC019F
:101E3000718360830895FC012285211104C080898B
:101E400091890C9431190895CF93DF93EC01798334
:101E500068838FE78A835E834D8382E090E00E94EF
:101E6000141D8B8381E090E00E94141D8C8388EA0E
:101E700087BB14BA1ABA109261001092620015BAA8
:101E80001BBA80E688BB8AB7806C8ABFDF91CF918E
:101E90000895CF93DF93EB01FC016381FBE16F9F1A
:101EA000B00111246D5F7F4F49E150E0CE010E94E7
:101EB000041DCE01DF91CF910895EF92FF920F9311
:101EC0001F93CF93DF93CDB7DEB769970FB6F89422
:101ED000DEBF0FBECDBF8C017B01BE016F5F7F4FA8
:101EE000D8DFBE016F5F7F4FC7010E94C719892BE2
:101EF000A9F0B701CE0101960E94D019F8016381C3
:101F0000FBE16F9FB00111246D5F7F4F49E150E00D
:101F1000CE0101960E941C1D81E001C080E06996FF
:101F20000FB6F894DEBF0FBECDBFDF91CF911F91EA
:101F30000F91FF90EF900895CF93DF9300D0CDB72E
:101F4000DEB7FC016381FBE16F9FB0011124645E89
:101F50007F4F42E050E0CE0101960E94041D89812E
:101F60009A810F900F90DF91CF910895CF92DF92D9
:101F7000EF92FF920F931F93CF93DF9388EE87BB6F
:101F80008FEF809361008ABB84BB88EA88BBEB013A
:101F9000C801D9016C017D01C40ED51EE11CF11CE4
:101FA00058E048EA9E01261B370B8C159D05AE05AF
:101FB000BF0560F50097E1E0AE07B10568F4FC01EC
:101FC000249120936200D5BBCBBB58BB48BB019684
:101FD000A11DB11D2196E6CF58E048EAABBFFC0138
:101FE000C791C0936200FB01E20FF31FF5BBE62F20
:101FF000E20FEBBB58BB48BB0196A11DB11D2F5F83
:102000003F4F8C159D05AE05BF0540F388EA87BBA1
:1020100014BA1ABA109261001092620015BA1BBA73
:1020200080E688BBDF91CF911F910F91FF90EF90D9
:10203000DF90CF900895EF92FF920F931F93CF936D
:10204000DF937C0181E090E00E94141DD70114967B
:102050008C9314978823D1F1E0917804F09179045E
:102060002181C1E0D0E0CE010090770402C0880F4A
:10207000991F0A94E2F7822B81831596ED91FC91CA
:102080001697008111812281338140E050E860E0A1
:1020900070E0C7016BDFE0917804F09179048181F1
:1020A0000090770402C0CC0FDD1F0A94E2F7C095C0
:1020B000C823C18388EA87BB14BA1ABA1092610098
:1020C0001092620015BA1BBA80E688BBDF91CF91EF
:1020D0001F910F91FF90EF900895EF92FF920F9351
:1020E0001F93CF93DF9327E7E22E24E0F22ED70150
:1020F0001196ED91FC9112974181C1E0D0E09E01D3
:102100000C9002C0220F331F0A94E2F7242B218384
:10211000DC011596ED91FC911697008111812281C9
:10212000338140E050E860E070E020DFD701119695
:10213000ED91FC91129781810C9002C0CC0FDD1FB4
:102140000A94E2F7C095C823C183DF91CF911F9114
:102150000F91FF90EF9008951F920F920FB60F927C
:1021600011240BB60F922F933F934F935F936F936E
:102170007F938F939F93AF93BF93EF93FF93E091E0
:102180002301F09124010995FF91EF91BF91AF9147
:102190009F918F917F916F915F914F913F912F917F
:1021A0000F900BBE0F900FBE0F901F9018951F92AF
:1021B0000F920FB60F9211240BB60F922F933F93ED
:1021C0004F935F936F937F938F939F93AF93BF933F
:1021D000EF93FF93E0912101F09122010995FF9186
:1021E000EF91BF91AF919F918F917F916F915F918F
:1021F0004F913F912F910F900BBE0F900FBE0F90FC
:102200001F9018951F920F920FB60F9211240BB6C4
:102210000F922F933F934F935F936F937F938F937F
:102220009F93AF93BF93EF93FF93E0911F01F091C2
:1022300020010995FF91EF91BF91AF919F918F91EF
:102240007F916F915F914F913F912F910F900BBEB6
:102250000F900FBE0F901F9018951F920F920FB600
:102260000F9211240BB60F922F933F934F935F93CE
:102270006F937F938F939F93AF93BF93EF93FF934E
:10228000E0911D01F0911E010995FF91EF91BF9121
:10229000AF919F918F917F916F915F914F913F91FE
:1022A0002F910F900BBE0F900FBE0F901F9018959F
:1022B0001F920F920FB60F9211240BB60F922F930D
:1022C0003F934F935F936F937F938F939F93AF93BE
:1022D000BF93EF93FF93E0911B01F0911C010995CF
:1022E000FF91EF91BF91AF919F918F917F916F91EE
:1022F0005F914F913F912F910F900BBE0F900FBEAA
:102300000F901F9018951F920F920FB60F921124E5
:102310000BB60F922F933F934F935F936F937F93DF
:102320008F939F93AF93BF93EF93FF93E091190126
:10233000F0911A010995FF91EF91BF91AF919F9193
:102340008F917F916F915F914F913F912F910F905E
:102350000BBE0F900FBE0F901F9018951F920F92FB
:102360000FB60F9211240BB60F922F933F934F93FA
:102370005F936F937F938F939F93AF93BF93EF93ED
:10238000FF93E0911701F09118010995FF91EF91EA
:10239000BF91AF919F918F917F916F915F914F917D
:1023A0003F912F910F900BBE0F900FBE0F901F907B
:1023B00018951F920F920FB60F9211240BB60F9221
:1023C0002F933F934F935F936F937F938F939F933D
:1023D000AF93BF93EF93FF93E0911501F091160136
:1023E0000995FF91EF91BF91AF919F918F917F914F
:1023F0006F915F914F913F912F910F900BBE0F9076
:102400000FBE0F901F9018950F931F93DA01B3958D
:102410008B019C01011580E118072105310518F495
:10242000F801849103C02BBFF8018791FA019191C3
:10243000AF01891309C00F5F1F4F2F4F3F4FEA179E
:10244000FB0741F780E001C081E01F910F910895E3
:102450002F923F924F925F926F927F928F929F92B4
:10246000AF92BF92CF92DF92EF92FF920F931F93A2
:10247000CF93DF93CDB7DEB72B970FB6F894DEBFBF
:102480000FBECDBF8C016B01DC011496ED91FC9168
:102490001597E0A0F1A08091080190E0F701E80F06
:1024A000F91F3080BFE0B315C8F4DB011C96ED9135
:1024B000FC911D974381548161E070E0CE0101964B
:1024C0000E948B0164E472E0CE0101960E947A02C0
:1024D000CE0101960E94570280E0CAC0832C912C45
:1024E000982C8824990C990C990C092C000CAA089A
:1024F000BB080196E80EF91E412C512C3201212C0B
:10250000F80180819181A281B381880D991DAA1D56
:10251000BB1DBC01CD01640D751D861D971DA70156
:1025200073DF882341F1F801A085B1851196ED9103
:10253000FC911297218181E090E00C9002C0880FFD
:10254000991F0A94E2F782278183F80180819181A3
:10255000A281B381880D991DAA1DBB1DBC01CD01AF
:10256000640D751D861D971D0288F389E02DA70156
:10257000099522242394A895FFEF5F1A6F0A7F0A1A
:10258000F394411488E058066104710409F0B8CF4F
:10259000F801A085B1851196ED91FC9112972181EA
:1025A00081E090E00C9002C0880F991F0A94E2F736
:1025B000809582238183CE0101967C012220D1F077
:1025C0000E949A011F923F9289E892E09F938F9315
:1025D000FF92EF920E94B702C7010E945702D801F2
:1025E00050968D919C915197019651969C938E9304
:1025F00050970FC00E949A011F923F9288E992E083
:102600009F938F93FF92EF920E94B702C7010E949F
:1026100057020F900F900F900F900F900F90F801AE
:10262000868597850196978786870480F581E02DBA
:10263000108A118A128A138A148A158A168A178AAE
:1026400012A213A214A215A2D6011C96ED91FC9120
:102650001D974381548160E070E0C7010E948B01A7
:1026600060E3C7010E945802C7010E94570281E03F
:102670002B960FB6F894DEBF0FBECDBFDF91CF9182
:102680001F910F91FF90EF90DF90CF90BF90AF9090
:102690009F908F907F906F905F904F903F902F9082
:1026A000089524E0629FF0011124EB5DFE4F40810C
:1026B000518162817381FC01408351836283738302
:1026C00008958F929F92AF92BF92CF92DF92EF9236
:1026D000FF920F931F93CF93DF93CDB7DEB72B9766
:1026E0000FB6F894DEBF0FBECDBF8C01F42EDB0118
:1026F0001C96ED91FC911D974381548160E070E040
:10270000CE0101960E948B01BFE0BF1540F498E016
:1027100088E10FB6F894A89581BD0FBE91BD4F2DED
:1027200050E0542F4427550F550F550F4A01E8EF3D
:102730009E1A052E000C660B770BD801CD90DD900C
:10274000ED90FC90C40ED51EE61EF71EA12CB12CF8
:10275000F80180819181A281B381880D991DAA1D04
:10276000BB1DC816D906EA06FB06B0F4C114F0E199
:10277000DF06E104F10418F4F601649103C0EBBE36
:10278000F6016791CE0101960E94FA01FFEFCF1A80
:10279000DF0AEF0AFF0ADCCFCE0101960E94570242
:1027A0002B960FB6F894DEBF0FBECDBFDF91CF9151
:1027B0001F910F91FF90EF90DF90CF90BF90AF905F
:1027C0009F908F900895E0917F04F091800480E0C5
:1027D00090E0309749F0029620813181820F931F5B
:1027E0000280F381E02DF5CF08950F931F93CF93CF
:1027F000DF9300D0CDB7DEB780917D0490917E0449
:102800008E010F5F1F4F009729F4075814401A8359
:10281000098309C0081B190B1A830983D4DF800FB1
:10282000911F9A83898389819A810F900F90DF91FC
:10283000CF911F910F910895CF93DF93AAE7B4E052
:102840001196ED91FC911297218181E090E00C901E
:1028500002C0880F991F0A94E2F780958223818332
:10286000EFE3F4E0A685B785CD91DC91648D758D9D
:1028700088EE93E00E94640AAC014C0F5D1F20E0DB
:1028800030E064E874E18FE394E0DF91CF910C9441
:10289000F309ABDF9C0160917104709172046115C2
:1028A000710559F0E0E1F7E2CF012AD3CF0128D337
:1028B00084E690E0861B970B02C084E690E040918E
:1028C0007304509174044817590720F490937404CA
:1028D0008093730480916F04909170048217930722
:1028E00020F43093700420936F04109272041092BD
:1028F00071040895682F80917504909176040E9468
:10290000B50580E090E00895CF93DF93AAE7B4E0A7
:102910001196ED91FC911297218181E090E00C904D
:1029200002C0880F991F0A94E2F7822B8183EFE39C
:10293000F4E0A685B785CD91DC91648D758D81E03D
:1029400090E00E94640AAC014C0F5D1F20E030E073
:102950006CE174E18FE394E0DF91CF910C94F30983
:10296000E1E0F4E08AE794E191878087138612869C
:1029700082E0838315861486A1E8B4E01396FC9365
:10298000EE9312971596FC93EE93149708950F9378
:102990001F93CF93DF93CDB7DEB7AE01495F5F4F93
:1029A000FA0161917191AF01809183049091840447
:1029B0005CD58C0160E080917504909176040E9452
:1029C000B505C801DF91CF911F910F91089583EC58
:1029D00093E00895CF93DF93CDB7DEB7C255D10909
:1029E0000FB6F894DEBF0FBECDBFE0914D04F0915D
:1029F0004E0480819181E0915904F0915A04408104
:102A0000518162817381A0E0B0E080935D04909376
:102A10005E04A0935F04B0936004409361045093FC
:102A20006204609363047093640403EC13E01DA7D5
:102A30000CA78FE394E09FA78EA787E794E099AB5C
:102A400088AB60E0CE0188962CDE8CE890EEA1E0A9
:102A5000B0E0ABBFFC01879196919BAF8AAF1AAAF9
:102A60001BAA1CAA1DAA1FAA1EAA19AE18AEAE0147
:102A7000485D5F4FB801CE01865B9F4FE5D9CE011F
:102A8000865B9F4FD8DAE0914D04F0914E04E080D0
:102A9000F180E0915904F0915A04408151816281A2
:102AA0007381E0915B04F0915C04809161049091EA
:102AB0006204A0916304B09164049A01AB01281BE5
:102AC000390B4A0B5B0BAFEFBFEF59D24701A12C7B
:102AD000B12CC0905D04D0905E04E0905F04F09053
:102AE0006004A50194012C193D094E095F09620F8C
:102AF000731F841F951FAF010E941D0A63967FAF4D
:102B00006EAF63971093760400937504789428DF72
:102B100060915B0470915C0484EF91E00E94640A10
:102B2000E0914D04F0914E04408151814C595F4F2A
:102B30009C0164E874E18FE394E00E94F3096091E2
:102B40005B0470915C0484E690E00E94640AE0916A
:102B50004D04F0914E04408151814C595F4F9C01CE
:102B600069E474E18FE394E00E94080A9E01285D05
:102B70003F4FAE01465B5F4FB801CE01CC960E943D
:102B80003A0C63966EAD7FAD6397CE01CC964FD96C
:102B9000CE018F5A9F4F65D31092D3031092D40366
:102BA0001092D5031092D6031092D7031092D80337
:102BB0001092D9031092DA031092E5031092E60303
:102BC0001092E7031092E8030FB6F894A89581B528
:102BD000886181BD11BC0FBE40E050E063E070E051
:102BE000CE0101967C010E948B0180EF92E09F93C1
:102BF0008F93FF92EF920E94B702C7010E94570283
:102C00000F900F900F900F9000ED17E0C12CD12C7A
:102C100094E6A92EB12C013A9FE0190730F40F5F1A
:102C20001F4F003A2FE0120778F0C601B50168D1B6
:102C3000892B51F485E6982E6EE683EC93E00E9492
:102C4000B5059A949110F8CF3FEFC31AD30A80913B
:102C500071049091720401969093720480937104B0
:102C600086E69EE00197F1F700004091E503509160
:102C7000E6036091E7037091E8038091080190E01A
:102C8000A0E0B0E0481759076A077B0720F263ED20
:102C900073E0C7010E94AC048FA1882331F0B70113
:102CA000CE01CC9669D800E010E0CE014196C3D8A1
:102CB000B2CF8F929F92AF92BF92CF92DF92EF925C
:102CC000FF920F931F93EAE7F4E087E0808381E3AC
:102CD00090E0928381838F9AE7E7F4E026E02083F7
:102CE000928381838E9AEFE6F4E011821082138240
:102CF00012821582148240E065E08FE394E00E9426
:102D0000DB0A40E065E08FE094E00E946D0B80E814
:102D1000882E912CA12CB12C9EE1C92E98E0D92EA1
:102D2000E12CF12C0FE314E020E032EC41E050E024
:102D300061E083EC93E00E94120624E1822E912C44
:102D4000A12CB12C34E1C32ED12CE12CF12C20E8A4
:102D500035E240E050E060E085E893E00E94120632
:102D60001F910F91FF90EF90DF90CF90BF90AF90A9
:102D70009F908F9008958BEA93E05DD885E993E06A
:102D80005AD889EE93E057D883ED93E054C890E089
:102D900000009F5F8917E0F70895CF92DF92EF92CE
:102DA000FF920F931F93E0917B04F0917C0441818B
:102DB00021E030E000907A0402C0220F331F0A9411
:102DC000E2F7242B218328EE27BB2FEF209361000D
:102DD0002ABB24BB28EA28BB40E050E078E068EA40
:102DE0008A0120E030E0DC011C96ED91FC911D97FA
:102DF000C580D680E780F0840C151D052E053F05A3
:102E0000E0F41E96ED91FC911F9720910801DA01E4
:102E1000A20FB11D0088F189E02DEA0FFB1F22816E
:102E200020936200218125BB20812BBB78BB68BB2E
:102E300078BB68BB4D5F5F4FD3CF88EA87BB14BABE
:102E40001ABA109261001092620015BA1BBA80E69D
:102E500088BB81E01F910F91FF90EF90DF90CF90A2
:102E60000895EF92FF920F931F93CF93DF93CDB707
:102E7000DEB72B970FB6F894DEBF0FBECDBF062F7F
:102E8000DC011C96ED91FC911D974381548160E01B
:102E900070E0CE0101960E948B0188EC87BB1092F6
:102EA00061008FEF8ABB84BB88EA88BB10E0102FDB
:102EB0000027110F110F110F7801B8EFFB1A0E1533
:102EC0001F0568F415BB0BBBC79885E060DF60B1D8
:102ED000CE0101960E94FA010F5F1F4FF0CFCE0185
:102EE00001960E9457022B960FB6F894DEBF0FBED4
:102EF000CDBFDF91CF911F910F91FF90EF9008957B
:102F0000AA1BBB1B51E107C0AA1FBB1FA617B7070F
:102F100010F0A61BB70B881F991F5A95A9F780952B
:102F20009095BC01CD010895A1E21A2EAA1BBB1BEE
:102F3000FD010DC0AA1FBB1FEE1FFF1FA217B30785
:102F4000E407F50720F0A21BB30BE40BF50B661F9B
:102F5000771F881F991F1A9469F76095709580955F
:102F600090959B01AC01BD01CF010895EE0FFF1FAD
:102F70000024001C0BBE0790F691E02D09948ED022
:102F8000A59F900DB49F900DA49F800D911D1124BD
:102F90000895E894DF93CF93FC01DB017FD07F930A
:102FA0006F93E9019A01AC01BF93AF933F932F93C5
:102FB000DF0174D026F46C1B7D0B820B930B9E01FA
:102FC000EB01FC017AD0AF91BF912F913F9175D069
:102FD000BE01CF01F9012F913F91CF91DF9108956B
:102FE000689401C0E8948F929F92CF93DF9305D0AD
:102FF000DF91CF919F908F90089588249924F401B8
:10300000E401B0E49F93AA279A158B049C04ED0574
:10301000FE05CF05D007A10798F4AD2FDC2FCF2FE9
:10302000FE2FE92D982C892E982F872F762F652F2C
:10303000542F432F322F2227B85031F7BF9127C08A
:103040001B2EBF91BB27220F331F441F551F661F26
:10305000771F881F991F881C991CEE1FFF1FCC1F0C
:10306000DD1FAA1FBB1F8A149B04EC05FD05CE05BE
:10307000DF05A007B10748F08A189B08EC09FD0995
:10308000CE09DF09A00BB10B21601A94E1F62EF4F2
:103090009401AF01BE01CD01000C0895A29FB001C3
:1030A000B39FC001A39F700D811D1124911DB29F7C
:1030B000700D811D1124911D0895F0DF460F571FDB
:1030C000C81FD91F08F431960895F0918604E09145
:1030D00085040097B1F45F934F937F936F933F9371
:1030E0002F9386EF92E09F938F93FF93EF935FD19F
:1030F0008DB79EB70A960FB6F8949EBF0FBE8DBFD0
:1031000017C05F934F937F936F939F938F933F93DA
:103110002F9381E293E09F938F93FF93EF9347D197
:103120008DB79EB70C960FB6F8949EBF0FBE8DBF9D
:1031300021D10F931F93CF93DF938230910510F429
:1031400082E090E0E0917F04F091800420E030E0A4
:10315000A0E0B0E0309719F14081518102811381E4
:1031600048175907C8F08417950769F4109731F08C
:1031700012960C93129713961C9327C000937F040A
:103180001093800422C02115310519F0421753070E
:1031900018F49A01BD01EF01DF01F801DBCF211521
:1031A0003105F9F0281B390B2430310580F48A8170
:1031B0009B816115710521F0FB019383828304C01B
:1031C0009093800480937F04FE01329644C0FE01F8
:1031D000E20FF31F819391932250310939832883A1
:1031E0003AC020917D0430917E04232B41F420913C
:1031F00002013091030130937E0420937D042091DD
:103200000001309101012115310541F42DB73EB780
:103210004091040150910501241B350BE0917D0480
:10322000F0917E04E217F307A0F42E1B3F0B281742
:10323000390778F0AC014E5F5F4F2417350748F02F
:103240004E0F5F1F50937E0440937D0481939193B2
:1032500002C0E0E0F0E0CF01DF91CF911F910F912C
:103260000895CF93DF93009709F481C0FC01329752
:1032700013821282A0917F04B0918004109781F490
:1032800020813181820F931F20917D0430917E0433
:103290002817390751F5F0937E04E0937D0467C049
:1032A000ED0120E030E0CE17DF0740F44A815B817A
:1032B0009E0141155105F1F0EA01F5CFD383C28398
:1032C00040815181840F951FC817D90759F488810F
:1032D0009981840F951F0296918380838A819B81B7
:1032E000938382832115310529F4F0938004E093C0
:1032F0007F043DC0E901FB83EA8349915991C40FE2
:10330000D51FEC17FD0761F480819181840F951F13
:103310000296E90199838883828193819B838A83C2
:10332000E0E0F0E012968D919C911397009719F0D0
:10333000FD01DC01F7CF8D919C9111979D012E5FCE
:103340003F4F820F931F20917D0430917E042817F8
:10335000390769F4309729F41092800410927F04A1
:1033600002C013821282B0937E04A0937D04DF9189
:10337000CF91089581E090E0F89474C3FC0105902A
:103380000020E9F7809590958E0F9F1F0895FB010F
:10339000DC018D91019080190110D9F3990B0895EA
:1033A000FB01DC0101900D920020E1F70895CF931D
:1033B000DF93CDB7DEB7AE01475F5F4F6F81788592
:1033C0008D819E81B0D0DF91CF9108950F931F938F
:1033D000CF93DF93FB01238121FD03C08FEF9FEF8C
:1033E0002CC022FF16C046815781248135814217A7
:1033F000530744F4A081B1819D012F5F3F4F31837A
:1034000020838C93268137812F5F3F4F378326831C
:1034100014C08B01EC01FB010084F185E02D0995BE
:10342000892BE1F6D80116968D919C9117970196FC
:1034300017969C938E931697CE01DF91CF911F9193
:103440000F910895CF93DF93CDB7DEB7AE014B5FF9
:103450005F4FFA0161917191AF0180918304909166
:10346000840461D0DF91CF910895CF93DF93EC0175
:103470008B8188608B83CE0156D02B81277F2B8355
:10348000DF91CF9108950F931F93CF93DF93CDB723
:10349000DEB72E970FB6F894DEBF0FBECDBF8C01FE
:1034A00086E08C831A8309838FEF9FE79E838D8349
:1034B000CE01019638D0EF81F885E00FF11F108220
:1034C0002E960FB6F894DEBF0FBECDBFDF91CF9121
:1034D0001F910F9108950F931F93CF93DF93CDB753
:1034E000DEB72E970FB6F894DEBF0FBECDBF8C01AE
:1034F0008EE08C831A8309838FEF9FE79E838D83F1
:10350000CE01019610D0EF81F885E00FF11F1082F7
:103510002E960FB6F894DEBF0FBECDBFDF91CF91D0
:103520001F910F9108952F923F924F925F926F9249
:103530007F928F929F92AF92BF92CF92DF92EF9243
:10354000FF920F931F93CF93DF93CDB7DEB72B97E7
:103550000FB6F894DEBF0FBECDBF6C017B018A01B0
:10356000FC0117821682838181FFBFC1CE010196C3
:103570003C01F6019381F70193FD859193FF8191C1
:103580007F01882309F4ADC1853239F493FD85911B
:1035900093FF81917F01853221F4B60190E016DF1F
:1035A000E8CF912C212C312CFFE1F315D8F08B3290
:1035B00079F038F4803279F08332A1F4232D206140
:1035C0001DC08D3261F0803369F4232D216016C057
:1035D000832D8260382EE32DE4603E2E2AC0F32D29
:1035E000F8601DC037FC2DC020ED280F2A3040F0B8
:1035F0008E32B9F436FC75C1232D2064322E19C0E9
:1036000036FE06C08AE0989E200D1124922E11C02D
:10361000EAE02E9E200D1124222EF32DF0623F2E83
:1036200008C08C3621F4832D8068382E02C088367D
:1036300041F4F70193FD859193FF81917F01811101
:10364000B3CF982F9F7D9554933028F40C5F1F4F74
:103650009FE399830DC0833631F0833771F0833552
:1036600009F055C020C0F801808189830E5F1F4F8B
:1036700088248394912C530112C02801F2E04F0E4C
:10368000511CF801A080B18036FE03C0692D70E0A6
:1036900002C06FEF7FEFC5014ED14C018201F32DC7
:1036A000FF773F2E15C0280122E0420E511CF80181
:1036B000A080B18036FE03C0692D70E002C06FEFBC
:1036C0007FEFC5012DD14C01F32DF0683F2E820113
:1036D00033FC19C0822D90E088169906A0F4B6013B
:1036E00080E290E073DE2A94F5CFF50137FC8591F6
:1036F00037FE81915F01B60190E068DE21102A94C7
:1037000021E0821A91088114910479F7E1C084368E
:1037100011F0893639F5F80137FE07C060817181F3
:10372000828193810C5F1F4F08C060817181072ED9
:10373000000C880B990B0E5F1F4FF32DFF763F2E69
:1037400097FF09C090958095709561957F4F8F4F39
:103750009F4FF0683F2E2AE030E0A301F7D0882E7B
:10376000861844C0853731F4232D2F7EB22E2AE0EF
:1037700030E025C0932D997FB92E8F36C1F018F413
:10378000883579F0AEC0803719F0883721F0A9C0AC
:10379000E92FE061BE2EB4FE0DC0FB2DF460BF2EFC
:1037A00009C034FE0AC0292F2660B22E06C028E0C8
:1037B00030E005C020E130E002C020E132E0F80155
:1037C000B7FE07C060817181828193810C5F1F4FBA
:1037D00006C06081718180E090E00E5F1F4FA30101
:1037E000B5D0882E8618FB2DFF773F2E36FE0DC0F4
:1037F000232D2E7FA22E891458F434FE0BC032FCE8
:1038000009C0832D8E7EA82E05C0B82CA32C03C022
:10381000B82C01C0B92CA4FE0FC0FE01E80DF11DAB
:103820008081803321F49A2D997EA92E09C0A2FEB1
:1038300006C0B394B39404C08A2D867809F0B3947B
:10384000A3FC10C0A0FE06C0B21480F4280C922C79
:103850009B180DC0B21458F4B60180E290E0B6DDBA
:10386000B394F8CFB21418F42B1802C0982C212C62
:10387000A4FE0FC0B60180E390E0A8DDA2FE16C052
:10388000A1FC03C088E790E002C088E590E0B601A3
:103890000CC08A2D867851F0A1FE02C08BE201C0D7
:1038A00080E2A7FC8DE2B60190E090DD891430F44F
:1038B000B60180E390E08ADD9A94F8CF8A94F30110
:1038C000E80DF11D8081B60190E080DD8110F6CF1A
:1038D000222009F44ECEB60180E290E077DD2A94F2
:1038E000F7CFF6018681978102C08FEF9FEF2B966D
:1038F0000FB6F894DEBF0FBECDBFDF91CF911F9101
:103900000F91FF90EF90DF90CF90BF90AF909F907E
:103910008F907F906F905F904F903F902F90089581
:10392000FC010590615070400110D8F7809590958A
:103930008E0F9F1F0895FC0161507040019001108F
:10394000D8F7809590958E0F9F1F0895FA01AA27AA
:10395000283051F1203181F1E8946F936E7F6E5FD2
:103960007F4F8F4F9F4FAF4FB1E03ED0B4E03CD080
:10397000670F781F891F9A1FA11D680F791F8A1F63
:10398000911DA11D6A0F711D811D911DA11D20D0CA
:1039900009F468943F912AE0269F11243019305D84
:1039A0003193DEF6CF010895462F4770405D419375
:1039B000B3E00FD0C9F7F6CF462F4F70405D4A33C2
:1039C00018F0495D31FD4052419302D0A9F7EACF8A
:1039D000B4E0A6959795879577956795BA95C9F7B9
:1039E00000976105710508959B01AC010A2E0694AC
:1039F0005795479537952795BA95C9F7620F731F65
:103A0000841F951FA01D0895DC01CB01FC01E199E5
:103A1000FECF06C0FFBBEEBBE09A31960DB20D9211
:103A200041505040B8F70895E199FECF9FBB8EBB3F
:103A3000E09A99278DB30895DC01CB0102C02D9146
:103A400005D041505040D8F70895262FE199FECF78
:103A50009FBB8EBB2DBB0FB6F894E29AE19A0FBEC6
:103A60000196089511E0C7E2D1E003C0FE017EDABD
:0C3A70002196C832D107D1F7F894FFCF9F
:103A7C00000087042000C00A0C4A084A084A084A79
:103A8C00084A084A084A084A084A084A084A084A9A
:103A9C00084A084A080060000000E00000006001CD
:103AAC00006379636C6573203C3D203078666666F4
:103ABC0066554C4C002E2E2F61746D3132385F746C
:103ACC00696D6572732F74696D65725F722E6370A8
:103ADC0070006D735F746F5F6379636C6573002541
:103AEC00642025632025640A003E25737C25753CE3
:103AFC00005372616D2072656C6F616465640A00BD
:103B0C0077726974696E672073746174730A0070DC
:103B1C0061636B657473207772697474656E2025AC
:103B2C00640A007061636B65747320726563656908
:103B3C007665642025640A00626F6F746C6F616433
:103B4C006572003078256C780A0062616E6B2564B2
:103B5C00736574006E616D655F776561723A25738C
:103B6C007C25750073657474696E67206E616D6574
:103B7C003A202573006370753A253035753A253037
:103B8C0033750A0064696769646961672025640A92
:103B9C00002E2E2F666C6173685F77726974657284
:103BAC002E6370700054696D656F757420696E209A
:103BBC0025732E2046696C652025730A00526563B7
:103BCC0065697665642062797465733A2025752C75
:103BDC00200065787065637465643A2025750A0069
:103BEC000A45726173696E67206174206164647246
:103BFC0065737320256C640A005041434B45543A5D
:103C0C0020253264205752005041434B45543A20F2
:103C1C00253264202D2D00667772697465725F728F
:103C2C0065616479005061636B65747320726563C0
:103C3C006569766564202564206F7574206F662035
:103C4C00256400496E76616C6964206275666665F0
:103C5C007220706F696E7465720A006E61636B001E
:103C6C0048454C4C4F00417373657274696F6E20FC
:103C7C006661696C65643A20282573292C20666975
:103C8C006C652025732C206C696E652025642E0ACA
:103C9C0000417373657274696F6E206661696C653F
:103CAC00643A20282573292C2066756E6374696F1D
:103CBC006E2025732C2066696C652025732C206C76
:0A3CCC00696E652025642E0A0000D1
:00000001FF
