:10000000CEC100000C946A140C9495140C94C01486
:100010000C94EB140C9416150C9441150C946C155F
:100020000C949715E6C10000E4C10000E2C1000095
:100030000C94270B0C945F0B0C94D10BDAC10000CD
:10004000D8C10000D6C100000C94CE090C94FB0965
:10005000D0C10000CEC10000CCC10000CAC1000068
:100060000C94970BC6C100000C94F60B0C94320C48
:100070000C946E0C0C94AA0C0C946A0A0C94A20AB0
:10008000B8C10000B6C10000B4C100001D10691065
:100090001F124E105B106F107C10A910B210F510DB
:1000A0002F1154111F12781195119C11A311AF112A
:1000B000B3116470617463680096AD8102240220FC
:1000C00016D6AE80021B97AFD6AF58CE55BF3A1AA0
:1000D000EE0018A60097AF96AD810027022004C657
:1000E000F5D7AF96AD81012702200A86FFD6AE5420
:1000F00054541097AF96AD81092702200BD6AE86D7
:10010000081B97AE86FF97AD96AE81382202200479
:10011000C600D7AE18CEB000D6AFB6B02E2AFBF7C9
:10012000B02F7C00ADCC0350F3B00EFDB01686802E
:10013000B7B023181C22803BB7B0098630B7B02B6C
:100140008608B7B02D181C2280CC0000DDAD394EDA
:100150006F762032352032303139000A566572739D
:10016000696F6E3A52322E325F313932343131009A
:100170000A425420454550524F4D20454D554C4163
:10018000544F5220520A436F6D70696C6174696FED
:100190006E20646174653A0064697361626C696EB3
:1001A0006720626F6F746C6F61646572000A5372CE
:1001B000616D206C6F6164656420696E2025752017
:1001C0006D73000A4F6E54696D653A20256C752079
:1001D0006D730042616E6B206E616D652073657496
:1001E0003A202573007061636B65747320726563D8
:1001F00065697665642025640A007061636B6574C7
:1002000073207772697474656E2025640A007772B2
:100210006974696E672073746174730A0053726144
:100220006D2072656C6F616465640A0062616E6B5B
:100230006E616D653A257300656D756C6174653A24
:10024000007365745F62616E6B5F6E616D653A002D
:10025000647478006E616B0061636B00626F6F7431
:100260006C6F6164657200726561645F6279746568
:100270000073656E6465725F7465737400646967AA
:1002800069646961675F6F6666006469676964696C
:1002900061675F6F6E0077726974696E6774696D0C
:1002A000650076657273696F6E0064697361626C74
:1002B000655F626F6F746C6F616465720072756EFA
:1002C0005F626F6F746C6F61646572006370755FFD
:1002D0006C6F61640065726173655F62616E6B0073
:1002E0006765745F62616E6B5F696E666F00626105
:1002F0006E6B735F696E666F0072657365745F62C3
:10030000616E6B735F73746174730062616E6B69AD
:100310006E7573650062616E6B6164647200626128
:100320006E6B337365740062616E6B32736574005B
:1003300062616E6B317365740068656C7000686132
:100340006E647368616B65007278666C75736800C3
:100350007265736574656D750064686964006F6FBC
:10036000720061636B000A52656C6561736520669B
:100370006C61673A202564000A56657273696F6E76
:100380003A52322E325F31393234313100454D55D7
:10039000425452200000FA017C06DC1A3D1B112455
:1003A0001FBECFEFD0E1DEBFCDBF12E0A0E0B1E0D5
:1003B000E6E7F4E400E00BBF02C007900D92A8301E
:1003C000B107D9F723E0A8E0B2E001C01D92A53340
:1003D000B207E1F711E0CEECD1E004C02197FE01B5
:1003E0000E94D41CCB3CD107C9F70E9470180C9412
:1003F0002F2206CEE0E1F2E022E330E031832083D9
:1004000087E0828380E390E094838383EBE0F2E0F3
:100410003183208326E022839483838380910601A5
:10042000E8E0F2E021E330E0318320838283089525
:10043000CF93DF93EC018C819D81AE81BF812889B0
:100440003989F901E80FF91F60838C819D81AE81A4
:10045000BF812C853D854E855F85BC01CD016F5FD9
:100460007F4F8F4F9F4F0E94B21C6C837D838E8382
:100470009F834A895B896C897D898C859D85AE8542
:10048000BF85481759076A077B0758F48A899B89F3
:10049000AC89BD890196A11DB11D8A8B9B8BAC8B4C
:1004A000BD8B4A895B896C897D898C859D85AE85EC
:1004B000BF85481759076A077B0741F48C819D81E6
:1004C000AE81BF8188839983AA83BB83DF91CF915B
:1004D0000895CF93DF93EC01188219821A821B8250
:1004E0001C821D821E821F8282E38B878AE090E03D
:1004F000A0E0B0E08C879D87AE87BF871A8A1B8AF1
:100500001C8A1D8A82E390E00E94B71D9987888724
:100510008C859D85AE85BF850E94B71D998B888B84
:100520001A868FEF8E8B1F8A188EDF91CF910895D8
:1005300081E0809307018FEF9FEF909309018093F3
:100540000801089581E02091080130910901232BD1
:1005500009F480E0809307011092090110920801CC
:1005600008959F92AF92BF92CF92DF92EF92FF9247
:100570000F931F93CF93DF93CDB7DEB765970FB679
:10058000F894DEBF0FBECDBF8C01F62E85EF681349
:1005900005C081E0F801878B65EF21C0F8018789EC
:1005A0008823C1F08689681719F0FFEF6F1312C016
:1005B00081E0F801808F178A6F2DC80139DFFFEFC6
:1005C000FF1621F0F8018689815002C08EEFF801F4
:1005D000868B17C0F801808D882321F06F2DC8010C
:1005E00027DF0FC0F8011082118212821382148259
:1005F000158216821782128A138A148A158A108E1F
:10060000178AF80182899389A489B5890A97A10577
:10061000B10509F073C0108E178A7E01FCE0EF0E61
:10062000F11C5E0186E1A80EB11CCE2C9F2CF801B6
:1006300082899389A489B589892B8A2B8B2BF1F127
:10064000F80182899389A489B589892B8A2B8B2B00
:1006500009F452C0F80180819181A281B38120897F
:100660003189F901E80FF91FD080F8018289938957
:10067000A489B5890197A109B109828B938BA48BB9
:10068000B58B80819181A281B38124853585468592
:100690005785BC01CD016F5F7F4F8F4F9F4F0E94E9
:1006A000B21CF80160837183828393838D2DF701DF
:1006B00081937F01EA15FB0509F0B9CF40E050E0D6
:1006C00065E070E0CE01019676D14AE050E06C2DF5
:1006D000792DCE0101963CD2CE01019638D280917F
:1006E000080190910901019611F481E090E0909346
:1006F00009018093080102C080E0D9CF65960FB64A
:10070000F894DEBF0FBECDBFDF91CF911F910F9147
:10071000FF90EF90DF90CF90BF90AF909F900895A3
:10072000AC01092E000C660B770B4F3F2FEF5207E1
:100730006105710518F4FC01849108956BBFFA01FD
:100740004791842F08956F3F2FEF72078105910520
:1007500058F4FB0124913196E491822F90E0982F78
:1007600088278E0F911D08958BBFFB012791AB0148
:10077000BC014F5F5F4F6F4F7F4F6BBFFA014791D7
:10078000822F90E0982F8827840F911D0895BF92A3
:10079000CF92DF92EF92FF920F931F93CF93DF934D
:1007A00000D01F92CDB7DEB77C018DEB8983D701D6
:1007B00019968C9119971A969C919A838B83FE01B6
:1007C000319680E090E058E048EA21912093620061
:1007D000D70151962D913C915297280F391F35BB67
:1007E00051962C915197280F2BBB58BB48BB0196B3
:1007F0008330910551F71996DC9019970D2D1A96B3
:100800001C9188E0B82E98EAC92E802F8D19F70127
:10081000948521853285290F311D0217130768F44D
:1008200090E0885C9E4F7CDF8093620015BB0BBB21
:10083000B8BAC8BA0F5F1F4FE8CF0F900F900F9054
:10084000DF91CF911F910F91FF90EF90DF90CF90AC
:10085000BF900895DF92EF92FF920F931F93CF9373
:10086000DF938C01FC01F584CF2DFC01F685DF2F91
:1008700088E0D82E98EAE92E8C2F8F19F8019385FD
:1008800025853685290F311DC217D30760F490E006
:1008900087549F4F45DF80936200D5BBCBBBD8BA4E
:1008A000E8BA2196E9CFDF91CF911F910F91FF9088
:1008B000EF90DF900895DC01E2E6F0E081E88083CC
:1008C00050968C91509785BB1F968C911F978BBB30
:1008D00028E028BB98EA98BB81E680833FE735BBD8
:1008E00080EF8BBB28BB98BB88E1808335BB81EF51
:1008F0008BBB28BB98BB1E968C911E97808335BB03
:1009000088EE8BBB28BB98BB1D968C91808335BB32
:1009100089EE8BBB28BB98BB08950F931F93CF9391
:10092000DF93CDB7DEB72B970FB6F894DEBF0FBEBF
:10093000CDBF8C01C0DFC8012ADFC8018BDFF8DD25
:1009400040E050E064E070E08E010F5F1F4FC8018F
:1009500032D082EB90E09F938F931F930F939AD1A5
:10096000C801F5D00F900F900F900F902B960FB6F7
:10097000F894DEBF0FBECDBFDF91CF911F910F91D5
:1009800008959627092E0294202D2F702927692F6C
:100990006025660F607E2627602D6927607F66953B
:1009A000092E000C661F9695969596959F71962731
:1009B0009827822F0895FC018CE38083168215828C
:1009C000108617828EE38187128672836183548337
:1009D00043830895FC018CE3808314821382168282
:1009E0001582108617828EE38187128683E090E05D
:1009F000928381830895809115029091160290C38D
:100A00000F931F93CF93DF938C01EB018881882391
:100A1000A1F0F8018581968101969683858368818E
:100A200087819085AEDFF8019087878369918091F7
:100A300015029091160274D3E9CFDF91CF911F91E7
:100A40000F910895EF92FF921F93CF93DF937C0154
:100A5000FB011491EB0121961123B1F0F70185817F
:100A60009681019696838583612F8781908589DFA2
:100A7000F70190878783612F80911502909116026C
:100A80004FD3FE011491E7CFDF91CF911F91FF90DB
:100A9000EF9008951F93CF93DF93EC01162F809171
:100AA0001502909116023CD38D819E8101969E8302
:100AB0008D83612F8F81988564DF98878F83DF9185
:100AC000CF911F910895CF92DF92EF92FF920F93F3
:100AD0001F93CF93DF9300D0CDB7DEB71A82198270
:100AE000FC012285211128C08C0181E08287CE2E55
:100AF0007F0190910A018E2D8C19891780F06981F0
:100B0000C80179DF6A81C8010F900F90DF91CF9102
:100B10001F910F91FF90EF90DF90CF906CCFF70176
:100B2000D1907F016D2DC80166DF6D2D89819A817D
:100B300028DF9A838983DDCF0F900F90DF91CF91CB
:100B40001F910F91FF90EF90DF90CF900895BBCF52
:100B5000EF92FF920F931F93CF93DF93EC018B01E2
:100B60007B01E40EF51E0E151F05A9F08D819E81F7
:100B700001969E838D83F80160818F81988501DFC6
:100B800098878F83F80161918F0180911502909170
:100B90001602C6D2E8CFCE01DF91CF911F910F91FF
:100BA000FF90EF9090CFCF93DF93EC0129DFCE0140
:100BB000DF91CF9188CFCF93DF93EC0143DFCE015C
:100BC000DF91CF9180CF0F931F93CF93DF93CDB75A
:100BD000DEB7E2970FB6F894DEBF0FBECDBF6BADA8
:100BE0007CADFB0101900020E9F73197E61BF70B84
:100BF000E634F10580F4AE01435C5F4FCE0101960F
:100C00000E94041F8C01BE016F5F7F4F89AD9AADBA
:100C1000CADFC80102C080E090E0E2960FB6F89407
:100C2000DEBF0FBECDBFDF91CF911F910F91089511
:100C30000F931F93CF93DF93CDB7DEB7E2970FB635
:100C4000F894DEBF0FBECDBF8BAD9CAD0E94DC1E05
:100C50008634910590F4AE01435C5F4F6BAD7CAD83
:100C6000CE0101960E942C1F8C01BE016F5F7F4F49
:100C700089AD9AADC5DEC80102C080E090E0E29681
:100C80000FB6F894DEBF0FBECDBFDF91CF911F919D
:100C90000F9108950F931F93CF93DF93CDB7DEB7D6
:100CA000E2970FB6F894DEBF0FBECDBF8BAD9CAD03
:100CB0000E94DC1E8634910590F4AE01435C5F4FC8
:100CC0006BAD7CADCE0101960E942C1F8C01BE0144
:100CD0006F5F7F4F89AD9AAD66DFC80102C080E0CB
:100CE00090E0E2960FB6F894DEBF0FBECDBFDF9165
:100CF000CF911F910F9108950E946D189093160245
:100D00008093150208951F93CF93DF93EC018A8996
:100D10009B89AC89BD89892B8A2B8B2B59F18881C2
:100D20009981AA81BB8128893989F901E80FF91FC6
:100D300010818A899B89AC89BD890197A109B10974
:100D40008A8B9B8BAC8BBD8B88819981AA81BB815F
:100D50002C853D854E855F85BC01CD016F5F7F4F42
:100D60008F4F9F4F0E94B21C688379838A839B8335
:100D7000812F01C080E0DF91CF911F910895CF9323
:100D8000DF93FC01A28DB38D4D915D916D917C91AE
:100D9000A685B785CD91DC91048CF58DE02D9A0167
:100DA000AB0144275527AFEFBFEF0E94DD1C6C0F4E
:100DB0007D1F811D911DAF01DF91CF912FC6AF9295
:100DC000BF92CF92DF92EF92FF920F931F93CF9338
:100DD000DF93EC01EC85FD85358126819781808547
:100DE0008E01005F1F4FEE85FF854289538964891C
:100DF00075894AA35BA36CA37DA340815181628165
:100E00007381488B598B6A8B7B8B448155816681BA
:100E100077814C8B5D8B6E8B7F8BC32ED22EE92E10
:100E2000F82EA12CB12CC114D104E104F10409F471
:100E300023C0C80168DF95013827032E0294802D56
:100E40008F708327932F9025990F907E8927902D5F
:100E50009327907F9695032E000C991F3695369513
:100E600036953F7139273227282F590181E0C81A5A
:100E7000D108E108F108D7CFEC85FD8521853285C1
:100E8000A216B30621F08FEF9FEF9283818381E05A
:100E9000A216B30609F080E0DF91CF911F910F9168
:100EA000FF90EF90DF90CF90BF90AF900895CF92DA
:100EB000DF92EF92FF920F931F93CF93DF93DC01AA
:100EC0001E96ED91FC911F9702891389248935891B
:100ED00040910B0150E060E070E004171507260711
:100EE000370708F459C0EC018C01005F1F4FEE85F5
:100EF000FF8582899389A489B589892B8A2B8B2BBD
:100F000009F44AC082899389A489B5898AA39BA3DD
:100F1000ACA3BDA380819181A281B381888B998B81
:100F2000AA8BBB8B84819581A681B7818C8B9D8B8D
:100F3000AE8BBF8BC801E7DE8E3351F58883D12C91
:100F4000ED2CF12CC0900B012C2D30E021503109FB
:100F5000E216F30644F4C801D6DEFE01EE0DFF1DD5
:100F60008183D394EDCF8C3399F40E84DF85C02D2B
:100F7000D12CE12CF12CC114D104E104F10471F065
:100F8000CE01C1DEB1E0CB1AD108E108F108F3CF00
:100F90008E859F85B8DEABCF80E001C081E0DF9118
:100FA000CF911F910F91FF90EF90DF90CF90089518
:100FB0008F929F92AF92BF92CF92DF92EF92FF9269
:100FC000CF93DF93EC01FB019D878C877F876E8732
:100FD00082E38B8F80819181A281B381888B998BF1
:100FE000AA8BBB8B84859585A685B7858C8F9D8FB5
:100FF000AE8FBF8F82899389A489B5898AA39BA369
:10100000ACA3BDA380859185998F888F80899189B4
:1010100099A388A381E08A8F1D821E821F82188671
:101020001EA28DEE92E0ABDE4B015C01CE013FDFF4
:10103000882309F46AC080E090E0DC01EC85FD853E
:10104000458156816781708584179507A607B70784
:1010500020F0C12CD12C760125C02CEA2A95F1F77D
:1010600000000196A11DB11DE9CF8DEE92E087DE53
:10107000DC01CB0188199909AA09BB098039914083
:10108000A105B10500F58FEF9FE80197F1F700C0CA
:1010900000008DEE92E073DE6B017C01C818D90868
:1010A000EA08FB08EE85FF854289538964897589C2
:1010B000EC85FD8585819681A781B0854817590704
:1010C0006A077B0790F290E9C91691E0D906E1041E
:1010D000F10438F4CE0173DE8823B9F081E08EA3E9
:1010E00014C0EE85FF851082118212821382148251
:1010F000158216821782128A138A148A158AEC8541
:10110000FD858EEF9FEF92878187DF91CF91FF90D2
:10111000EF90DF90CF90BF90AF909F908F90089509
:101120000F931F93CF93DF93EC0108AD19AD2AAD58
:101130003BAD8AA99BA9ACA9BDA9081719072A0725
:101140003B0799F3CE01869673D9EA81FB81208112
:1011500081E090E00E8402C0880F991F0A94E2F7A4
:10116000822B8083DF91CF911F910F910895CF93B0
:10117000DF93EC019A01AB0160E070E18EE090E05A
:101180000E94B21CBA01A9014150510961097109BB
:1011900057FF0EC0E881F98181E090E00F8402C022
:1011A000880F991F0A94E2F780835F776627772775
:1011B000E885F985BB27A72F962F852F8083EA85A1
:1011C000FB854083EA81FB818C858083EC81FD81F6
:1011D0008D858083DF91CF9108952F923F924F921A
:1011E0005F926F927F928F929F92AF92BF92CF92B7
:1011F000DF92EF92FF920F931F93CF93DF9300D074
:101200001F92CDB7DEB73C01698319012A014096D0
:101210009B838A83F301108A118A128A138A148AA3
:10122000158A168A178A82E3838FC48ED58EE68E3E
:10123000F78E12A213A214A215A282E390E00E94DC
:10124000B71DF301918F808F848D958DA68DB78DFD
:101250000E94B71DF30191A380A3128E6301F6E2F1
:10126000CF0ED11CF30116A217A210A611A612A62A
:1012700013A614A615A682E381AB82AA93AAA4AAF8
:10128000B5AA10AE11AE12AE13AE82E390E00E948A
:10129000B71DF30197A786A782A993A9A4A9B5A909
:1012A0000E94B71DF30197AB86AB10AA15AF04AF30
:1012B000F981F1112CC08BE290E0F30191838083DE
:1012C0008AE290E09383828385E990E0958384832A
:1012D0008CE290E09783868380E990E09187808715
:1012E00089E290E09387828785E0868781E087871F
:1012F00088E9848786E085878A819B8190931E0296
:1013000080931D02D0921C02C0921B022EC09981B4
:10131000913059F58BE990E0F301918380838AE95C
:1013200090E0938382838DE990E0958384838CE9B8
:1013300090E09783868388E990E09187808789E9A8
:1013400090E09387828785E086878981878788E90F
:10135000848786E08587EA81FB81F0931A02E09317
:101360001902D0921802C0921702B201A101C30162
:101370000F900F900F90DF91CF911F910F91FF90E1
:10138000EF90DF90CF90BF90AF909F908F907F9025
:101390006F905F904F903F902F90E9CE1F920F92E9
:1013A0000FB60F9211240BB60F922F933F934F93CA
:1013B0005F936F937F938F939F93AF93BF93EF93BD
:1013C000FF938BB16CB180911D0290911E0230D8B9
:1013D000FF91EF91BF91AF919F918F917F916F910D
:1013E0005F914F913F912F910F900BBE0F900FBEC9
:1013F0000F901F9018951F920F920FB60F92112405
:101400000BB60F921F932F933F934F935F936F935E
:101410007F938F939F93AF93BF93CF93DF93EF937C
:10142000FF93C0911B02D0911C028A899B89AC89D1
:10143000BD89892B8A2B8B2BB1F18A899B89AC8939
:10144000BD89892B8A2B8B2B59F188819981AA819F
:10145000BB8128893989F901E80FF91F10818A8930
:101460009B89AC89BD890197A109B1098A8B9B8BA6
:10147000AC8BBD8B88819981AA81BB812C853D85F0
:101480004E855F85BC01CD016F5F7F4F8F4F9F4FB2
:101490000E94B21C688379838A839B83812F01C059
:1014A00080E08CB901C05598FF91EF91DF91CF9109
:1014B000BF91AF919F918F917F916F915F914F916C
:1014C0003F912F911F910F900BBE0F900FBE0F9069
:1014D0001F9018951F920F920FB60F9211240BB602
:1014E0000F922F933F934F935F936F937F938F93BD
:1014F0009F93AF93BF93EF93FF93CF93DF931F928D
:10150000CDB7DEB780919C008983698180911902F3
:1015100090911A020E9418020F90DF91CF91FF91D3
:10152000EF91BF91AF919F918F917F916F915F915B
:101530004F913F912F910F900BBE0F900FBE0F90C8
:101540001F9018951F920F920FB60F9211240BB691
:101550000F921F932F933F934F935F936F937F93BC
:101560008F939F93AF93BF93CF93DF93EF93FF93AB
:10157000C0911702D09118028A899B89AC89BD89D4
:10158000892B8A2B8B2BB9F18A899B89AC89BD89E0
:10159000892B8A2B8B2B59F188819981AA81BB8158
:1015A00028893989F901E80FF91F10818A899B89F7
:1015B000AC89BD890197A109B1098A8B9B8BAC8B42
:1015C000BD8B88819981AA81BB812C853D854E8503
:1015D0005F85BC01CD016F5F7F4F8F4F9F4F0E9492
:1015E000B21C688379838A839B83812F01C080E04A
:1015F00080939C0015C080919A008F7D80939A0003
:10160000E0911702F0911802108211821282138267
:101610001482158216821782128A138A148A158AF6
:10162000FF91EF91DF91CF91BF91AF919F918F91FA
:101630007F916F915F914F913F912F911F910F90EB
:101640000BBE0F900FBE0F901F90189508951F921C
:101650000F920FB60F9211240BB60F922F933F9358
:101660004F935F936F937F938F939F93AF93BF93AA
:10167000EF93FF93E0911601F091170109952091E6
:101680002D0230912E022115310531F08CB59DB51A
:10169000820F931F9BBD8ABDFF91EF91BF91AF91C8
:1016A0009F918F917F916F915F914F913F912F917A
:1016B0000F900BBE0F900FBE0F901F9018951F92AA
:1016C0000F920FB60F9211240BB60F922F933F93E8
:1016D0004F935F936F937F938F939F93AF93BF933A
:1016E000EF93FF93E0911401F0911501099520917A
:1016F0002B0230912C022115310531F08CB59DB5AE
:10170000820F931F99BD88BDFF91EF91BF91AF915B
:101710009F918F917F916F915F914F913F912F9109
:101720000F900BBE0F900FBE0F901F9018951F9239
:101730000F920FB60F9211240BB60F922F933F9377
:101740004F935F936F937F938F939F93AF93BF93C9
:10175000EF93FF93E0911201F0911301099520910D
:10176000290230912A022115310541F08CB59DB531
:10177000820F931F9093790080937800FF91EF91EF
:10178000BF91AF919F918F917F916F915F914F9199
:101790003F912F910F900BBE0F900FBE0F901F9097
:1017A00018951F920F920FB60F9211248F939F934B
:1017B000AF93BF9380912F0290913002A09131029C
:1017C000B09132020196A11DB11D80932F0290931A
:1017D0003002A0933102B0933202BF91AF919F913A
:1017E0008F910F900FBE0F901F9018951F920F9220
:1017F0000FB60F9211240BB60F922F933F934F9376
:101800005F936F937F938F939F93AF93BF93EF9368
:10181000FF93E0911001F0911101099520912302AD
:10182000309124022115310551F08091880090916A
:101830008900820F931F9093870080938600FF9109
:10184000EF91BF91AF919F918F917F916F915F9138
:101850004F913F912F910F900BBE0F900FBE0F90A5
:101860001F9018951F920F920FB60F9211240BB66E
:101870000F922F933F934F935F936F937F938F9329
:101880009F93AF93BF93EF93FF93E0910E01F0917D
:101890000F01099520912102309122022115310575
:1018A00051F08091880090918900820F931F90934E
:1018B000850080938400FF91EF91BF91AF919F913C
:1018C0008F917F916F915F914F913F912F910F90E9
:1018D0000BBE0F900FBE0F901F9018951F920F9286
:1018E0000FB60F9211240BB60F922F933F934F9385
:1018F0005F936F937F938F939F93AF93BF93EF9378
:10190000FF93E0910C01F0910D01099520911F02C8
:10191000309120022115310551F08091880090917D
:101920008900820F931F9093830080938200FF9120
:10193000EF91BF91AF919F918F917F916F915F9147
:101940004F913F912F910F900BBE0F900FBE0F90B4
:101950001F9018951F920F920FB60F9211248F931C
:101960009F93AF93BF938091250290912602A091FF
:101970002702B09128020196A11DB11D8093250276
:1019800090932602A0932702B0932802BF91AF91B3
:101990009F918F910F900FBE0F901F901895FC0193
:1019A000A089B1892D933C93A681B78111965C9350
:1019B0004E93709317016093160106A4F7A5E02DCE
:1019C0008081806180830895FC01A289B3892D9371
:1019D0003C93A085B18511965C934E93709315014D
:1019E0006093140106A4F7A5E02D808188608083B0
:1019F0000895FC01A089B1892D933C93A681B781FC
:101A000011965C934E93709311016093100106A49C
:101A1000F7A5E02D80818061808308954F925F92C9
:101A20006F927F928F929F92AF92BF92CF92DF92EE
:101A3000EF92FF920F931F93CF93DF938A0128EECB
:101A400033E040E050E00E94E71C29013A014B01DD
:101A5000D82FC92F980140E050E060E070E081EE9F
:101A600090E00E94B21C89019A0158016901E12CA1
:101A7000F12C00E010E09201A301B4018D2F9C2F06
:101A80000E94101DB901CA01DF91CF911F910F91E2
:101A9000FF90EF90DF90CF90BF90AF909F908F908E
:101AA0007F906F905F904F9008954F925F926F92EA
:101AB0007F928F929F92AF92BF92CF92DF92EF92DE
:101AC000FF920F931F938B01BC0180E090E029E906
:101AD00039E340E050E00E94E71C5801C12CD12CB2
:101AE000E12CF12C00E010E00E94101D29013A01C8
:101AF0004114510481E06806710450F02AE331E09A
:101B000045ED50E06EE471E08BE691E00E94831DAC
:101B1000C2011F910F91FF90EF90DF90CF90BF9087
:101B2000AF909F908F907F906F905F904F900895AF
:101B3000CF93DF93CDB7DEB760970FB6F894DEBFD3
:101B40000FBECDBF1A82198281E090E09C838B8307
:101B500088E090E09E838D8380E490E098878F8377
:101B600080E091E09A87898780E094E09C878B876A
:101B70001E861D86188A1F86FE01E60FF11DE60FE0
:101B8000F11D8181928160960FB6F894DEBF0FBE81
:101B9000CDBFDF91CF910895CF93DF93EC018FE418
:101BA00090E0998388838EE490E09B838A838AE720
:101BB00090E09D838C838AE490E09F838E8388E409
:101BC00090E09987888788E790E09B878A8786E4FA
:101BD00090E09D878C878CE490E09F878E878DE2D4
:101BE00092E0998B888B8BE292E09B8B8A8B89E2C7
:101BF00092E09D8B8C8B86E590E09F8B8E8B8CE7A3
:101C000090E0998F888F8FE292E09B8F8A8F1E8E53
:101C10001F8E18A219A21AA21BA21CA21DA21EA2EC
:101C20001FA218A619A61AA61BA61CA61DA687E504
:101C300090E09FA78EA78EB560FB80F98EBDEA81EC
:101C4000FB8161FB992790F9808190FB81F980836A
:101C5000EA81FB8162FB992790F9808190FB82F9F0
:101C60008083E881F981808140FB80F98083E8816D
:101C7000F98141FB992790F9808190FB81F980835C
:101C8000EA81FB8142FB992790F9808190FB83F9DF
:101C90008083EA81FB8143FB442740F9808140FB3C
:101CA00084F98083CE0144DF9D8F8C8FEEA5FFA544
:101CB000808184608083DF91CF910895CF93DF93FB
:101CC000EC018BE890E099838883EAE8F0E0FB83FD
:101CD000EA838CE890E09D838C8386E890E09F8384
:101CE0008E8384E890E09987888782E890E09B87DC
:101CF0008A8780E890E09D878C8788E890E09F87BE
:101D00008E8783E292E0998B888B81E292E09B8BB5
:101D10008A8B8FE192E09D8B8C8B86E590E09F8B88
:101D20008E8B8CE790E0998F888F85E292E09B8F75
:101D30008A8F1E8E1F8E18A219A21AA21BA21CA285
:101D40001DA21EA21FA218A619A61AA61BA61CA693
:101D50001DA68DE790E09FA78EA7808160FB80F98C
:101D60008083EA81FB8161FB992790F9808190FB58
:101D700081F98083EA81FB8162FB992790F9808158
:101D800090FB82F98083E881F981808140FB80F9B2
:101D90008083E881F98141FB992790F9808190FB4C
:101DA00081F98083EA81FB8142FB992790F9808148
:101DB00090FB83F98083EA81FB8143FB442740F950
:101DC000808140FB84F98083CE01B2DE9D8F8C8FB1
:101DD000EEA5FFA5808184608083DF91CF91089577
:101DE000FC011082118212821382148215821682E3
:101DF0001782128A138A148A158A0895CF93DF9363
:101E0000EC0178876F835A8749873C872B8781E06D
:101E10008D878EE890EEA1E0B0E0ABBFFC0187912A
:101E200090E09E838D8388E18A8380E390E00E9426
:101E3000B71DFC019C838B8380E593E091838083B5
:101E40008EE393E09383828389E393E09583848395
:101E50008EEE92E09783868389EF92E09187808768
:101E600085ED92E0938782878CEC92E0958784875A
:101E700080E393E09787868787E293E0918B808B5E
:101E80008EE193E0938B828B85E193E0958B848B3D
:101E90008BE093E0978B868B80EE92E0918F808F22
:101EA00081E492E0938F828F88E392E0958F848F14
:101EB0008DEB92E0978F868F8AEA92E091A380A3C0
:101EC00082EA92E093A382A381E792E095A384A3A0
:101ED00087E692E097A386A386E992E091A780A780
:101EE00088E493E093A782A78AE892E095A784A765
:101EF0008DE792E097A786A719821882DF91CF918C
:101F00000895CF92DF92EF92FF920F931F93CF939A
:101F1000DF93CDB7DEB7AB970FB6F894DEBF0FBE39
:101F2000CDBF7C0186E0E4E3F1E0DE01969601900E
:101F30000D928A95E1F7D7011996ED91FC911A97C8
:101F400083818E010F5F1F4FF801E80FF11DE80F2D
:101F5000F11DD5A0C6A0DB011C96ED91FC911D974B
:101F60004381548160E070E0C8010E94DB04CF929D
:101F7000DF921F930F930E944A06C8010E94A70593
:101F8000B801F70181859285FAD2F82EE92E065E16
:101F90001F4F40E050E060E070E0C8010E94DB04A9
:101FA000EF92FF928CE292E09F938F931F930F9397
:101FB0000E944A06C8010E94A7050FB6F894DEBF2A
:101FC0000FBECDBFAB960FB6F894DEBF0FBECDBF30
:101FD000DF91CF911F910F91FF90EF90DF90CF9005
:101FE00008952F923F924F925F926F927F928F92BD
:101FF0009F92AF92BF92CF92DF92EF92FF920F9398
:102000001F93CF93DF93CDB7DEB7A5970FB6F894A4
:10201000DEBF0FBECDBFFB01A485B5851196ED9146
:10202000FC9112973197E331F10508F008C27B016A
:102030008C01EA5BFF4F0C94D41CDC011B96ED91E4
:10204000FC911C97868197810E94BF064B015C0121
:10205000B701F80183859485B9D5D8011B96ED9118
:10206000FC911C97868197810E94BF06D8011B9620
:10207000ED91FC911C970285138524853585DC0143
:10208000CB01800F911FA21FB31F88199909AA09BC
:10209000BB0982879387A487B587D1C1DC011796D6
:1020A0008D919C91189740960E948306682FC701D6
:1020B0000E944F1CC4C1FC018781908540960E94FC
:1020C0008306482FB701D8011B968D919C911C97D0
:1020D00096D6F80187819085409682DEB0C188EA65
:1020E00087BB14BA1ABA109261001092620015BA36
:1020F0001BBA80E688BBA3C113964D915C911497DF
:102100007E01FBE1EF0EF11C60E070E0C7010E9470
:10211000DB04D80119968D919C911A97C9D288E554
:1021200092E09F938F93FF92EF920E944A068E0156
:102130000F5F1F4FC8010E94EA048DE192E09F9358
:102140008F931F930F930E944A06C8010E94A70510
:1021500043C0CB010E944F1BD80117968D919C91D3
:102160001897BACF13964D915C91149763E070E085
:10217000FE0131967F01CF010E94DB0460E771E030
:10218000C7010E9422056FE471E0C7010E94220589
:102190006BE571E0C7010E9422058DEE92E00E947E
:1021A000BF069F938F937F936F9383EC91E09F93F0
:1021B0008F93FF92EF920E941806D80111968C918E
:1021C00011978F938C918F938DEA91E09F938F93CA
:1021D000FF92EF920E941806C7010E94A7050FB652
:1021E000F894DEBF0FBECDBF2AC140E050E060E0F2
:1021F00070E0CE0101967C010E94DB046EE072E08B
:10220000C7010E942205D8011B96ED91FC911C97F5
:1022100081898F9380898F938AEF91E09F938F9329
:10222000FF92EF920E941806D8011B96ED91FC9147
:102230001C9787858F9386858F9385EE91E09F937A
:102240008F93FF92EF920E941806D8011B96ED9192
:10225000FC911C9717861686118A108ABDCF13969B
:102260004D915C91149760E070E0CE0101960E9460
:10227000DB046CE572E0CE0101960E94DB05CE0125
:1022800001960E94A70561E0D80115968D919C9159
:1022900016970E94222298E088E10FB6F894A8953C
:1022A00081BD0FBE91BDFFCF13964D915C911497E8
:1022B00063E070E0FE0131967F01CF010E94DB04F4
:1022C00088E991E09F938F93FF92EF920E944A06D4
:1022D000C7010E94A70560E0D80115968D919C91D9
:1022E00016970E9422220F900F900F900F90A7C078
:1022F00013964D915C91149760E070E0CE010196C9
:102300000E94DB0462E871E0CE0101960E94D305D1
:10231000CE0101960E94A70598E088E10FB6F894D7
:10232000A89581BD0FBE91BDFFCF60E0FC01818506
:1023300092856AD260E00DC061E0FC0181859285E2
:1023400063D261E006C062E0FC01818592855CD2C7
:1023500062E0D80119968D919C911A970CD1B70122
:10236000C801CFDD6CC015964D905D906D907C904E
:102370001897FC01A780B0844501F0E18F0E911CF5
:10238000CE0101966C011C014114510461047104D9
:10239000A9F0F50182A193A1A4A1B5A1892B8A2B53
:1023A0008B2B61F0C4010E948306F60181936F01BB
:1023B000F1E04F1A510861087108E6CFD7011C9669
:1023C000ED91FC911D9785819681A781B0858A3119
:1023D0009105A105B10528F4F101E80FF91F10825C
:1023E00001C01A8EB101D80119968D919C911A974E
:1023F000DAD0D7011C96ED91FC911D974381548151
:102400006E01BBE1CB0ED11C63E070E0C6010E94FF
:10241000DB043F922F9283ED91E09F938F93DF92A5
:10242000CF920E944A06C6010E94A705B701C801C3
:1024300068DD0F900F900F900F900F900F9081E03C
:10244000A5960FB6F894DEBF0FBECDBFDF91CF913A
:102450001F910F91FF90EF90DF90CF90BF90AF90C2
:102460009F908F907F906F905F904F903F902F90B4
:1024700008950F931F93CF93DF93CDB7DEB72B97BC
:102480000FB6F894DEBF0FBECDBF8B01DB011C96EB
:10249000ED91FC911D97218132812E3FBFEF3B07CB
:1024A000D1F02F3F3F4FA1F5DC0117968D919C9104
:1024B0001897409695DCD8011C96ED91FC911D97DC
:1024C0004381548161817281CE0101960E94DB04B7
:1024D00064E572E014C0FC0187819085409680DC41
:1024E000D8011C96ED91FC911D9743815481618127
:1024F0007281CE0101960E94DB0460E572E0CE019C
:1025000001960E94DB05CE0101960E94A70501C03D
:1025100068DD2B960FB6F894DEBF0FBECDBFDF91FE
:10252000CF911F910F910895FC01718360830895ED
:10253000CF93DF93EC01798368838FE78A835E838F
:102540004D831F8282E090E00E9411228B8381E004
:1025500090E00E9411228C8388EA87BB14BA1ABAD1
:10256000109261001092620015BA1BBA80E688BB17
:10257000DF91CF91089582E090E00C942222CF93D6
:10258000DF93EB01FC016381FCE16F9FB00111243B
:102590006D5F7F4F4AE150E0CE010E940122CE01E3
:1025A000DF91CF910895EF92FF920F931F93CF93F6
:1025B000DF93CDB7DEB76A970FB6F894DEBF0FBED4
:1025C000CDBF8C017B01BE016F5F7F4FD8DFBE01A5
:1025D0006F5F7F4FC7010E94E51E892BA9F0B701ED
:1025E000CE0101960E94EE1EF8016381FCE16F9F0F
:1025F000B00111246D5F7F4F4AE150E0CE0101969A
:102600000E94192281E001C080E06A960FB6F8941A
:10261000DEBF0FBECDBFDF91CF911F910F91FF9015
:10262000EF9008951F93CF93DF93DC011596ED9102
:10263000FC91169780819181A281B38120E030E0E6
:10264000AC01BD0150586F4F7F4FD8E0C8EA8417E6
:102650009507A607B70740F50097E1E0AE07B1057B
:1026600070F4FC0114911093620035BB2BBBD8BBF6
:10267000C8BB0196A11DB11D2F5F3F4FE8CFD8E029
:10268000C8EAABBFFC0117911093620035BB2BBBAE
:10269000D8BBC8BB0196A11DB11D2F5F3F4F84174A
:1026A0009507A607B70768F3DF91CF911F910895AB
:1026B0000F931F93CF93DF93CDB7DEB763970FB61A
:1026C000F894DEBF0FBECDBF8C0188EE87BB8FEFC5
:1026D000809361008ABB84BB88EA88BBC801A2DF03
:1026E000D8011596ED91FC91169780819181A28178
:1026F000B3812FEB35E53A8329838C839D83AE83A9
:10270000BF83BC01CD01625070488F4F9F4F0E9424
:10271000A303998788871B828CE39CE59B878A8724
:102720008C819D81AE81BF81BC01CD01605170481B
:102730008F4F9F4F0E94A3038831B1E69B0711F48E
:1027400080E090E09F878E87888599859C01225F35
:102750003F4F398B288BC8969B8B8A8B8FE78C8752
:1027600087E18D87CE0101960E948D0481E0F801FA
:10277000878388EA87BB14BA1ABA10926100109254
:10278000620015BA1BBA80E688BB63960FB6F89450
:10279000DEBF0FBECDBFDF91CF911F910F91089586
:1027A0000F931F93CF93DF938C0181E090E00E9401
:1027B0001122F8018483882311F1E0912603F0911E
:1027C00027032181C1E0D0E0CE010090250302C0A3
:1027D000880F991F0A94E2F7822B8183C80168DF72
:1027E000E0912603F091270381810090250302C028
:1027F000CC0FDD1F0A94E2F7C095C823C183DF9197
:10280000CF911F910F9108950F931F93FC01A58104
:10281000B68124E0629FF0011124E85DFE4F008143
:102820001181228133810D931D932D933C93139736
:10283000FC0163831F910F91B3CFFF920F931F93FE
:10284000CF93DF93CDB7DEB72B970FB6F894DEBFEB
:102850000FBECDBFFC01178288EE87BB01E610E0FA
:102860009FEFD8019C939ABB94BB88EAF82EF8BAE4
:10287000CF01D8DEF7BA14BA1ABAF8011082109252
:10288000620015BA1BBA80E688BB40E050E064E005
:1028900070E08E010F5F1F4FC8010E94DB0489E5C5
:1028A00093E09F938F931F930F930E944A06C80152
:1028B0000E94A7050F900F900F900F902B960FB6C8
:1028C000F894DEBF0FBECDBFDF91CF911F910F9166
:1028D000FF9008951F920F920FB60F9211240BB61E
:1028E0000F922F933F934F935F936F937F938F93A9
:1028F0009F93AF93BF93EF93FF93E0912601F091E5
:1029000027010995FF91EF91BF91AF919F918F9111
:102910007F916F915F914F913F912F910F900BBEDF
:102920000F900FBE0F901F9018951F920F920FB629
:102930000F9211240BB60F922F933F934F935F93F7
:102940006F937F938F939F93AF93BF93EF93FF9377
:10295000E0912401F09125010995FF91EF91BF913C
:10296000AF919F918F917F916F915F914F913F9127
:102970002F910F900BBE0F900FBE0F901F901895C8
:102980001F920F920FB60F9211240BB60F922F9336
:102990003F934F935F936F937F938F939F93AF93E7
:1029A000BF93EF93FF93E0912201F09123010995EA
:1029B000FF91EF91BF91AF919F918F917F916F9117
:1029C0005F914F913F912F910F900BBE0F900FBED3
:1029D0000F901F9018951F920F920FB60F9211240F
:1029E0000BB60F922F933F934F935F936F937F9309
:1029F0008F939F93AF93BF93EF93FF93E091200149
:102A0000F09121010995FF91EF91BF91AF919F91B5
:102A10008F917F916F915F914F913F912F910F9087
:102A20000BBE0F900FBE0F901F9018951F920F9224
:102A30000FB60F9211240BB60F922F933F934F9323
:102A40005F936F937F938F939F93AF93BF93EF9316
:102A5000FF93E0911E01F0911F010995FF91EF9105
:102A6000BF91AF919F918F917F916F915F914F91A6
:102A70003F912F910F900BBE0F900FBE0F901F90A4
:102A800018951F920F920FB60F9211240BB60F924A
:102A90002F933F934F935F936F937F938F939F9366
:102AA000AF93BF93EF93FF93E0911C01F0911D0151
:102AB0000995FF91EF91BF91AF919F918F917F9178
:102AC0006F915F914F913F912F910F900BBE0F909F
:102AD0000FBE0F901F9018951F920F920FB60F9276
:102AE00011240BB60F922F933F934F935F936F93E5
:102AF0007F938F939F93AF93BF93EF93FF93E09157
:102B00001A01F0911B010995FF91EF91BF91AF91CF
:102B10009F918F917F916F915F914F913F912F91F5
:102B20000F900BBE0F900FBE0F901F9018951F9225
:102B30000F920FB60F9211240BB60F922F933F9363
:102B40004F935F936F937F938F939F93AF93BF93B5
:102B5000EF93FF93E0911801F09119010995FF910E
:102B6000EF91BF91AF919F918F917F916F915F9105
:102B70004F913F912F910F900BBE0F900FBE0F9072
:102B80001F9018950F931F93DA01B3958B019C0149
:102B9000011580E118072105310518F4F801849129
:102BA00003C02BBFF8018791FA019191AF018913FE
:102BB00009C00F5F1F4F2F4F3F4FEA17FB0741F729
:102BC00080E001C081E01F910F9108952F923F9204
:102BD0004F925F926F927F928F929F92AF92BF922D
:102BE000CF92DF92EF92FF920F931F93CF93DF93D9
:102BF000CDB7DEB72C970FB6F894DEBF0FBECDBFB2
:102C00008C016B01DC011496ED91FC91159740A1AC
:102C100051A180910B0190E0FA01E80FF91F20818A
:102C20002031C8F0DB011C96ED91FC911D9743818A
:102C3000548161E070E0CE0101960E94DB046EE5F4
:102C400073E0CE0101960E94DB05CE0101960E9441
:102C5000A70580E0ABC0822E912C982C8824990C7B
:102C6000990C990C092C000CAA08BB087C01BFEF39
:102C7000EB1AFB0AE40EF51E412C512C32011C8686
:102C800022242394312CF80180819181A281B38187
:102C9000880D991DAA1DBB1DBC01CD01640D751DBC
:102CA000861D971DA7016EDF882339F1F801A085E5
:102CB000B1851196ED91FC9112972181C1010C9083
:102CC00002C0880F991F0A94E2F782278183F801D6
:102CD00080819181A281B381880D991DAA1DBB1DA0
:102CE000BC01CD01640D751D861D971D0288F389F9
:102CF000E02DA7010995F1E0FC872FEF521A620A37
:102D0000720AF3944114A8E05A066104710409F0B0
:102D1000BACFF801A085B1851196ED91FC9112977B
:102D2000218181E090E00C9002C0880F991F0A94E5
:102D3000E2F7809582238183FC85FF2351F0D8013F
:102D400050968D919C915197019651969C938E939C
:102D50005097F80186859785019697878687048026
:102D6000F581E02D108A118A128A138A148A158A35
:102D7000168A178A12A213A214A215A2D6011C96B3
:102D8000ED91FC911D974381548160E070E0CE018C
:102D900001960E94DB0462E673E0CE0101960E9478
:102DA000DB05CE0101960E94A70581E02C960FB6A7
:102DB000F894DEBF0FBECDBFDF91CF911F910F9171
:102DC000FF90EF90DF90CF90BF90AF909F908F904B
:102DD0007F906F905F904F903F902F90089524E0E8
:102DE000629FF0011124E85DFE4F408151816281B4
:102DF0007381FC01408351836283738308958F92B2
:102E00009F92AF92BF92CF92DF92EF92FF920F9379
:102E10001F93CF93DF93CDB7DEB72B970FB6F89400
:102E2000DEBF0FBECDBF8C01F42EDB011C96ED91F1
:102E3000FC911D974381548160E070E0CE010196C2
:102E40000E94DB04BFE0BF1540F498E088E10FB6B4
:102E5000F894A89581BD0FBE91BD4F2D50E0542F21
:102E60004427550F550F550F4A01E8EF9E1A052EBE
:102E7000000C660B770BD801CD90DD90ED90FC90A7
:102E8000C40ED51EE61EF71EA12CB12CF8018081C0
:102E90009181A281B381880D991DAA1DBB1DC81601
:102EA000D906EA06FB06B0F4C114F0E1DF06E1043E
:102EB000F10418F4F601649103C0EBBEF6016791CA
:102EC000CE0101960E944A05FFEFCF1ADF0AEF0AF2
:102ED000FF0ADCCFCE0101960E94A7052B960FB604
:102EE000F894DEBF0FBECDBFDF91CF911F910F9140
:102EF000FF90EF90DF90CF90BF90AF909F908F901A
:102F00000895E0912D03F0912E0380E090E030973A
:102F100049F0029620813181820F931F0280F38154
:102F2000E02DF5CF08950F931F93CF93DF9300D03B
:102F3000CDB7DEB780912B0390912C038E010F5FEC
:102F40001F4F009729F4055313401A83098309C0C2
:102F5000081B190B1A830983D4DF800F911F9A83F2
:102F6000898389819A810F900F90DF91CF911F9172
:102F70000F910895CF93DF93A8E2B3E01196ED91FE
:102F8000FC911297218181E090E00C9002C0880FA3
:102F9000991F0A94E2F7809582238183EDEEF2E097
:102FA000A685B785CD91DC91648D758D88EE93E013
:102FB0000E94550DAC014C0F5D1F20E030E062E235
:102FC00078E18DEE92E0DF91CF910C94CF0CABDFE6
:102FD0009C0160911F03709120036115710559F0E8
:102FE000E0E1F7E2CF01AAD4CF01A8D484E690E0D3
:102FF000861B970B02C084E690E04091210350911C
:1030000022034817590720F4909322038093210349
:1030100080911D0390911E038217930720F4309333
:103020001E0320931D031092200310921F03089586
:10303000682F80912303909124030E94900880E0E0
:1030400090E00895CF93DF93A8E2B3E01196ED915D
:10305000FC911297218181E090E00C9002C0880FD2
:10306000991F0A94E2F7822B8183EDEEF2E0A685A8
:10307000B785CD91DC91648D758D81E090E00E94E3
:10308000550DAC014C0F5D1F20E030E06AEB77E19D
:103090008DEE92E0DF91CF910C94CF0CFC01228554
:1030A000211103C080899189FAC50895EFEAF2E001
:1030B00088E198E1918780871386128682E0838376
:1030C00015861486AFE2B3E01396FC93EE93129745
:1030D0001596FC93EE931497089581E792E0089576
:1030E000CF93DF93CDB7DEB7CC56D1090FB6F894A6
:1030F000DEBF0FBECDBFE091FB02F091FC028081EC
:103100009181E0910703F091080340815181628130
:103110007381A0E0B0E080930B0390930C03A09325
:103120000D03B0930E0340930F035093100360936D
:10313000110370931203CE0188960E94690282E007
:1031400090E00E94112201E712E027961FAF0EAF18
:1031500027972DEE32E029963FAF2EAF299725E233
:1031600033E02B963FAF2EAF2B97682FCE018F5BAE
:103170009F4F35DE8CE890EEA1E0B0E0ABBFFC01E4
:103180008791969165969FAF8EAF65972F961CAEEF
:103190001DAE1EAE1FAE2F9761961FAE1EAE61977D
:1031A00063961FAE1EAE6397AE014F5B5F4FB801D3
:1031B000CE018D599F4FBCD9CE018D599F4FF0DA6A
:1031C000E091FB02F091FC02E080F180E0910703C6
:1031D000F09108034081518162817381E09109037C
:1031E000F0910A0380910F0390911003A0911103B5
:1031F000B09112039A01AB01281B390B4A0B5B0BF0
:10320000AFEFBFEFDAD34701A12CB12CC0900B0375
:10321000D0900C03E0900D03F0900E03A5019401F3
:103220002C193D094E095F09620F731F841F951FFA
:10323000AF010E940E0DAD967FAF6EAFAD971093AC
:10324000240300932303789431DF60910903709184
:103250000A0384EF91E00E94550DE091FB02F0918A
:10326000FC02408151814C595F4F9C0162E278E140
:103270008DEE92E00E94CF0C6091090370910A03D9
:1032800084E690E00E94550DE091FB02F091FC0273
:10329000408151814C595F4F9C0167EE77E18DEE83
:1032A00092E00E94E40C6091D9027091DA0288ECFD
:1032B00090E00E94550D9C0140E050E062EA72E00F
:1032C0008DEB92E00E94F90C9E012F5B3F4FAE0107
:1032D0004D595F4FB801CE018B5A9F4F0E94FE0E91
:1032E000AD966EAD7FADAD97CE018B5A9F4F1CD979
:1032F000CE0185599F4FD3D4109281021092820241
:10330000109283021092840210928502109286021B
:1033100010928702109288021092930210929402E7
:10332000109295021092960240E050E063E070E047
:103330008E010F5F1F4FC8010E94DB046DE873E030
:10334000C8010E94220568E773E0C8010E942205B7
:103350001F921F9286E693E09F938F931F930F9384
:103360000E941806C8010E94A7050F900F900F90A9
:103370000F900F900F9080EDE82E87E0F82EC12C73
:10338000D12C98E1392E2FE0222E30ED632E37E03C
:10339000732E46E8842E41E0942E40919302509182
:1033A0009402609195027091960280910B0190E0D9
:1033B000A0E0B0E0481759076A077B0790F061E882
:1033C00072E0C8010E94D8078FA1882339F0B801A4
:1033D000CE018B5A9F4F4DD8E12CF12CCE01419656
:1033E0005DDE31EDE31637E0F30608F54FEFE41A42
:1033F000F40A4090C3025090C402E091CB02F091D5
:10340000CC02A080B1806091D9027091DA028CE286
:1034100091E00E94550D8A0D9B1DF20191838083DE
:10342000F0EDEF16F7E0FF0608F485C00DC0AB968F
:103430008FADAB97882341F080910701811104C0C3
:10344000CE018D599F4FF9D9809155029091560226
:10345000A0915702B0915802892B8A2B8B2B09F02F
:10346000A2C069C08091550290915602A091570266
:10347000B0915802892B8A2B8B2B09F49BC0809129
:10348000430290914402A0914502B09146022091DE
:10349000530230915402F901E80FF91FB080809176
:1034A000550290915602A0915702B091580201978F
:1034B000A109B1098093550290935602A093570237
:1034C000B09358028091430290914402A09145022A
:1034D000B091460220914F0230915002409151022A
:1034E00050915202BC01CD016F5F7F4F8F4F9F4FB4
:1034F00039D26093430270934402809345029093C3
:1035000046026B2DCE0188960E94B1028091550231
:1035100090915602A0915702B0915802892B8A2BA4
:103520008B2B09F09FCF0FB6F894A89581B58861D1
:1035300081BD11BC0FBE2FEFC21AD20A80911F03AA
:103540009091200301969093200380931F0386E6B9
:103550009EE00197F1F70000C601B301EFD1892B7E
:1035600009F01BCFB0901D03A0901E0310921E0304
:1035700010921D0340E050E064E070E0C8010E943A
:10358000DB04AF92BF929F928F921F930F930E9482
:10359000E305C8010E94A7050F900F900F900F90B0
:1035A0000F900F90FACE0FB6F894A89531BC0FBECD
:1035B00021BCACCF60E0A6CF8F929F92AF92BF921A
:1035C000CF92DF92EF92FF920F931F93E8E2F3E026
:1035D00087E0808381E390E0928381838F9AE5E2A4
:1035E000F3E026E02083928381838E9AEDE1F3E07D
:1035F00011821082138212821582148240E065E0EB
:103600008DEE92E00E94CC0D40E065E08DEB92E003
:103610000E945E0E80E2882E912CA12CB12C9EE19E
:10362000C92E98E0D92EE12CF12C0DEE12E020E00D
:1036300032EC41E050E061E081E792E00E94ED0869
:10364000812C912C540183943AE0C32ED12CE12C8F
:10365000F12C20E835E240E050E060E083E392E0C6
:103660000E94ED081F910F91FF90EF90DF90CF9097
:10367000BF90AF909F908F90089589E592E00EDD06
:1036800083E492E00BDD87E992E008DD81E892E0D7
:1036900005CD90E000009F5F8917E0F708953F9205
:1036A0004F925F926F927F928F929F92AF92BF9252
:1036B000CF92DF92EF92FF920F931F93CF93DF93FE
:1036C000CDB7DEB72E970FB6F894DEBF0FBECDBFD5
:1036D0007C01E0912903F0912A03218181E090E0AF
:1036E0000090280302C0880F991F0A94E2F7822BEA
:1036F0008183D7011C96ED91FC911D9765817681A0
:103700008781908523E030E040E050E02BD1622EAD
:10371000532E88EE87BB8FEF809361008ABB84BBFA
:1037200088EA88BBC12CD12C4E01BFE08B0E911CC6
:1037300088E0382E98EA492ED7011C96ED91FC912D
:103740001D97C601A0E0B0E0458156816781708574
:1037500084179507A607B70708F05FC0F70106852D
:1037600017855E01FCE0AF0EB11CF80182899389D8
:10377000A489B589892B8A2B8B2B09F43FC0F801CA
:1037800082899389A489B589892B8A2B8B2BA1F1F6
:10379000F80180819181A281B38120893189F90169
:1037A000E80FF91F7080F80182899389A489B5898F
:1037B0000197A109B109828B938BA48BB58B808172
:1037C0009181A281B3812485358546855785BC01C9
:1037D000CD016F5F7F4F8F4F9F4FC4D0D8016D9346
:1037E0007D938D939C931397872DF50181935F01B2
:1037F000E815F90519F0B9CF80E0F7CF8E858093F1
:1038000062008D8585BB8C858BBB38BA48BA38BAC7
:1038100048BAF3E0CF0ED11C8FCF4381548163E0CF
:1038200070E08E010F5F1F4FC8010E94DB045F92A2
:103830006F928BE891E09F938F931F930F930E9459
:10384000E305C8010E94A70588EA87BB14BA1ABA23
:10385000109261001092620015BA1BBA80E688BB14
:103860000F900F900F900F900F900F9081E02E9679
:103870000FB6F894DEBF0FBECDBFDF91CF911F9181
:103880000F91FF90EF90DF90CF90BF90AF909F90FF
:103890008F907F906F905F904F903F900895EF9240
:1038A000FF920F931F93CF93DF93CDB7DEB72B9784
:1038B0000FB6F894DEBF0FBECDBF062FDC011C96FD
:1038C000ED91FC911D974381548160E070E0CE0141
:1038D00001960E94DB0488EC87BB109261008FEF99
:1038E0008ABB84BB88EA88BB10E0102F0027110F29
:1038F000110F110F7801B8EFFB1A0E151F0568F4B0
:1039000015BB0BBBC79885E0C4DE60B1CE01019644
:103910000E944A050F5F1F4FF0CFCE0101960E9413
:10392000A7052B960FB6F894DEBF0FBECDBFDF9173
:10393000CF911F910F91FF90EF900895AA1BBB1B91
:1039400051E107C0AA1FBB1FA617B70710F0A61B9F
:10395000B70B881F991F5A95A9F780959095BC01C0
:10396000CD010895A1E21A2EAA1BBB1BFD010DC0BB
:10397000AA1FBB1FEE1FFF1FA217B307E407F5071F
:1039800020F0A21BB30BE40BF50B661F771F881FFB
:10399000991F1A9469F760957095809590959B0191
:1039A000AC01BD01CF010895EE0FFF1F0024001CE4
:1039B0000BBE0790F691E02D09948ED0A59F900D37
:1039C000B49F900DA49F800D911D11240895E8943B
:1039D000DF93CF93FC01DB017FD07F936F93E901ED
:1039E0009A01AC01BF93AF933F932F93DF0174D043
:1039F00026F46C1B7D0B820B930B9E01EB01FC01EB
:103A00007AD0AF91BF912F913F9175D0BE01CF0178
:103A1000F9012F913F91CF91DF910895689401C0F2
:103A2000E8948F929F92CF93DF9305D0DF91CF914F
:103A30009F908F90089588249924F401E401B0E4C4
:103A40009F93AA279A158B049C04ED05FE05CF05CC
:103A5000D007A10798F4AD2FDC2FCF2FFE2FE92D33
:103A6000982C892E982F872F762F652F542F432F30
:103A7000322F2227B85031F7BF9127C01B2EBF919C
:103A8000BB27220F331F441F551F661F771F881F38
:103A9000991F881C991CEE1FFF1FCC1FDD1FAA1F3A
:103AA000BB1F8A149B04EC05FD05CE05DF05A007AE
:103AB000B10748F08A189B08EC09FD09CE09DF0917
:103AC000A00BB10B21601A94E1F62EF49401AF0122
:103AD000BE01CD01000C0895A29FB001B39FC001AB
:103AE000A39F700D811D1124911DB29F700D811D2A
:103AF0001124911D0895F0DF460F571FC81FD91FCD
:103B000008F431960895F0913403E091330300975F
:103B1000B1F45F934F937F936F933F932F9384EA16
:103B200091E09F938F93FF93EF935FD18DB79EB7F3
:103B30000A960FB6F8949EBF0FBE8DBF17C05F9355
:103B40004F937F936F939F938F933F932F938FEC1C
:103B500091E09F938F93FF93EF9347D18DB79EB7DB
:103B60000C960FB6F8949EBF0FBE8DBF21D10F9358
:103B70001F93CF93DF938230910510F482E090E0A1
:103B8000E0912D03F0912E0320E030E0A0E0B0E0C2
:103B9000309719F1408151810281138148175907EB
:103BA000C8F08417950769F4109731F012960C93BA
:103BB000129713961C9327C000932D0310932E0386
:103BC00022C02115310519F04217530718F49A0144
:103BD000BD01EF01DF01F801DBCF21153105F9F05F
:103BE000281B390B2430310580F48A819B816115B3
:103BF000710521F0FB019383828304C090932E030F
:103C000080932D03FE01329644C0FE01E20FF31FA4
:103C10008193919322503109398328833AC02091AE
:103C20002B0330912C03232B41F42091020130917E
:103C3000030130932C0320932B032091000130913A
:103C400001012115310541F42DB73EB74091040122
:103C500050910501241B350BE0912B03F0912C03AF
:103C6000E217F307A0F42E1B3F0B2817390778F053
:103C7000AC014E5F5F4F2417350748F04E0F5F1FB2
:103C800050932C0340932B038193919302C0E0E067
:103C9000F0E0CF01DF91CF911F910F910895CF9365
:103CA000DF93009709F481C0FC01329713821282DE
:103CB000A0912D03B0912E03109781F420813181C2
:103CC000820F931F20912B0330912C032817390763
:103CD00051F5F0932C03E0932B0367C0ED0120E036
:103CE00030E0CE17DF0740F44A815B819E01411529
:103CF0005105F1F0EA01F5CFD383C28340815181B0
:103D0000840F951FC817D90759F488819981840FAA
:103D1000951F0296918380838A819B8193838283FE
:103D20002115310529F4F0932E03E0932D033DC0B6
:103D3000E901FB83EA8349915991C40FD51FEC1720
:103D4000FD0761F480819181840F951F0296E9013E
:103D500099838883828193819B838A83E0E0F0E06A
:103D600012968D919C911397009719F0FD01DC013B
:103D7000F7CF8D919C9111979D012E5F3F4F820F40
:103D8000931F20912B0330912C032817390769F4D6
:103D9000309729F410922E0310922D0302C0138243
:103DA0001282B0932C03A0932B03DF91CF9108953F
:103DB00081E090E0F89453C3FC0105900020E9F7FE
:103DC000809590958E0F9F1F0895FB01DC018D91CA
:103DD000019080190110D9F3990B0895FB01DC01C2
:103DE00001900D920020E1F70895CF93DF93CDB7B6
:103DF000DEB7AE01475F5F4F6F8178858D819E8111
:103E000053D0DF91CF9108950F931F93CF93DF93FA
:103E1000CDB7DEB72E970FB6F894DEBF0FBECDBF7D
:103E20008C0186E08C831A8309838FEF9FE79E8342
:103E30008D83CE01019638D0EF81F885E00FF11F18
:103E400010822E960FB6F894DEBF0FBECDBFDF9165
:103E5000CF911F910F9108950F931F93CF93DF93ED
:103E6000CDB7DEB72E970FB6F894DEBF0FBECDBF2D
:103E70008C018EE08C831A8309838FEF9FE79E83EA
:103E80008D83CE01019610D0EF81F885E00FF11FF0
:103E900010822E960FB6F894DEBF0FBECDBFDF9115
:103EA000CF911F910F9108952F923F924F925F9261
:103EB0006F927F928F929F92AF92BF92CF92DF923A
:103EC000EF92FF920F931F93CF93DF93CDB7DEB79F
:103ED0002B970FB6F894DEBF0FBECDBF6C017B01F0
:103EE0008A01FC0117821682838181FFBFC1CE0146
:103EF00001963C01F6019381F70193FD859193FFB3
:103F000081917F01882309F4ADC1853239F493FD95
:103F1000859193FF81917F01853221F4B60190E074
:103F2000D6D1E8CF912C212C312CFFE1F315D8F01C
:103F30008B3279F038F4803279F08332A1F4232D7A
:103F400020611DC08D3261F0803369F4232D216022
:103F500016C0832D8260382EE32DE4603E2E2AC0E9
:103F6000F32DF8601DC037FC2DC020ED280F2A303E
:103F700040F08E32B9F436FC75C1232D2064322E08
:103F800019C036FE06C08AE0989E200D1124922E9C
:103F900011C0EAE02E9E200D1124222EF32DF06296
:103FA0003F2E08C08C3621F4832D8068382E02C045
:103FB000883641F4F70193FD859193FF81917F014C
:103FC0008111B3CF982F9F7D9554933028F40C5FC7
:103FD0001F4F9FE399830DC0833631F0833771F013
:103FE000833509F055C020C0F801808189830E5FB8
:103FF0001F4F88248394912C530112C02801F2E0B2
:104000004F0E511CF801A080B18036FE03C0692D0F
:1040100070E002C06FEF7FEFC5014ED14C0182010D
:10402000F32DFF773F2E15C0280122E0420E511CD0
:10403000F801A080B18036FE03C0692D70E002C097
:104040006FEF7FEFC5012DD14C01F32DF0683F2EAE
:10405000820133FC19C0822D90E088169906A0F4E5
:10406000B60180E290E033D12A94F5CFF50137FC18
:10407000859137FE81915F01B60190E028D1211032
:104080002A9421E0821A91088114910479F7E1C001
:10409000843611F0893639F5F80137FE07C06081A2
:1040A0007181828193810C5F1F4F08C06081718193
:1040B000072E000C880B990B0E5F1F4FF32DFF7618
:1040C0003F2E97FF09C090958095709561957F4F21
:1040D0008F4F9F4FF0683F2E2AE030E0A30133D18D
:1040E000882E861844C0853731F4232D2F7EB22EBA
:1040F0002AE030E025C0932D997FB92E8F36C1F08C
:1041000018F4883579F0AEC0803719F0883721F07F
:10411000A9C0E92FE061BE2EB4FE0DC0FB2DF460F6
:10412000BF2E09C034FE0AC0292F2660B22E06C059
:1041300028E030E005C020E130E002C020E132E0BC
:10414000F801B7FE07C060817181828193810C5FA5
:104150001F4F06C06081718180E090E00E5F1F4FAD
:10416000A301F1D0882E8618FB2DFF773F2E36FE57
:104170000DC0232D2E7FA22E891458F434FE0BC0BF
:1041800032FC09C0832D8E7EA82E05C0B82CA32C2E
:1041900003C0B82C01C0B92CA4FE0FC0FE01E80D6D
:1041A000F11D8081803321F49A2D997EA92E09C0BA
:1041B000A2FE06C0B394B39404C08A2D867809F099
:1041C000B394A3FC10C0A0FE06C0B21480F4280C67
:1041D000922C9B180DC0B21458F4B60180E290E006
:1041E00076D0B394F8CFB21418F42B1802C0982CE0
:1041F000212CA4FE0FC0B60180E390E068D0A2FE9F
:1042000016C0A1FC03C088E790E002C088E590E0FA
:10421000B6010CC08A2D867851F0A1FE02C08BE257
:1042200001C080E2A7FC8DE2B60190E050D0891475
:1042300030F4B60180E390E04AD09A94F8CF8A94A3
:10424000F301E80DF11D8081B60190E040D08110AE
:10425000F6CF222009F44ECEB60180E290E037D0AE
:104260002A94F7CFF6018681978102C08FEF9FEFE6
:104270002B960FB6F894DEBF0FBECDBFDF91CF9166
:104280001F910F91FF90EF90DF90CF90BF90AF9074
:104290009F908F907F906F905F904F903F902F9066
:1042A0000895FC010590615070400110D8F7809589
:1042B00090958E0F9F1F0895FC01615070400190F2
:1042C0000110D8F7809590958E0F9F1F08950F933A
:1042D0001F93CF93DF93FB01238121FD03C08FEF59
:1042E0009FEF2CC022FF16C0468157812481358163
:1042F0004217530744F4A081B1819D012F5F3F4FC6
:10430000318320838C93268137812F5F3F4F378302
:10431000268314C08B01EC01FB010084F185E02DA4
:104320000995892BE1F6D80116968D919C911797E6
:10433000019617969C938E931697CE01DF91CF919D
:104340001F910F910895FA01AA27283051F12031C9
:1043500081F1E8946F936E7F6E5F7F4F8F4F9F4F19
:10436000AF4FB1E03ED0B4E03CD0670F781F891F5B
:104370009A1FA11D680F791F8A1F911DA11D6A0F29
:10438000711D811D911DA11D20D009F468943F91DC
:104390002AE0269F11243019305D3193DEF6CF01DB
:1043A0000895462F4770405D4193B3E00FD0C9F7A1
:1043B000F6CF462F4F70405D4A3318F0495D31FD0E
:1043C0004052419302D0A9F7EACFB4E0A695979561
:1043D000879577956795BA95C9F700976105710537
:1043E00008959B01AC010A2E069457954795379581
:1043F0002795BA95C9F7620F731F841F951FA01DDB
:104400000895DC01CB01FC01E199FECF06C0FFBBA2
:10441000EEBBE09A31960DB20D9241505040B8F784
:104420000895E199FECF9FBB8EBBE09A99278DB38B
:104430000895DC01CB0102C02D9105D041505040C0
:10444000D8F70895262FE199FECF9FBB8EBB2DBBD9
:104450000FB6F894E29AE19A0FBE0196089511E022
:10446000CEECD1E003C0FE019FDA2196CF3CD1070C
:06447000D1F7F894FFCF24
:10447600000035032000C001FFFF0A0C260B260BA7
:10448600260B260B260B260B260B260B260B260B9E
:10449600260B260B260B260B0060000000E0000012
:1044A60000600100300327031E036379636C6573A4
:1044B600203C3D20307866666666554C4C002E2EB4
:1044C6002F61746D3132385F74696D6572732F7444
:1044D600696D65725F722E637070006D735F746FC5
:1044E6005F6379636C65730025642025632025640A
:1044F6000A0061636B004D3A2575005372616D20A9
:1045060075706461746564206F6620256420627925
:1045160074657300417373657274696F6E206661AA
:10452600696C65643A20282573292C2066696C65B8
:104536002025732C206C696E652025642E0A0041A7
:104546007373657274696F6E206661696C65643A2F
:1045560020282573292C2066756E6374696F6E207A
:1045660025732C2066696C652025732C206C696E7A
:08457600652025642E0A0000F7
:00000001FF
