:10000000F3C100000C9406140C9431140C945C148D
:100010000C9487140C94B2140C94DD140C940815F1
:100020000C9433150BC2000009C2000007C2000087
:100030000C943D100C9475100C94E710FFC1000057
:10004000FDC10000FBC100000C94E40E0C94110FE4
:10005000F5C10000F3C10000F1C10000EFC10000D4
:100060000C94AD10EBC100000C940C110C944811D1
:100070000C9484110C94C0110C94800F0C94B80F44
:10008000DDC10000DBC10000D9C100001416451617
:1000900080195416611675168216AF16B816FB161F
:1000A0005C177E1780199E17BB17C217CE17E9176A
:1000B000FE177A188019801980192D183717EF1735
:1000C000FB17A518131900010203040506073637AC
:1000D00038393A3B3C3D3E3F4041424344455085E0
:1000E00055567D8A2B2C1D1954594B4C7E540001BA
:1000F000020304050607353637383A3B3C3D3F409E
:1001000041424445464750855556868A2A2B1D193B
:1001100058594B4C7E5496AD810224022016D6AE1F
:1001200080021B97AFD6AF58CE55BF3A1AEE0018D3
:10013000A60097AF96AD810027022004C6F5D7AF81
:1001400096AD81012702200A86FFD6AE5454541082
:1001500097AF96AD81092702200BD6AE86081B9774
:10016000AE86FF97AD96AE812822022004C600D746
:10017000AE18CEB000D6AFB6B02E2AFBF7B02F7CAB
:1001800000ADCC0350F3B00EFDB0168680B7B0239F
:10019000181C22803BB7B0098630B7B02B8608B751
:1001A000B02D181C2280CC0000DDAD398E00FF86FA
:1001B0000BB7103D8608B7B00086C1B7B024869053
:1001C000B7B03918CEB00086804E6F74207375704A
:1001D000706F727465642062696E6172790044693F
:1001E000676966616E7420334D41502066696C65A5
:1001F000004469676966616E7420314D4150206624
:10020000696C650042616E6B732072657365740082
:1002100062616E6B337365740062616E6B3273651D
:10022000740062616E6B3173657400776970696E1A
:100230006720646F6E6500776970696E6720626120
:100240006E6B73004D6172203330203230323000DB
:100250000A56657273696F6E3A52322E325F3330CE
:1002600030333230000A425420454550524F4D2021
:10027000454D554C41544F5220520A436F6D7069A1
:100280006C6174696F6E20646174653A00646973AF
:1002900061626C696E6720626F6F746C6F61646518
:1002A00072000A5372616D206C6F6164656420692D
:1002B0006E202575206D73000A4F6E54696D653A86
:1002C00020256C75206D730042616E6B206E616D30
:1002D00065207365743A202573007061636B6574E3
:1002E000732072656365697665642025640A007011
:1002F00061636B657473207772697474656E202511
:10030000640A0077726974696E672073746174732C
:100310000A005372616D2072656C6F616465640AD6
:100320000062616E6B6E616D653A2573006474786E
:10033000006E616B0061636B007374617274696E4F
:100340006720626F6F746C6F6164657220736D619A
:100350007274206D6F646500626F6F746C6F61649E
:1003600065720062616E6B337365740062616E6BFF
:10037000327365740062616E6B317365740064681A
:100380006964000A52656C6561736520666C61671B
:100390003A202564000A56657273696F6E3A5232CC
:1003A0002E325F333030333230000A53746172744E
:1003B00075702074696D653A202575206D73004550
:1003C0004D5542545220005372616D207570646126
:1003D000746564206F6620256420627974657300FB
:1003E0002A092E0B7D0DC62011241FBECFEFD0E1B0
:1003F000DEBFCDBF12E0A0E0B1E0ECE2F0E500E04E
:100400000BBF02C007900D92A631B107D9F723E0C8
:10041000A6E1B2E001C01D92A034B207E1F711E0FD
:10042000C4EFD1E004C02197FE010E94B122C03F79
:10043000D107C9F70E94701E0C941428E1CDCF9308
:10044000DF93EC018C819D81AE81BF812E853F853C
:10045000F901E80FF91F60838C819D81AE81BF8116
:10046000288939894A895B89BC01CD016F5F7F4F3B
:100470008F4F9F4F0E948F226C837D838E839F833B
:100480004A855B856C857D8588899989AA89BB8920
:10049000481759076A077B0758F48A859B85AC85FE
:1004A000BD850196A11DB11D8A879B87AC87BD873D
:1004B0004A855B856C857D8588899989AA89BB89F0
:1004C000481759076A077B0741F48C819D81AE81EB
:1004D000BF8188839983AA83BB83DF91CF910895DD
:1004E000CF93DF93EC018FEF888319821A8281E02A
:1004F0008B831C821D821E821F82188619861A8693
:100500001B8684E18D871E861F86188A198A8AE0D9
:1005100090E0A0E0B0E08C8B9D8BAE8BBF8B8C8984
:100520009D89AE89BF890E9494239B8B8A8B1C86F0
:10053000DF91CF91089581E0809306018FEF9FEFC7
:100540009093080180930701089581E020910701AD
:1005500030910801232B09F480E08093060110926A
:1005600008011092070108959F92AF92BF92CF9217
:10057000DF92EF92FF920F931F93CF93DF93CDB74C
:10058000DEB765970FB6F894DEBF0FBECDBF8C0106
:10059000F62E85EF681305C081E0F801818365EFD1
:1005A00022C0F80181818823C9F08081681719F081
:1005B000FFEF6F1313C081E0F801828311826F2D6A
:1005C000C80104963CDFFFEFFF1621F0F80180819F
:1005D000815002C08EEFF801808318C0F80182813B
:1005E000882329F06F2DC801049629DF0FC0F80178
:1005F000148215821682178210861186128613863F
:1006000016861786108A118A12821182F801868551
:100610009785A089B1890A97A105B10509F077C02E
:10062000128211827E01FCE0EF0EF11C5E0186E178
:10063000A80EB11CCE2C9F2CF80186859785A08929
:10064000B189892B8A2B8B2BF1F1F801868597854F
:10065000A089B189892B8A2B8B2B09F456C0F8010C
:1006600084819581A681B78122893389F901E80FB8
:10067000F91FD080F80186859785A089B1890197F7
:10068000A109B10986879787A08BB18B8481958159
:10069000A681B7812489358946895789BC01CD0156
:1006A0006F5F7F4F8F4F9F4F0E948F22F8016483AF
:1006B0007583868397838D2DF70181937F01EA15DA
:1006C000FB0509F0B9CFF8018381882389F040E068
:1006D00050E065E070E0CE010196F3D54AE050E0CD
:1006E0006C2D792DCE010196E5D6CE010196E1D68D
:1006F0008091070190910801019611F481E090E04A
:10070000909308018093070102C080E0D5CF6596E1
:100710000FB6F894DEBF0FBECDBFDF91CF911F9112
:100720000F91FF90EF90DF90CF90BF90AF909F9090
:100730000895AC01092E000C660B770B4F3F2FEF8D
:1007400052076105710518F4FC01849108956BBF8F
:10075000FA014791842F08956F3F2FEF72078105AB
:10076000910518F4FB01849108958BBFFB016791FB
:10077000862F08956F3F2FEF72078105910558F47A
:10078000FB0124913196E491822F90E0982F8827E5
:100790008E0F911D08958BBFFB012791AB01BC010A
:1007A0004F5F5F4F6F4F7F4F6BBFFA014791822FB3
:1007B00090E0982F8827840F911D0895FC01808177
:1007C0009181A281B381BC01CD01625070488F4FED
:1007D0009F4FD0CFCF92DF92EF92FF92CF93DF93D4
:1007E000D82FC42FC42ED52E7B018C2D8C1B8D179A
:1007F00060F48FEFC81AD80AE80AF80AC701B601F0
:10080000ABDF813491F380E001C081E0DF91CF91D3
:10081000FF90EF90DF90CF9008958F929F92AF92CC
:10082000BF92CF92DF92EF92FF921F93CF93DF930D
:10083000EC01162FC880D980EA80FB80C40ED51E3B
:10084000E11CF11C862E912CA12CB12C8881998160
:10085000AA81BB819058AF4FBF4F88199909AA0947
:10086000BB09C816D906EA06FB06A8F4B701A6011B
:10087000812FB0DF882349F02881398181E090E021
:10088000821B930B8C0D9D1D08C08FEFC81AD80AD0
:10089000E80AF80ADBCF80E090E0DF91CF911F916A
:1008A000FF90EF90DF90CF90BF90AF909F908F9090
:1008B0000895FC0180819181A281B381BC01CD01A9
:1008C000605170488F4F9F4F55DF8831F1E69F0789
:1008D00011F480E090E00895BF92CF92DF92EF9202
:1008E000FF920F931F93CF93DF9300D01F92CDB74A
:1008F000DEB77C018DEB8983D7011A968C911A970C
:100900001B969C919A838B83FE01319680E090E048
:1009100058E048EA219120936200D70153962D9127
:100920003C915497280F391F35BB53962C91539700
:10093000280F2BBB58BB48BB01968330910551F75C
:100940001A96DC901A970D2D1B961C9188E0B82EF4
:1009500098EAC92E802F8D19F70197852285338556
:10096000290F311D0217130768F490E08B569E4F34
:10097000E0DE8093620015BB0BBBB8BAC8BA0F5F4C
:100980001F4FE8CF0F900F900F90DF91CF911F91E5
:100990000F91FF90EF90DF90CF90BF900895DF927E
:1009A000EF92FF920F931F93CF93DF93EC01FC80A4
:1009B0000F2D1D8188E0D82E98EAE92E802F8F19FF
:1009C0009E852C813D81290F311D0217130768F484
:1009D00090E08A5E9E4FADDE8093620015BB0BBB3C
:1009E000D8BAE8BA0F5F1F4FE9CF8F8180936200BA
:1009F0008C819D81439695BB8C818D5E8BBB38E04D
:100A000038BB28EA28BB8E81809362008C819D814F
:100A1000449695BB8C818C5E8BBB38BB28BBDF9129
:100A2000CF911F910F91FF90EF90DF900895DF928B
:100A3000EF92FF920F931F93CF93DF937C01FC0102
:100A4000C681D78110E088E0D82E08EAF7018189B5
:100A50001817B8F410926200D5BBCBBBD8BA08BB4C
:100A6000F7018789908D810F911D63DE809362006D
:100A7000CE01019695BB8BBBD8BA08BB22961F5FEF
:100A8000E5CFDF91CF911F910F91FF90EF90DF9015
:100A90000895FC012681378190E058E048EA818979
:100AA0009817C0F41092620035BB2BBB58BB48BBF3
:100AB000DB01A90FB11D8C9180936200D9011196C1
:100AC000B5BB81E0820F8BBB58BB48BB2E5F3F4F4D
:100AD0009F5FE5CF0895FC0181E8809362008585E2
:100AE00085BB84858BBB98E098BB88EA88BB22894C
:100AF00021110BC02EE6209362002FE725BB30EFBB
:100B00003BBB98BB88BB38E10CC0213089F426E799
:100B1000209362002FE725BB30EF3BBB98BB88BB1F
:100B200034E13093620025BB21EF2BBB98BB88BB1F
:100B30008581809362002FE725BB88EE8BBB98E010
:100B400098BB88EA88BB34813093620025BB29EECC
:100B50002BBB98BB88BB08950F931F93CF93DF9354
:100B6000CDB7DEB7C654D1090FB6F894DEBF0FBEBD
:100B7000CDBF8C01CE01019640D38B8D882311F11E
:100B8000F80182898230F0F482859385892BD1F037
:100B900086819781892BB1F0C8019DDFC8019CDE59
:100BA000C801FDDEC80143DF8E8D882331F0BE0110
:100BB000615E7F4FC8016DDF02C0C80138DFBBDC5A
:100BC00081E001C080E0CA5BDF4F0FB6F894DEBF62
:100BD0000FBECDBFDF91CF911F910F9108950F935D
:100BE0001F93CF93DF938C01C0E0F8018089C81771
:100BF000E0F48C2F90E084559E4F9BDDD82FF801B8
:100C00002085318580819181A281B381820F931FDC
:100C1000A11DB11DBC01CD016C0F711D811D911D68
:100C20009BDDD81304C0CF5FE0CF81E001C080E03E
:100C3000DF91CF911F910F910895CF93DF93EC0136
:100C400088819981AA81BB81CC96A11DB11D28857F
:100C50003985BC01CD01620F731F811D911D7CDDA3
:100C60008E3441F0823561F481EF91E09E8B8D8B63
:100C700080E00BC08EED91E09E8B8D8B81E005C0F6
:100C800089EC91E09E8B8D8B82E0DF91CF9108956E
:100C9000CF93DF93EC01488359836A837B838FE78B
:100CA0008E8787E18F878DE1888B198A89EC91E0A7
:100CB0009E8B8D8BCE0182DD99878887CE01F9DDF1
:100CC0009D838C83888599859C01225F3F4F3D875A
:100CD0002C87C8969C8B8B8B1F821E821B861A8644
:100CE000CE017DDF882331F1CE01A7DF8A8B8823F7
:100CF00039F0813059F488E2898B86EC90E004C0A9
:100D000088E2898B8EEE90E0988F8F8B488559858D
:100D10006F85CE0182DD9C019B878A879F85492F45
:100D200050E041505109420F531F6989CE0175DDD2
:100D30009F838E83DF91CF910895EF92FF920F935F
:100D40001F93CF93DF93CDB7DEB72B970FB6F894F1
:100D5000DEBF0FBECDBFFC01F588E68840E050E065
:100D600063E070E08E010F5F1F4FC801AAD2EF92BF
:100D7000FF921F930F9340D4C8019BD30F900F9005
:100D80000F900F902B960FB6F894DEBF0FBECDBF1D
:100D9000DF91CF911F910F91FF90EF9008950895EB
:100DA000CF92DF92EF92FF920F931F93CF93DF9337
:100DB000CDB7DEB76A970FB6F894DEBF0FBECDBFD2
:100DC000062F7A01CA01ECD286E4089F8001112423
:100DD00060911B0270911C02600F711F4AE150E08C
:100DE000CE0101960E94DE274AE150E0BE016F5F0E
:100DF0007F4FC701EED280911B0290911C02800FA1
:100E0000911F4A960E94EE27682FC701C9D2809190
:100E10001B0290911C02800F911F4B960E94F62797
:100E2000D82E692FC701BCD26D2DC701B9D28091D0
:100E30001B0290911C02800F911F4D960E94EE277D
:100E4000682FC701ADD2C12CD12C80911B0290918B
:100E50001C02800F911F9601225E3F4F820F931F4D
:100E60000E94EE27682FC7019BD28FEFC81AD80ABD
:100E700088E2C816D10449F76A960FB6F894DEBF27
:100E80000FBECDBFDF91CF911F910F91FF90EF90DB
:100E9000DF90CF9008958F929F92AF92BF92CF92A2
:100EA000DF92EF92FF920F931F93CF93DF93CDB713
:100EB000DEB769970FB6F894DEBF0FBECDBF5C01F9
:100EC000AB018E01045F1F4F67E070E0C801F9D1EC
:100ED0008091360190913701A09138018F8B988FC6
:100EE000A98F7E0187E1E80EF11C48016E01EAE15D
:100EF000CE0ED11CF70161917F018BE0F401DE0180
:100F0000119601900D928A95E1F7AE014F5F5F4F08
:100F1000C50146DFCE010196CCD2EC14FD0451F799
:100F2000C801C7D269960FB6F894DEBF0FBECDBF19
:100F3000DF91CF911F910F91FF90EF90DF90CF90B5
:100F4000BF90AF909F908F9008959F92AF92BF9265
:100F5000CF92DF92EF92FF920F931F93CF93DF9385
:100F6000CDB7DEB764970FB6F894DEBF0FBECDBF26
:100F700086E0E5E4F1E0DE011C9601900D928A9591
:100F8000E1F78091360190913701A09138018A8B69
:100F90009B8BAC8B6E0182E1C80ED11C5E01E5E13A
:100FA000AE0EB11C96E4992EF601F1906F019F9C54
:100FB0008001112460911B0270911C02600F711F4F
:100FC00046E050E0CE010C960E94FB2761E36F0DD6
:100FD00080911B0290911C02800F911F04960E9429
:100FE000042886E0E82EF12C80911B0290911C02CF
:100FF000800F911F60E08E0D9F1D0E940428FFEF5F
:10100000EF1AFF0A8AE1E816F10471F780911B02DA
:1010100090911C02800F911F61E04A960E94042863
:1010200080911B0290911C02800F911F60E070E084
:101030004B960E94112880911B0290911C02800FF8
:10104000911F61E04D960E940428E12CF12C61E093
:101050006E0D80911B0290911C02800F911F9701D1
:10106000225E3F4F820F931F0E940428EFEFEE1A7B
:10107000FE0AF8E2EF16F10451F7AC14BD0409F0D2
:1010800093CF40E050E063E070E08E010F5F1F4FB0
:10109000C80117D184E092E09F938F931F930F9321
:1010A000ABD2C80106D20F900F900F900F906496AC
:1010B0000FB6F894DEBF0FBECDBFDF91CF911F9169
:1010C0000F91FF90EF90DF90CF90BF90AF909F90E7
:1010D0000895EF92FF920F931F93CF93DF93C091E8
:1010E0001B02D0911C0296E4899FC00DD11D1124D2
:1010F0008B017E01E6E4EE0EF11CCE010E94EE278C
:10110000F80161918F01861719F0CE010E94042821
:101110002196CE15DF0589F7DF91CF911F910F91B1
:10112000FF90EF90089580931A0294E0899FF00158
:101130001124E75FFE4F80819181A281B38180936A
:10114000160290931702A0931802B0931902089503
:10115000CF93DF93EB0180911A0260911B02709193
:101160001C0296E4899F600D711D11244AE150E034
:10117000CE010E94DE27CE01DF91CF910895FF922C
:101180000F931F93CF93DF93CDB7DEB76A970FB658
:10119000F894DEBF0FBECDBF8B01F42EBE016F5F92
:1011A0007F4FD6DFBE016F5F7F4FC8010E94C22410
:1011B000892BB1F0B801CE0101960E94CB24609139
:1011C0001B0270911C0286E4F89E600D711D1124B3
:1011D0004AE150E0CE0101960E94FB2781E001C068
:1011E00080E06A960FB6F894DEBF0FBECDBFDF91E8
:1011F000CF911F910F91FF900895CF92DF92EF92C0
:10120000FF920F931F93CF93DF937C0180911A027B
:10121000C0911B02D0911C0296E4899FC00DD11D84
:10122000112487016E01E6E4CE0ED11CCE010E948E
:10123000EE27F80181938F012196CC15DD05B1F7DA
:10124000C701DF91CF911F910F91FF90EF90DF9039
:10125000CF900895809115019091160190931C02F2
:1012600080931B02E0911A0284E0E89FF0011124B0
:10127000E75FFE4F80819181A281B3818093160246
:1012800090931702A0931802B0931902089596271D
:10129000092E0294202D2F702927692F6025660FB3
:1012A000607E2627602D6927607F6695092E000CD9
:1012B000661F9695969596959F7196279827822FEB
:1012C0000895FC018CE380831682158210861782B4
:1012D0008EE38187128672836183548343830895EA
:1012E000FC018CE38083148213821682158210869F
:1012F00017828EE38187128683E090E09283818358
:10130000089580911D0290911E0215C40F931F93A2
:10131000CF93DF938C01EB0188818823A1F0F80142
:1013200085819681019696838583688187819085E2
:10133000AEDFF80190878783699180911D029091BB
:101340001E02F9D3E9CFDF91CF911F910F9108953C
:10135000EF92FF921F93CF93DF937C01FB011491D7
:10136000EB0121961123B1F0F70185819681019659
:1013700096838583612F8781908589DFF701908728
:101380008783612F80911D0290911E02D4D3FE01AC
:101390001491E7CFDF91CF911F91FF90EF900895C7
:1013A0001F93CF93DF93EC01162F80911D02909134
:1013B0001E02C1D38D819E8101969E838D83612FF4
:1013C0008F81988564DF98878F83DF91CF911F91FC
:1013D0000895DF92EF92FF920F931F93CF93DF93C5
:1013E0008C01EB017B01E40EF51ECE15DF05A9F0A3
:1013F000D9906D2D80911D0290911E029CD3F80111
:10140000858196810196968385836D2D8781908550
:101410003EDFF80190878783E8CFDF91CF911F915E
:101420000F91FF90EF90DF900895CF92DF92EF92AF
:10143000FF920F931F93CF93DF9300D0CDB7DEB70A
:101440001A821982FC012285211128C08C0181E0B9
:101450008287CE2E7F01909117018E2D8C198917CE
:1014600080F06981C8014DDF6A81C8010F900F903B
:10147000DF91CF911F910F91FF90EF90DF90CF9070
:1014800040CFF701D1907F016D2DC8013ADF6D2D5E
:1014900089819A81FCDE9A838983DDCF0F900F903A
:1014A000DF91CF911F910F91FF90EF90DF90CF9040
:1014B0000895BBCFEF92FF920F931F93CF93DF93CB
:1014C000EC018B017B01E40EF51E0E151F05A9F042
:1014D0008D819E8101969E838D83F80160818F812D
:1014E0009885D5DE98878F83F80161918F0180916F
:1014F0001D0290911E021FD3E8CFCE01DF91CF9144
:101500001F910F91FF90EF9090CFCF93DF93EC015D
:10151000FDDECE01DF91CF9188CFCF93DF93EC0139
:1015200017DFCE01DF91CF9180CF0F931F93CF9321
:10153000DF93CDB7DEB7E2970FB6F894DEBF0FBEEC
:10154000CDBF6BAD7CADFB0101900020E9F7319779
:10155000E61BF70BE634F10580F4AE01435C5F4F08
:10156000CE0101960E94E1248C01BE016F5F7F4F86
:1015700089AD9AADCBDEC80102C080E090E0E29672
:101580000FB6F894DEBF0FBECDBFDF91CF911F9194
:101590000F9108950F931F93CF93DF93CDB7DEB7CD
:1015A000E2970FB6F894DEBF0FBECDBF8BAD9CADFA
:1015B0000E94B9248634910590F4AE01435C5F4FDC
:1015C0006BAD7CADCE0101960E9409258C01BE0158
:1015D0006F5F7F4F89AD9AAD99DEC80102C080E090
:1015E00090E0E2960FB6F894DEBF0FBECDBFDF915C
:1015F000CF911F910F9108950F931F93CF93DF9376
:10160000CDB7DEB7E2970FB6F894DEBF0FBECDBF01
:101610008BAD9CAD0E94B9248634910590F4AE0147
:10162000435C5F4F6BAD7CADCE0101960E940925F6
:101630008C01BE016F5F7F4F89AD9AAD66DFC80137
:1016400002C080E090E0E2960FB6F894DEBF0FBED5
:10165000CDBFDF91CF911F910F9108950E94581E29
:1016600090931E0280931D0208951F93CF93DF93E2
:10167000EC018A859B85AC85BD85892B8A2B8B2BBC
:1016800059F188819981AA81BB812E853F85F90115
:10169000E80FF91F10818A859B85AC85BD85019770
:1016A000A109B1098A879B87AC87BD878881998109
:1016B000AA81BB81288939894A895B89BC01CD010E
:1016C0006F5F7F4F8F4F9F4F0E948F226883798378
:1016D0008A839B83812F01C080E0DF91CF911F918E
:1016E0000895CF93DF93FC01A28DB38D4D915D9151
:1016F0006D917C91A685B785CD91DC91048CF58D9B
:10170000E02D9A01AB0144275527AFEFBFEF0E94B0
:10171000BA226C0F7D1F811D911DAF01DF91CF910A
:1017200093C6AF92BF92CF92DF92EF92FF920F9348
:101730001F93CF93DF93EC01EC85FD8535812681E6
:10174000978180858E01005F1F4FEE85FF85428562
:101750005385648575854A8F5B8F6C8F7D8F408143
:10176000518162817381488B598B6A8B7B8B448159
:101770005581668177814C8B5D8B6E8B7F8BC32E01
:10178000D22EE92EF82EA12CB12CC114D104E104E3
:10179000F10409F423C0C80168DF95013827032E3E
:1017A0000294802D8F708327932F9025990F907E20
:1017B0008927902D9327907F9695032E000C991FD3
:1017C0003695369536953F7139273227282F59019E
:1017D00081E0C81AD108E108F108D7CFEC85FD8572
:1017E00021853285A216B30621F08FEF9FEF9283F9
:1017F000818381E0A216B30609F080E0DF91CF91EA
:101800001F910F91FF90EF90DF90CF90BF90AF901E
:101810000895CF92DF92EF92FF920F931F93CF9391
:10182000DF93DC011E96ED91FC911F9702851385D5
:10183000248535854091180150E060E070E0041780
:1018400015072607370708F459C0EC018C01005F23
:101850001F4FEE85FF8582859385A485B585892BED
:101860008A2B8B2B09F44AC082859385A485B58584
:101870008A8F9B8FAC8FBD8F80819181A281B38134
:10188000888B998BAA8BBB8B84819581A681B7812C
:101890008C8B9D8BAE8BBF8BC801E7DE8E3351F5F1
:1018A0008883D12CED2CF12CC09018012C2D30E028
:1018B00021503109E216F30644F4C801D6DEFE01D8
:1018C000EE0DFF1D8183D394EDCF8C3399F40E84FC
:1018D000DF85C02DD12CE12CF12CC114D104E10401
:1018E000F10471F0CE01C1DEB1E0CB1AD108E108FC
:1018F000F108F3CF8E859F85B8DEABCF80E001C0C5
:1019000081E0DF91CF911F910F91FF90EF90DF90D9
:10191000CF9008958F929F92AF92BF92CF92DF9215
:10192000EF92FF920F931F93CF93DF93CDB7DEB764
:1019300028970FB6F894DEBF0FBECDBF8C01FB0118
:10194000DC011D969C938E931C971F967C936E933F
:101950001E9784E159968C935997408151816281F9
:10196000738150964D935D936D937C93539740890B
:1019700051896289738990964D935D936D937C93A1
:10198000939742855385648575855A964D935D93EB
:101990006D937C935D97868597855F969C938E93D8
:1019A0005E9781E058968C93F80115821682178213
:1019B000108614A28CE291E0A0E0B0E08D839E83BB
:1019C000AF83B88719821A821B821C8288EF92E04B
:1019D00088DE6B017C01C8011CDF882309F47AC012
:1019E00080E090E0DC01F80124853585F90145812E
:1019F00056816781708584179507A607B70740F45D
:101A0000FCEAFA95F1F700000196A11DB11DEBCF9C
:101A10009EE088E10FB6F894A89581BD0FBE91BDF8
:101A2000D8011E96ED91FC911F97428553856485E0
:101A300075851C96ED91FC911D9785819681A781F6
:101A4000B085481759076A077B0758F588EF92E079
:101A500048DE8D809E80AF80B884DC01CB018C197C
:101A60009D09AE09BF0988169906AA06BB06C0F6ED
:101A7000D8011E96ED91FC911F971082118212825F
:101A80001382148215821682178212861386148698
:101A900015861C96ED91FC911D978EEF9FEF928716
:101AA00081870FB6F894A89581B5886181BD11BC76
:101AB0000FBEC80136DE882321F081E0F80184A33F
:101AC00009C0D8011C96ED91FC911D978DEF9FEFF9
:101AD0009287818728960FB6F894DEBF0FBECDBFE0
:101AE000DF91CF911F910F91FF90EF90DF90CF90FA
:101AF000BF90AF909F908F900895E7E2F2E022E3CD
:101B000030E03183208387E0828380E390E0948318
:101B10008383E2E2F2E03183208326E02283948310
:101B2000838380911901EFE1F2E021E330E031831A
:101B30002083828308950F931F93CF93DF93EC014B
:101B40000FA518A929A93AA98DA99EA9AFA9B8AD31
:101B5000081719072A073B0799F3CE0185960E94BB
:101B60001F02EA81FB81208181E090E00F8402C0A6
:101B7000880F991F0A94E2F7822B8083DF91CF911F
:101B80001F910F910895CF93DF93EC019A01AB0160
:101B900060E070E18EE090E00E948F22BA01A9011E
:101BA000415051096109710957FF0EC0E881F9815F
:101BB00081E090E0088802C0880F991F0A94E2F73C
:101BC00080835F7766277727E885F985BB27A72F6E
:101BD000962F852F8083EA85FB854083EA81FB81F0
:101BE0008D858083EC81FD818E858083DF91CF910F
:101BF00008952F923F924F925F926F927F928F92B1
:101C00009F92AF92BF92CF92DF92EF92FF920F938B
:101C10001F93CF93DF93EC01962E29013A011C010B
:101C200081E1280E311C198A1A8A1B8A1C8A1D8A96
:101C30001E8A1F8A188E84E1882E8A8E1B8E1C8E27
:101C40001D8E1E8EE9A2FAA20BA31CA389A19AA144
:101C5000ABA1BCA10E94942398A38F8F198E7E0103
:101C600085E2E80EF11C1DA21EA21FA218A619A64D
:101C70001AA61BA61CA68EA61FA618AA19AA1AAADF
:101C8000ADAABEAACFAAD8AE8DA99EA9AFA9B8AD5C
:101C90000E9494239CAB8BAB1DA691102BC08BE2B2
:101CA00090E0998388838AE290E09B838A8385E928
:101CB00090E09D838C838CE290E09F838E8380E90B
:101CC00090E09987888789E290E09B878A8785E002
:101CD0008F8781E0888B87E08C8788E98D8786E015
:101CE0008E873092330220923202F0923102E092DB
:101CF00030022CC081E0981229C08BE990E09983D2
:101D000088838AE990E09B838A838DE990E09D83B4
:101D10008C838CE990E09F838E8388E990E099879B
:101D2000888789E990E09B878A8785E08F87988AF2
:101D300087E08C8788E98D8786E08E8730922F0236
:101D400020922E02F0922D02E0922C02B301A20109
:101D5000CE01DF91CF911F910F91FF90EF90DF9017
:101D6000CF90BF90AF909F908F907F906F905F903B
:101D70004F903F902F9007CFDC011296ED91FC9190
:101D80001397408121E030E0B9011C960C9002C00D
:101D9000660F771F0A94E2F7CB0180958423808336
:101DA0000895DC011296ED91FC911397408121E09A
:101DB00030E0C9011C960C9002C0880F991F0A944C
:101DC000E2F7842B808308951F920F920FB60F9233
:101DD00011240BB60F922F933F934F935F936F9302
:101DE0007F938F939F93AF93BF93EF93FF936CB1C8
:101DF00080913202909133020E941F02FF91EF9175
:101E0000BF91AF919F918F917F916F915F914F9112
:101E10003F912F910F900BBE0F900FBE0F901F9010
:101E200018951F920F920FB60F9211240BB60F92B6
:101E30001F932F933F934F935F936F937F938F9352
:101E40009F93AF93BF93CF93DF93EF93FF93C09193
:101E50003002D09131028A859B85AC85BD85892B66
:101E60008A2B8B2BB1F18A859B85AC85BD85892B0F
:101E70008A2B8B2B59F188819981AA81BB812E8570
:101E80003F85F901E80FF91F10818A859B85AC8594
:101E9000BD850197A109B1098A879B87AC87BD875A
:101EA00088819981AA81BB81288939894A895B897E
:101EB000BC01CD016F5F7F4F8F4F9F4F0E948F22DC
:101EC000688379838A839B83812F01C080E08CB9EA
:101ED00001C05598FF91EF91DF91CF91BF91AF91E4
:101EE0009F918F917F916F915F914F913F912F9132
:101EF0001F910F900BBE0F900FBE0F901F90189563
:101F00001F920F920FB60F9211240BB60F922F93C0
:101F10003F934F935F936F937F938F939F93AF9371
:101F2000BF93EF93FF93CF93DF931F92CDB7DEB7AD
:101F300080919C008983698180912E0290912F026B
:101F40000E941F020F90DF91CF91FF91EF91BF91FF
:101F5000AF919F918F917F916F915F914F913F9141
:101F60002F910F900BBE0F900FBE0F901F901895E2
:101F70001F920F920FB60F9211240BB60F921F9360
:101F80002F933F934F935F936F937F938F939F9381
:101F9000AF93BF93CF93DF93EF93FF93C0912C0246
:101FA000D0912D028A859B85AC85BD85892B8A2B96
:101FB0008B2BB9F18A859B85AC85BD85892B8A2BB6
:101FC0008B2B59F188819981AA81BB812E853F8510
:101FD000F901E80FF91F10818A859B85AC85BD85C5
:101FE0000197A109B1098A879B87AC87BD87888142
:101FF0009981AA81BB81288939894A895B89BC0179
:10200000CD016F5F7F4F8F4F9F4F0E948F2268835C
:1020100079838A839B83812F01C080E080939C0019
:1020200015C080919A008F7D80939A00E0912C02D8
:10203000F0912D0210821182128213821482158275
:10204000168217821286138614861586FF91EF91E9
:10205000DF91CF91BF91AF919F918F917F916F91C0
:102060005F914F913F912F911F910F900BBE0F9059
:102070000FBE0F901F90189508951F920F920FB6E4
:102080000F9211240BB60F922F933F934F935F93B0
:102090006F937F938F939F93AF93BF93EF93FF9330
:1020A000E0912401F091250109952091420230919F
:1020B00043022115310531F08CB59DB5820F931F78
:1020C0009BBD8ABDFF91EF91BF91AF919F918F9181
:1020D0007F916F915F914F913F912F910F900BBE28
:1020E0000F900FBE0F901F9018951F920F920FB672
:1020F0000F9211240BB60F922F933F934F935F9340
:102100006F937F938F939F93AF93BF93EF93FF93BF
:10211000E0912201F0912301099520914002309134
:1021200041022115310531F08CB59DB5820F931F09
:1021300099BD88BDFF91EF91BF91AF919F918F9114
:102140007F916F915F914F913F912F910F900BBEB7
:102150000F900FBE0F901F9018951F920F920FB601
:102160000F9211240BB60F922F933F934F935F93CF
:102170006F937F938F939F93AF93BF93EF93FF934F
:10218000E0912001F0912101099520913E023091CA
:102190003F022115310541F08CB59DB5820F931F8B
:1021A0009093790080937800FF91EF91BF91AF9168
:1021B0009F918F917F916F915F914F913F912F915F
:1021C0000F900BBE0F900FBE0F901F9018951F928F
:1021D0000F920FB60F9211248F939F93AF93BF93DB
:1021E0008091440290914502A0914602B09147022D
:1021F0000196A11DB11D8093440290934502A093C6
:102200004602B0934702BF91AF919F918F910F907B
:102210000FBE0F901F9018951F920F920FB60F923E
:1022200011240BB60F922F933F934F935F936F93AD
:102230007F938F939F93AF93BF93EF93FF93E0911F
:102240001E01F0911F010995209138023091390249
:102250002115310551F08091880090918900820FFD
:10226000931F9093870080938600FF91EF91BF9119
:10227000AF919F918F917F916F915F914F913F911E
:102280002F910F900BBE0F900FBE0F901F901895BF
:102290001F920F920FB60F9211240BB60F922F932D
:1022A0003F934F935F936F937F938F939F93AF93DE
:1022B000BF93EF93FF93E0911C01F0911D010995ED
:1022C00020913602309137022115310551F080916D
:1022D000880090918900820F931F909385008093CE
:1022E0008400FF91EF91BF91AF919F918F917F916A
:1022F0006F915F914F913F912F910F900BBE0F9077
:102300000FBE0F901F9018951F920F920FB60F924D
:1023100011240BB60F922F933F934F935F936F93BC
:102320007F938F939F93AF93BF93EF93FF93E0912E
:102330001A01F0911B010995209134023091350268
:102340002115310551F08091880090918900820F0C
:10235000931F9093830080938200FF91EF91BF9130
:10236000AF919F918F917F916F915F914F913F912D
:102370002F910F900BBE0F900FBE0F901F901895CE
:102380001F920F920FB60F9211248F939F93AF93CA
:10239000BF9380913A0290913B02A0913C02B09190
:1023A0003D020196A11DB11D80933A0290933B021C
:1023B000A0933C02B0933D02BF91AF919F918F914A
:1023C0000F900FBE0F901F901895FC01A089B18946
:1023D0002D933C93A681B78111965C934E93709395
:1023E00025016093240106A4F7A5E02D808180617A
:1023F00080830895FC01A289B3892D933C93A08525
:10240000B18511965C934E937093230160932201E2
:1024100006A4F7A5E02D8081886080830895FC01E3
:10242000A089B1892D933C93A681B78111965C93C5
:102430004E9370931F0160931E0106A4F7A5E02D33
:1024400080818061808308954F925F926F927F9226
:102450008F929F92AF92BF92CF92DF92EF92FF92B4
:102460000F931F93CF93DF938A0128EE33E040E070
:1024700050E00E94C42229013A014B01D82FC92FF4
:10248000980140E050E060E070E081EE90E00E9452
:102490008F2289019A0158016901E12CF12C00E099
:1024A00010E09201A301B4018D2F9C2F0E94ED2218
:1024B000B901CA01DF91CF911F910F91FF90EF9069
:1024C000DF90CF90BF90AF909F908F907F906F9054
:1024D0005F904F9008954F925F926F927F928F928C
:1024E0009F92AF92BF92CF92DF92EF92FF920F93A3
:1024F0001F938B01BC0180E090E029E939E340E0C3
:1025000050E00E94C4225801C12CD12CE12CF12CA6
:1025100000E010E00E94ED2229013A01411451042B
:1025200081E06806710450F02BE431E045ED50E0A5
:102530006FE571E08CE791E00E946023C2011F917A
:102540000F91FF90EF90DF90CF90BF90AF909F9052
:102550008F907F906F905F904F900895CF93DF930F
:10256000CDB7DEB760970FB6F894DEBF0FBECDBF14
:102570001A82198281E090E09C838B8388E090E04E
:102580009E838D8380E490E098878F8380E091E044
:102590009A87898780E094E09C878B871E861D86BA
:1025A000188A1F86FE01E60FF11DE60FF11D8181DD
:1025B000928160960FB6F894DEBF0FBECDBFDF915B
:1025C000CF910895CF93DF93EC018FE490E099834E
:1025D00088838EE490E09B838A838AE790E09D83E2
:1025E0008C838AE490E09F838E8388E490E09987CF
:1025F000888788E790E09B878A8786E490E09D87BC
:102600008C878CE490E09F878E8782E492E0998BA0
:10261000888B80E492E09B8B8A8B8EE392E09D8B8B
:102620008C8B86E590E09F8B8E8B8CE790E0998F6A
:10263000888F84E492E09B8F8A8F1E8E1F8E18A253
:1026400019A21AA21BA21CA21DA21EA21FA218A69A
:1026500019A61AA61BA61CA61DA687E590E09FA793
:102660008EA78EB560FB80F98EBDEA81FB8161FB90
:10267000992790F9808190FB81F98083EA81FB8121
:1026800062FB992790F9808190FB82F98083E88131
:10269000F981808140FB80F98083E881F98141FBE9
:1026A000992790F9808190FB81F98083EA81FB81F1
:1026B00042FB992790F9808190FB83F98083EA811E
:1026C000FB8143FB442740F9808140FB84F98083F0
:1026D000CE0144DF9D8F8C8FEEA5FFA580818460A5
:1026E0008083DF91CF910895CF93DF93EC018BE846
:1026F00090E099838883EAE8F0E0FB83EA838CE842
:1027000090E09D838C8386E890E09F838E8384E8AD
:1027100090E09987888782E890E09B878A8780E8A5
:1027200090E09D878C8788E890E09F878E8788E37C
:1027300092E0998B888B86E392E09B8B8A8B84E373
:1027400092E09D8B8C8B86E590E09F8B8E8B8CE747
:1027500090E0998F888F8AE392E09B8F8A8F1E8EFC
:102760001F8E18A219A21AA21BA21CA21DA21EA291
:102770001FA218A619A61AA61BA61CA61DA68DE7A1
:1027800090E09FA78EA7808160FB80F98083EA811B
:10279000FB8161FB992790F9808190FB81F980830F
:1027A000EA81FB8162FB992790F9808190FB82F995
:1027B0008083E881F981808140FB80F98083E88112
:1027C000F98141FB992790F9808190FB81F9808301
:1027D000EA81FB8142FB992790F9808190FB83F984
:1027E0008083EA81FB8143FB442740F9808140FBE1
:1027F00084F98083CE01B2DE9D8F8C8FEEA5FFA57C
:10280000808184608083DF91CF9108951F920F9221
:102810000FB60F9211240BB60F922F933F934F9345
:102820005F936F937F938F939F93AF93BF93EF9338
:10283000FF93E0913401F09135010995FF91EF91FB
:10284000BF91AF919F918F917F916F915F914F91C8
:102850003F912F910F900BBE0F900FBE0F901F90C6
:1028600018951F920F920FB60F9211240BB60F926C
:102870002F933F934F935F936F937F938F939F9388
:10288000AF93BF93EF93FF93E0913201F091330147
:102890000995FF91EF91BF91AF919F918F917F919A
:1028A0006F915F914F913F912F910F900BBE0F90C1
:1028B0000FBE0F901F9018951F920F920FB60F9298
:1028C00011240BB60F922F933F934F935F936F9307
:1028D0007F938F939F93AF93BF93EF93FF93E09179
:1028E0003001F09131010995FF91EF91BF91AF91C6
:1028F0009F918F917F916F915F914F913F912F9118
:102900000F900BBE0F900FBE0F901F9018951F9247
:102910000F920FB60F9211240BB60F922F933F9385
:102920004F935F936F937F938F939F93AF93BF93D7
:10293000EF93FF93E0912E01F0912F010995FF9104
:10294000EF91BF91AF919F918F917F916F915F9127
:102950004F913F912F910F900BBE0F900FBE0F9094
:102960001F9018951F920F920FB60F9211240BB65D
:102970000F922F933F934F935F936F937F938F9318
:102980009F93AF93BF93EF93FF93E0912C01F0914E
:102990002D010995FF91EF91BF91AF919F918F917B
:1029A0007F916F915F914F913F912F910F900BBE4F
:1029B0000F900FBE0F901F9018951F920F920FB699
:1029C0000F9211240BB60F922F933F934F935F9367
:1029D0006F937F938F939F93AF93BF93EF93FF93E7
:1029E000E0912A01F0912B010995FF91EF91BF91A0
:1029F000AF919F918F917F916F915F914F913F9197
:102A00002F910F900BBE0F900FBE0F901F90189537
:102A10001F920F920FB60F9211240BB60F922F93A5
:102A20003F934F935F936F937F938F939F93AF9356
:102A3000BF93EF93FF93E0912801F091290109954D
:102A4000FF91EF91BF91AF919F918F917F916F9186
:102A50005F914F913F912F910F900BBE0F900FBE42
:102A60000F901F9018951F920F920FB60F9211247E
:102A70000BB60F922F933F934F935F936F937F9378
:102A80008F939F93AF93BF93EF93FF93E0912601B2
:102A9000F09127010995FF91EF91BF91AF919F911F
:102AA0008F917F916F915F914F913F912F910F90F7
:102AB0000BBE0F900FBE0F901F901895FC01108257
:102AC0001182128213821482158216821782128654
:102AD0001386148615860895FC01758364835783D5
:102AE00046833187208781E0828713821282118298
:102AF00010820895EF92FF920F931F93CF93DF936D
:102B0000CDB7DEB7AC970FB6F894DEBF0FBECDBF22
:102B1000AB0186E0EFE3F1E0DE01969601900D92C5
:102B20008A95E1F780911A028E010F5F1F4FF8011D
:102B3000E80FF11DE80FF11DF5A0E6A060E070E0E0
:102B4000C8010E946109EF92FF921F930F930E94A8
:102B5000FC0AC8010E94590ACE018C960E94CF0639
:102B6000B801CE018C960E94A808F82EE92E065EC8
:102B70001F4F40E050E060E070E0C8010E94610932
:102B8000EF92FF9281E293E09F938F931F930F93B5
:102B90000E94FC0AC8010E94590AC8010E94CF067F
:102BA00060E070E0C8010E944B070FB6F894DEBFEA
:102BB0000FBECDBFAC960FB6F894DEBF0FBECDBF33
:102BC000DF91CF911F910F91FF90EF9008952F9279
:102BD0003F924F925F926F927F928F929F92AF92AD
:102BE000BF92CF92DF92EF92FF920F931F93CF93FA
:102BF000DF93CDB7DEB7CB50D1400FB6F894DEBF30
:102C00000FBECDBFFB01A485B5851196ED91FC915A
:102C100012973197ED31F10508F072C37B018C01F9
:102C2000EA5BFF4F0C94B122DC011896ED91FC9108
:102C30001997828193810E94710B4B015C01B7014E
:102C4000F801808591854CD5D8011896ED91FC91BD
:102C50001997828193810E94710BD8011896ED918A
:102C6000FC9119970681178120853185DC01CB0104
:102C7000800F911FA21FB31F88199909AA09BB09C8
:102C800086839783A087B1873BC313964D915C9150
:102C9000149760E070E0CE0101960E946109CE01B8
:102CA00001960E94590A1BC0DC0114968D919C91DB
:102CB000159741960E94350B682FC7010E942C2260
:102CC0001FC3FC018481958141960E94350B482FDA
:102CD000B701D80118968D919C91199781D6F8016A
:102CE000848195814196EADE0BC388EA87BB14BADA
:102CF0001ABA109261001092620015BA1BBA80E6EF
:102D000088BBFEC213964D915C9114977E01F1E051
:102D1000EF0EFF1E60E070E0C7010E946109D8015C
:102D200016968D919C911797CED385E393E09F9350
:102D30008F93FF92EF920E94FC0A8E010F5F1F4F4C
:102D4000C8010E94700982E193E09F938F931F93C3
:102D50000F930E94FC0AC8010E94590A43C0CB018C
:102D60000E942C21D80114968D919C911597BACF71
:102D700013964D915C91149763E070E0FE013196DB
:102D80007F01CF010E94610965E672E0C7010E94E0
:102D9000A80964E472E0C7010E94A80960E572E036
:102DA000C7010E94A80988EF92E00E94710B9F93CF
:102DB0008F937F936F9388EB92E09F938F93FF9213
:102DC000EF920E94CA0AD80111968C9111978F93A5
:102DD0008C918F9382EA92E09F938F93FF92EF9270
:102DE0000E94CA0AC7010E94590A0FB6F894DEBFB2
:102DF0000FBECDBF85C240E050E060E070E09E01B4
:102E00002F5F3F4F7901C9010E94610963E073E0C0
:102E1000C7010E94A809D8011896ED91FC91199755
:102E200085858F9384858F938FEE92E09F938F9308
:102E3000FF92EF920E94CA0AD8011896ED91FC9178
:102E4000199783858F9382858F938AED92E09F9364
:102E50008F93FF92EF920E94CA0AD8011896ED91C3
:102E6000FC9119971386128615861486BBCF13968C
:102E70004D915C91149760E070E0CE0101960E9444
:102E8000610968E573E0CE0101960E948D0ACE01CA
:102E900001960E94590A61E0D80112968D919C9189
:102EA00013970E94042898E088E10FB6F894A8953B
:102EB00081BD0FBE91BDFFCF13964D915C911497CC
:102EC00063E070E0CE0101960E94610969E373E05E
:102ED000CE0101960E948D0ACE0101960E94590AE8
:102EE00061E080E090E00E94042861E085ED90E0E0
:102EF0000E940428F8940C9400F002C213964D919D
:102F00005C91149763E070E0FE0131967F01CF0180
:102F10000E9461098DE892E09F938F93FF92EF9258
:102F20000E94FC0AC7010E94590A60E0D80112966B
:102F30008D919C9113970E94042802C113964D9184
:102F40005C91149760E070E0CE0101960E946109E7
:102F500065E373E0CE0101960E948D0ACE010196D1
:102F60000E94590A98E088E10FB6F894A89581BDAF
:102F70000FBE91BDFFCF13964D915C9114979C01AC
:102F800060E012C013964D915C9114979C0161E032
:102F9000DC0116968D919C91179709C013964D915F
:102FA0005C9114979C0162E0F8018681978108D3B7
:102FB0004091160250911702609118027091190207
:102FC000CE0101960E944806CE0101960E949D0600
:102FD00097C113966D917C9114978CDD91C11396D6
:102FE0000D911C911497CE0101960E94CF06B80155
:102FF000CE01019615C10E94A50782C115964D907C
:103000005D906D907C901897DC011496AD90BC900B
:1030100015974501B1E18B0E911CFE0131966F01B0
:103020001F01411451046104710409F424C1F50124
:10303000838D948DA58DB68D892B8A2B8B2B09F4CE
:103040001AC1C4010E94350BF60181936F01F1E0B2
:103050004F1A510861087108E4CF13964D915C91A5
:10306000149763E070E0FE0131967F01CF010E946A
:10307000610987E392E09F938F93FF92EF920E9402
:10308000FC0AC7010E94590A80E091E0D701FC01C7
:103090001D923197E9F70F900F900F900F90812CB0
:1030A00090E6992EA12CB12CD8011896ED91FC91A7
:1030B00019970684F785E02DA701C501B40109958C
:1030C000BFEF9B1AAB0ABB0A8114E0EE9E06E1E05B
:1030D000AE06B10449F78E010F5F1E4F40E050E08D
:1030E00063E070E0C8010E9461098BE292E09F9367
:1030F0008F931FC0409116025091170260911802E1
:1031000070911902CE0101960E944806DE88CF8890
:10311000D7011C96ED91FC911D97438154818E013E
:103120000F5F1E4F63E070E0C8010E946109CF92FB
:10313000DF921F930F930E94FC0AC8010E94590A54
:103140000F900F900F900F90DBC0E0913103F09142
:1031500032032281CC24C394D12CC60100903003C9
:1031600002C0880F991F0A94E2F7822B8283F8012C
:10317000848195810E94BC0ED8011496ED91FC913A
:10318000159720911801878D90A1820F911D26E43B
:10319000FC013196DE01119601900D922A95E1F71E
:1031A000BE016F5F7F4FFC0180810E946908D801DA
:1031B00014968D919C9115970E94D10EE091310348
:1031C000F091320382810090300302C0CC0CDD1CF0
:1031D0000A94E2F7C094C822C282D7011C96ED91EE
:1031E000FC911D974381548160E070E0CE018F5FB8
:1031F0009E4F0E946109CE018F5F9E4F0E94590A27
:10320000D7011C96ED91FC911D9703811481CE018D
:103210008F5F9E4F0E94CF06B801CE018F5F9E4FF9
:103220000E944B076DC0F0902803E0902903109294
:1032300029031092280313964D915C91149768E02E
:1032400070E08E010F5F1F4FC8010E946109EF926D
:10325000FF9289E891E09F938F931F930F930E94B1
:10326000950AC8010E94590A0F900F900F900F9075
:103270000F900F9045C0D7011C96ED91FC911D97C2
:1032800085819681A781B0858A319105A105B10517
:1032900028F4F101E80FF91F108201C01A8EB090D6
:1032A0001A026E01F1E0CF0EDF1EC6010E94CF06AA
:1032B0004B2DB101C6010E94BF08D7011C96ED91AC
:1032C000FC911D974381548163E070E0C6010E9428
:1032D00061093F922F9288EC92E09F938F93DF9247
:1032E000CF920E94FC0AC6010E94590AD7011C967F
:1032F000ED91FC911D9763817481C801FBDBB4CF14
:1033000081E0C55FDE4F0FB6F894DEBF0FBECDBFC4
:10331000DF91CF911F910F91FF90EF90DF90CF90B1
:10332000BF90AF909F908F907F906F905F904F90E5
:103330003F902F9008950F931F93CF93DF93CDB7B6
:10334000DEB72B970FB6F894DEBF0FBECDBF8B0153
:10335000DB011C96ED91FC911D97218132812E3F5E
:10336000BFEF3B07D1F02F3F3F4FA1F5DC01149693
:103370008D919C9115974196A1DBD8011C96ED91FA
:10338000FC911D974381548161817281CE01019628
:103390000E94610961E373E014C0FC01848195819E
:1033A00041968CDBD8011C96ED91FC911D974381D1
:1033B000548161817281CE0101960E9461096DE2A2
:1033C00073E0CE0101960E948D0ACE0101960E9403
:1033D000590A01C0FCDB2B960FB6F894DEBF0FBE76
:1033E000CDBFDF91CF911F910F910895FC017183A3
:1033F00060830895CF93DF93EC01798368838FE72F
:103400008A835D834C831E8282E090E00E94EE27D7
:103410000E94930881E090E00E94EE278B8388EA67
:1034200087BB14BA1ABA109261001092620015BAE2
:103430001BBA80E688BBDF91CF9108951F93CF938D
:10344000DF938091160290911702A0911802B0911B
:10345000190220E030E0AC01BD0150586F4F7F4FA2
:10346000D8E0C8EA84179507A607B70740F5009784
:10347000E1E0AE07B10570F4FC0114911093620015
:1034800035BB2BBBD8BBC8BB0196A11DB11D2F5F9F
:103490003F4FE8CFD8E0C8EAABBFFC0117911093CB
:1034A000620035BB2BBBD8BBC8BB0196A11DB11DAB
:1034B0002F5F3F4F84179507A607B70768F3DF9183
:1034C000CF911F910895CF92DF92FF920F931F9398
:1034D000CF93DF93CDB7DEB769970FB6F894DEBF11
:1034E0000FBECDBF6C0188EE87BB01E610E08FEF09
:1034F000F80180838ABB84BB88EAF82EF8BAC6013B
:103500009DDF409116025091170260911802709150
:103510001902CE0101960E944806CE0101960E9432
:10352000AC05F6018683F7BA14BA1ABAF80110820C
:103530001092620015BA1BBA80E688BB69960FB676
:10354000F894DEBF0FBECDBFDF91CF911F910F91D9
:10355000FF90DF90CF9008950F931F93CF93DF9349
:103560008C0181E090E00E94EE27F801838388239C
:1035700011F1E0913103F09132032281C1E0D0E0FA
:10358000CE010090300302C0880F991F0A94E2F721
:10359000822B8283C80197DFE0913103F0913203DF
:1035A00082810090300302C0CC0FDD1F0A94E2F745
:1035B000C095C823C283DF91CF911F910F910895C9
:1035C000CF92DF92EF92FF920F931F93CF936C01F4
:1035D000C62F7A018901862F0E949308C601BCDF9D
:1035E0006C2F82E090E00E940428B701C801CF91BF
:1035F0001F910F91FF90EF90DF90CF907BCAFF92C9
:103600000F931F93CF93DF93CDB7DEB72B970FB6F2
:10361000F894DEBF0FBECDBFFC01168288EE87BBDB
:1036200001E610E09FEFD8019C939ABB94BB88EA17
:10363000F82EF8BACF0102DFF7BA14BA1ABAF801B5
:1036400010821092620015BA1BBA80E688BB40E077
:1036500050E064E070E08E010F5F1F4FC8010E94D0
:1036600061098EE793E09F938F931F930F930E94BE
:10367000FC0AC8010E94590A0F900F900F900F90FA
:103680002B960FB6F894DEBF0FBECDBFDF91CF9162
:103690001F910F91FF9008950F931F93DA01B39537
:1036A0008B019C01011580E118072105310518F4F3
:1036B000F801849103C02BBFF8018791FA01919121
:1036C000AF01891309C00F5F1F4F2F4F3F4FEA17FC
:1036D000FB0741F780E001C081E01F910F91089541
:1036E0002F923F924F925F926F927F928F929F9212
:1036F000AF92BF92CF92DF92EF92FF920F931F9300
:10370000CF93DF93CDB7DEB72B970FB6F894DEBF1C
:103710000FBECDBF8C016B01DC01ED91FC91E78CFC
:10372000F0A08091180190E0F701E80FF91F3080B8
:10373000BFE0B31508F05BC0DB011C96ED91FC9176
:103740001D974381548161E070E0FE0131967F0155
:10375000CF010E9461091F923F9285EA91E09F93F9
:103760008F93FF92EF920E94950A0F900F900F9007
:103770000F900F900F90C12CD12C3DEAA32E31E079
:10378000B32ED801ED91FC9180911801078CF0A126
:10379000E02DEC0DFD1DE80FF11D80811F928F9330
:1037A000BF92AF92FF92EF920E94950ABFEFCB1AA1
:1037B000DB0A0F900F900F900F900F900F90EAE0A0
:1037C000CE16D104F1F6D801ED91FC91118A128A3E
:1037D000138A148A158A168A178A108E138E148EED
:1037E000158E168EC7010E94590A80E0E0C0832C16
:1037F000912C982C8824990C990C990C092C000C6C
:10380000AA08BB080196E80EF91E412C512C320182
:10381000212C8091160290911702A0911802B0916C
:103820001902880D991DAA1DBB1DBC01CD01640D97
:10383000751D861D971DA7012FDF882369F1F801EB
:10384000A481B5811196ED91FC911297228181E0BE
:1038500090E00C9002C0880F991F0A94E2F782272B
:1038600082838091160290911702A0911802B09164
:103870001902880D991DAA1DBB1DBC01CD01640D47
:10388000751D861D971DD8011E96ED91FC911F9701
:10389000A701099522242394BFEF5B1A6B0A7B0AC8
:1038A000F3944114F8E05F066104710409F0B1CFAC
:1038B000F801A481B5811196ED91FC9112972281B6
:1038C00081E090E00C9002C0880F991F0A94E2F703
:1038D000809582238283222051F0D8011C968D91FD
:1038E0009C911D9701961D969C938E931C97F801B1
:1038F000828593850196938782870190F081E02DE0
:10390000118A128A138A148A158A168A178A108EC7
:10391000138E148E158E168ED6011C96ED91FC9189
:103920001D974381548160E070E0FE0131967F0174
:10393000CF010E9461091F923F928AEA91E09F9312
:103940008F93FF92EF920E94950A0F900F900F9025
:103950000F900F900F90C12CD12C8DEAA82E81E0F2
:10396000B82ED801ED91FC9180911801078CF0A13F
:10397000E02DEC0DFD1DE80FF11D80811F928F934E
:10398000BF92AF92FF92EF920E94950ABFEFCB1ABF
:10399000DB0A0F900F900F900F900F900F90EAE0BE
:1039A000CE16D104F1F6C7010E94590A81E02B9688
:1039B0000FB6F894DEBF0FBECDBFDF91CF911F9140
:1039C0000F91FF90EF90DF90CF90BF90AF909F90BE
:1039D0008F907F906F905F904F903F902F900895C1
:1039E0008F929F92AF92BF92CF92DF92EF92FF920F
:1039F0001F93CF93DF93CDB7DEB72B970FB6F89415
:103A0000DEBF0FBECDBF142FDB011C96ED91FC91E4
:103A10001D974381548160E070E0CE0101960E94C1
:103A20006109103140F098E088E10FB6F894A8954C
:103A300081BD0FBE91BD412F50E0542F4427550F3B
:103A4000550F550F4A01B8EF9B1A052E000C660B57
:103A5000770BC0901602D0901702E0901802F090F9
:103A60001902C40ED51EE61EF71EA12CB12C8091A2
:103A7000160290911702A0911802B0911902880DB8
:103A8000991DAA1DBB1DC816D906EA06FB06B0F48F
:103A9000C114E0E1DE06E104F10418F4F6016491DA
:103AA00003C0EBBEF6016791CE0101960E94D009DA
:103AB000FFEFCF1ADF0AEF0AFF0AD9CFCE01019636
:103AC0000E94590A2B960FB6F894DEBF0FBECDBFE9
:103AD000DF91CF911F91FF90EF90DF90CF90BF903B
:103AE000AF909F908F900895E0913803F091390343
:103AF00080E090E0309749F0029620813181820F7A
:103B0000931F0280F381E02DF5CF08950F931F934B
:103B1000CF93DF9300D0CDB7DEB78091360390917D
:103B200037038E010F5F1F4F009729F40054134095
:103B30001A83098309C0081B190B1A830983D4DF70
:103B4000800F911F9A83898389819A810F900F90AA
:103B5000DF91CF911F910F910895CF93DF93A3E34E
:103B6000B3E01196ED91FC911297228181E090E0F3
:103B70000C9002C0880F991F0A94E2F7822B82836F
:103B8000E8EFF2E0A685B785CD91DC91648D758D67
:103B900081E090E00E946B12AC014C0F5D1F20E0B1
:103BA00030E064E17EE188EF92E0DF91CF910C9408
:103BB000E511ACDF9C0160912A0370912B03611524
:103BC000710559F088EE93E096D480E197E293D4A2
:103BD00084E690E0861B970B02C084E690E040915B
:103BE0002C0350912D034817590720F490932D036F
:103BF00080932C03809128039091290382179307C7
:103C000020F4309329032093280310922B03109261
:103C10002A030895682F80912E0390912F030E940C
:103C20009B0D80E090E00895CF93DF93A3E3B3E092
:103C30001196ED91FC911297228181E090E00C9019
:103C400002C0880F991F0A94E2F78095822382832D
:103C5000E8EFF2E0A685B785CD91DC91648D758D96
:103C600088EE93E00E946B12AC014C0F5D1F20E0C8
:103C700030E06DEA7DE188EF92E0DF91CF910C9426
:103C8000E511EAEBF2E08AE09EE1918780871386F6
:103C9000128682E0838315861486AAE3B3E0139626
:103CA000FC93EE9312971596FC93EE931497089558
:103CB00081E892E0089585ED90E00E94EE27813042
:103CC00071F460E085ED90E00E94042898E088E1BE
:103CD0000FB6F894A89581BD0FBE91BDFFCF089592
:103CE000CF93DF93CDB7DEB7CC56D1090FB6F8949A
:103CF000DEBF0FBECDBFE0910603F09107038081C8
:103D00009181E0911203F09113034081518162810E
:103D10007381A0E0B0E08093160390931703A09303
:103D20001803B093190340931A0350931B03609335
:103D30001C0370931D03CE0186960E94700201E859
:103D400012E01FAF0EAF88EF92E022969FAF8EAFCA
:103D5000229780E393E024969FAF8EAF24978CE860
:103D600090EEA1E0B0E0ABBFFC01879196912E965A
:103D70009FAF8EAF2E9728961CAE1DAE1EAE1FAE07
:103D800028972A961FAE1EAE2A972C961FAE1EAEFF
:103D90002C97AE01425C5F4FB801CE018C599F4F0A
:103DA00029DB89DFCE018C599F4FD6DB10932F037F
:103DB00000932E037894E0910603F09107030081AD
:103DC0001181E0911203F0911303408151816281CE
:103DD0007381E0911403F091150380911A0390917F
:103DE0001B03A0911C03B0911D039A01AB01281B7A
:103DF000390B4A0B5B0BAFEFBFEFBCD36801E12C73
:103E0000F12C0091160310911703209118033091A3
:103E1000190346015701801A910AA20AB30A680DD4
:103E2000791D8A1D9B1DAF010E942412F62EE72EDC
:103E3000AC966FAFAC97AD967FAFAD9722DF609138
:103E400014037091150384EF91E00E946B12E091CE
:103E50000603F0910703408151814C595F4F9C014B
:103E60006DEA7DE188EF92E00E94E5116091140314
:103E7000709115038AE090E00E946B12E0910603B6
:103E8000F0910703408151814C595F4F9C0169EDCE
:103E90007DE188EF92E00E94FA116091E402709156
:103EA000E50288EC90E00E946B129C0140E050E03B
:103EB00065EA72E088EC92E00E940F129E01225C9B
:103EC0003F4FAE014C595F4F61E872E0CE01875A17
:103ED0009F4F0E946C156F2D7E2DCE01875A9F4FEC
:103EE00085DA10929202109293021092940210922C
:103EF00095021092960210929702109298021092D8
:103F0000990210929C0210929D0210929E021092B1
:103F10009F0240E050E063E070E08E010F5F1F4FB2
:103F2000C8010E9461096FEB73E0C8010E94A809F3
:103F300065E973E0C8010E94A8091F921F9283E8F7
:103F400093E09F938F931F930F930E94CA0AEF925F
:103F5000FF928AEA93E09F938F931F930F930E949F
:103F6000CA0AC8010E94590ACE0185599F4F74D4CC
:103F70000FB6F894DEBF0FBECDBF80EDE82E87E010
:103F8000F82E98E1C92E2FE0B22E40919C0250915C
:103F90009D0260919E0270919F028091180190E0B5
:103FA000A0E0B0E0481759076A077B0768F162E9AB
:103FB00072E0C8010E948A0C8DA1882341F0B801EB
:103FC000CE01875A9F4FB7D9E12CF12C1DC0ED854A
:103FD000FE85818592858E3F2FEF920729F44381DC
:103FE000548162E070E006C0039671F4438154810D
:103FF00061E070E0CE01825B9F4F0E946109CE01BB
:10400000825B9F4F0E94590A81EDE81687E0F8060F
:1040100008F59FEFE91AF90A6090CE027090CF027E
:10402000E091D602F091D702808091806091E40205
:104030007091E5028CE291E00E946B12880D991D4F
:10404000F30191838083F0EDEF16F7E0FF0608F4AB
:1040500085C00DC0AB968FADAB97882341F08091A2
:104060000601811104C0CE018C599F4FC8DA80919E
:10407000630290916402A0916502B0916602892B5F
:104080008A2B8B2B09F079C069C0809163029091D3
:104090006402A0916502B0916602892B8A2B8B2B5A
:1040A00009F472C08091590290915A02A0915B026A
:1040B000B0915C022091670230916802F901E80F2B
:1040C000F91FD0808091630290916402A0916502F3
:1040D000B09166020197A109B109809363029093A0
:1040E0006402A0936502B093660280915902909198
:1040F0005A02A0915B02B0915C022091690230915A
:104100006A0240916B0250916C02BC01CD016F5F5D
:104110007F4F8F4F9F4F03D26093590270935A0283
:1041200080935B0290935C026D2DCE0186960E9477
:10413000B4028091630290916402A0916502B091F3
:104140006602892B8A2B8B2B09F09FCF0FB6F89430
:10415000A89581B5886181BD11BC0FBE80912A03ED
:1041600090912B03019690932B0380932A0386E66C
:104170009EE00197F1F7000008CF0FB6F894A895DC
:10418000C1BC0FBEB1BCD5CF60E0CFCFAF92BF9264
:10419000CF92DF92EF92FF920F931F93E3E3F3E04E
:1041A00087E0808380E390E0928381838F9AE0E3CD
:1041B000F3E026E02083928381838E9AE8E2F3E0A5
:1041C00011821082138212821582148240E065E00F
:1041D00088EF92E00E94E21240E065E088EC92E015
:1041E0000E947413E0901801F12C8FEFE81A87EF0A
:1041F000F80A0F2C000C000B110B88E0A82EB12C34
:10420000C12CD12C20E032EC41E050E061E081E8AB
:1042100092E00E94F90DA12CB12C6501A3941AE043
:10422000E12EF12C00E010E020E835E240E050E023
:1042300060E088E492E00E94F90D1F910F91FF90D9
:10424000EF90DF90CF90BF90AF90089590E0000086
:104250009F5F8917E0F708953F924F925F926F92A8
:104260007F928F929F92AF92BF92CF92DF92EF9206
:10427000FF920F931F93CF93DF93CDB7DEB72E97A7
:104280000FB6F894DEBF0FBECDBF7C01E0913403C2
:10429000F0913503228181E090E00090330302C069
:1042A000880F991F0A94E2F7822B8283D7011C960C
:1042B000ED91FC911D97658176818781908523E042
:1042C00030E040E050E02BD1622E532E88EE87BBC9
:1042D0008FEF809361008ABB84BB88EA88BBC12CC6
:1042E000D12C4E01BFE08B0E911C88E0382E98EA4D
:1042F000492ED7011C96ED91FC911D97C601A0E0B7
:10430000B0E0458156816781708584179507A607BF
:10431000B70708F05FC0F701068517855E01FCE06E
:10432000AF0EB11CF80182859385A485B585892BD4
:104330008A2B8B2B09F43FC0F80182859385A485D5
:10434000B585892B8A2B8B2BA1F1F8018081918176
:10435000A281B38126853785F901E80FF91F7080A6
:10436000F80182859385A485B5850197A109B109D6
:1043700082879387A487B58780819181A281B38149
:104380002089318942895389BC01CD016F5F7F4FFC
:104390008F4F9F4FC4D0D8016D937D938D939C9385
:1043A0001397872DF50181935F01E815F90519F041
:1043B000B9CF80E0F7CF8E85809362008D8585BB75
:1043C0008C858BBB38BA48BA38BA48BAF3E0CF0EFE
:1043D000D11C8FCF4381548163E070E08E010F5F69
:1043E0001F4FC8010E9461095F926F9287EC93E0B2
:1043F0009F938F931F930F930E94FC0AC8010E9402
:10440000590A88EA87BB14BA1ABA1092610010924E
:10441000620015BA1BBA80E688BB0F900F900F9010
:104420000F900F900F9081E02E960FB6F894DEBF9C
:104430000FBECDBFDF91CF911F910F91FF90EF90F5
:10444000DF90CF90BF90AF909F908F907F906F90B4
:104450005F904F903F900895EF92FF920F931F93BC
:10446000CF93DF93CDB7DEB72B970FB6F894DEBFAF
:104470000FBECDBF062FDC011C96ED91FC911D9760
:104480004381548160E070E0CE0101960E94610991
:1044900088EC87BB109261008FEF8ABB84BB88EAEF
:1044A00088BB10E0102F0027110F110F110F78019A
:1044B000B8EFFB1A0E151F0568F415BB0BBBC798A8
:1044C00085E0C4DE60B1CE0101960E94D0090F5F85
:1044D0001F4FF0CFCE0101960E94590A2B960FB6BE
:1044E000F894DEBF0FBECDBFDF91CF911F910F912A
:1044F000FF90EF900895AA1BBB1B51E107C0AA1FB4
:10450000BB1FA617B70710F0A61BB70B881F991F74
:104510005A95A9F780959095BC01CD010895A1E227
:104520001A2EAA1BBB1BFD010DC0AA1FBB1FEE1F2D
:10453000FF1FA217B307E407F50720F0A21BB30B78
:10454000E40BF50B661F771F881F991F1A9469F7F4
:1045500060957095809590959B01AC01BD01CF0150
:104560000895EE0FFF1F0024001C0BBE0790F6916C
:10457000E02D09948ED0A59F900DB49F900DA49F1F
:10458000800D911D11240895E894DF93CF93FC01D1
:10459000DB017FD07F936F93E9019A01AC01BF9358
:1045A000AF933F932F93DF0174D026F46C1B7D0BE8
:1045B000820B930B9E01EB01FC017AD0AF91BF916E
:1045C0002F913F9175D0BE01CF01F9012F913F91FD
:1045D000CF91DF910895689401C0E8948F929F92E3
:1045E000CF93DF9305D0DF91CF919F908F90089567
:1045F00088249924F401E401B0E49F93AA279A1532
:104600008B049C04ED05FE05CF05D007A10798F4A7
:10461000AD2FDC2FCF2FFE2FE92D982C892E982F30
:10462000872F762F652F542F432F322F2227B850F4
:1046300031F7BF9127C01B2EBF91BB27220F331F1D
:10464000441F551F661F771F881F991F881C991CC0
:10465000EE1FFF1FCC1FDD1FAA1FBB1F8A149B0468
:10466000EC05FD05CE05DF05A007B10748F08A1867
:104670009B08EC09FD09CE09DF09A00BB10B2160F5
:104680001A94E1F62EF49401AF01BE01CD01000CA5
:104690000895A29FB001B39FC001A39F700D811D1B
:1046A0001124911DB29F700D811D1124911D08953B
:1046B000F0DF460F571FC81FD91F08F43196089521
:1046C000F0913F03E0913E030097B1F45F934F9365
:1046D0007F936F933F932F9383EB91E09F938F93FF
:1046E000FF93EF935FD18DB79EB70A960FB6F894FC
:1046F0009EBF0FBE8DBF17C05F934F937F936F9385
:104700009F938F933F932F938EED91E09F938F9381
:10471000FF93EF9347D18DB79EB70C960FB6F894E1
:104720009EBF0FBE8DBF21D10F931F93CF93DF93F9
:104730008230910510F482E090E0E0913803F0912E
:10474000390320E030E0A0E0B0E0309719F140817B
:1047500051810281138148175907C8F084179507C2
:1047600069F4109731F012960C93129713961C93DC
:1047700027C0009338031093390322C02115310557
:1047800019F04217530718F49A01BD01EF01DF0138
:10479000F801DBCF21153105F9F0281B390B243046
:1047A000310580F48A819B816115710521F0FB013F
:1047B0009383828304C09093390380933803FE016E
:1047C000329644C0FE01E20FF31F81939193225071
:1047D0003109398328833AC0209136033091370359
:1047E000232B41F4209102013091030130933703D0
:1047F00020933603209100013091010121153105EC
:1048000041F42DB73EB74091040150910501241B9E
:10481000350BE0913603F0913703E217F307A0F46C
:104820002E1B3F0B2817390778F0AC014E5F5F4F06
:104830002417350748F04E0F5F1F509337034093FE
:1048400036038193919302C0E0E0F0E0CF01DF9165
:10485000CF911F910F910895CF93DF93009709F4A3
:1048600081C0FC01329713821282A0913803B0916B
:104870003903109781F420813181820F931F209199
:104880003603309137032817390751F5F093370372
:10489000E093360367C0ED0120E030E0CE17DF077C
:1048A00040F44A815B819E0141155105F1F0EA0116
:1048B000F5CFD383C28340815181840F951FC817E0
:1048C000D90759F488819981840F951F02969183A5
:1048D00080838A819B81938382832115310529F40A
:1048E000F0933903E09338033DC0E901FB83EA8389
:1048F00049915991C40FD51FEC17FD0761F48081D0
:104900009181840F951F0296E901998388838281A2
:1049100093819B838A83E0E0F0E012968D919C91D5
:104920001397009719F0FD01DC01F7CF8D919C9151
:1049300011979D012E5F3F4F820F931F20913603E9
:10494000309137032817390769F4309729F410920A
:1049500039031092380302C013821282B0933703D6
:10496000A0933603DF91CF91089581E090E0F89411
:104970005BC3FC0105900020E9F7809590958E0FB0
:104980009F1F0895FB01DC018D910190801901109A
:10499000D9F3990B0895FB01DC0101900D920020E1
:1049A000E1F70895CF93DF93CDB7DEB7AE01475F50
:1049B0005F4F6F8178858D819E8153D0DF91CF913C
:1049C00008950F931F93CF93DF93CDB7DEB72E9744
:1049D0000FB6F894DEBF0FBECDBF8C0186E08C838E
:1049E0001A8309838FEF9FE79E838D83CE01019603
:1049F00038D0EF81F885E00FF11F10822E960FB6A8
:104A0000F894DEBF0FBECDBFDF91CF911F910F9104
:104A100008950F931F93CF93DF93CDB7DEB72E97F3
:104A20000FB6F894DEBF0FBECDBF8C018EE08C8335
:104A30001A8309838FEF9FE79E838D83CE010196B2
:104A400010D0EF81F885E00FF11F10822E960FB67F
:104A5000F894DEBF0FBECDBFDF91CF911F910F91B4
:104A600008952F923F924F925F926F927F928F9212
:104A70009F92AF92BF92CF92DF92EF92FF920F93ED
:104A80001F93CF93DF93CDB7DEB72B970FB6F89474
:104A9000DEBF0FBECDBF6C017B018A01FC01178216
:104AA0001682838181FFBFC1CE0101963C01F601D0
:104AB0009381F70193FD859193FF81917F01882375
:104AC00009F4ADC1853239F493FD859193FF81914D
:104AD0007F01853221F4B60190E0D6D1E8CF912C48
:104AE000212C312CFFE1F315D8F08B3279F038F41A
:104AF000803279F08332A1F4232D20611DC08D32E4
:104B000061F0803369F4232D216016C0832D82600B
:104B1000382EE32DE4603E2E2AC0F32DF8601DC030
:104B200037FC2DC020ED280F2A3040F08E32B9F42A
:104B300036FC75C1232D2064322E19C036FE06C006
:104B40008AE0989E200D1124922E11C0EAE02E9E3C
:104B5000200D1124222EF32DF0623F2E08C08C363A
:104B600021F4832D8068382E02C0883641F4F70185
:104B700093FD859193FF81917F018111B3CF982F90
:104B80009F7D9554933028F40C5F1F4F9FE39983CA
:104B90000DC0833631F0833771F0833509F055C08D
:104BA00020C0F801808189830E5F1F4F8824839481
:104BB000912C530112C02801F2E04F0E511CF80154
:104BC000A080B18036FE03C0692D70E002C06FEF97
:104BD0007FEFC5014ED14C018201F32DFF773F2EAF
:104BE00015C0280122E0420E511CF801A080B180BE
:104BF00036FE03C0692D70E002C06FEF7FEFC50184
:104C00002DD14C01F32DF0683F2E820133FC19C0E9
:104C1000822D90E088169906A0F4B60180E290E01B
:104C200033D12A94F5CFF50137FC859137FE819178
:104C30005F01B60190E028D121102A9421E0821A68
:104C400091088114910479F7E1C0843611F0893616
:104C500039F5F80137FE07C0608171818281938147
:104C60000C5F1F4F08C060817181072E000C880BFC
:104C7000990B0E5F1F4FF32DFF763F2E97FF09C054
:104C800090958095709561957F4F8F4F9F4FF068FD
:104C90003F2E2AE030E0A30133D1882E861844C08D
:104CA000853731F4232D2F7EB22E2AE030E025C047
:104CB000932D997FB92E8F36C1F018F4883579F08D
:104CC000AEC0803719F0883721F0A9C0E92FE06124
:104CD000BE2EB4FE0DC0FB2DF460BF2E09C034FE05
:104CE0000AC0292F2660B22E06C028E030E005C099
:104CF00020E130E002C020E132E0F801B7FE07C059
:104D000060817181828193810C5F1F4F06C0608139
:104D1000718180E090E00E5F1F4FA301F1D0882EDB
:104D20008618FB2DFF773F2E36FE0DC0232D2E7FDC
:104D3000A22E891458F434FE0BC032FC09C0832D16
:104D40008E7EA82E05C0B82CA32C03C0B82C01C0A1
:104D5000B92CA4FE0FC0FE01E80DF11D8081803347
:104D600021F49A2D997EA92E09C0A2FE06C0B39403
:104D7000B39404C08A2D867809F0B394A3FC10C0C4
:104D8000A0FE06C0B21480F4280C922C9B180DC013
:104D9000B21458F4B60180E290E076D0B394F8CF24
:104DA000B21418F42B1802C0982C212CA4FE0FC0AA
:104DB000B60180E390E068D0A2FE16C0A1FC03C05B
:104DC00088E790E002C088E590E0B6010CC08A2D2B
:104DD000867851F0A1FE02C08BE201C080E2A7FC00
:104DE0008DE2B60190E050D0891430F4B60180E332
:104DF00090E04AD09A94F8CF8A94F301E80DF11D1F
:104E00008081B60190E040D08110F6CF222009F4D5
:104E10004ECEB60180E290E037D02A94F7CFF6016B
:104E20008681978102C08FEF9FEF2B960FB6F89483
:104E3000DEBF0FBECDBFDF91CF911F910F91FF90CD
:104E4000EF90DF90CF90BF90AF909F908F907F902A
:104E50006F905F904F903F902F900895FC010590C8
:104E6000615070400110D8F7809590958E0F9F1F6C
:104E70000895FC016150704001900110D8F78095B1
:104E800090958E0F9F1F08950F931F93CF93DF93DD
:104E9000FB01238121FD03C08FEF9FEF2CC022FF78
:104EA00016C046815781248135814217530744F447
:104EB000A081B1819D012F5F3F4F318320838C936F
:104EC000268137812F5F3F4F3783268314C08B01A4
:104ED000EC01FB010084F185E02D0995892BE1F6B9
:104EE000D80116968D919C911797019617969C93D1
:104EF0008E931697CE01DF91CF911F910F91089558
:104F0000FA01AA27283051F1203181F1E8946F93FA
:104F10006E7F6E5F7F4F8F4F9F4FAF4FB1E03ED0A0
:104F2000B4E03CD0670F781F891F9A1FA11D680F3E
:104F3000791F8A1F911DA11D6A0F711D811D911D71
:104F4000A11D20D009F468943F912AE0269F1124E6
:104F50003019305D3193DEF6CF010895462F47704A
:104F6000405D4193B3E00FD0C9F7F6CF462F4F70A5
:104F7000405D4A3318F0495D31FD4052419302D003
:104F8000A9F7EACFB4E0A6959795879577956795A9
:104F9000BA95C9F700976105710508959B01AC01A9
:104FA0000A2E06945795479537952795BA95C9F7D0
:104FB000620F731F841F951FA01D0895DC01CB0194
:104FC000FC01E199FECF06C0FFBBEEBBE09A319633
:104FD0000DB20D9241505040B8F70895E199FECFBF
:104FE0009FBB8EBBE09A99278DB30895A8E1B0E0EE
:104FF00042E050E0E5CFDC01CB0102C02D9105D0AD
:1050000041505040D8F70895262FE199FECF9FBB1D
:105010008EBB2DBB0FB6F894E29AE19A0FBE0196B3
:0C5020000895F2DF272FF1CFF894FFCFA6
:10502C0000004003200001FFFF0060000000E000D2
:10503C00000060010003000A0CC03C103C103C1046
:10504C003C103C103C103C103C103C103C103C10F4
:10505C003C103C103C100001022202190210027597
:10506C00036C03630362616E6B30006379636C6580
:10507C0073203C3D20307866666666554C4C002E9D
:10508C002E2F61746D3132385F74696D6572732FB8
:10509C0074696D65725F722E637070006D735F74EE
:1050AC006F5F6379636C6573002575000A457261E7
:1050BC0073696E6720617420616464726573732018
:1050CC00256C640A006F6F723A20503A20253032FA
:1050DC00582000417373657274696F6E2066616944
:1050EC006C65643A20282573292C2066696C652030
:1050FC0025732C206C696E652025642E0A00417383
:10510C0073657274696F6E206661696C65643A20B0
:10511C00282573292C2066756E6374696F6E2025A3
:10512C00732C2066696C652025732C206C696E6568
:06513C002025642E0A008C
:00000001FF
