:100000001DC200000C94DC180C9407190C943219D2
:100010000C945D190C9488190C94B3190C94DE1986
:100020000C94091A35C2000033C2000031C200002E
:100030000C948E0D0C94C60D0C94380E29C2000041
:1000400027C2000025C200000C94350C0C94620CF1
:100050001FC200001DC200001BC2000019C2000028
:100060000C94FE0D15C200000C945D0E0C94990EBC
:100070000C94D50E0C94110F0C94D10C0C94090D0A
:1000800007C2000005C2000003C200006713B313DB
:1000900031169813A513B913C613F313FC134114A7
:1000A0007D14A0143116BE14DB14E214E9140A15F1
:1000B0000C1590155515E9150416756E647061756B
:1000C0007300647061757300000102030405060784
:1000D000353637383A3B3C3D3F4041424445464740
:1000E00050855556868A2A2B1D1958594B4C7E54DB
:1000F0000001020304050607353637383A3B3C3D1C
:100100003F4041424445464750855556868A2A2BF2
:100110001D1958594B4C7E5496AD8102240220166D
:10012000D6AE80021B97AFD6AF58CE55BF3A1AEE67
:100130000018A60097AF96AD810027022004C6F5EF
:10014000D7AF96AD81012702200A86FFD6AE545460
:10015000541097AF96AD81092702200BD6AE8608C2
:100160001B97AE86FF97AD96AE812822022004C66B
:1001700000D7AE18CEB000D6AFB6B02E2AFBF7B07F
:100180002F7C00ADCC0350F3B00EFDB0168680B7C7
:10019000B023181C22803BB7B0098630B7B02B863D
:1001A00008B7B02D181C2280CC0000DDAD398E00C0
:1001B000FF860BB7103D8608B7B00086C1B7B024E4
:1001C0008690B7B03918CEB00086804E6F74207319
:1001D0007570706F727465642062696E6172790007
:1001E0004469676966616E7420334D4150206669C9
:1001F0006C65004469676966616E7420314D4150D9
:100200002066696C650044656320313420323031EA
:1002100039000A56657273696F6E3A52322E325F38
:10022000313930383132000A425420454550524F5E
:100230004D20454D554C41544F5220520A436F6D4D
:1002400070696C6174696F6E20646174653A0064F2
:10025000697361626C696E6720626F6F746C6F6145
:10026000646572000A5372616D206C6F616465642D
:1002700020696E202575206D73000A4F6E54696DDC
:10028000653A20256C75206D730042616E6B206E9F
:10029000616D65207365743A202573007061636B2E
:1002A0006574732072656365697665642025640AE8
:1002B000007061636B657473207772697474656E26
:1002C0002025640A0077726974696E67207374610F
:1002D00074730A005372616D2072656C6F6164659E
:1002E000640A000A2D2D2D2D2D2D2D2D2D2D2D2D7A
:1002F0002D2D2D2D2D2D2D2D2D2D2D2D2D2D2D2D2E
:100300002D2D2D2D2D2D2D2D2D2D2D2D2D2D2D2D1D
:100310002D2D2D2D2D2D2D2D0A0062616E6B3A2075
:1003200025730062616E6B6E616D653A25730064C2
:100330007478006E616B0061636B00446967696487
:100340006961672064697361626C65640044696710
:10035000696469616720656E61626C656400626FE3
:100360006F746C6F6164657200496D6D6F62696C6A
:10037000697365722061637469766500696D6D6F7C
:1003800000647061757300626E6B3300626E6B3275
:1003900000626E6B310062616E6B33736574006274
:1003A000616E6B327365740062616E6B317365747C
:1003B000006468696400496D6D6F62696C6973659A
:1003C00072204F4646006F6F720061636B000A52E5
:1003D000656C6561736520666C61673A2025640011
:1003E0000A56657273696F6E3A52322E325F313936
:1003F00030383132000A2D2D2D2D2D2D2D2D2D2D66
:100400002D2D2D2D2D2D2D2D2D2D2D2D2D2D2D2D1C
:100410002D2D2D2D2D2D2D2D2D2D2D2D2D2D2D2D0C
:100420002D2D2D2D2D2D2D2D2D2D0A00454D5542D7
:10043000545220004902A4084B21B52111241FBEAB
:10044000CFEFD0E1DEBFCDBF12E0A0E0B1E0E6E04B
:10045000F2E500E00BBF02C007900D92AC34B1078B
:10046000D9F723E0ACE4B2E001C01D92AC37B2078B
:10047000E1F712E0CDE1D2E004C02197FE010E9435
:100480004C23CA31D107C9F70E94611E0C94F7288A
:10049000B7CDE4E5F2E022E330E03183208387E06A
:1004A000828380E390E094838383EFE4F2E03183FE
:1004B000208326E022839483838380910601ECE4E9
:1004C000F2E021E330E03183208382830895CF93EB
:1004D000DF93EC018C819D81AE81BF8128893989B0
:1004E000F901E80FF91F60838C819D81AE81BF8186
:1004F0002A893B894C895D89BC01CD016F5F7F4FA3
:100500008F4F9F4F0E942A236C837D838E839F830E
:100510004C855D856E857F858A899B89AC89BD897F
:10052000481759076A077B0758F48C859D85AE8567
:10053000BF850196A11DB11D8C879D87AE87BF87A2
:100540004C855D856E857F858A899B89AC89BD894F
:10055000481759076A077B0741F48C819D81AE815A
:10056000BF8188839983AA83BB83DF91CF9108954C
:10057000CF93DF93EC018FEF888319821A8281E099
:100580008B831C821D821E821F82188619861A8602
:100590001B8684E18D87188A198A1A8A1B8A8AE049
:1005A00090E0A0E0B0E08E8B9F8BA88FB98F84E1A4
:1005B00090E00E942F249F878E878E899F89A88D27
:1005C000B98D0E942F249D8B8C8B1C86DF91CF913F
:1005D000089581E0809307018FEF9FEF90930901C9
:1005E00080930801089581E020910801309109016C
:1005F000232B09F480E080930701109209011092E7
:1006000008010895FC01838191E09827938391115B
:1006100003C082EC90E002C08AEB90E00C94D41C02
:100620009F92AF92BF92CF92DF92EF92FF920F9381
:100630001F93CF93DF93CDB7DEB765970FB6F894CE
:10064000DEBF0FBECDBF8C01F62E85EF681305C04F
:1006500081E0F801818365EF22C0F8018181882360
:10066000C9F08081681719F0FFEF6F1313C081E0A4
:10067000F801828311826F2DC801049628DFFFEFF5
:10068000FF1621F0F8018081815002C08EEFF80141
:10069000808318C0F8018281882329F06F2DC8015A
:1006A000049615DF0FC0F801148215821682178296
:1006B0001086118612861386108A118A128A138A6E
:1006C00012821182F80180899189A289B3890A97DF
:1006D000A105B10509F077C0128211827E01FCE00C
:1006E000EF0EF11C5E0186E1A80EB11CCE2C9F2CF2
:1006F000F80180899189A289B389892B8A2B8B2B58
:10070000F1F1F80180899189A289B389892B8A2B1B
:100710008B2B09F456C0F80184819581A681B7819D
:1007200024893589F901E80FF91FD080F801808903
:100730009189A289B3890197A109B109808B918B15
:10074000A28BB38B84819581A681B7812689378955
:10075000408D518DBC01CD016F5F7F4F8F4F9F4FFB
:100760000E942A23F80164837583868397838D2DE5
:10077000F70181937F01EA15FB0509F0B9CFF80174
:100780008381882389F040E050E065E070E0CE018D
:10079000019639D34AE050E06C2D792DCE010196B7
:1007A000FFD3CE010196FBD38091080190910901FE
:1007B000019611F481E090E0909309018093080183
:1007C00002C080E0D5CF65960FB6F894DEBF0FBEAD
:1007D000CDBFDF91CF911F910F91FF90EF90DF90F0
:1007E000CF90BF90AF909F900895AC01092E000C60
:1007F000660B770B4F3F2FEF52076105710518F419
:10080000FC01849108956BBFFA014791842F0895EC
:100810006F3F2FEF72078105910518F4FB0184915A
:1008200008958BBFFB016791862F08956F3F2FEFCF
:1008300072078105910558F4FB0124913196E491EA
:10084000822F90E0982F88278E0F911D08958BBFDF
:10085000FB012791AB01BC014F5F5F4F6F4F7F4F93
:100860006BBFFA014791822F90E0982F8827840F61
:10087000911D0895FC0180819181A281B381BC0109
:10088000CD01625070488F4F9F4FD0CFCF92DF92F3
:10089000EF92FF92CF93DF93D82FC42FC42ED52E83
:1008A0007B018C2D8C1B8D1760F48FEFC81AD80A32
:1008B000E80AF80AC701B601ABDF813491F380E0A2
:1008C00001C081E0DF91CF91FF90EF90DF90CF905A
:1008D00008958F929F92AF92BF92CF92DF92EF9244
:1008E000FF921F93CF93DF93EC01162FC880D9801E
:1008F000EA80FB80C40ED51EE11CF11C862E912CD3
:10090000A12CB12C88819981AA81BB819058AF4FCD
:10091000BF4F88199909AA09BB09C816D906EA0662
:10092000FB06A8F4B701A601812FB0DF882349F0A8
:100930002881398181E090E0821B930B8C0D9D1DF5
:1009400008C08FEFC81AD80AE80AF80ADBCF80E09F
:1009500090E0DF91CF911F91FF90EF90DF90CF90CB
:10096000BF90AF909F908F900895FC0180819181FE
:10097000A281B381BC01CD01605170488F4F9F4F60
:1009800055DF8831F1E69F0711F480E090E008958B
:10099000BF92CF92DF92EF92FF920F931F93CF936C
:1009A000DF9300D01F92CDB7DEB77C018DEB89833A
:1009B000D7011A968C911A971B969C919A838B83D8
:1009C000FE01319680E090E058E048EA21912093C2
:1009D0006200D70153962D913C915497280F391FEF
:1009E00035BB53962C915397280F2BBB58BB48BB54
:1009F00001968330910551F71A96DC901A970D2DC8
:100A00001B961C9188E0B82E98EAC92E802F8D196C
:100A1000F701978522853385290F311D02171307AA
:100A200068F490E089569E4FE0DE8093620015BB2B
:100A30000BBBB8BAC8BA0F5F1F4FE8CF0F900F902B
:100A40000F90DF91CF911F910F91FF90EF90DF906A
:100A5000CF90BF900895DF92EF92FF920F931F9374
:100A6000CF93DF93EC01FC800F2D1D8188E0D82E01
:100A700098EAE92E802F8F199E852C813D81290FC0
:100A8000311D0217130768F490E0885E9E4FADDEBB
:100A90008093620015BB0BBBD8BAE8BA0F5F1F4F3B
:100AA000E9CF8F81809362008C819D81439695BBB5
:100AB0008C818D5E8BBB38E038BB28EA28BB8E81E9
:100AC000809362008C819D81449695BB8C818C5E65
:100AD0008BBB38BB28BBDF91CF911F910F91FF904B
:100AE000EF90DF900895DF92EF92FF920F931F93A4
:100AF000CF93DF938C01FC01C681D781F12C88E074
:100B0000D82E98EAE92EF801218986819781820FF3
:100B1000911DC817D907B8F410926200D5BBCBBBA2
:100B2000D8BAE8BAF8018789908D8F0D911D5DDEE6
:100B300080936200CE01019695BB8BBBD8BAE8BA10
:100B40002296F394E0CFDF91CF911F910F91FF9008
:100B5000EF90DF900895FC0181E880936200858525
:100B600085BB84858BBB98E098BB88EA88BB2289CB
:100B700021110BC021E6209362002FE725BB30EF47
:100B80003BBB98BB88BB38E10CC0213089F426E719
:100B9000209362002FE725BB30EF3BBB98BB88BB9F
:100BA00034E13093620025BB21EF2BBB98BB88BB9F
:100BB0008581809362002FE725BB88EE8BBB98E090
:100BC00098BB88EA88BB34813093620025BB29EE4C
:100BD0002BBB98BB88BB0895CF93DF93EC018A8928
:100BE000823098F48A859B85892B79F08E819F814C
:100BF000892B59F0CE01AFDFCE01CADECE012BDF4B
:100C0000CE0171DFE6DC81E001C080E0DF91CF91B1
:100C100008950F931F93CF93DF938C01C0E0F801E9
:100C20008089C817E0F48C2F90E082559E4FDDDD5F
:100C3000D82FF8012085318580819181A281B381EF
:100C4000820F931FA11DB11DBC01CD016C0F711D41
:100C5000811D911DDDDDD81304C0CF5FE0CF81E0A1
:100C600001C080E0DF91CF911F910F910895CF9344
:100C7000DF93EC0188819981AA81BB81CC96A11D6B
:100C8000B11D28853985BC01CD01620F731F811DFF
:100C9000911DBEDD8E3441F0823561F483EF91E029
:100CA0009E8B8D8B80E00BC080EE91E09E8B8D8BB8
:100CB00081E005C08BEC91E09E8B8D8B82E0DF9113
:100CC000CF910895CF93DF93EC01488359836A83D2
:100CD0007B838FE78E8787E18F878DE1888B198AE9
:100CE0008BEC91E09E8B8D8BCE01C4DD998788873C
:100CF000CE013BDE9D838C83888599859C01225F94
:100D00003F4F3D872C87C8969C8B8B8B1F821E8202
:100D10001B861A86CE017DDF882331F1CE01A7DF45
:100D20008A8B882339F0813059F488E2898B88ECEA
:100D300090E004C088E2898B80EF90E0988F8F8BE1
:100D4000488559856F85CE01C4DD9C019B878A87C4
:100D50009F85492F50E041505109420F531F698927
:100D6000CE01B7DD9F838E83DF91CF910895EF92FF
:100D7000FF920F931F93CF93DF93CDB7DEB72B97DF
:100D80000FB6F894DEBF0FBECDBFFC01F588E68834
:100D900040E050E063E070E08E010F5F1F4FC8013C
:100DA00032D0EF92FF921F930F939CD1C801F7D0DE
:100DB0000F900F900F900F902B960FB6F894DEBF08
:100DC0000FBECDBFDF91CF911F910F91FF90EF909C
:100DD00008959627092E0294202D2F702927692F18
:100DE0006025660F607E2627602D6927607F6695E7
:100DF000092E000C661F9695969596959F719627DD
:100E00009827822F0895FC018CE380831682158237
:100E1000108617828EE381871286728361835483E2
:100E200043830895FC018CE380831482138216822D
:100E30001582108617828EE38187128683E090E008
:100E40009283818308958091590290915A02CEC372
:100E50000F931F93CF93DF938C01EB01888188233D
:100E6000A1F0F8018581968101969683858368813A
:100E700087819085AEDFF8019087878369918091A3
:100E8000590290915A02B2D3E9CFDF91CF911F91CD
:100E90000F910895EF92FF921F93CF93DF937C0100
:100EA000FB011491EB0121961123B1F0F70185812B
:100EB0009681019696838583612F8781908589DF4E
:100EC000F70190878783612F8091590290915A0290
:100ED0008DD3FE011491E7CFDF91CF911F91FF9049
:100EE000EF9008951F93CF93DF93EC01162F80911D
:100EF000590290915A027AD38D819E8101969E83E8
:100F00008D83612F8F81988564DF98878F83DF9130
:100F1000CF911F910895CF92DF92EF92FF920F939E
:100F20001F93CF93DF9300D0CDB7DEB71A8219821B
:100F3000FC012285211128C08C0181E08287CE2E00
:100F40007F0190910A018E2D8C19891780F069819B
:100F5000C80179DF6A81C8010F900F90DF91CF91AE
:100F60001F910F91FF90EF90DF90CF906CCFF70122
:100F7000D1907F016D2DC80166DF6D2D89819A8129
:100F800028DF9A838983DDCF0F900F90DF91CF9177
:100F90001F910F91FF90EF90DF90CF900895BBCFFE
:100FA000EF92FF920F931F93CF93DF93EC018B018E
:100FB0007B01E40EF51E0E151F05A9F08D819E81A3
:100FC00001969E838D83F80160818F81988501DF72
:100FD00098878F83F80161918F01809159029091D8
:100FE0005A0204D3E8CFCE01DF91CF911F910F9128
:100FF000FF90EF9090CFCF93DF93EC0129DFCE01EC
:10100000DF91CF9188CFCF93DF93EC0143DFCE0107
:10101000DF91CF9180CF0F931F93CF93DF93CDB705
:10102000DEB7E2970FB6F894DEBF0FBECDBF6BAD53
:101030007CADFB0101900020E9F73197E61BF70B2F
:10104000E634F10580F4AE01435C5F4FCE010196BA
:101050000E94BB258C01BE016F5F7F4F89AD9AADA9
:10106000CADFC80102C080E090E0E2960FB6F894B3
:10107000DEBF0FBECDBFDF91CF911F910F910895BD
:101080000F931F93CF93DF93CDB7DEB7E2970FB6E1
:10109000F894DEBF0FBECDBF8BAD9CAD0E94542532
:1010A0008634910590F4AE01435C5F4F6BAD7CAD2F
:1010B000CE0101960E94E3258C01BE016F5F7F4F38
:1010C00089AD9AADC5DEC80102C080E090E0E2962D
:1010D0000FB6F894DEBF0FBECDBFDF91CF911F9149
:1010E0000F9108950F931F93CF93DF93CDB7DEB782
:1010F000E2970FB6F894DEBF0FBECDBF8BAD9CADAF
:101100000E9454258634910590F4AE01435C5F4FF4
:101110006BAD7CADCE0101960E94E3258C01BE0132
:101120006F5F7F4F89AD9AAD66DFC80102C080E076
:1011300090E0E2960FB6F894DEBF0FBECDBFDF9110
:10114000CF911F910F9108950E94371E90935A02DC
:101150008093590208951F93CF93DF93EC018C8500
:101160009D85AE85BF85892B8A2B8B2B59F1888174
:101170009981AA81BB8128893989F901E80FF91F72
:1011800010818C859D85AE85BF850197A109B10928
:101190008C879D87AE87BF8788819981AA81BB8113
:1011A0002A893B894C895D89BC01CD016F5F7F4FE6
:1011B0008F4F9F4F0E942A23688379838A839B8362
:1011C000812F01C080E0DF91CF911F910895CF93CF
:1011D000DF93FC01A28DB38D4D915D916D917C915A
:1011E000A685B785CD91DC91048CF58DE02D9A0113
:1011F000AB0144275527AFEFBFEF0E9455236C0F7B
:101200007D1F811D911DAF01DF91CF916EC6AF9201
:10121000BF92CF92DF92EF92FF920F931F93CF93E3
:10122000DF93EC01EC85FD853581268197818085F2
:101230008E01005F1F4FEE85FF85448555856685CD
:1012400077854C8F5D8F6E8F7F8F4081518162815A
:101250007381488B598B6A8B7B8B44815581668166
:1012600077814C8B5D8B6E8B7F8BC32ED22EE92EBC
:10127000F82EA12CB12CC114D104E104F10409F41D
:1012800023C0C80168DF95013827032E0294802D02
:101290008F708327932F9025990F907E8927902D0B
:1012A0009327907F9695032E000C991F36953695BF
:1012B00036953F7139273227282F590181E0C81A06
:1012C000D108E108F108D7CFEC85FD85218532856D
:1012D000A216B30621F08FEF9FEF9283818381E006
:1012E000A216B30609F080E0DF91CF911F910F9114
:1012F000FF90EF90DF90CF90BF90AF900895CF9286
:10130000DF92EF92FF920F931F93CF93DF93DC0155
:101310001E96ED91FC911F970485158526853785CE
:1013200040910B0150E060E070E0041715072607BC
:10133000370708F459C0EC018C01005F1F4FEE85A0
:10134000FF8584859585A685B785892B8A2B8B2B70
:1013500009F44AC084859585A685B7858C8F9D8FB5
:10136000AE8FBF8F80819181A281B381888B998B51
:10137000AA8BBB8B84819581A681B7818C8B9D8B39
:10138000AE8BBF8BC801E7DE8E3351F58883D12C3D
:10139000ED2CF12CC0900B012C2D30E021503109A7
:1013A000E216F30644F4C801D6DEFE01EE0DFF1D81
:1013B0008183D394EDCF8C3399F40E84DF85C02DD7
:1013C000D12CE12CF12CC114D104E104F10471F011
:1013D000CE01C1DEB1E0CB1AD108E108F108F3CFAC
:1013E0008E859F85B8DEABCF80E001C081E0DF91C4
:1013F000CF911F910F91FF90EF90DF90CF900895C4
:101400008F929F92AF92BF92CF92DF92EF92FF9214
:10141000CF93DF93EC01FB019D878C877F876E87DD
:1014200084E1898F80819181A281B381888B998B9E
:10143000AA8BBB8B82899389A489B5898AA39BA334
:10144000ACA3BDA384859585A685B7858C8F9D8F1C
:10145000AE8FBF8F828593859B8F8A8F808991897C
:1014600099A388A381E0888F1D821E821F8218861F
:101470001EA281E393E0ABDE4B015C01CE013FDFB6
:10148000882309F469C080E090E0DC01EC85FD85EB
:10149000458156816781708584179507A607B70730
:1014A00020F0C12CD12C760125C02CEA2A95F1F729
:1014B00000000196A11DB11DE9CF81E393E087DE15
:1014C000DC01CB0188199909AA09BB09883C91055F
:1014D000A105B10500F58FEF97E40197F1F700C082
:1014E000000081E393E073DE6B017C01C818D9082A
:1014F000EA08FB08EE85FF85448555856685778576
:10150000EC85FD8585819681A781B08548175907AF
:101510006A077B0790F298ECC916D104E104F10444
:1015200038F4CE0174DE8823B9F081E08EA314C0B4
:10153000EE85FF8510821182128213821482158239
:10154000168217821486158616861786EC85FD8509
:101550008EEF9FEF92878187DF91CF91FF90EF9081
:10156000DF90CF90BF90AF909F908F900895AC0187
:10157000092E000C660B770B4F3F2FEF52076105CA
:10158000710518F4FC01849108956BBFFA0147912D
:10159000842F0895CF92DF92EF92FF920F931F93C3
:1015A000CF937C016B01C0E0F7018185C81798F4E7
:1015B0000C2F10E0C601800F911FD9DF882359F04E
:1015C000F70122853385F901E00FF11F908189131E
:1015D00004C0CF5FE9CF81E001C080E0CF911F91CF
:1015E0000F91FF90EF90DF90CF9008950F931F938E
:1015F000CF93DF93EC010AA91BA92CA93DA988ADC3
:1016000099ADAAADBBAD081719072A073B0799F397
:10161000CE0186960E946702EA81FB81208181E0EB
:1016200090E00E8402C0880F991F0A94E2F7822B83
:101630008083DF91CF911F910F910895CF93DF9316
:10164000EC019A01AB0160E070E18EE090E00E9455
:101650002A23BA01A901415051096109710957FFB3
:101660000EC0E881F98181E090E00F8402C0880F0C
:10167000991F0A94E2F780835F7766277727E885CA
:10168000F985BB27A72F962F852F8083EA85FB85B9
:101690004083EA81FB818C858083EC81FD818D858F
:1016A0008083DF91CF9108952F923F924F925F9266
:1016B0006F927F928F929F92AF92BF92CF92DF9262
:1016C000EF92FF920F931F93CF93DF9300D01F925F
:1016D000CDB7DEB73C01698319012A0140969B838F
:1016E0008A83F301108A118A128A138A148A158A4E
:1016F000168A178A84E1818F148E158E168E178EA6
:10170000C2A2D3A2E4A2F5A284E190E00E942F2419
:10171000F301938F828F82A193A1A4A1B5A10E940E
:101720002F24F30191A380A3108E6301F6E2CF0E64
:10173000D11CF30116A217A210A611A612A613A679
:1017400014A615A684E187A712AA13AA14AA15AA9B
:1017500080AE91AEA2AEB3AE84E190E00E942F24A1
:10176000F30191AB80AB80AD91ADA2ADB3AD0E9462
:101770002F24F30197AB86AB16A615AF04AFF98102
:10178000F1112CC08BE290E0F301918380838AE217
:1017900090E09383828385E990E0958384838CE253
:1017A00090E09783868380E990E09187808789E243
:1017B00090E09387828785E0868781E0878788E944
:1017C000848786E085878A819B81909362028093DB
:1017D0006102D0926002C0925F022EC09981913066
:1017E00059F58BE990E0F301918380838AE990E0D9
:1017F000938382838DE990E0958384838CE990E0E4
:101800009783868388E990E09187808789E990E0D3
:101810009387828785E086878981878788E984879F
:1018200086E08587EA81FB81F0935E02E0935D02AA
:10183000D0925C02C0925B02B201A101C3010F9081
:101840000F900F90DF91CF911F910F91FF90EF902C
:10185000DF90CF90BF90AF909F908F907F906F90D0
:101860005F904F903F902F90E9CE1F920F920FB64E
:101870000F9211240BB60F922F933F934F935F93C8
:101880006F937F938F939F93AF93BF93EF93FF9348
:101890006CB180916102909162020E946702FF9197
:1018A000EF91BF91AF919F918F917F916F915F91D8
:1018B0004F913F912F910F900BBE0F900FBE0F9045
:1018C0001F9018951F920F920FB60F9211240BB60E
:1018D0000F921F932F933F934F935F936F937F9339
:1018E0008F939F93AF93BF93CF93DF93EF93FF9328
:1018F000C0915F02D09160028C859D85AE85BF85C9
:10190000892B8A2B8B2BB1F18C859D85AE85BF856C
:10191000892B8A2B8B2B59F188819981AA81BB81D4
:1019200028893989F901E80FF91F10818C859D8577
:10193000AE85BF850197A109B1098C879D87AE87C8
:10194000BF8788819981AA81BB812A893B894C897B
:101950005D89BC01CD016F5F7F4F8F4F9F4F0E940C
:101960002A23688379838A839B83812F01C080E047
:101970008CB901C05598FF91EF91DF91CF91BF9144
:10198000AF919F918F917F916F915F914F913F9117
:101990002F911F910F900BBE0F900FBE0F901F90B5
:1019A00018951F920F920FB60F9211240BB60F923B
:1019B0002F933F934F935F936F937F938F939F9357
:1019C000AF93BF93EF93FF93CF93DF931F92CDB766
:1019D000DEB780919C008983698180915D0290913E
:1019E0005E020E9467020F90DF91CF91FF91EF910D
:1019F000BF91AF919F918F917F916F915F914F9127
:101A00003F912F910F900BBE0F900FBE0F901F9024
:101A100018951F920F920FB60F9211240BB60F92CA
:101A20001F932F933F934F935F936F937F938F9366
:101A30009F93AF93BF93CF93DF93EF93FF93C091A7
:101A40005B02D0915C028C859D85AE85BF85892B1C
:101A50008A2B8B2BB9F18C859D85AE85BF85892B13
:101A60008A2B8B2B59F188819981AA81BB81288986
:101A70003989F901E80FF91F10818C859D85AE85A4
:101A8000BF850197A109B1098C879D87AE87BF8764
:101A900088819981AA81BB812A893B894C895D898A
:101AA000BC01CD016F5F7F4F8F4F9F4F0E942A2354
:101AB000688379838A839B83812F01C080E0809330
:101AC0009C0015C080919A008F7D80939A00E091D0
:101AD0005B02F0915C0210821182128213821482E6
:101AE0001582168217821486158616861786FF9130
:101AF000EF91DF91CF91BF91AF919F918F917F91A6
:101B00006F915F914F913F912F911F910F900BBE5D
:101B10000F900FBE0F901F90189508951F920F926F
:101B20000FB60F9211240BB60F922F933F934F9342
:101B30005F936F937F938F939F93AF93BF93EF9335
:101B4000FF93E0911601F091170109952091710220
:101B5000309172022115310531F08CB59DB5820F9F
:101B6000931F9BBD8ABDFF91EF91BF91AF919F9154
:101B70008F917F916F915F914F913F912F910F9036
:101B80000BBE0F900FBE0F901F9018951F920F92D3
:101B90000FB60F9211240BB60F922F933F934F93D2
:101BA0005F936F937F938F939F93AF93BF93EF93C5
:101BB000FF93E0911401F0911501099520916F02B6
:101BC000309170022115310531F08CB59DB5820F31
:101BD000931F99BD88BDFF91EF91BF91AF919F91E8
:101BE0008F917F916F915F914F913F912F910F90C6
:101BF0000BBE0F900FBE0F901F9018951F920F9263
:101C00000FB60F9211240BB60F922F933F934F9361
:101C10005F936F937F938F939F93AF93BF93EF9354
:101C2000FF93E0911201F0911301099520916D024B
:101C300030916E022115310541F08CB59DB5820FB2
:101C4000931F9093790080937800FF91EF91BF915B
:101C5000AF919F918F917F916F915F914F913F9144
:101C60002F910F900BBE0F900FBE0F901F901895E5
:101C70001F920F920FB60F9211248F939F93AF93E1
:101C8000BF938091730290917402A0917502B091FC
:101C900076020196A11DB11D809373029093740288
:101CA000A0937502B0937602BF91AF919F918F91EF
:101CB0000F900FBE0F901F9018951F920F920FB6A6
:101CC0000F9211240BB60F922F933F934F935F9374
:101CD0006F937F938F939F93AF93BF93EF93FF93F4
:101CE000E0911001F0911101099520916702309166
:101CF00068022115310551F080918800909189008A
:101D0000820F931F9093870080938600FF91EF913D
:101D1000BF91AF919F918F917F916F915F914F9103
:101D20003F912F910F900BBE0F900FBE0F901F9001
:101D300018951F920F920FB60F9211240BB60F92A7
:101D40002F933F934F935F936F937F938F939F93C3
:101D5000AF93BF93EF93FF93E0910E01F0910F01CA
:101D6000099520916502309166022115310551F0E7
:101D70008091880090918900820F931F9093850035
:101D800080938400FF91EF91BF91AF919F918F91CC
:101D90007F916F915F914F913F912F910F900BBE6B
:101DA0000F900FBE0F901F9018951F920F920FB6B5
:101DB0000F9211240BB60F922F933F934F935F9383
:101DC0006F937F938F939F93AF93BF93EF93FF9303
:101DD000E0910C01F0910D01099520916302309181
:101DE00064022115310551F080918800909189009D
:101DF000820F931F9093830080938200FF91EF9155
:101E0000BF91AF919F918F917F916F915F914F9112
:101E10003F912F910F900BBE0F900FBE0F901F9010
:101E200018951F920F920FB60F9211248F939F93C4
:101E3000AF93BF938091690290916A02A0916B0267
:101E4000B0916C020196A11DB11D8093690290931F
:101E50006A02A0936B02B0936C02BF91AF919F9105
:101E60008F910F900FBE0F901F901895FC01A089C5
:101E7000B1892D933C93A681B78111965C934E93C3
:101E8000709317016093160106A4F7A5E02D8081D9
:101E9000806180830895FC01A289B3892D933C93CE
:101EA000A085B18511965C934E9370931501609354
:101EB000140106A4F7A5E02D808188608083089531
:101EC000FC01A089B1892D933C93A681B78111961D
:101ED0005C934E93709311016093100106A4F7A5D3
:101EE000E02D80818061808308954F925F926F9290
:101EF0007F928F929F92AF92BF92CF92DF92EF929A
:101F0000FF920F931F93CF93DF938A0128EE33E064
:101F100040E050E00E945F2329013A014B01D82F95
:101F2000C92F980140E050E060E070E081EE90E061
:101F30000E942A2389019A0158016901E12CF12CA0
:101F400000E010E09201A301B4018D2F9C2F0E94AC
:101F50008823B901CA01DF91CF911F910F91FF90A2
:101F6000EF90DF90CF90BF90AF909F908F907F9039
:101F70006F905F904F9008954F925F926F927F9213
:101F80008F929F92AF92BF92CF92DF92EF92FF9289
:101F90000F931F938B01BC0180E090E029E939E3A6
:101FA00040E050E00E945F235801C12CD12CE12C6D
:101FB000F12C00E010E00E94882329013A0141142D
:101FC000510481E06806710450F02AE331E045EDE8
:101FD00050E06EE471E08BE691E00E94FB23C201C9
:101FE0001F910F91FF90EF90DF90CF90BF90AF9037
:101FF0009F908F907F906F905F904F900895CF93B8
:10200000DF93CDB7DEB760970FB6F894DEBF0FBE93
:10201000CDBF1A82198281E090E09C838B8388E097
:1020200090E09E838D8380E490E098878F8380E0AA
:1020300091E09A87898780E094E09C878B871E8651
:102040001D86188A1F86FE01E60FF11DE60FF11DA1
:102050008181928160960FB6F894DEBF0FBECDBF2E
:10206000DF91CF910895CF93DF93EC018FE490E05F
:10207000998388838EE490E09B838A838AE790E04B
:102080009D838C838AE490E09F838E8388E490E034
:102090009987888788E790E09B878A8786E490E025
:1020A0009D878C878CE490E09F878E8781E792E004
:1020B000998B888B8FE692E09B8B8A8B8DE692E0E2
:1020C0009D8B8C8B86E590E09F8B8E8B8CE790E0D0
:1020D000998F888F83E792E09B8F8A8F1E8E1F8E49
:1020E00018A219A21AA21BA21CA21DA21EA21FA204
:1020F00018A619A61AA61BA61CA61DA687E590E081
:102100009FA78EA78EB560FB80F98EBDEA81FB810B
:1021100061FB992790F9808190FB81F98083EA81A6
:10212000FB8162FB992790F9808190FB82F9808383
:10213000E881F981808140FB80F98083E881F98121
:1021400041FB992790F9808190FB81F98083EA8196
:10215000FB8142FB992790F9808190FB83F9808372
:10216000EA81FB8143FB442740F9808140FB84F9ED
:102170008083CE0144DF9D8F8C8FEEA5FFA58081EB
:1021800084608083DF91CF910895CF93DF93EC013A
:102190008BE890E099838883EAE8F0E0FB83EA83A8
:1021A0008CE890E09D838C8386E890E09F838E830B
:1021B00084E890E09987888782E890E09B878A8707
:1021C00080E890E09D878C8788E890E09F878E87E5
:1021D00087E692E0998B888B85E692E09B8B8A8BD1
:1021E00083E692E09D8B8C8B86E590E09F8B8E8BB7
:1021F0008CE790E0998F888F89E692E09B8F8A8F99
:102200001E8E1F8E18A219A21AA21BA21CA21DA20A
:102210001EA21FA218A619A61AA61BA61CA61DA6BA
:102220008DE790E09FA78EA7808160FB80F9808377
:10223000EA81FB8161FB992790F9808190FB81F90C
:102240008083EA81FB8162FB992790F9808190FB72
:1022500082F98083E881F981808140FB80F9808365
:10226000E881F98141FB992790F9808190FB81F900
:102270008083EA81FB8142FB992790F9808190FB62
:1022800083F98083EA81FB8143FB442740F9808105
:1022900040FB84F98083CE01B2DE9D8F8C8FEEA54A
:1022A000FFA5808184608083DF91CF910895FC0138
:1022B0001082118212821382148215821682178272
:1022C00014861586168617860895CF92DF92EF92B0
:1022D000FF920F931F93CF93DF938C016A017B01D1
:1022E000E901C114D104E104F10499F0F8018485F5
:1022F0009585A685B785892B8A2B8B2B51F0C80134
:102300000E94AB088993F1E0CF1AD108E108F108E7
:10231000E8CFDF91CF911F910F91FF90EF90DF9069
:10232000CF900895DC0113967C936E9312971596C7
:102330005C934E93149717963C932E93169781E0D7
:1023400018968C9318974EE850EE61E070E06BBFE2
:10235000FA01479150E04D935C930895CF92DF923C
:10236000EF92FF920F931F93CF93DF93CDB7DEB71A
:10237000AB970FB6F894DEBF0FBECDBF7C0186E0F1
:10238000E4E3F1E0DE01969601900D928A95E1F783
:10239000D7011496ED91FC91159786818E010F5F00
:1023A0001F4FF801E80FF11DE80FF11DD5A0C6A0E1
:1023B000DB011C96ED91FC911D974381548160E0F7
:1023C00070E0C8010E940307CF92DF921F930F9322
:1023D0000E947208C8010E94CF07B801F7018481EA
:1023E000958126D5F82EE92E065E1F4F40E050E07D
:1023F00060E070E0C8010E940307EF92FF9283E261
:1024000093E09F938F931F930F930E947208C801CC
:102410000E94CF070FB6F894DEBF0FBECDBFAB96BC
:102420000FB6F894DEBF0FBECDBFDF91CF911F91E5
:102430000F91FF90EF90DF90CF900895EF92FF9271
:102440000F931F93CF93DF93CDB7DEB76A970FB685
:10245000F894DEBF0FBECDBF7C0103EE12E01F93E8
:102460000F930E948F25BE016F5F7F4FF70184811C
:102470009581DED49F938F938AE193E09F938F930E
:102480000E948F251F930F930E948F250FB6F894FB
:10249000DEBF0FBECDBF6A960FB6F894DEBF0FBE8B
:1024A000CDBFDF91CF911F910F91FF90EF900895D5
:1024B000CF93DF93EC016031710561F061317105FB
:1024C000A9F06F307105C1F460E08C819D81F9D570
:1024D00060E005C061E08C819D81F3D561E08C8175
:1024E0009D81A2D4CE01AADF81E007C062E08C8189
:1024F0009D81E7D562E0F3CF80E0DF91CF91089531
:10250000BF92CF92DF92EF92FF920F931F93CF93E0
:10251000DF937C01EB016A01B12C29858A859B85BB
:10252000B21650F48C010B0D111DCE010E94AB08A8
:10253000F8018083B394F1CF820F911DFC01319794
:10254000108261E973E0CE0125D8882369F060E04C
:10255000F70184819581B5D560E0F701848195818B
:1025600063D4C7016BDF7FC06CE873E0CE0112D883
:10257000882319F060E170E008C067E873E0CE01DD
:1025800009D8882331F061E170E0C70191DF182F8D
:102590006DC061E873E0CE010E94CA0A8823D1F1C0
:1025A000C6010E94020303EE12E01F930F930E94E4
:1025B0008F2587E292E09F938F930E948F2586E07C
:1025C00092E09F938F930E948F2582E192E09F93E8
:1025D0008F930E948F2581E393E00E94E7089F93E9
:1025E0008F937F936F938AE792E09F938F930E94DC
:1025F0008F251F930F930E948F258AE090E00E9401
:10260000B6258DB79EB740960FB6F8949EBF0FBE05
:102610008DBF29C06CE773E0CE010E94CA0A8823EF
:1026200021F1F7018481958156D40091B201109176
:10263000B3010F5F1F4FC8010E94C828811104C059
:1026400089E693E00E94D41CC8010E94C8281F920A
:102650008F9382E891E09F938F930E947C250F9047
:102660000F900F900F9011E001C010E0CE011FDE1F
:10267000812FDF91CF911F910F91FF90EF90DF900D
:10268000CF90BF9008958F929F92AF92BF92EF929A
:10269000FF920F931F93CF93DF93CDB7DEB7A5972C
:1026A0000FB6F894DEBF0FBECDBFFB01A485B58584
:1026B0001196ED91FC9112973197E731F10508F0F1
:1026C000D0C27B018C01EA5BFF4F0C944C23DC01F0
:1026D0001696ED91FC911797868197810E94E708E5
:1026E0004B015C01B701F80186819781E1D6D801E1
:1026F0001696ED91FC911797868197810E94E708C5
:10270000D8011696ED91FC911797028513852485C3
:102710003585DC01CB01800F911FA21FB31F8819E3
:102720009909AA09BB0982879387A487B58799C2AB
:10273000DC0112968D919C91139740960E94AB08F4
:10274000682FC7010E94C7228CC2FC01828193813D
:1027500040960E94AB08482FB701D80116968D917C
:102760009C911797B2D7F8018281938140969FDDA3
:1027700078C288EA87BB14BA1ABA10926100109224
:10278000620015BA1BBA80E688BB6BC213964D91E6
:102790005C9114977E01FBE1EF0EF11C60E070E0AC
:1027A000C7010E940307D80114968D919C9115973B
:1027B000E6D387E393E09F938F93FF92EF920E947B
:1027C00072088E010F5F1F4FC8010E94120784ED2F
:1027D00092E09F938F931F930F930E947208C801FA
:1027E0000E94CF0745C0CB010E94C721D801129695
:1027F0008D919C911397BACF13964D915C9114973C
:1028000063E070E0FE0131967F01CF010E94030773
:1028100067E272E0C7010E944A0766E072E0C70102
:102820000E944A0762E172E0C7010E944A0781E301
:1028300093E00E94E7089F938F937F936F938AE7BB
:1028400092E09F938F93FF92EF920E944008D801ED
:102850001496ED91FC91159785818F9384818F93C8
:1028600084E692E09F938F93FF92EF920E9440083C
:10287000C7010E94CF070FB6F894DEBF0FBECDBFD1
:10288000F0C140E050E060E070E09E012F5F3F4FFC
:102890007901C9010E94030765EC72E0C7010E943B
:1028A0004A07D8011696ED91FC91179781898F936D
:1028B00080898F9381EB92E09F938F93FF92EF92A9
:1028C0000E944008D8011696ED91FC9117978785D4
:1028D0008F9386858F938CE992E09F938F93FF92DD
:1028E000EF920E944008D8011696ED91FC9117973F
:1028F00017861686118A108ABBCF13964D915C916C
:10290000149760E070E0CE0101960E9403076EE527
:1029100073E0CE0101960E940308CE0101960E9449
:10292000CF0761E0D8018D919C910E94EA2898E040
:1029300088E10FB6F894A89581BD0FBE91BDFFCF79
:1029400013964D915C91149763E070E0FE0131960F
:102950007F01CF010E9403078FE492E09F938F9342
:10296000FF92EF920E947208C7010E94CF0760E0B9
:10297000D8018D919C910E94EA286FC113964D91C8
:102980005C91149760E070E0CE0101960E9403070D
:102990006EE871E0CE0101960E94FB07CE01019620
:1029A0000E94CF0798E088E10FB6F894A89581BD02
:1029B0000FBE91BDFFCF60E0FC018481958181D382
:1029C00060E00DC061E0FC01848195817AD361E013
:1029D00006C062E0FC018481958173D362E0D80176
:1029E00014968D919C9115971FD2B701C801B6DC42
:1029F000D8011696ED91FC91179740815181628123
:102A00007381CE0101960E946206CE0101960E945A
:102A1000B70627C1A3DC25C115964D915D916D9137
:102A20007C911897FC01828193819E012F5F3F4F1B
:102A3000490140964ADCD7011C96ED91FC911D9707
:102A400085819681A781B0858A319105A105B1055F
:102A500028F4F401E80FF91F108201C01A8EB401A6
:102A6000F80184819581F8D1D7011C96ED91FC91F4
:102A70001D97438154815E01BBE1AB0EB11C63E045
:102A800070E0C5010E9403079F928F928AE892E04E
:102A90009F938F93BF92AF920E947208C5010E94CC
:102AA000CF07B701C8015ADC34C01F8E7E01EBE1AD
:102AB000EE0EF11CDC0112968D919C9113979701FB
:102AC00044E050E060E070E04096FFDB40E050E022
:102AD00066E070E08E010F5F1F4FC8010E94030780
:102AE000FF92EF9282E991E09F938F931F930F9350
:102AF0000E940B08C8010E94CF0745E050E067E53F
:102B000070E0C7010E94E12861E08BE590E00E943F
:102B1000EA280F900F900F900F900F900F90A1C088
:102B2000DC011696ED91FC911797408151816281ED
:102B30007381CE0101960E946206BE88AF88D701DC
:102B40001C96ED91FC911D97438154818E01055E89
:102B50001F4F63E070E0C8010E940307AF92BF926D
:102B60001F930F930E947208C8010E94CF07CE01E5
:102B700001960E940906F82E40E050E063E070E004
:102B8000C8010E9403071F92FF928AE991E09F9378
:102B90008F931F930F930E940B08C8010E94CF07C9
:102BA000CE0101960E943A04F82EE92E40E050E052
:102BB00063E070E0C8010E940307EF92FF9285EA8C
:102BC00091E09F938F931F930F930E940B08C8016E
:102BD00050CE8091B2019091B30161E0845A9F4F31
:102BE0000E94EA28D7011C96ED91FC911D97438124
:102BF000548163E070E0FE0131967F01CF010E94B5
:102C000003078DE493E01AC08091B2019091B30163
:102C100060E0845A9F4F0E94EA28D7011C96ED91EC
:102C2000FC911D974381548163E070E0FE01319671
:102C30007F01CF010E9403078BE393E09F938F9363
:102C4000FF92EF920E947208C7010E94CF07D8013D
:102C500014968D919C911597DAD10F900F900F904B
:102C60000F9081E0A5960FB6F894DEBF0FBECDBFE2
:102C7000DF91CF911F910F91FF90EF90BF90AF9098
:102C80009F908F9008950F931F93CF93DF93CDB7AD
:102C9000DEB72B970FB6F894DEBF0FBECDBF8B010A
:102CA000DB011C96ED91FC911D97218132812E3F15
:102CB000BFEF3B07D1F02F3F3F4FA1F5DC0112964C
:102CC0008D919C9113974096F2DAD8011C96ED9164
:102CD000FC911D974381548161817281CE010196DF
:102CE0000E94030763E373E014C0FC0182819381B7
:102CF0004096DDDAD8011C96ED91FC911D97438139
:102D0000548161817281CE0101960E9403076FE2B6
:102D100073E0CE0101960E940308CE0101960E9445
:102D2000CF0701C0B0DC2B960FB6F894DEBF0FBE04
:102D3000CDBFDF91CF911F910F9108958F929F92F8
:102D4000AF92BF92CF92DF92EF92FF920F931F93B9
:102D5000CF93DF93EC01EE85FF8500811181EA8D31
:102D6000FB8D4081518162817381EC8DFD8D8AA143
:102D70009BA1ACA1BDA19A01AB01281B390B4A0B49
:102D80005B0BAFEFBFEF0E9455236801E12CF12CE4
:102D90000E8D1F8D28A139A146015701801A910A75
:102DA000A20AB30A680D791D8A1D9B1DAF019DD82B
:102DB000CB01DF91CF911F910F91FF90EF90DF90AA
:102DC000CF90BF90AF909F908F900895CF93DF9357
:102DD000EC0181E088837A8369838FE78B8359874D
:102DE00048871A8682E090E00E94C8288E8381E09E
:102DF00090E00E94C8288F8388EA87BB14BA1ABA69
:102E0000109261001092620015BA1BBA80E688BB6E
:102E1000DF91CF910895FC018081882321F081E02A
:102E20009781911180E0089582E090E00C94EA2867
:102E3000CF93DF93EB01FC016681FCE16F9FB00152
:102E400011246D5F7F4F4AE150E0CE010E94B82807
:102E5000CE01DF91CF910895EF92FF920F931F93D0
:102E6000CF93DF93CDB7DEB76A970FB6F894DEBF86
:102E70000FBECDBF8C017B01BE016F5F7F4FD8DFDE
:102E8000BE016F5F7F4FC7010E945D25892BA9F0AE
:102E9000B701CE0101960E946625F8016681FCE12A
:102EA0006F9FB00111246D5F7F4F4AE150E0CE016A
:102EB00001960E94E12881E001C080E06A960FB689
:102EC000F894DEBF0FBECDBFDF91CF911F910F9160
:102ED000FF90EF900895FC01108281E090E00E9445
:102EE000C828882329F060E081E090E00C94D02885
:102EF00008951F93CF93DF93DC011896ED91FC9119
:102F0000199780819181A281B38120E030E0AC01EA
:102F1000BD0150586F4F7F4FD8E0C8EA841795071E
:102F2000A607B70740F50097E1E0AE07B10570F4DA
:102F3000FC0114911093620035BB2BBBD8BBC8BBFE
:102F40000196A11DB11D2F5F3F4FE8CFD8E0C8EA21
:102F5000ABBFFC0117911093620035BB2BBBD8BBF4
:102F6000C8BB0196A11DB11D2F5F3F4F8417950768
:102F7000A607B70768F3DF91CF911F9108950F93CC
:102F80001F93CF93DF93CDB7DEB769970FB6F89451
:102F9000DEBF0FBECDBF8C0188EE87BB8FEF809365
:102FA00061008ABB84BB88EA88BBC801A2DF8CE5CC
:102FB00090E00E94C828813099F4D8011896ED91CC
:102FC000FC9119974081518162817381CE010196F4
:102FD0000E946206CE0101960E94EC05F8018287EC
:102FE00088EA87BB14BA1ABA109261001092620084
:102FF00015BA1BBA80E688BB69960FB6F894DEBF97
:103000000FBECDBFDF91CF911F910F9108950F9308
:103010001F93CF93DF938C01E0913F03F091400326
:1030200080819181E0914B03F0914C03408151816B
:1030300062817381A0E0B0E080934F0390935003CE
:10304000A0935103B09352034093530350935403FE
:10305000609355037093560381E090E00E94C82866
:10306000F8018783882311F1E0916D03F0916E03DD
:103070002281C1E0D0E0CE0100906C0302C0880F35
:10308000991F0A94E2F7822B8283C80178DFE091CE
:103090006D03F0916E03828100906C0302C0CC0F2F
:1030A000DD1F0A94E2F7C095C823C28381E393E051
:1030B00045DEF80195838483DF91CF911F910F91B5
:1030C00008950F931F93FC01A085B18524E0629FB2
:1030D000F0011124E85DFE4F0081118122813381CE
:1030E0000D931D932D933C931397FC0166831F91C1
:1030F0000F918DCFCF93DF93EC0181E090E00E94A0
:10310000C828813029F061E081E090E00E94D02859
:10311000CE017DDF86EB93E0DF91CF9145C4FF9236
:103120000F931F93CF93DF93CDB7DEB72B970FB6D7
:10313000F894DEBF0FBECDBFFC01128688EE87BBC0
:1031400001E610E09FEFD8019C939ABB94BB88EAFC
:10315000F82EF8BACF01CDDEF7BA14BA1ABAF801D0
:1031600010821092620015BA1BBA80E688BB40E05C
:1031700050E064E070E08E010F5F1F4FC8010E94B5
:10318000030781EB93E09F938F931F930F930E940C
:103190007208C8010E94CF070F900F900F900F90F8
:1031A0002B960FB6F894DEBF0FBECDBFDF91CF9147
:1031B0001F910F91FF9008951F920F920FB60F92DB
:1031C00011240BB60F922F933F934F935F936F93FE
:1031D0007F938F939F93AF93BF93EF93FF93E09170
:1031E0002601F09127010995FF91EF91BF91AF91D1
:1031F0009F918F917F916F915F914F913F912F910F
:103200000F900BBE0F900FBE0F901F9018951F923E
:103210000F920FB60F9211240BB60F922F933F937C
:103220004F935F936F937F938F939F93AF93BF93CE
:10323000EF93FF93E0912401F09125010995FF910F
:10324000EF91BF91AF919F918F917F916F915F911E
:103250004F913F912F910F900BBE0F900FBE0F908B
:103260001F9018951F920F920FB60F9211240BB654
:103270000F922F933F934F935F936F937F938F930F
:103280009F93AF93BF93EF93FF93E0912201F0914F
:1032900023010995FF91EF91BF91AF919F918F917C
:1032A0007F916F915F914F913F912F910F900BBE46
:1032B0000F900FBE0F901F9018951F920F920FB690
:1032C0000F9211240BB60F922F933F934F935F935E
:1032D0006F937F938F939F93AF93BF93EF93FF93DE
:1032E000E0912001F09121010995FF91EF91BF91AB
:1032F000AF919F918F917F916F915F914F913F918E
:103300002F910F900BBE0F900FBE0F901F9018952E
:103310001F920F920FB60F9211240BB60F922F939C
:103320003F934F935F936F937F938F939F93AF934D
:10333000BF93EF93FF93E0911E01F0911F01099558
:10334000FF91EF91BF91AF919F918F917F916F917D
:103350005F914F913F912F910F900BBE0F900FBE39
:103360000F901F9018951F920F920FB60F92112475
:103370000BB60F922F933F934F935F936F937F936F
:103380008F939F93AF93BF93EF93FF93E0911C01B3
:10339000F0911D010995FF91EF91BF91AF919F9120
:1033A0008F917F916F915F914F913F912F910F90EE
:1033B0000BBE0F900FBE0F901F9018951F920F928B
:1033C0000FB60F9211240BB60F922F933F934F938A
:1033D0005F936F937F938F939F93AF93BF93EF937D
:1033E000FF93E0911A01F0911B010995FF91EF9174
:1033F000BF91AF919F918F917F916F915F914F910D
:103400003F912F910F900BBE0F900FBE0F901F900A
:1034100018951F920F920FB60F9211240BB60F92B0
:103420002F933F934F935F936F937F938F939F93CC
:10343000AF93BF93EF93FF93E0911801F0911901BF
:103440000995FF91EF91BF91AF919F918F917F91DE
:103450006F915F914F913F912F910F900BBE0F9005
:103460000FBE0F901F9018950F931F93DA01B3951D
:103470008B019C01011580E118072105310518F425
:10348000F801849103C02BBFF8018791FA01919153
:10349000AF01891309C00F5F1F4F2F4F3F4FEA172E
:1034A000FB0741F780E001C081E01F910F91089573
:1034B0002F923F924F925F926F927F928F929F9244
:1034C000AF92BF92CF92DF92EF92FF920F931F9332
:1034D000CF93DF93CDB7DEB72B970FB6F894DEBF4F
:1034E0000FBECDBF7C016B01DC011496ED91FC9108
:1034F000159740A151A180910B0190E0FA01E80FCE
:10350000F91F20812031C8F0DB011C96ED91FC9160
:103510001D974381548161E070E0CE0101960E94C5
:10352000030766EC73E0CE0101960E940308CE010A
:1035300001960E94CF0780E09FC0822E912C982C8C
:103540008824990C990C990C092C000CAA08BB082A
:103550008C010F5F1F4F040F151F412C512C32019E
:1035600022242394312CF70180819181A281B3819F
:10357000880D991DAA1DBB1DBC01CD01640D751DD3
:10358000861D971DA80170DF882329F1F701A0850A
:10359000B1851196ED91FC9112972281C1010C9099
:1035A00002C0880F991F0A94E2F782278283F701ED
:1035B00080819181A281B381880D991DAA1DBB1DB7
:1035C000BC01CD01640D751D861D971D0288F38910
:1035D000E02DA8010995FFEF5F1A6F0A7F0A139586
:1035E000411488E058066104710409F0BCCFF7016A
:1035F000A085B1851196ED91FC911297228181E011
:1036000090E00C9002C0880F991F0A94E2F7809511
:1036100082238283D7011E968D919C911F970196DC
:103620001F969C938E931E971496ED91FC9115977F
:10363000108A118A128A138A148A158A168A178A9E
:10364000148E158E168E178ED6011C96ED91FC9158
:103650001D974381548160E070E0CE0101960E9485
:1036600003076AEC73E0CE0101960E940308CE01C5
:1036700001960E94CF0781E02B960FB6F894DEBF2B
:103680000FBECDBFDF91CF911F910F91FF90EF90B3
:10369000DF90CF90BF90AF909F908F907F906F9072
:1036A0005F904F903F902F90089524E0629FF0012B
:1036B0001124E85DFE4F4081518162817381FC01DC
:1036C000408351836283738308958F929F92AF9258
:1036D000BF92CF92DF92EF92FF920F931F93CF93FF
:1036E000DF93CDB7DEB72B970FB6F894DEBF0FBED2
:1036F000CDBF8C01F42EDB011C96ED91FC911D9742
:103700004381548160E070E0CE0101960E9403077E
:10371000BFE0BF1540F498E088E10FB6F894A89593
:1037200081BD0FBE91BD4F2D50E0542F4427550F42
:10373000550F550F4A01E8EF9E1A052E000C660B37
:10374000770BD801CD90DD90ED90FC90C40ED51E86
:10375000E61EF71EA12CB12CF80180819181A28177
:10376000B381880D991DAA1DBB1DC816D906EA068E
:10377000FB06B0F4C114F0E1DF06E104F10418F433
:10378000F601649103C0EBBEF6016791CE0101968C
:103790000E947207FFEFCF1ADF0AEF0AFF0ADCCFA1
:1037A000CE0101960E94CF072B960FB6F894DEBF8C
:1037B0000FBECDBFDF91CF911F910F91FF90EF9082
:1037C000DF90CF90BF90AF909F908F900895E09141
:1037D0007403F091750380E090E0309749F0029611
:1037E00020813181820F931F0280F381E02DF5CF7C
:1037F00008950F931F93CF93DF9300D0CDB7DEB71B
:1038000080917203909173038E010F5F1F4F009799
:1038100029F40C5713401A83098309C0081B190B9C
:103820001A830983D4DF800F911F9A83898389814A
:103830009A810F900F90DF91CF911F910F91089572
:10384000D8DF9C0160916303709164036115710579
:1038500059F0E0E1F7E2CF01E9D6CF01E7D684E6FF
:1038600090E0861B970B02C084E690E040916503D0
:10387000509166034817590720F49093660380938C
:10388000650380916103909162038217930720F48E
:1038900030936203209361031092640310926303D8
:1038A0000895682F80916703909168030E94F60A3B
:1038B00080E090E00895CF93DF93AFE6B3E01196F8
:1038C000ED91FC911297228181E090E00C9002C072
:1038D000880F991F0A94E2F7822B8283E1E3F3E0D9
:1038E000A685B785CD91DC91648D758D81E090E0E2
:1038F0000E94BC0FAC014C0F5D1F20E030E067E878
:103900007CE181E393E0DF91CF910C94360FCF936C
:10391000DF93AFE6B3E01196ED91FC91129722810F
:1039200081E090E00C9002C0880F991F0A94E2F7A2
:10393000809582238283E1E3F3E0A685B785CD916C
:10394000DC91648D758D88EE93E00E94BC0FAC0114
:103950004C0F5D1F20E030E06BE57CE181E393E0FC
:10396000DF91CF910C94360FFC012085211104C00A
:10397000808991890C94C7240895E3EFF2E081E5F2
:103980009CE1918780871386128682E08383158667
:103990001486A6E7B3E01396FC93EE931297159660
:1039A000FC93EE93149708950F931F93CF93DF9397
:1039B000182F092FC5EFD3E0DF93CF930E948F25F7
:1039C0000F931F930E948F25DF93CF930E948F2523
:1039D0000F900F900F900F900F900F90DF91CF915D
:1039E0001F910F910895CF93DF93EC0145E050E0D4
:1039F00067E570E00E94B8281C82CE01DF91CF916C
:103A00000895AF92BF92CF92DF92EF92FF920F9301
:103A10001F93CF93DF9300D000D01F92CDB7DEB7B6
:103A20008BE590E00E94C828813009F010C1CE01DA
:103A30000196D9DF9F938F9387EB91E09F938F93AC
:103A40000E947C252FEF3FE748E221503040404064
:103A5000E1F700C000006091C5027091C60280913C
:103A6000C7029091C8020091D1021091D202209118
:103A7000D3023091D4020F900F900F900F90012B32
:103A8000022B032B09F4E3C0E090D502F090D6029C
:103A900004EB11E0F80121918F012223A1F0F7013D
:103AA000E60FF71F30812313D2C06F5F7F4F8F4F18
:103AB0009F4F2091D7023091D8024091D902509166
:103AC000DA02C8D5E7CF60E08BE590E00E94EA28F3
:103AD000E0916D03F0916E03428181E090E09C01E2
:103AE00000906C0302C0220F331F0A94E2F7242BCC
:103AF0002283E0917003F091710342819C01009058
:103B00006F0302C0220F331F0A94E2F7242B228393
:103B1000FFEF2FE736E1F15020403040E1F700C0E1
:103B20000000E0916D03F0916E033281AC010090D2
:103B30006C0302C0440F551F0A94E2F7242F20950E
:103B400023232283E0917003F0917103228100907E
:103B50006F0302C0880F991F0A94E2F780958223B1
:103B60008283A090D502B090D602CE0101967C014E
:103B70006E0196E0C90ED11C8091D1029091D202C3
:103B8000A091D302B091D402892B8A2B8B2B09F4FC
:103B900053C08091D1029091D202A091D302B091F2
:103BA000D402892B8A2B8B2B09F44FC08091C5023C
:103BB0009091C602A091C702B091C802F501E80F2A
:103BC000F91F10818091D1029091D202A091D3026D
:103BD000B091D4020197A109B1098093D1029093C9
:103BE000D202A093D302B093D4028091C5029091E7
:103BF000C602A091C702B091C8022091D7023091AD
:103C0000D8024091D9025091DA02BC01CD016F5F18
:103C10007F4F8F4F9F4F1ED56093C5027093C60292
:103C20008093C7029093C802812FF70181937F018F
:103C3000CE16DF0609F0A0CF4AE050E06CE570E058
:103C4000CE0101960E94E12802C080E0EECF0F90E5
:103C50000F900F900F900F90DF91CF911F910F91C8
:103C6000FF90EF90DF90CF90BF90AF90089585EBDD
:103C700092E008959C01FB0162E370E0D7D4892BA8
:103C800089F4A0916A03B0916B038C9190E000904D
:103C9000690302C0959587950A94E2F78170908137
:103CA000890F8083C90164EF71E0C0D4892B39F496
:103CB00081E090819A3008F480E01082089580E0DD
:103CC0000895CF93DF93CDB7DEB7C058D1090FB6B3
:103CD000F894DEBF0FBECDBFE0913F03F0914003EB
:103CE00080819181E0914B03F0914C03408151819F
:103CF00062817381A0E0B0E080934F039093500302
:103D0000A0935103B0935203409353035093540331
:103D10006093550370935603CE0188960E94B802B3
:103D200082E090E00E94C82805EB12E06E961FAF7B
:103D30000EAF6E9721E333E0A0963FAF2EAFA09772
:103D40002CE633E0A2963FAF2EAFA297682FCE01AC
:103D5000885A9F4FAADC8CE890EEA1E0B0E0ABBFA0
:103D6000FC0187919691AC969FAF8EAFAC97A696CB
:103D70001CAE1DAE1EAE1FAEA697A8961FAE1EAE01
:103D8000A897AA961FAE1EAEAA97AE01485A5F4FDB
:103D9000B801CE0184599F4F19D8CE0184599F4F45
:103DA00036D910936803009367037894E6DD609139
:103DB0004D0370914E0384EF91E00E94BC0FE0919F
:103DC0003F03F0914003408151814C595F4F9C016A
:103DD0006BE57CE181E393E00E94360F60914D0337
:103DE00070914E0384E690E00E94BC0FE0913F0387
:103DF000F0914003408151814C595F4F9C0160E23A
:103E00007CE181E393E00E944B0F60911D03709170
:103E10001E0388EC90E00E94BC0F9C0140E050E043
:103E200063EF72E081E093E00E94600F9E01285AE8
:103E30003F4FAE0144595F4FB801CE0189589F4FA3
:103E40000E9492111092C5021092C6021092C702EF
:103E50001092C8021092C9021092CA021092CB02AC
:103E60001092CC021092D1021092D2021092D30280
:103E70001092D402C058DF4F1882C058D040C1DD24
:103E800040E050E063E070E08E010F5F1F4FC8011B
:103E90000E9403076CE274E0C8010E944A0760EECA
:103EA00073E0C8010E944A071F92FF24F394FF9217
:103EB0008EEC93E09F938F931F930F930E94400883
:103EC000C8010E94CF0786E02C968FAF2C97809177
:103ED000C5029091C602A091C702B091C802269671
:103EE0008CAF9DAFAEAFBFAF26978091D7029091B8
:103EF000D802A091D902B091DA0268968CAF9DAF3A
:103F0000AEAFBFAF68978091D1029091D202A091DD
:103F1000D302B091D40262968CAF9DAFAEAFBFAF6B
:103F200062978091CF029091D0022E969FAF8EAF74
:103F30002E978091D5029091D60264969FAF8EAF56
:103F400064972B96FFAE2B970F900F900F900F90CA
:103F50000F900F9028EEE22E23E0F22EC12CD12CF0
:103F600038E1232E4FE0342E54E6852E912C66EC5A
:103F7000A62E61E0B62E4091D1025091D2026091FE
:103F8000D3027091D40280910B0190E0A0E0B0E0E8
:103F9000481759076A077B07B0F065EC72E0C80163
:103FA0000E94000A8FA1882351F0B801CE018958E0
:103FB0009F4F0E94431690EDE92E97E0F92ECE0117
:103FC0004196D2DC3AC18091D1029091D202A09167
:103FD000D302B091D4020597A105B10508F42DC113
:103FE0008091D1029091D202A091D302B091D402DB
:103FF00062968CAF9DAFAEAFBFAF62978091C502A6
:104000009091C602A091C702B091C80226968CAFCB
:104010009DAFAEAFBFAF26978091C9029091CA0203
:10402000A091CB02B091CC022A968CAF9DAFAEAFDF
:10403000BFAF2A97AE01485D5F4FBE016E5B7F4FF9
:10404000CE0189589F4F0E948012882309F4F5C041
:104050001092C5021092C6021092C7021092C802B6
:104060001092C9021092CA021092CB021092CC0296
:104070001092D1021092D2021092D3021092D40266
:1040800088EEE82E83E0F82E81E0E81AF1084090EF
:10409000070350900803E0910F03F0911003608034
:1040A000718060911D0370911E038CE291E00E946B
:1040B000BC0F860D971DF20191838083E114F104FA
:1040C00009F06CC0CCC08091930290919402A091B1
:1040D0009502B0919602892B8A2B8B2B09F4D3C0C1
:1040E0008091870290918802A0918902B0918A0202
:1040F0002091970230919802F901E80FF91FF080A2
:104100008091930290919402A0919502B0919602B1
:104110000197A109B1098093930290939402A0930F
:104120009502B09396028091870290918802A091A7
:104130008902B0918A022091990230919A024091AD
:104140009B0250919C02BC01CD016F5F7F4F8F4F4E
:104150009F4F80D260938702709388028093890278
:1041600090938A026F2DCE0188960E941003809151
:10417000930290919402A0919502B0919602892B9E
:104180008A2B8B2B09F09FCF0FB6F894A89581B599
:10419000886181BD11BC0FBEE12CF12CFFEFCF1A5D
:1041A000DF0A809163039091640301969093640306
:1041B0008093630386E69EE00197F1F70000CE014D
:1041C00084599F4F0E940B17882339F0BE01605815
:1041D0007F4FC6014FDD811158C0C601B40126D200
:1041E000892B09F0C8CE4090D7025090D802609039
:1041F000D9027090DA028091D1029091D202A091FE
:10420000D302B091D402481A590A6A0A7B0AC8013B
:104210000E9412077F926F925F924F92BF92AF926D
:104220001F930F930E940B08C8010E94CF070FB67F
:10423000F894DEBF0FBECDBF9ECEE114F10409F0AD
:1042400023CFE7968FADE797882349F08091070148
:10425000811105C0CE0184599F4F0E948F18809113
:10426000930290919402A0919502B0919602892BAD
:104270008A2B8B2B09F490CF0FB6F894A89521BC0C
:104280000FBE31BC74CF60E06ECFCE0184599F4F1A
:104290000E947A18A2CF8F929F92AF92BF92CF9234
:1042A000DF92EF92FF920F931F93EFE6F3E087E028
:1042B000808380E390E0928381838F9AECE6F3E041
:1042C00026E02083928381838E9AE9E6F3E082E000
:1042D000808381E290E0928381831298E1E6F3E0AB
:1042E00011821082138212821582148240E065E0EE
:1042F00081E393E00E94331040E065E081E093E0C9
:104300000E94C51080E2882E912CA12CB12C9EE138
:10431000C92E98E0D92EE12CF12C01E313E020E026
:1043200032EC41E050E061E085EB92E00E94540BFA
:10433000812C912C540183943AE0C32ED12CE12C92
:10434000F12C20E835E240E050E060E087E792E0C1
:104350000E94540B1F910F91FF90EF90DF90CF9030
:10436000BF90AF909F908F9008958DE992E0FCDA16
:1043700087E892E0F9DA8BED92E0F6DA85EC92E0EC
:10438000F3CA90E000009F5F8917E0F708953F921D
:104390004F925F926F927F928F929F92AF92BF9255
:1043A000CF92DF92EF92FF920F931F93CF93DF9301
:1043B000CDB7DEB72E970FB6F894DEBF0FBECDBFD8
:1043C0007C01E0917003F0917103228181E090E023
:1043D00000906F0302C0880F991F0A94E2F7822BA6
:1043E0008283D7011C96ED91FC911D9765817681A2
:1043F0008781908523E030E040E050E02BD1622EB1
:10440000532E88EE87BB8FEF809361008ABB84BBFD
:1044100088EA88BBC12CD12C4E01BFE08B0E911CC9
:1044200088E0382E98EA492ED7011C96ED91FC9130
:104430001D97C601A0E0B0E0458156816781708577
:1044400084179507A607B70708F05FC0F701068530
:1044500017855E01FCE0AF0EB11CF80184859585DF
:10446000A685B785892B8A2B8B2B09F43FC0F801D1
:1044700084859585A685B785892B8A2B8B2BA1F101
:10448000F80180819181A281B38120893189F9016C
:10449000E80FF91F7080F80184859585A685B7859A
:1044A0000197A109B10984879587A687B78780817D
:1044B0009181A281B3812289338944895589BC01C4
:1044C000CD016F5F7F4F8F4F9F4FC4D0D8016D9349
:1044D0007D938D939C931397872DF50181935F01B5
:1044E000E815F90519F0B9CF80E0F7CF8E858093F4
:1044F00062008D8585BB8C858BBB38BA48BA38BACB
:1045000048BAF3E0CF0ED11C8FCF4381548163E0D2
:1045100070E08E010F5F1F4FC8010E9403075F927A
:104520006F9280ED91E09F938F931F930F930E9462
:104530000B08C8010E94CF0788EA87BB14BA1ABAD1
:10454000109261001092620015BA1BBA80E688BB17
:104550000F900F900F900F900F900F9081E02E967C
:104560000FB6F894DEBF0FBECDBFDF91CF911F9184
:104570000F91FF90EF90DF90CF90BF90AF909F9002
:104580008F907F906F905F904F903F900895EF9243
:10459000FF920F931F93CF93DF93CDB7DEB72B9787
:1045A0000FB6F894DEBF0FBECDBF062FDC011C9600
:1045B000ED91FC911D974381548160E070E0CE0144
:1045C00001960E94030788EC87BB109261008FEF71
:1045D0008ABB84BB88EA88BB10E0102F0027110F2C
:1045E000110F110F7801B8EFFB1A0E151F0568F4B3
:1045F00015BB0BBBC79885E0C4DE60B1CE01019648
:104600000E9472070F5F1F4FF0CFCE0101960E94EC
:10461000CF072B960FB6F894DEBF0FBECDBFDF914C
:10462000CF911F910F91FF90EF900895AA1BBB1B94
:1046300051E107C0AA1FBB1FA617B70710F0A61BA2
:10464000B70B881F991F5A95A9F780959095BC01C3
:10465000CD010895A1E21A2EAA1BBB1BFD010DC0BE
:10466000AA1FBB1FEE1FFF1FA217B307E407F50722
:1046700020F0A21BB30BE40BF50B661F771F881FFE
:10468000991F1A9469F760957095809590959B0194
:10469000AC01BD01CF010895EE0FFF1F0024001CE7
:1046A0000BBE0790F691E02D09948ED0A59F900D3A
:1046B000B49F900DA49F800D911D11240895E8943E
:1046C000DF93CF93FC01DB017FD07F936F93E901F0
:1046D0009A01AC01BF93AF933F932F93DF0174D046
:1046E00026F46C1B7D0B820B930B9E01EB01FC01EE
:1046F0007AD0AF91BF912F913F9175D0BE01CF017C
:10470000F9012F913F91CF91DF910895689401C0F5
:10471000E8948F929F92CF93DF9305D0DF91CF9152
:104720009F908F90089588249924F401E401B0E4C7
:104730009F93AA279A158B049C04ED05FE05CF05CF
:10474000D007A10798F4AD2FDC2FCF2FFE2FE92D36
:10475000982C892E982F872F762F652F542F432F33
:10476000322F2227B85031F7BF9127C01B2EBF919F
:10477000BB27220F331F441F551F661F771F881F3B
:10478000991F881C991CEE1FFF1FCC1FDD1FAA1F3D
:10479000BB1F8A149B04EC05FD05CE05DF05A007B1
:1047A000B10748F08A189B08EC09FD09CE09DF091A
:1047B000A00BB10B21601A94E1F62EF49401AF0125
:1047C000BE01CD01000C0895A29FB001B39FC001AE
:1047D000A39F700D811D1124911DB29F700D811D2D
:1047E0001124911D0895F0DF460F571FC81FD91FD0
:1047F00008F431960895F0917B03E0917A030097D5
:10480000B1F45F934F937F936F933F932F9389EE10
:1048100091E09F938F93FF93EF935FD18DB79EB7F6
:104820000A960FB6F8949EBF0FBE8DBF17C05F9358
:104830004F937F936F939F938F933F932F9384E135
:1048400092E09F938F93FF93EF9347D18DB79EB7DD
:104850000C960FB6F8949EBF0FBE8DBF21D10F935B
:104860001F93CF93DF938230910510F482E090E0A4
:10487000E0917403F091750320E030E0A0E0B0E037
:10488000309719F1408151810281138148175907EE
:10489000C8F08417950769F4109731F012960C93BD
:1048A000129713961C9327C00093740310937503FB
:1048B00022C02115310519F04217530718F49A0147
:1048C000BD01EF01DF01F801DBCF21153105F9F062
:1048D000281B390B2430310580F48A819B816115B6
:1048E000710521F0FB019383828304C090937503CB
:1048F00080937403FE01329644C0FE01E20FF31F61
:104900008193919322503109398328833AC02091B1
:10491000720330917303232B41F4209102013091F3
:1049200003013093730320937203209100013091AF
:1049300001012115310541F42DB73EB74091040125
:1049400050910501241B350BE0917203F091730324
:10495000E217F307A0F42E1B3F0B2817390778F056
:10496000AC014E5F5F4F2417350748F04E0F5F1FB5
:1049700050937303409372038193919302C0E0E0DC
:10498000F0E0CF01DF91CF911F910F910895CF9368
:10499000DF93009709F481C0FC01329713821282E1
:1049A000A0917403B0917503109781F42081318137
:1049B000820F931F209172033091730328173907D8
:1049C00051F5F0937303E093720367C0ED0120E0AB
:1049D00030E0CE17DF0740F44A815B819E0141152C
:1049E0005105F1F0EA01F5CFD383C28340815181B3
:1049F000840F951FC817D90759F488819981840FAE
:104A0000951F0296918380838A819B819383828301
:104A10002115310529F4F0937503E09374033DC02B
:104A2000E901FB83EA8349915991C40FD51FEC1723
:104A3000FD0761F480819181840F951F0296E90141
:104A400099838883828193819B838A83E0E0F0E06D
:104A500012968D919C911397009719F0FD01DC013E
:104A6000F7CF8D919C9111979D012E5F3F4F820F43
:104A7000931F20917203309173032817390769F44B
:104A8000309729F4109275031092740302C01382B8
:104A90001282B0937303A0937203DF91CF910895B4
:104AA00081E090E0F894A3C3FC0105900020E9F7B1
:104AB000809590958E0F9F1F0895FB01DC018D91CD
:104AC000019080190110D9F3990B0895FB01DC01C5
:104AD00001900D920020E1F70895CF93DF93CDB7B9
:104AE000DEB7AE01475F5F4F6F8178858D819E8114
:104AF00092D0DF91CF910895CF93DF93CDB7DEB7FA
:104B0000AE014B5F5F4FFA0161917191AF018091EE
:104B10007803909179037FD0DF91CF9108950F931F
:104B20001F93CF93DF93CDB7DEB7AE01495F5F4FE1
:104B3000DA016D917D91AD0106E713E0F801828104
:104B40009381DC0113962C911397286013962C9374
:104B500062D0D8011296ED91FC9113972381277FA3
:104B60002383DF91CF911F910F9108956091780376
:104B70007091790363C20F931F93CF93DF93CDB7E7
:104B8000DEB72E970FB6F894DEBF0FBECDBF8C01F7
:104B900086E08C831A8309838FEF9FE79E838D8342
:104BA000CE01019638D0EF81F885E00FF11F108219
:104BB0002E960FB6F894DEBF0FBECDBFDF91CF911A
:104BC0001F910F9108950F931F93CF93DF93CDB74C
:104BD000DEB72E970FB6F894DEBF0FBECDBF8C01A7
:104BE0008EE08C831A8309838FEF9FE79E838D83EA
:104BF000CE01019610D0EF81F885E00FF11F1082F1
:104C00002E960FB6F894DEBF0FBECDBFDF91CF91C9
:104C10001F910F9108952F923F924F925F926F9242
:104C20007F928F929F92AF92BF92CF92DF92EF923C
:104C3000FF920F931F93CF93DF93CDB7DEB72B97E0
:104C40000FB6F894DEBF0FBECDBF6C017B018A01A9
:104C5000FC0117821682838181FFBFC1CE010196BC
:104C60003C01F6019381F70193FD859193FF8191BA
:104C70007F01882309F4ADC1853239F493FD859114
:104C800093FF81917F01853221F4B60190E0D6D166
:104C9000E8CF912C212C312CFFE1F315D8F08B3289
:104CA00079F038F4803279F08332A1F4232D206139
:104CB0001DC08D3261F0803369F4232D216016C050
:104CC000832D8260382EE32DE4603E2E2AC0F32D22
:104CD000F8601DC037FC2DC020ED280F2A3040F0B1
:104CE0008E32B9F436FC75C1232D2064322E19C0E2
:104CF00036FE06C08AE0989E200D1124922E11C027
:104D0000EAE02E9E200D1124222EF32DF0623F2E7C
:104D100008C08C3621F4832D8068382E02C0883676
:104D200041F4F70193FD859193FF81917F018111FA
:104D3000B3CF982F9F7D9554933028F40C5F1F4F6D
:104D40009FE399830DC0833631F0833771F083354B
:104D500009F055C020C0F801808189830E5F1F4F84
:104D600088248394912C530112C02801F2E04F0E45
:104D7000511CF801A080B18036FE03C0692D70E09F
:104D800002C06FEF7FEFC5014ED14C018201F32DC0
:104D9000FF773F2E15C0280122E0420E511CF8017A
:104DA000A080B18036FE03C0692D70E002C06FEFB5
:104DB0007FEFC5012DD14C01F32DF0683F2E82010C
:104DC00033FC19C0822D90E088169906A0F4B60134
:104DD00080E290E033D12A94F5CFF50137FC85913C
:104DE00037FE81915F01B60190E028D121102A940D
:104DF00021E0821A91088114910479F7E1C0843688
:104E000011F0893639F5F80137FE07C060817181EC
:104E1000828193810C5F1F4F08C060817181072ED2
:104E2000000C880B990B0E5F1F4FF32DFF763F2E62
:104E300097FF09C090958095709561957F4F8F4F32
:104E40009F4FF0683F2E2AE030E0A30133D1882E37
:104E5000861844C0853731F4232D2F7EB22E2AE0E8
:104E600030E025C0932D997FB92E8F36C1F018F40C
:104E7000883579F0AEC0803719F0883721F0A9C0A5
:104E8000E92FE061BE2EB4FE0DC0FB2DF460BF2EF5
:104E900009C034FE0AC0292F2660B22E06C028E0C1
:104EA00030E005C020E130E002C020E132E0F8014E
:104EB000B7FE07C060817181828193810C5F1F4FB3
:104EC00006C06081718180E090E00E5F1F4FA301FA
:104ED000F1D0882E8618FB2DFF773F2E36FE0DC0B1
:104EE000232D2E7FA22E891458F434FE0BC032FCE1
:104EF00009C0832D8E7EA82E05C0B82CA32C03C01C
:104F0000B82C01C0B92CA4FE0FC0FE01E80DF11DA4
:104F10008081803321F49A2D997EA92E09C0A2FEAA
:104F200006C0B394B39404C08A2D867809F0B39474
:104F3000A3FC10C0A0FE06C0B21480F4280C922C72
:104F40009B180DC0B21458F4B60180E290E076D000
:104F5000B394F8CFB21418F42B1802C0982C212C5B
:104F6000A4FE0FC0B60180E390E068D0A2FE16C098
:104F7000A1FC03C088E790E002C088E590E0B6019C
:104F80000CC08A2D867851F0A1FE02C08BE201C0D0
:104F900080E2A7FC8DE2B60190E050D0891430F495
:104FA000B60180E390E04AD09A94F8CF8A94F30156
:104FB000E80DF11D8081B60190E040D08110F6CF60
:104FC000222009F44ECEB60180E290E037D02A9438
:104FD000F7CFF6018681978102C08FEF9FEF2B9666
:104FE0000FB6F894DEBF0FBECDBFDF91CF911F91FA
:104FF0000F91FF90EF90DF90CF90BF90AF909F9078
:105000008F907F906F905F904F903F902F9008957A
:10501000FC010590615070400110D8F78095909583
:105020008E0F9F1F0895FC01615070400190011088
:10503000D8F7809590958E0F9F1F08950F931F931B
:10504000CF93DF93FB01238121FD03C08FEF9FEFFF
:105050002CC022FF16C0468157812481358142171A
:10506000530744F4A081B1819D012F5F3F4F3183ED
:1050700020838C93268137812F5F3F4F3783268390
:1050800014C08B01EC01FB010084F185E02D099532
:10509000892BE1F6D80116968D919C911797019670
:1050A00017969C938E931697CE01DF91CF911F9107
:1050B0000F910895FA01AA27283051F1203181F18A
:1050C000E8946F936E7F6E5F7F4F8F4F9F4FAF4F10
:1050D000B1E03ED0B4E03CD0670F781F891F9A1F23
:1050E000A11D680F791F8A1F911DA11D6A0F711DD7
:1050F000811D911DA11D20D009F468943F912AE0E3
:10510000269F11243019305D3193DEF6CF010895CA
:10511000462F4770405D4193B3E00FD0C9F7F6CFFB
:10512000462F4F70405D4A3318F0495D31FD4052C3
:10513000419302D0A9F7EACFB4E0A6959795879559
:1051400077956795BA95C9F7009761057105089538
:105150009B01AC010A2E06945795479537952795E4
:10516000BA95C9F7620F731F841F951FA01D08957C
:10517000DC01CB01FC01E199FECF06C0FFBBEEBB19
:10518000E09A31960DB20D9241505040B8F7089513
:10519000E199FECF9FBB8EBBE09A99278DB308950E
:1051A000262FE199FECF9FBB8EBBE09A01970DB2EF
:1051B000021631F02DBB0FB6F894E29AE19A0FBEB9
:1051C0000895DC01CB0102C02D9105D04150504023
:1051D000D8F70895262FE199FECF9FBB8EBB2DBB3C
:1051E0000FB6F894E29AE19A0FBE0196089512E084
:1051F000CDE1D2E003C0FE014FDA2196CE31D107D6
:06520000D1F7F894FFCF86
:1052060000007C032000C001FFFF0A0C8D0D8D0DF0
:105216008D0D8D0D8D0D8D0D8D0D8D0D8D0D8D0DB8
:105226008D0D8D0D8D0D8D0D0060000000E00000D0
:1052360000600100A8039F0396036379636C65739E
:10524600203C3D20307866666666554C4C002E2E16
:105256002F61746D3132385F74696D6572732F74A6
:10526600696D65725F722E637070006D735F746F27
:105276005F6379636C65730025642025632025646C
:105286000A007374617475733A2025640A006163B9
:105296006B0050494E3A20257300497320646663BB
:1052A6003A202564004973206466633A202530322B
:1052B600580000004F4B0041542B505357443D2299
:1052C6002573220D0A00667265653A20256C750005
:1052D6005372616D2075706461746564206F662019
:1052E600256420627974657300417373657274690D
:1052F6006F6E206661696C65643A20282573292CD7
:105306002066696C652025732C206C696E652025E6
:10531600642E0A00417373657274696F6E2066614C
:10532600696C65643A20282573292C2066756E639E
:1053360074696F6E2025732C2066696C6520257351
:0C5346002C206C696E652025642E0A0086
:00000001FF
