:100000008EC100000C9417160C9442160C946D16B9
:100010000C9498160C94C3160C94EE160C941917A5
:100020000C944417A6C10000A4C10000A2C10000A6
:1000300045C700007BC70000EBC700009AC1000065
:1000400098C1000096C10000E1C500000CC6000088
:1000500090C100008EC100008CC100008AC1000068
:100060009DC7000086C10000F8C700000C94690815
:100070000C94A5080C94E10865C600009AC600001F
:1000800078C1000076C1000074C100005C0C8E0CC9
:10009000940CC20CED0C0B0D2E0D3B0D560D090EE4
:1000A000D20DFE0D120E2C0E7A0EA80ED50E310EAC
:1000B000400E530E620E850E720E920EAE0EC00EE4
:1000C000F00EFF0E0E0F110FAE0F340F010E730F57
:1000D000840F417661696C61626C6520636F6D6D40
:1000E000616E64733A00556E6B6E6F776E20636F4E
:1000F0006D6D616E643A004A756C20313720323084
:1001000031390056657273696F6E3A52312E303153
:1001100000425420454550524F4D20454D554C41CD
:10012000544F5220520A436F6D70696C6174696F4D
:100130006E20646174653A20005061636B6574736E
:100140002072656365697665643A202575005061A3
:10015000636B657473207772697474656E3A2025D9
:10016000750057726974696E672074696D653A200D
:100170002575206D730064697361626C696E672018
:10018000626F6F746C6F6164657220666C6167008A
:100190005372616D206C6F6164656420696E202507
:1001A00075206D73000A4F6E54696D653A20256C99
:1001B00075206D7300656D756C6174653A007365CB
:1001C000745F62616E6B5F6E616D653A0064747836
:1001D000006E616B0061636B00726561645F6279E0
:1001E00074650073656E6465725F74657374006432
:1001F000696769646961675F6F66660064696769FA
:10020000646961675F6F6E0077726974696E6774A5
:10021000696D650076657273696F6E0064697361FC
:10022000626C655F626F6F746C6F6164657200729F
:10023000756E5F626F6F746C6F616465720063707E
:10024000755F6C6F61640065726173655F62616E9A
:100250006B00726561645F7372616D006765745FE6
:1002600062616E6B5F696E666F0062616E6B735F79
:10027000696E666F0072657365745F62616E6B7341
:100280005F73746174730062616E6B696E75736520
:100290000062616E6B616464720062616E6B3373E5
:1002A00065740062616E6B327365740062616E6BBF
:1002B0003173657400726561645F62616E6B0068C2
:1002C000656C700068616E647368616B650072785C
:1002D000666C757368007265736574656D7500652D
:1002E0006D756C61746F72207374617473207265C4
:1002F0007365740072656164790042616E6B20659C
:100300007261736564006F6F720061636B00726588
:1003100061647900726561647900BA01DF1C11249F
:100320001FBECFEFD0E1DEBFCDBF13E0A0E0B1E054
:10033000EAE3F8E400E00BBF02C007900D92A23C94
:10034000B107D9F724E0A2ECB3E001C01D92A137B8
:10035000B207E1F711E0CFE8D1E004C02197FE0138
:100360000E948E1ECD38D107C9F70E94351B0C9410
:100370001B2446CEEAECF3E022E330E03183208315
:1003800087E0828380E390E094838383E5ECF3E06D
:100390003183208326E02283948383838091060126
:1003A000E2ECF3E021E330E031832083828308959F
:1003B0001F93CF93DF93EC018A899B89AC89BD8918
:1003C000892B8A2B8B2B59F188819981AA81BB813A
:1003D00028893989F901E80FF91F10818A899B89D9
:1003E000AC89BD890197A109B1098A8B9B8BAC8B24
:1003F000BD8B88819981AA81BB812C853D854E85E5
:100400005F85BC01CD016F5F7F4F8F4F9F4F0E9473
:100410006C1E688379838A839B83812F01C080E06F
:10042000DF91CF911F910895AF92BF92CF92DF924B
:10043000EF92FF920F931F93CF93DF93EC01EA8526
:10044000FB8533812481958186818E01025F1F4F58
:10045000EC85FD85428953896489758948A359A330
:100460006AA37BA340815181628173814E875F873C
:10047000688B798B44815581668177814A8B5B8B50
:100480006C8B7D8BC32ED22EE92EF82EA12CB12C95
:10049000C114D104E104F10409F423C0C80188DFC8
:1004A00095013827032E0294802D8F708327932F78
:1004B0009025990F907E8927902D9327907F969570
:1004C000032E000C991F3695369536953F713927C6
:1004D0003227282F590181E0C81AD108E108F10814
:1004E000D7CFEA85FB8527813085A216B30621F098
:1004F0008FEF9FEF9283818381E0A216B30609F00C
:1005000080E0DF91CF911F910F91FF90EF90DF90EE
:10051000CF90BF90AF900895CF92DF92EF92FF926D
:100520000F931F93CF93DF93DC011C96ED91FC9109
:100530001D9702891389248935894091070150E06C
:1005400060E070E0041715072607370708F459C064
:10055000EC018C01025F1F4FEC85FD858289938938
:10056000A489B589892B8A2B8B2B09F44AC08289EF
:100570009389A489B58988A399A3AAA3BBA38081E1
:100580009181A281B3818E879F87A88BB98B84814B
:100590009581A681B7818A8B9B8BAC8BBD8BC80163
:1005A00007DF8E3351F58883D12CED2CF12CC090D0
:1005B00007012C2D30E021503109E216F30644F4F6
:1005C000C801F6DEFE01EE0DFF1D8183D394EDCF51
:1005D0008C3399F40C84DD85C02DD12CE12CF12CC9
:1005E000C114D104E104F10471F0CE01E1DEB1E007
:1005F000CB1AD108E108F108F3CF8C859D85D8DEB0
:10060000ABCF80E001C081E0DF91CF911F910F91CE
:10061000FF90EF90DF90CF9008950F931F93CF93AB
:10062000DF93EC01FB019B878A877D876C8782E3E0
:10063000898F80819181A281B3818E879F87A88BCA
:10064000B98B84859585A685B7858A8F9B8FAC8F5E
:10065000BD8F82899389A489B58988A399A3AAA308
:10066000BBA3808591859F8B8E8B808991899F8F7D
:100670008E8F81E0888F1B821C821D821E821CA2AD
:10068000CE014ADF882309F44DC080E090E0DC0110
:10069000EA85FB85438154816581768184179507BE
:1006A000A607B70718F08CE291E00EC02CEA2A9555
:1006B000F1F700000196A11DB11DEACFEFEFF7E4BD
:1006C0003197F1F700C00000EC85FD8502891389A0
:1006D00024893589AA85BB8513964D915D916D91CD
:1006E0007C9116970417150726073707A8F4059776
:1006F00029F71082118212821382148215821682C7
:100700001782128A138A148A158A8EEF9FEF189621
:100710009C938E93179706C0CE0186DE882311F036
:1007200081E08CA3DF91CF911F910F910895CF931A
:10073000DF93EC018C819D81AE81BF81288939894D
:10074000F901E80FF91F60838C819D81AE81BF8123
:100750002C853D854E855F85BC01CD016F5F7F4F48
:100760008F4F9F4F0E946C1E6C837D838E839F836F
:100770004A895B896C897D898C859D85AE85BF851D
:10078000481759076A077B0758F48A899B89AC89FF
:10079000BD890196A11DB11D8A8B9B8BAC8BBD8B36
:1007A0004A895B896C897D898C859D85AE85BF85ED
:1007B000481759076A077B0741F48C819D81AE81F8
:1007C000BF8188839983AA83BB83DF91CF910895EA
:1007D000CF93DF93FC01A28DB38D4D915D916D910F
:1007E0007C91A685B785CD91DC91048CF58DE02DAB
:1007F0009A01AB0144275527AFEFBFEF0E94971E28
:100800006C0F7D1F811D911DAF01DF91CF9128C518
:100810000F931F93CF93DF93EC0108AD19AD2AAD71
:100820003BAD8AA99BA9ACA9BDA9081719072A073E
:100830003B0799F3CE0186967ADFEA81FB8120811E
:1008400081E090E00E8402C0880F991F0A94E2F7BD
:10085000822B8083DF91CF911F910F910895EF92AA
:10086000FF920F931F93CF93DF93EC0108AD19AD67
:100870002AAD3BAD8AA99BA9ACA9BDA90817190748
:100880002A073B0799F38B017E0186E2E80EF11CF3
:10089000F80164910F5F1F4F662319F0C70147DF0E
:1008A000F7CFEA81FB81208181E090E00E8402C0D5
:1008B000880F991F0A94E2F7822B808386E69EE0D8
:1008C0000197F1F70000DF91CF911F910F91FF90F9
:1008D000EF900895CF93DF93EC019A01AB0160E0B4
:1008E00070E18EE090E00E946C1EBA01A9014150B7
:1008F00051096109710957FF0EC0E881F98181E052
:1009000090E00F8402C0880F991F0A94E2F7808359
:100910005F7766277727E885F985BB27A72F962F6E
:10092000852F8083EA85FB854083EA81FB818C8566
:100930008083EC81FD818D858083DF91CF91089547
:100940002F923F924F925F926F927F928F929F92DF
:10095000AF92BF92CF92DF92EF92FF920F931F93CD
:10096000CF93DF9300D01F92CDB7DEB73C016983F0
:1009700019012A0140969B838A83F301108A118A08
:10098000128A138A148A158A168A178A82E3838F39
:10099000C48ED58EE68EF78E12A213A214A215A2D3
:1009A00082E390E00E94711FF301918F808F848D0C
:1009B000958DA68DB78D0E94711FF30191A380A321
:1009C000128E6301F6E2CF0ED11CF30116A217A21C
:1009D00010A611A612A613A614A615A682E381AB33
:1009E00082AA93AAA4AAB5AA10AE11AE12AE13AEF3
:1009F00082E390E00E94711FF30197A786A782A966
:100A000093A9A4A9B5A90E94711FF30197AB86AB66
:100A100010AA15AF04AFF981F1112CC08BE290E060
:100A2000F301918380838AE290E09383828385E956
:100A300090E0958384838CE290E09783868380E9BD
:100A400090E09187808789E290E09387828785E0B4
:100A5000868781E0878788E9848786E085878A8121
:100A60009B819093D6038093D503D092D403C092F8
:100A7000D3032EC09981913059F58BE990E0F301B1
:100A8000918380838AE990E0938382838DE990E06B
:100A9000958384838CE990E09783868388E990E04E
:100AA0009187808789E990E09387828785E08687B0
:100AB0008981878788E9848786E08587EA81FB8149
:100AC000F093D203E093D103D092D003C092CF032E
:100AD000B201A101C3010F900F900F90DF91CF9150
:100AE0001F910F91FF90EF90DF90CF90BF90AF904C
:100AF0009F908F907F906F905F904F903F902F903E
:100B0000E9CE4F925F926F927F928F929F92AF92B7
:100B1000BF92EF92FF920F931F93CF93DF93EC015D
:100B2000F62EE72E4A018CAD9DAD52DE2B013C0125
:100B3000188A198A1A8A1B8A1C8A1D8A1E8A1F8A89
:100B40001AA21BA21CA21DA2A12CB12C8AA19BA19E
:100B5000ACA1BDA1892B8A2B8B2B29F168897989BE
:100B60008A899B890AA11BA12CA13DA1012B022BE3
:100B7000032BC9F00F2D1E2DF80121918F01222387
:100B8000A9F1E8A1F9A1E60FF71F308123130BC0EB
:100B90006F5F7F4F8F4F9F4F2C8D3D8D4E8D5F8DA3
:100BA0000E946C1EE9CF8CAD9DAD12DEDC01CB0145
:100BB00084199509A609B70988169906AA06BB06DD
:100BC00070F4EF92FF9280E391E09F938F930E94E5
:100BD000D51A0F900F900F900F9080E008C08FEF04
:100BE0009FE80197F1F700C00000B0CF81E0DF91EE
:100BF000CF911F910F91FF90EF90BF90AF909F907A
:100C00008F907F906F905F904F9008951F920F92FA
:100C10000FB60F9211240BB60F922F933F934F9361
:100C20005F936F937F938F939F93AF93BF93EF9354
:100C3000FF938BB16CB18091D5039091D60377DD92
:100C4000FF91EF91BF91AF919F918F917F916F91A4
:100C50005F914F913F912F910F900BBE0F900FBE60
:100C60000F901F9018951F920F920FB60F9211249C
:100C70000BB60F921F932F933F934F935F936F93F6
:100C80007F938F939F93AF93BF93CF93DF93EF9314
:100C9000FF93C091D303D091D4038A899B89AC89F7
:100CA000BD89892B8A2B8B2BB1F18A899B89AC89D1
:100CB000BD89892B8A2B8B2B59F188819981AA8137
:100CC000BB8128893989F901E80FF91F10818A89C8
:100CD0009B89AC89BD890197A109B1098A8B9B8B3E
:100CE000AC8BBD8B88819981AA81BB812C853D8588
:100CF0004E855F85BC01CD016F5F7F4F8F4F9F4F4A
:100D00000E946C1E688379838A839B83812F01C034
:100D100080E08CB901C05598FF91EF91DF91CF91A0
:100D2000BF91AF919F918F917F916F915F914F9103
:100D30003F912F911F910F900BBE0F900FBE0F9000
:100D40001F9018951F920F920FB60F9211240BB699
:100D50000F922F933F934F935F936F937F938F9354
:100D60009F93AF93BF93EF93FF93CF93DF931F9224
:100D7000CDB7DEB780919C00898369818091D103D2
:100D80009091D203D4DC0F90DF91CF91FF91EF913E
:100D9000BF91AF919F918F917F916F915F914F9193
:100DA0003F912F910F900BBE0F900FBE0F901F9091
:100DB00018951F920F920FB60F9211240BB60F9237
:100DC0001F932F933F934F935F936F937F938F93D3
:100DD0009F93AF93BF93CF93DF93EF93FF93C09114
:100DE000CF03D091D0038A899B89AC89BD89892B97
:100DF0008A2B8B2BB9F18A899B89AC89BD89892B78
:100E00008A2B8B2B59F188819981AA81BB812889F2
:100E10003989F901E80FF91F10818A899B89AC890A
:100E2000BD890197A109B1098A8B9B8BAC8BBD8BC6
:100E300088819981AA81BB812C853D854E855F85FE
:100E4000BC01CD016F5F7F4F8F4F9F4F0E946C1E83
:100E5000688379838A839B83812F01C080E080939C
:100E60009C0015C080919A008F7D80939A00E0913C
:100E7000CF03F091D0031082118212821382148268
:100E8000158216821782128A138A148A158AFF9194
:100E9000EF91DF91CF91BF91AF919F918F917F9112
:100EA0006F915F914F913F912F911F910F900BBECA
:100EB0000F900FBE0F901F90189508951F920F92DC
:100EC0000FB60F9211240BB60F922F933F934F93AF
:100ED0005F936F937F938F939F93AF93BF93EF93A2
:100EE000FF93E0911201F091130109952091E50320
:100EF0003091E6032115310531F08CB59DB5820F97
:100F0000931F9BBD8ABDFF91EF91BF91AF919F91C0
:100F10008F917F916F915F914F913F912F910F90A2
:100F20000BBE0F900FBE0F901F9018951F920F923F
:100F30000FB60F9211240BB60F922F933F934F933E
:100F40005F936F937F938F939F93AF93BF93EF9331
:100F5000FF93E0911001F091110109952091E303B5
:100F60003091E4032115310531F08CB59DB5820F28
:100F7000931F99BD88BDFF91EF91BF91AF919F9154
:100F80008F917F916F915F914F913F912F910F9032
:100F90000BBE0F900FBE0F901F9018951F920F92CF
:100FA0000FB60F9211240BB60F922F933F934F93CE
:100FB0005F936F937F938F939F93AF93BF93EF93C1
:100FC000FF93E0910E01F0910F0109952091E1034B
:100FD0003091E2032115310541F08CB59DB5820FAA
:100FE000931F9093790080937800FF91EF91BF91C8
:100FF000AF919F918F917F916F915F914F913F91B1
:101000002F910F900BBE0F900FBE0F901F90189551
:101010001F920F920FB60F9211248F939F93AF934D
:10102000BF938091E7039091E803A091E903B09109
:10103000EA030196A11DB11D8093E7039093E80395
:10104000A093E903B093EA03BF91AF919F918F9171
:101050000F900FBE0F901F9018951F920F920FB612
:101060000F9211240BB60F922F933F934F935F93E0
:101070006F937F938F939F93AF93BF93EF93FF9360
:10108000E0910C01F0910D0109952091DB03309165
:10109000DC032115310551F0809188009091890081
:1010A000820F931F9093870080938600FF91EF91AA
:1010B000BF91AF919F918F917F916F915F914F9170
:1010C0003F912F910F900BBE0F900FBE0F901F906E
:1010D00018951F920F920FB60F9211240BB60F9214
:1010E0002F933F934F935F936F937F938F939F9330
:1010F000AF93BF93EF93FF93E0910A01F0910B013F
:1011000009952091D9033091DA032115310551F069
:101110008091880090918900820F931F90938500A1
:1011200080938400FF91EF91BF91AF919F918F9138
:101130007F916F915F914F913F912F910F900BBED7
:101140000F900FBE0F901F9018951F920F920FB621
:101150000F9211240BB60F922F933F934F935F93EF
:101160006F937F938F939F93AF93BF93EF93FF936F
:10117000E0910801F091090109952091D703309180
:10118000D8032115310551F0809188009091890094
:10119000820F931F9093830080938200FF91EF91C1
:1011A000BF91AF919F918F917F916F915F914F917F
:1011B0003F912F910F900BBE0F900FBE0F901F907D
:1011C00018951F920F920FB60F9211248F939F9331
:1011D000AF93BF938091DD039091DE03A091DF0375
:1011E000B091E0030196A11DB11D8093DD039093A2
:1011F000DE03A093DF03B093E003BF91AF919F9113
:101200008F910F900FBE0F901F901895FC01A08931
:10121000B1892D933C93A681B78111965C934E932F
:10122000709313016093120106A4F7A5E02D80814D
:10123000806180830895FC01A289B3892D933C933A
:10124000A085B18511965C934E93709311016093C4
:10125000100106A4F7A5E02D8081886080830895A1
:101260004F925F926F927F928F929F92AF92BF92B6
:10127000CF92DF92EF92FF920F931F93CF93DF9362
:101280008A0128EE33E040E050E00E94A11E2901CF
:101290003A014B01D82FC92F980140E050E060E09F
:1012A00070E081EE90E00E946C1E89019A01580165
:1012B0006901E12CF12C00E010E09201A301B401DE
:1012C0008D2F9C2F0E94CA1EB901CA01DF91CF91B8
:1012D0001F910F91FF90EF90DF90CF90BF90AF9054
:1012E0009F908F907F906F905F904F9008954F9256
:1012F0005F926F927F928F929F92AF92BF92CF92A6
:10130000DF92EF92FF920F931F938B01BC0180E05D
:1013100090E029E939E340E050E00E94A11E580125
:10132000C12CD12CE12CF12C00E010E00E94CA1E4F
:1013300029013A014114510481E06806710450F01A
:101340002BE931E044ED50E06FEA71E08CEC91E084
:101350000E943D1FC2011F910F91FF90EF90DF90FF
:10136000CF90BF90AF909F908F907F906F905F9045
:101370004F900895CF93DF93CDB7DEB760970FB648
:10138000F894DEBF0FBECDBF1A82198281E090E0D3
:101390009C838B8388E090E09E838D8380E490E043
:1013A00098878F8380E091E09A87898780E094E036
:1013B0009C878B871E861D86188A1F86FE01E60F76
:1013C000F11DE60FF11D8181928160960FB6F894B0
:1013D000DEBF0FBECDBFDF91CF910895CF93DF93D6
:1013E000EC018FE490E0998388838EE490E09B8306
:1013F0008A838AE790E09D838C838AE490E09F83D0
:101400008E8388E490E09987888788E790E09B87BF
:101410008A8786E490E09D878C878CE490E09F87A4
:101420008E8785EE93E0998B888B83EE93E09B8B80
:101430008A8B81EE93E09D8B8C8B86E590E09F8B71
:101440008E8B8CE790E0998F888F87EE93E09B8F4F
:101450008A8F1E8E1F8E18A219A21AA21BA21CA26E
:101460001DA21EA21FA218A619A61AA61BA61CA67C
:101470001DA687E590E09FA78EA78EB560FB80F93B
:101480008EBDEA81FB8161FB992790F9808190FBF9
:1014900081F98083EA81FB8162FB992790F9808141
:1014A00090FB82F98083E881F981808140FB80F99B
:1014B0008083E881F98141FB992790F9808190FB35
:1014C00081F98083EA81FB8142FB992790F9808131
:1014D00090FB83F98083EA81FB8143FB442740F939
:1014E000808140FB84F98083CE0144DF9D8F8C8F07
:1014F000EEA5FFA5808184608083DF91CF91089560
:10150000CF93DF93EC018BE890E099838883EAE83E
:10151000F0E0FB83EA838CE890E09D838C8386E88F
:1015200090E09F838E8384E890E09987888782E8A3
:1015300090E09B878A8780E890E09D878C8788E889
:1015400090E09F878E878BED93E0998B888B89ED58
:1015500093E09B8B8A8B87ED93E09D8B8C8B86E54C
:1015600090E09F8B8E8B8CE790E0998F888F8DED2C
:1015700093E09B8F8A8F1E8E1F8E18A219A21AA22B
:101580001BA21CA21DA21EA21FA218A619A61AA663
:101590001BA61CA61DA68DE790E09FA78EA78081A5
:1015A00060FB80F98083EA81FB8161FB992790F9D8
:1015B000808190FB81F98083EA81FB8162FB99271E
:1015C00090F9808190FB82F98083E881F9818081A4
:1015D00040FB80F98083E881F98141FB992790F9EC
:1015E000808190FB81F98083EA81FB8142FB99270E
:1015F00090F9808190FB83F98083EA81FB8143FB32
:10160000442740F9808140FB84F98083CE01B2DE1B
:101610009D8F8C8FEEA5FFA5808184608083DF91F4
:10162000CF910895FC0110821182128213821482DC
:10163000158216821782128A138A148A158A0895CF
:10164000CF92DF92EF92FF920F931F93CF93DF938E
:101650008C016A017B01E901C114D104E104F104A8
:1016600099F0F80182899389A489B589892B8A2BFD
:101670008B2B51F0C8010E94D8018993F1E0CF1A59
:10168000D108E108F108E8CFDF91CF911F910F91C8
:10169000FF90EF90DF90CF900895CF93DF93EC0110
:1016A00078876F835A8749873C872B8781E08D87AE
:1016B0008EE890EEA1E0B0E0ABBFFC01879190E036
:1016C0009E838D838AE18A8384E390E00E94711F68
:1016D000FC019C838B8386ED92E09183808384EC74
:1016E00092E0938382838FEB92E0958384838AE6F2
:1016F00092E09783868385E792E09187808787E4ED
:1017000092E09387828782E592E0958784878EE3D3
:1017100092E0978786878CEA92E0918B808B83EAB0
:1017200092E0938B828B8AE992E0958B848B81E99E
:1017300092E0978B868B87E892E0918F808F85EB84
:1017400092E0938F828F8CE592E0958F848F8EEB61
:1017500091E0978F868F85EB91E091A380A38FE234
:1017600092E093A382A38CE192E095A384A384E109
:1017700092E097A386A383EE91E091A780A789EDDD
:1017800091E093A782A788E092E095A784A78EECCA
:1017900092E097A786A78CEF91E091AB80AB8FEE9C
:1017A00091E093AB82AB19821882DF91CF910895BB
:1017B0008F929F92AF92BF92CF92DF92EF92FF9261
:1017C0000F931F93CF93DF93CDB7DEB7E2970FB69A
:1017D000F894DEBF0FBECDBF5C014B01CE01019678
:1017E0006C0182E3D6011D928A95E9F7F501E2804A
:1017F000F12C00E010E00E151F0530F5D501139611
:10180000ED91FC911497C801880F991FE80FF91FFB
:101810002081318180E041E0480F90E0F901E80F3C
:10182000F91FE491D601A80FB91FEC93842FE111A1
:10183000F2CFB601C4010E949620892B11F4802FAB
:1018400004C00F5F1F4FD7CF8AE1E2960FB6F8941E
:10185000DEBF0FBECDBFDF91CF911F910F91FF90E3
:10186000EF90DF90CF90BF90AF909F908F900895B2
:101870008F929F92AF92BF92EF92FF920F931F931E
:10188000CF93DF93CDB7DEB769970FB6F894DEBF7D
:101890000FBECDBFFB01A285B3851196ED91FC91E2
:1018A00012973197E930F10508F012C17B018C01E4
:1018B000EA5BFF4F0C948E1EDC011B96ED91FC91B0
:1018C0001C97868197810E94E8034B015C01B70158
:1018D000F801838594850E94AD18D8011B96ED917F
:1018E000FC911C97868197810E94E803D8011B9682
:1018F000ED91FC911C970285138524853585DC01CB
:10190000CB01800F911FA21FB31F88199909AA0943
:10191000BB0982879387A487B587DAC0FC018781DA
:10192000908540967FDE27C013964D915D916D9115
:101930007C911697DC0117968D919C9118979E01CA
:101940002F5F3F4F40967CDED7011A96ED91FC91B8
:101950001B9783819481A581B681E1E0F0E0EC0FD3
:10196000FD1FE80FF91F1082BE016F5F7F4FF80166
:101970008185928561D685ED91E09F938F930E943A
:10198000151BA4C085ED91E09F938F930E94151BBA
:101990008CEC9CE10197F1F700C00000D80119968A
:1019A0008D919C911A9787D6F82EE92EBE016F5F14
:1019B0007F4FF801818592852BD6EF92FF929F93FE
:1019C0008F9383EE91E09F938F930E94FF200FB639
:1019D000F894DEBF0FBECDBF7BC0DC0117968D91A2
:1019E0009C91189740960E94D801F82E85ED91E0C1
:1019F0009F938F930E941221ECECFCE13197F1F759
:101A000000C000006F2DD80117968D919C911897FA
:101A10000E94FC1D1DC0DC0117968D919C911897AA
:101A200040960E94D801F82E85ED91E09F938F9308
:101A30000E941221ECECFCE13197F1F700C00000AC
:101A40006F2DD8011B968D919C911C970E94801937
:101A5000F801878190854096E5DD38C088EA87BB2C
:101A600014BA1ABA109261001092620015BA1BBA29
:101A700080E688BB2DC0DC0119968D919C911A9748
:101A80000E94D81585ED91E09F938F930E941221BB
:101A9000BFEFEFE7F4E0B150E040F040E1F700C005
:101AA00000008BEE91E00E943E2110C0CB010E940D
:101AB000091DD80117968D919C9118974096B2DD1B
:101AC00085ED91E09F938F930E94F51A0F900F90F0
:101AD00081E069960FB6F894DEBF0FBECDBFDF91EF
:101AE000CF911F910F91FF90EF90BF90AF909F907B
:101AF0008F900895EF92FF920F931F93CF93DF93F0
:101B00008C01DC011796CD91DC91189762ED70E0A5
:101B1000CE010E942F046AE0CE010E940804C0E0BA
:101B2000D0E0F801828190E0C817D907A8F4E780D7
:101B3000F084CE01880F991F0380F481E02DE80F17
:101B4000F91F60817181C7010E942F046AE0C701FB
:101B50000E9408042196E5CFDF91CF911F910F914C
:101B6000FF90EF900895FC01718360830895EF92D8
:101B7000FF920F931F93CF93DF93CDB7DEB7E2971A
:101B80000FB6F894DEBF0FBECDBF8C017A01862F51
:101B900090E08A31910508F0E1C1FC01E15BFF4F63
:101BA0000C948E1E81E191E09F938F930E941221ED
:101BB00087EF90E09F938F930E94151B83E091E045
:101BC0009F938F930E94122189E294E00E94E80380
:101BD0009F938F937F936F9385EA91E09F938F9369
:101BE0000E94151BD80111968C9111978F938C919F
:101BF0008F9380E991E09F938F936DC1C8017ADF45
:101C0000B8C1D80117968D919C91189740960ADD1E
:101C1000B0C198E088E10FB6F894A89581BD0FBED9
:101C200091BDFFCF6AE0F801878190850E9408048A
:101C300060E0D80119968D919C911A9756D561E074
:101C4000F8018185928551D562E0D80119968D9170
:101C50009C911A974AD58DC1F801818592857BD4D4
:101C600088C160E0D80119968D919C911A9787D709
:101C700060E0F801818592856AD48CEA92E00EC01A
:101C800061E0D80119968D919C911A9778D761E0FF
:101C9000F801818592855BD483EA92E09F938F93CC
:101CA0000E94122164C162E0D80119968D919C9125
:101CB0001A9765D762E0F8018185928548D48AE950
:101CC00092E0ECCFD8011B96ED91FC911C9783819B
:101CD0008F9382818F9381818F9380818F9389EFFE
:101CE00091E079C0F80167817085838594850E94B1
:101CF00089173FC140E061E674E0D8011B968D91E1
:101D00009C911C970E94341834C1D8011996ED910A
:101D1000FC911A97838190E001969F938F9380E0C6
:101D200092E0E9C0F80181859285C5D4F82EE92EAC
:101D3000BE016F5F7F4FD80119968D919C911A97C4
:101D400067D4EF92FF929F938F938AE092E043C013
:101D5000F801878190850E94981D0BC1CE010196E4
:101D60007C01BC01D80119968D919C911A9764D47D
:101D7000882309F4FEC0FF92EF928AE192E0BBC093
:101D8000F801878190859E012F5F3F4F42E050E030
:101D900060E070E0409654DC69817A81D801199640
:101DA0008D919C911A97ECD4E4C020915D04309100
:101DB0005E0410925E0410925D048091590490912B
:101DC0005A0410925A04109259043F932F939F93F0
:101DD0008F938BE292E09F938F930E94FF20B7C076
:101DE00061E0F801858196810E940E2498E088E1E7
:101DF0000FB6F894A89581BD0FBE91BDFFCF86E7C1
:101E000091E09F938F930E94151B60E0D801159677
:101E10008D919C9116970E940E24A9C083E091E0B9
:101E20003DCFF8018781908519821A821B821C821E
:101E30001D821E821F82188640E050E860E070E03C
:101E400049875A876B877C8720E038E03E872D875B
:101E50002EE73DE1388B2F879A8B898BCE01019637
:101E600058D28111FBCF85C0D8011B96ED91FC9112
:101E70001C97828593852485358512861386148662
:101E800015863F932F939F938F9382E691E09F93C4
:101E90008F930E94151BD8011B96ED91FC911C9706
:101EA00080899189118A108A9F938F938EE491E0A3
:101EB0009F938F930E94151BD8011B96ED91FC9167
:101EC0001C9786859785178616869F938F9389E33F
:101ED00091E09F938F930E94151B0FB6F894DEBF7D
:101EE0000FBECDBF46C081E0D8011D968C931F92D6
:101EF0008F938AE392E09F938F930E94FF200F902D
:101F00000F900F900F9035C0BFEFEFE7F4E0B150A6
:101F1000E040F040E1F700C0000085ED91E09F93C4
:101F20008F930E94151B2FEF8FE794E02150804084
:101F30009040E1F700C00000D8011D961C921F924E
:101F40001F928AE392E09F938F930E94FF200F904D
:101F50000F900F900F900F900F900BC086EE90E0B7
:101F60009F938F930E941221C7010E943E210F90E0
:101F70000F9080E090E00E943921E2960FB6F8942D
:101F8000DEBF0FBECDBFDF91CF911F910F91FF90AC
:101F9000EF900895AF92BF92CF92DF92EF92FF92AF
:101FA0000F931F93CF93DF938C01FC01C781D085E2
:101FB000E88CF98C8AA19BA1ACA1BDA1892B8A2BAD
:101FC0008B2B09F16E01F0E1CF0ED11C8FEF9FE852
:101FD0000197F1F700C00000C6010E94D801F70187
:101FE00080835701F3E3AF0EB11CF70181917F01AC
:101FF000882359F0AE16BF0641F0C6010E94D801F1
:10200000F7018083F2CFF70110828B8D90E0039768
:102010006EE22B8D30E0488D598DFA0182179307BF
:102020002CF4E80FF91F60830196F3CFE20FF31F42
:102030001082088CD98DC02D8881882361F0BE0163
:10204000C801B6DBF82E8AE593E00E943E21AE017E
:102050006F2DC8018CDD81E0DF91CF911F910F9131
:10206000FF90EF90DF90CF90BF90AF900895FF92D8
:102070000F931F93CF93DF93CDB7DEB7A5970FB61E
:10208000F894DEBF0FBECDBFDC011796ED91FC9139
:10209000189702A113A124A135A14091070150E096
:1020A00060E070E0041715072607370708F444C0FE
:1020B0008C01BF01605F7F4FCE0101960E940D032E
:1020C000FDA0FF2011F1EB85FC85818192818E3F7F
:1020D000BFEF9B0781F028F4892B89F4C8015ADFF0
:1020E00023C0D80117968D919C91189740969ADA43
:1020F00081ED91E013C0F801878190850BC0BE018E
:102100006F5F7F4FC801B4DB0FC0D80117968D9168
:102110009C911897409686DA8DEC91E09F938F936F
:102120000E94151B0F900F90898D811106C08F8D15
:1021300098A10E94092001C0F12C8F2DA5960FB601
:10214000F894DEBF0FBECDBFDF91CF911F910F91ED
:10215000FF900895FC012285211104C08089918996
:102160000C9409200895CF92DF92EF92FF92CF93C3
:10217000DF9300D01F92CDB7DEB789E294E00E94D2
:10218000E8036B017C0143E050E0BE016F5F7F4FCD
:102190008AE593E00E94A620892B09F143E050E0F4
:1021A000BE016F5F7F4F87E492E00E94A620892BDB
:1021B000C1F089E294E00E94E803DC01CB018C19B4
:1021C0009D09AE09BF09893B9B40A105B10558F4A3
:1021D0008FEF9FE80197F1F700C00000D4CF80E0B7
:1021E00003C081E001C082E00F900F900F90DF915B
:1021F000CF91FF90EF90DF90CF9008950F931F93B2
:10220000CF93DF93EB010BE614E0F8016281738159
:10221000888190E00E94C320F801628173818981E6
:1022200090E0DF91CF911F910F910C94C3204F92BA
:102230005F926F927F928F929F92AF92BF92CF9256
:10224000DF92EF92FF920F931F93CF93DF9300D013
:10225000CDB7DEB78C012A013B011A821982C12C4D
:10226000D12C76014901A12CB12CC814D904EA045F
:10227000FB0408F036C0C701B601640D751D861D4C
:10228000971DD8011E96ED91FC911F970995298104
:102290003A813827032E0294902D9F709327432F65
:1022A0004025440F407E9427402D4327407F46958C
:1022B000032E000C441F3695369536953F71342712
:1022C0003227292F3A83298360916D0470916E041F
:1022D00090E00E94C320BFEFCB1ADB0AEB0AFB0A97
:1022E000C4CFBE016F5F7F4FC80188DF0F900F9092
:1022F000DF91CF911F910F91FF90EF90DF90CF90E2
:10230000BF90AF909F908F907F906F905F904F9015
:102310000895CF92DF92EF92FF920F931F93CF9386
:10232000DF93CDB7DEB7EE970FB6F894DEBF0FBEE2
:10233000CDBF8C01DC0118964D915D916D917C9122
:102340001B971C968D919C911D97A0E0B0E04817BB
:1023500059076A077B0718F4F80155874487D801A5
:102360001C962D913C911D9714964D915D916D9108
:102370007C911797C8015BDFD8015096ED91FC91D5
:1023800051978EE3DE01119601900D928A95E1F747
:10239000CE010196E8DEF82ECE018796DBDECE0177
:1023A0004196D8DEB1E0FB1609F460C0FB16D8F107
:1023B000E2E0FE128BC087E592E09F938F938BE45F
:1023C00092E09F938F930E94FF20E0916204F0912E
:1023D0006304418181E090E09C010090610402C0AF
:1023E000220F331F0A94E2F7242B2183FFEF2FE7FC
:1023F00036E1F15020403040E1F700C00000E091AC
:102400006204F091630421810090610402C0880F8E
:10241000991F0A94E2F78095822381830F900F9091
:102420000F900F905FC0D8011C968D919C911D97C5
:10243000A0E0B0E0F8014481558166817781480FC2
:10244000591F6A1F7B1F44835583668377834085AA
:102450005185628573856A017B01C81AD90AEA0A27
:10246000FB0AC086D186E286F38630C0E091620422
:10247000F0916304418181E090E09C01009061044F
:1024800002C0220F331F0A94E2F7242B2183AFEFFF
:10249000BFE81197F1F700C00000E0916204F091ED
:1024A000630421810090610402C0880F991F0A947F
:1024B000E2F7809582238183F80124853585448164
:1024C000558166817781C801B2DE0CC081E0D801F8
:1024D00018964D915D916D917C911B97452B462BE4
:1024E000472B09F480E0EE960FB6F894DEBF0FBEDE
:1024F000CDBFDF91CF911F910F91FF90EF90DF90B3
:10250000CF900895CF93DF93EC01798368838FE7B1
:102510008A835E834D8382E090E00E94FD238B835B
:1025200081E090E00E94FD238C8388EA87BB14BA87
:102530001ABA109261001092620015BA1BBA80E6B6
:1025400088BB8AB7806C8ABFDF91CF91089582E003
:1025500090E00C940E24CF93DF93CDB7DEB7CF5627
:10256000D1090FB6F894DEBF0FBECDBF80E090E07A
:102570000E94FD23898381E090E00E94FD238A83ED
:102580001B82E0961FAE1EAEE09768E672E0CE01B9
:102590008B5A9F4F0E949F208BE1FE01EB5AFF4F09
:1025A000DE01149601900D928A95E1F78BE1FE0110
:1025B000EB5AFF4FDE015F9601900D928A95E1F78D
:1025C0008BE1FE01EB5AFF4FDE01DA9601900D928E
:1025D0008A95E1F744E550E060E070E0CE010196B5
:1025E0000E9405248FED92E09F938F930E94122109
:1025F0008AE090E00E9439210F900F90C159DF4F7F
:102600000FB6F894DEBF0FBECDBFDF91CF91089516
:10261000CF93DF93EB01FC016381FBE16F9FB0017E
:1026200011246D5F7F4F49E150E0CE010E94ED2300
:10263000CE01DF91CF910895EF92FF920F931F93F8
:10264000CF93DF93CDB7DEB769970FB6F894DEBFAF
:102650000FBECDBF8C017B01BE016F5F7F4FD8DF06
:10266000BE016F5F7F4FC7010E949620892BA9F0A2
:10267000B701CE0101960E949F20F8016381FBE122
:102680006F9FB00111246D5F7F4F49E150E0CE0193
:1026900001960E94052481E001C080E069960FB692
:1026A000F894DEBF0FBECDBFDF91CF911F910F9188
:1026B000FF90EF900895CF93DF9300D0CDB7DEB7B2
:1026C000FC016381FBE16F9FB0011124645E7F4FC9
:1026D00042E050E0CE0101960E94ED2389819A816B
:1026E0000F900F90DF91CF9108950F931F93CF9389
:1026F000DF93CDB7DEB76B970FB6F894DEBF0FBE92
:10270000CDBFDC01ED91FC9116A217A210A611A677
:1027100012A613A614A615A610AE11AE12AE13AED5
:10272000BBE16B9FB00111246D5F7F4F4BE150E027
:102730008E010F5F1F4FC8010E94ED231F930F935F
:1027400085E792E09F938F930E94FF208B8D8F935C
:102750008A8D8F938FE792E09F938F930E94FF2043
:102760000FB6F894DEBF0FBECDBF6B960FB6F894D0
:10277000DEBF0FBECDBFDF91CF911F910F910895A6
:102780002F923F924F925F926F927F928F929F9281
:10279000AF92BF92CF92DF92EF92FF920F931F936F
:1027A000CF93DF93CDB7DEB727970FB6F894DEBF90
:1027B0000FBECDBF7C014B01DC01ED91FC91108A75
:1027C000118A128A138A148A158A168A178A12A203
:1027D00013A214A215A264EF72E0CF010E942F048D
:1027E000E0913704F091380480819181E0914304B5
:1027F000F09144044081518162817381A0E0B0E096
:102800008093470490934804A0934904B0934A04EA
:1028100040934B0450934C0460934D0470934E04CA
:102820008401000F111F080D191D2801612C712C46
:10283000D701ED91FC9182A193A1A4A1B5A184152A
:102840009505A605B70538F0C12CD12C3E01B4E0A2
:102850006B0E711CAEC0E0913704F091380401900A
:10286000F081E02DA0914304B09144044D915D911D
:102870006D917C91209045043090460480914B04EA
:1028800090914C04A0914D04B0914E049A01AB017B
:10289000281B390B4A0B5B0BAFEFBFEF0E94971E53
:1028A0005F01C12CD12C2091470430914804409104
:1028B000490450914A04A21AB30AC40AD50A6A0DFF
:1028C0007B1D8C1D9D1DA1010E943009693E734036
:1028D00008F4AECF8AE892E09F938F9366D6D70133
:1028E000ED91FC9182A193A1A4A1B5A1BF93AF9357
:1028F0009F938F931F930F938BEA92E09F938F93F5
:1029000054D60FB6F894DEBF0FBECDBF80E067C0CF
:10291000F80182A193A1A4A1B5A1892B8A2B8B2BAD
:1029200009F45BC0F80180899189A289B38920A14B
:1029300031A1F901E80FF91F5080F80182A193A19C
:10294000A4A1B5A10197A109B10982A393A3A4A34E
:10295000B5A380899189A289B389248D358D468D4F
:10296000578DBC01CD016F5F7F4F8F4F9F4F0E94EE
:102970006C1ED80150966D937D938D939C935397C5
:10298000852DF50181935F016E167F0651F0F801E8
:1029900082A193A1A4A1B5A1892B8A2B8B2B09F02D
:1029A000B7CF6A817B8189810E946D1DFFEFCF1AAD
:1029B000DF0AC814D90439F0D7010D911C91FE012A
:1029C00031965F01E4CF8AE593E09F938F930E9455
:1029D000FF200F900F9081E002C080E0D2CF2796B9
:1029E0000FB6F894DEBF0FBECDBFDF91CF911F9120
:1029F0000F91FF90EF90DF90CF90BF90AF909F909E
:102A00008F907F906F905F904F903F902F900895A0
:102A1000CF92DF92EF92FF920F931F93CF93DF93AA
:102A200088EE87BB8FEF809361008ABB84BB88EA06
:102A300088BBEB01C801D9016C017D01C40ED51E14
:102A4000E11CF11C58E048EA9E01261B370B8C154F
:102A50009D05AE05BF0560F50097E1E0AE07B10545
:102A600068F4FC01249120936200D5BBCBBB58BB1A
:102A700048BB0196A11DB11D2196E6CF58E048EA5A
:102A8000ABBFFC01C791C0936200FB01E20FF31FD3
:102A9000F5BBE62FE20FEBBB58BB48BB0196A11D6F
:102AA000B11D2F5F3F4F8C159D05AE05BF0540F34F
:102AB00088EA87BB14BA1ABA1092610010926200B9
:102AC00015BA1BBA80E688BBDF91CF911F910F9199
:102AD000FF90EF90DF90CF900895EF92FF920F93C9
:102AE0001F93CF93DF937C0181E090E00E94FD2350
:102AF000D70114968C9314978823D1F1E091620446
:102B0000F09163042181C1E0D0E0CE010090610426
:102B100002C0880F991F0A94E2F7822B81831596D1
:102B2000ED91FC911697008111812281338140E063
:102B300050E860E070E0C7016BDFE0916204F09163
:102B4000630481810090610402C0CC0FDD1F0A94F0
:102B5000E2F7C095C823C18388EA87BB14BA1ABAC2
:102B6000109261001092620015BA1BBA80E688BB11
:102B7000DF91CF911F910F91FF90EF9008950F93E8
:102B80001F93FC01A581B68124E0629FF00111240E
:102B9000EC5DFE4F00811181228133810D931D93E5
:102BA0002D933C931397FC0163831F910F9195CF55
:102BB000EF92FF920F931F93CF93DF9321E6E22EC4
:102BC00024E0F22ED7011196ED91FC9112974181EC
:102BD000C1E0D0E09E010C9002C0220F331F0A9486
:102BE000E2F7242B2183DC011596ED91FC911697D9
:102BF000008111812281338140E050E860E070E083
:102C000007DFD7011196ED91FC91129781810C900D
:102C100002C0CC0FDD1F0A94E2F7C095C823C18320
:102C2000DF91CF911F910F91FF90EF9008951F9228
:102C30000F920FB60F9211240BB60F922F933F9362
:102C40004F935F936F937F938F939F93AF93BF93B4
:102C5000EF93FF93E0912201F09123010995FF91F9
:102C6000EF91BF91AF919F918F917F916F915F9104
:102C70004F913F912F910F900BBE0F900FBE0F9071
:102C80001F9018951F920F920FB60F9211240BB63A
:102C90000F922F933F934F935F936F937F938F93F5
:102CA0009F93AF93BF93EF93FF93E0912001F09137
:102CB00021010995FF91EF91BF91AF919F918F9164
:102CC0007F916F915F914F913F912F910F900BBE2C
:102CD0000F900FBE0F901F9018951F920F920FB676
:102CE0000F9211240BB60F922F933F934F935F9344
:102CF0006F937F938F939F93AF93BF93EF93FF93C4
:102D0000E0911E01F0911F010995FF91EF91BF9194
:102D1000AF919F918F917F916F915F914F913F9173
:102D20002F910F900BBE0F900FBE0F901F90189514
:102D30001F920F920FB60F9211240BB60F922F9382
:102D40003F934F935F936F937F938F939F93AF9333
:102D5000BF93EF93FF93E0911C01F0911D01099542
:102D6000FF91EF91BF91AF919F918F917F916F9163
:102D70005F914F913F912F910F900BBE0F900FBE1F
:102D80000F901F9018951F920F920FB60F9211245B
:102D90000BB60F922F933F934F935F936F937F9355
:102DA0008F939F93AF93BF93EF93FF93E0911A019B
:102DB000F0911B010995FF91EF91BF91AF919F9108
:102DC0008F917F916F915F914F913F912F910F90D4
:102DD0000BBE0F900FBE0F901F9018951F920F9271
:102DE0000FB60F9211240BB60F922F933F934F9370
:102DF0005F936F937F938F939F93AF93BF93EF9363
:102E0000FF93E0911801F09119010995FF91EF915D
:102E1000BF91AF919F918F917F916F915F914F91F2
:102E20003F912F910F900BBE0F900FBE0F901F90F0
:102E300018951F920F920FB60F9211240BB60F9296
:102E40002F933F934F935F936F937F938F939F93B2
:102E5000AF93BF93EF93FF93E0911601F0911701A9
:102E60000995FF91EF91BF91AF919F918F917F91C4
:102E70006F915F914F913F912F910F900BBE0F90EB
:102E80000FBE0F901F9018951F920F920FB60F92C2
:102E900011240BB60F922F933F934F935F936F9331
:102EA0007F938F939F93AF93BF93EF93FF93E091A3
:102EB0001401F09115010995FF91EF91BF91AF9128
:102EC0009F918F917F916F915F914F913F912F9142
:102ED0000F900BBE0F900FBE0F901F901895962766
:102EE000092E0294202D2F702927692F6025660F47
:102EF000607E2627602D6927607F6695092E000C6D
:102F0000661F9695969596959F7196279827822F7E
:102F10000895CF92DF92EF92FF920F931F93CF937A
:102F2000DF938C01EB016EE073E0CE010E942F0471
:102F300040ED57E06AE573E0CE010E9481058823E9
:102F400009F465C0F801C080D180E280F380188A5E
:102F5000198A1A8A1B8A1C8A1D8A1E8A1F8A1AA22B
:102F60001BA21CA21DA21EA21FA218A619A61AA669
:102F70001BA61CA61DA618AE19AE1AAE1BAEF801F4
:102F800080819181A281B3819058AF4FBF4FC81605
:102F9000D906EA06FB0690F5FFEFCF16DF06E1043F
:102FA000F10478F4F6016491CE010E940804F8E17E
:102FB000FA95F1F700C02FEFC21AD20AE20AF20A1C
:102FC000DECFF80180819181A281B3819058AF4F0B
:102FD000BF4FC816D906EA06FB0680F4EBBEF60121
:102FE0006791CE010E940804F8E1FA95F1F700C05C
:102FF0002FEFC21AD20AE20AF20AE3CF8FEF9FE75D
:10300000E6E181509040E040E1F700C00000DF9130
:10301000CF911F910F91FF90EF90DF90CF90089587
:103020000F931F93DA01B3958B019C01011580E189
:1030300018072105310518F4F801849103C02BBF4E
:10304000F8018791FA019191AF01891309C00F5FCF
:103050001F4F2F4F3F4FEA17FB0741F780E001C09A
:1030600081E01F910F9108958F929F92AF92BF922E
:10307000EF92FF920F931F93CF93DF93EC018B019D
:10308000B42E8B818F938A818F9389818F938881CE
:103090008F938CEF92E09F938F9387D2EC81FD8189
:1030A000E0A0F1A0F701C70193950F900F900F904A
:1030B0000F900F900F90B1928E179F07E1F7D801F4
:1030C0001196ED91FC911297218181E090E00C9096
:1030D00002C0880F991F0A94E2F7822B8183812C0A
:1030E000912C540188819981AA81BB81BC01CD01B9
:1030F000680D791D8A1D9B1DEA89FB89A701099529
:10310000BFEF9B1AAB0ABB0A811480E89806A104A2
:10311000B10441F7D8011196ED91FC9112972181EC
:1031200081E090E00C9002C0880F991F0A94E2F7AA
:103130008095822381838AEF92E09F938F9375D24B
:103140000F900F90DF91CF911F910F91FF90EF9013
:10315000BF90AF909F908F9008955F926F927F92F3
:103160008F929F92AF92BF92CF92DF92EF92FF9297
:103170000F931F93CF93DF93EC01EC81FD8100A1AE
:1031800011A18091070190E0F801E80FF91F20815B
:10319000203150F086E093E09F938F930E9412219C
:1031A0000F900F9080E08CC0C22ED12CDC2CCC2450
:1031B000DD0CDD0CDD0C0D2C000CEE08FF0801967B
:1031C000080F191F812C912C5401512C66246394F3
:1031D000712C88819981AA81BB818C0D9D1DAE1DAA
:1031E000BF1DBC01CD01680D791D8A1D9B1DA80165
:1031F00017DF882321F1A885B9851196ED91FC91FF
:1032000012972181C3010C9002C0880F991F0A9464
:10321000E2F78227818388819981AA81BB818C0D05
:103220009D1DAE1DBF1DBC01CD01680D791D8A1D00
:103230009B1DEA89FB89A801099555245394A895FB
:103240008FEF981AA80AB80A1395811488E0980697
:10325000A104B10409F0BDCFA885B9851196ED91FF
:10326000FC911297218181E090E00C9002C0880FC0
:10327000991F0A94E2F7809582238183552029F0D3
:10328000888999890196998B888B8E859F8501966F
:103290009F878E878AE093E09F938F93C6D1EC81BE
:1032A000FD81108A118A128A138A148A158A168A55
:1032B000178A12A213A214A215A20F900F9081E0F8
:1032C000DF91CF911F910F91FF90EF90DF90CF9002
:1032D000BF90AF909F908F907F906F905F90089578
:1032E00024E0629FF0011124EC5DFE4F408151818A
:1032F00062817381FC0140835183628373830895EB
:103300007F928F929F92AF92BF92CF92DF92EF9275
:10331000FF920F931F93CF93DF93EC01603140F046
:1033200098E088E10FB6F894A89581BD0FBE91BDD5
:10333000862F90E0982F8827990F990F990F4C01AD
:1033400028EF921A092E000CAA0BBB0BC880D9805B
:10335000EA80FB80C80ED91EEA1EFB1E712C00E01D
:10336000A12CB12C488159816A817B81480D591D5E
:103370006A1D7B1D8C819D81C416D506E606F70665
:10338000D8F4C114E0E1DE06E104F10418F4F6011A
:10339000149103C0EBBEF6011791612F0E9408043F
:1033A000612F872D902F9BDD782E092FFFEFCF1AED
:1033B000DF0AEF0AFF0AD6CF672D0E940804602FAC
:1033C0008C819D81DF91CF911F910F91FF90EF90A4
:1033D000DF90CF90BF90AF909F908F907F900C9494
:1033E0000804E0916904F0916A0480E090E030976D
:1033F00049F0029620813181820F931F0280F38170
:10340000E02DF5CF08950F931F93CF93DF9300D056
:10341000CDB7DEB780916704909168048E010F5F8D
:103420001F4F009729F4015714401A83098309C0DC
:10343000081B190B1A830983D4DF800F911F9A830D
:10344000898389819A810F900F90DF91CF911F918D
:103450000F910895CF93DF93A4E6B4E01196ED9118
:10346000FC911297218181E090E00C9002C0880FBE
:10347000991F0A94E2F7809582238183E9E2F4E0C0
:10348000A685B785CD91DC91648D758D88EE93E02E
:103490000E947709AC014C0F5D1F20E030E062E92B
:1034A0007AE189E294E0DF91CF910C940609ABDFD9
:1034B0009C0160915B0470915C046115710559F089
:1034C000E0E1F7E2CF01F4D3CF01F2D384E690E05C
:1034D000861B970B02C084E690E040915D045091FA
:1034E0005E044817590720F490935E0480935D04AE
:1034F0008091590490915A048217930720F43093D5
:103500005A042093590410925C0410925B040895AD
:10351000682F80915F04909160040E94080480E00D
:1035200090E00895CF93DF93A4E6B4E01196ED9177
:10353000FC911297218181E090E00C9002C0880FED
:10354000991F0A94E2F7822B8183E9E2F4E0A685D1
:10355000B785CD91DC91648D758D81E090E00E94FE
:103560007709AC014C0F5D1F20E030E06AE27AE1A0
:1035700089E294E0DF91CF910C940609EBEEF3E041
:1035800088E89AE1918780871386128682E0838398
:1035900015861486ABE6B4E01396FC93EE9312976F
:1035A0001596FC93EE93149708950F931F93CF9362
:1035B000DF93CDB7DEB7AE01495F5F4FFA0161918E
:1035C0007191AF0180916D0490916E0495D68C013C
:1035D00060E080915F04909160040E940804C8013B
:1035E000DF91CF911F910F9108950F931F93CF9368
:1035F000DF93CDB7DEB7AE01495F5F4FFA0161914E
:103600007191AF0180916D0490916E0467D68C0129
:1036100060E080915F04909160040E940804C801FA
:10362000DF91CF911F910F9108950F931F93CF9327
:10363000DF93CDB7DEB7AE01495F5F4FFA0161910D
:103640007191AF0180916D0490916E0447D68C0109
:103650006AE080915F04909160040E940804C801B0
:10366000DF91CF911F910F910895CF93DF93CDB745
:10367000DEB7C75AD1090FB6F894DEBF0FBECDBF73
:10368000E0913704F091380480819181E091430406
:10369000F09144044081518162817381A0E0B0E0E7
:1036A0008093470490934804A0934904B0934A043C
:1036B00040934B0450934C0460934D0470934E041C
:1036C00080E8882E912CA12CB12C9EE1C92E98E087
:1036D000D92EE12CF12C09E214E020E032EC41E09B
:1036E00050E061E0CE01CF960E94A00424E1822E3A
:1036F000912CA12CB12C34E1C32ED12CE12CF12C36
:1037000020E835E240E050E060E0CE0101960E9402
:10371000A0044FE3842E912C8C0E9D1ECF57DF4FBB
:1037200099828882C158D040CD57DF4F19830883D2
:10373000C358D04081E694E0CB57DF4F998388830C
:10374000C558D04060E0CE0183589F4FC9DD8CE85A
:1037500090EEA1E0B0E0ABBFFC0187919691C1571C
:10376000DF4F99838883CF58D040C957DF4F1882E5
:1037700019821A821B82C758D040C557DF4F198261
:103780001882CB58D040C357DF4F19821882CD58CA
:10379000D040AE0143585F4FB401CE0181569F4FD8
:1037A0000E948212CE0181569F4F97D9E091370433
:1037B000F091380400811181E0914304F0914404B8
:1037C0004081518162817381E0914504F09146040A
:1037D00080914B0490914C04A0914D04B0914E0403
:1037E0009A01AB01281B390B4A0B5B0BAFEFBFEF04
:1037F0009ED26801E12CF12C0091470410914804FD
:103800002091490430914A0446015701801A910AD7
:10381000A20AB30A680D791D8A1D9B1DAF010E9483
:103820003009CA55DF4F79836883C65AD0405FE3B9
:10383000A52EB12CAC0EBD1EB0926004A0925F0408
:1038400078949CDE609145047091460484EF91E089
:103850000E947709E0913704F0913804408151814A
:103860004C595F4F9C0162E97AE189E294E00E9441
:103870000609609145047091460484E690E00E9438
:103880007709E0913704F0913804408151814C5917
:103890005F4F9C0167E57AE189E294E00E941B0991
:1038A0009E0123583F4FAE0141565F4FB501CE01F7
:1038B0008F569F4F0E944D0BCA55DF4F688179810B
:1038C000C65AD040CE018F569F4F0E94B30DCE01F5
:1038D0008A559F4F9ED363961CAE1DAE1EAE1FAE83
:1038E000639767961CAE1DAE1EAE1FAE6797A5967A
:1038F0001CAE1DAE1EAE1FAEA5970FB6F894A895D0
:1039000081B5886181BD11BC0FBECE018F569F4F1E
:103910000E94371080915B0490915C040196909313
:103920005C0480935B0486E69EE00197F1F700005B
:10393000C256DF4F8881CE59D040882331F38BA106
:103940009CA1ADA1BEA1892B8A2B8B2BF1F28BA15F
:103950009CA1ADA1BEA1892B8A2B8B2B51F189890A
:103960009A89AB89BC8929A13AA1F901E80FF91F0D
:1039700010818BA19CA1ADA1BEA10197A109B109A4
:103980008BA39CA3ADA3BEA389899A89AB89BC896B
:103990002D8D3E8D4F8D58A1BC01CD016F5F7F4FA6
:1039A0008F4F9F4F99D1698B7A8B8B8B9C8B612F1B
:1039B00001C060E0CE01CF960E940804C0CFE4E6CB
:1039C000F4E087E0808381E390E0928381838F9AA3
:1039D000E1E6F4E026E02083928381838E9AE9E594
:1039E000F4E011821082138212821582148240E068
:1039F00065E089E294E00E94EE0940E065E089EF2D
:103A000093E00C94800A90E000009F5F8917E0F734
:103A10000895CF92DF92EF92FF920F931F93E09160
:103A20006504F0916604418121E030E00090640477
:103A300002C0220F331F0A94E2F7242B218328EEC1
:103A400027BB2FEF209361002ABB24BB28EA28BBA9
:103A500040E050E078E068EA8A0120E030E0DC01F4
:103A60001A96ED91FC911B97C380D480E580F68077
:103A70000C151D052E053F05E0F41C96ED91FC91FB
:103A80001D9720910701DA01A20FB11D0088F1896D
:103A9000E02DEA0FFB1F228120936200218125BBCC
:103AA00020812BBB78BB68BB78BB68BB4D5F5F4F89
:103AB000D3CF88EA87BB14BA1ABA10926100109269
:103AC000620015BA1BBA80E688BB81E01F910F9196
:103AD000FF90EF90DF90CF9008958093620075BBC8
:103AE0006BBB88EE87BB8FEF809361008ABB84BB82
:103AF00088EA88BB98E098BB88BB08950F931F9312
:103B000028EC27BB109261002FEF2ABB24BB28EAC8
:103B100028BB072F182F292F332705BB6BBBC7984E
:103B200086EF8A95F1F780B1C79A1F910F9108959A
:103B30000F931F93CF93DF93EC0164E173E00E9436
:103B40002F0440ED57E06AE573E0CE010E94810545
:103B5000882309F44CC0188A198A1A8A1B8A1C8A7D
:103B60001D8A1E8A1F8A1AA21BA21CA21DA288ECF3
:103B700087BB109261008FEF8ABB84BB88EA88BB49
:103B80001EA21FA218A619A61AA61BA61CA61DA631
:103B900018AE19AE1AAE1BAE00E010E017FD11C052
:103BA00015BB0BBBC79885E02EDF81EE92E0019735
:103BB000F1F7000060B1CE010E9408040F5F1F4FB3
:103BC000EDCFC79A88EA87BB14BA1ABA109261007F
:103BD0001092620015BA1BBA80E688BB9FEF2FE7F0
:103BE00086E1915020408040E1F700C00000DF9165
:103BF000CF911F910F910895AF92BF92CF92DF9214
:103C0000FF920F931F93CF93DF936C0188EC87BBD8
:103C1000109261008FEF8ABB84BB88EA88BB062FB5
:103C200010E0102F0027110F110F110F580188EF0E
:103C3000B81AC0E0D0E00A151B0508F028C015BB73
:103C40000BBBC79885E0DFDEF0B06F2DC6010E9488
:103C50000804CE019F25092E0294202D2F702927BC
:103C6000392F3025330F307E2327302D3927307FF1
:103C70003695092E000C331F9695969596959F7153
:103C800093279827822FEC010F5F1F4FD4CF6C2F03
:103C9000C6010E9408046D2FC601DF91CF911F91CC
:103CA0000F91FF90DF90CF90BF90AF900C940804DD
:103CB000AA1BBB1B51E107C0AA1FBB1FA617B70752
:103CC00010F0A61BB70B881F991F5A95A9F780956E
:103CD0009095BC01CD010895A1E21A2EAA1BBB1B31
:103CE000FD010DC0AA1FBB1FEE1FFF1FA217B307C8
:103CF000E407F50720F0A21BB30BE40BF50B661FDE
:103D0000771F881F991F1A9469F7609570958095A1
:103D100090959B01AC01BD01CF010895EE0FFF1FEF
:103D20000024001C0BBE0790F691E02D09948ED064
:103D3000A59F900DB49F900DA49F800D911D1124FF
:103D40000895E894DF93CF93FC01DB017FD07F934C
:103D50006F93E9019A01AC01BF93AF933F932F9307
:103D6000DF0174D026F46C1B7D0B820B930B9E013C
:103D7000EB01FC017AD0AF91BF912F913F9175D0AB
:103D8000BE01CF01F9012F913F91CF91DF910895AD
:103D9000689401C0E8948F929F92CF93DF9305D0EF
:103DA000DF91CF919F908F90089588249924F401FA
:103DB000E401B0E49F93AA279A158B049C04ED05B7
:103DC000FE05CF05D007A10798F4AD2FDC2FCF2F2C
:103DD000FE2FE92D982C892E982F872F762F652F6F
:103DE000542F432F322F2227B85031F7BF9127C0CD
:103DF0001B2EBF91BB27220F331F441F551F661F69
:103E0000771F881F991F881C991CEE1FFF1FCC1F4E
:103E1000DD1FAA1FBB1F8A149B04EC05FD05CE0500
:103E2000DF05A007B10748F08A189B08EC09FD09D7
:103E3000CE09DF09A00BB10B21601A94E1F62EF434
:103E40009401AF01BE01CD01000C0895A29FB00105
:103E5000B39FC001A39F700D811D1124911DB29FBE
:103E6000700D811D1124911D0895F0DF460F571F1D
:103E7000C81FD91F08F431960895F0917004E0919D
:103E80006F040097B1F45F934F937F936F933F93C9
:103E90002F938EE593E09F938F93FF93EF9364D1DD
:103EA0008DB79EB70A960FB6F8949EBF0FBE8DBF12
:103EB00017C05F934F937F936F939F938F933F931D
:103EC0002F9389E893E09F938F93FF93EF934CD1C7
:103ED0008DB79EB70C960FB6F8949EBF0FBE8DBFE0
:103EE00021D10F931F93CF93DF938230910510F46C
:103EF00082E090E0E0916904F0916A0420E030E013
:103F0000A0E0B0E0309719F1408151810281138126
:103F100048175907C8F08417950769F4109731F0CE
:103F200012960C93129713961C9327C00093690462
:103F300010936A0422C02115310519F04217530766
:103F400018F49A01BD01EF01DF01F801DBCF211563
:103F50003105F9F0281B390B2430310580F48A81B2
:103F60009B816115710521F0FB019383828304C05D
:103F700090936A0480936904FE01329644C0FE0166
:103F8000E20FF31F819391932250310939832883E3
:103F90003AC02091670430916804232B41F42091AA
:103FA000020130910301309368042093670420914B
:103FB0000001309101012115310541F42DB73EB7C3
:103FC0004091040150910501241B350BE0916704D9
:103FD000F0916804E217F307A0F42E1B3F0B28179B
:103FE000390778F0AC014E5F5F4F2417350748F072
:103FF0004E0F5F1F50936804409367048193919321
:1040000002C0E0E0F0E0CF01DF91CF911F910F916E
:104010000895CF93DF93009709F481C0FC01329794
:1040200013821282A0916904B0916A04109781F4FE
:1040300020813181820F931F2091670430916804A1
:104040002817390751F5F0936804E093670467C0B7
:10405000ED0120E030E0CE17DF0740F44A815B81BC
:104060009E0141155105F1F0EA01F5CFD383C283DA
:1040700040815181840F951FC817D90759F4888151
:104080009981840F951F0296918380838A819B81F9
:10409000938382832115310529F4F0936A04E09318
:1040A00069043DC0E901FB83EA8349915991C40F3A
:1040B000D51FEC17FD0761F480819181840F951F56
:1040C0000296E90199838883828193819B838A8305
:1040D000E0E0F0E012968D919C911397009719F013
:1040E000FD01DC01F7CF8D919C9111979D012E5F11
:1040F0003F4F820F931F2091670430916804281767
:10410000390769F4309729F410926A04109269040F
:1041100002C013821282B0936804A0936704DF91F7
:10412000CF91089581E090E0F89485C3FB01DC0114
:104130008D91019080190110D9F3990B0895FB011D
:10414000DC0101900D920020E1F70895FB01DC01F4
:104150004150504030F08D910190801919F40020A9
:10416000B9F7881B990B0895CF93DF93CDB7DEB7CE
:10417000AE01475F5F4F6F8178858D819E81BCD096
:10418000DF91CF9108950F931F93CF93DF93FB019E
:10419000238121FD03C08FEF9FEF2CC022FF16C0AB
:1041A00046815781248135814217530744F4A08109
:1041B000B1819D012F5F3F4F318320838C932681F6
:1041C00037812F5F3F4F3783268314C08B01EC016B
:1041D000FB010084F185E02D0995892BE1F6D801DA
:1041E00016968D919C911797019617969C938E9396
:1041F0001697CE01DF91CF911F910F910895CF9324
:10420000DF93CDB7DEB7AE014B5F5F4FFA0161912F
:104210007191AF0180916D0490916E046DD0DF912A
:10422000CF9108950F931F93CF93DF93CDB7DEB750
:10423000AE01495F5F4FDA016D917D91AD010BE6F3
:1042400014E0F80182819381DC0113962C9113977D
:10425000286013962C9350D0D8011296ED91FC91C2
:1042600013972381277F2383DF91CF911F910F9194
:10427000089560916D0470916E0485CF0F931F9324
:10428000CF93DF93E0916D04F0916E04238121FFC1
:104290001BC08C01D0E0C0E0F80181918F016091DA
:1042A0006D0470916E04DB011896ED91FC911997E5
:1042B000882331F00995892B79F3DFEFCFEFECCF2D
:1042C0008AE00995892B19F08FEF9FEF02C08D2F9F
:1042D0009C2FDF91CF911F910F910895CF93DF9382
:1042E000EC018B8188608B83CE0106D02B81277FE8
:1042F0002B83DF91CF9108952F923F924F925F923F
:104300006F927F928F929F92AF92BF92CF92DF92E5
:10431000EF92FF920F931F93CF93DF93CDB7DEB74A
:104320002B970FB6F894DEBF0FBECDBF6C017B019B
:104330008A01FC0117821682838181FFBFC1CE01F1
:1043400001963C01F6019381F70193FD859193FF5E
:1043500081917F01882309F4ADC1853239F493FD41
:10436000859193FF81917F01853221F4B60190E020
:104370000ADFE8CF912C212C312CFFE1F315D8F086
:104380008B3279F038F4803279F08332A1F4232D26
:1043900020611DC08D3261F0803369F4232D2160CE
:1043A00016C0832D8260382EE32DE4603E2E2AC095
:1043B000F32DF8601DC037FC2DC020ED280F2A30EA
:1043C00040F08E32B9F436FC75C1232D2064322EB4
:1043D00019C036FE06C08AE0989E200D1124922E48
:1043E00011C0EAE02E9E200D1124222EF32DF06242
:1043F0003F2E08C08C3621F4832D8068382E02C0F1
:10440000883641F4F70193FD859193FF81917F01F7
:104410008111B3CF982F9F7D9554933028F40C5F72
:104420001F4F9FE399830DC0833631F0833771F0BE
:10443000833509F055C020C0F801808189830E5F63
:104440001F4F88248394912C530112C02801F2E05D
:104450004F0E511CF801A080B18036FE03C0692DBB
:1044600070E002C06FEF7FEFC5014ED14C018201B9
:10447000F32DFF773F2E15C0280122E0420E511C7C
:10448000F801A080B18036FE03C0692D70E002C043
:104490006FEF7FEFC5012DD14C01F32DF0683F2E5A
:1044A000820133FC19C0822D90E088169906A0F491
:1044B000B60180E290E067DE2A94F5CFF50137FC83
:1044C000859137FE81915F01B60190E05CDE21109D
:1044D0002A9421E0821A91088114910479F7E1C0AD
:1044E000843611F0893639F5F80137FE07C060814E
:1044F0007181828193810C5F1F4F08C0608171813F
:10450000072E000C880B990B0E5F1F4FF32DFF76C3
:104510003F2E97FF09C090958095709561957F4FCC
:104520008F4F9F4FF0683F2E2AE030E0A301F7D075
:10453000882E861844C0853731F4232D2F7EB22E65
:104540002AE030E025C0932D997FB92E8F36C1F037
:1045500018F4883579F0AEC0803719F0883721F02B
:10456000A9C0E92FE061BE2EB4FE0DC0FB2DF460A2
:10457000BF2E09C034FE0AC0292F2660B22E06C005
:1045800028E030E005C020E130E002C020E132E068
:10459000F801B7FE07C060817181828193810C5F51
:1045A0001F4F06C06081718180E090E00E5F1F4F59
:1045B000A301B5D0882E8618FB2DFF773F2E36FE3F
:1045C0000DC0232D2E7FA22E891458F434FE0BC06B
:1045D00032FC09C0832D8E7EA82E05C0B82CA32CDA
:1045E00003C0B82C01C0B92CA4FE0FC0FE01E80D19
:1045F000F11D8081803321F49A2D997EA92E09C066
:10460000A2FE06C0B394B39404C08A2D867809F044
:10461000B394A3FC10C0A0FE06C0B21480F4280C12
:10462000922C9B180DC0B21458F4B60180E290E0B1
:10463000AADDB394F8CFB21418F42B1802C0982C4A
:10464000212CA4FE0FC0B60180E390E09CDDA2FE09
:1046500016C0A1FC03C088E790E002C088E590E0A6
:10466000B6010CC08A2D867851F0A1FE02C08BE203
:1046700001C080E2A7FC8DE2B60190E084DD8914E0
:1046800030F4B60180E390E07EDD9A94F8CF8A940E
:10469000F301E80DF11D8081B60190E074DD811019
:1046A000F6CF222009F44ECEB60180E290E06BDD19
:1046B0002A94F7CFF6018681978102C08FEF9FEF92
:1046C0002B960FB6F894DEBF0FBECDBFDF91CF9112
:1046D0001F910F91FF90EF90DF90CF90BF90AF9020
:1046E0009F908F907F906F905F904F903F902F9012
:1046F0000895FC010590615070400110D8F7809535
:1047000090958E0F9F1F0895FC016150704001909D
:104710000110D8F7809590958E0F9F1F0895FA018C
:10472000AA27283051F1203181F1E8946F936E7FF0
:104730006E5F7F4F8F4F9F4FAF4FB1E03ED0B4E0E1
:104740003CD0670F781F891F9A1FA11D680F791F22
:104750008A1F911DA11D6A0F711D811D911DA11D33
:1047600020D009F468943F912AE0269F1124301943
:10477000305D3193DEF6CF010895462F4770405DDE
:104780004193B3E00FD0C9F7F6CF462F4F70405D8D
:104790004A3318F0495D31FD4052419302D0A9F7E8
:1047A000EACFB4E0A6959795879577956795BA95E2
:1047B000C9F700976105710508959B01AC010A2EA8
:1047C00006945795479537952795BA95C9F7620F7F
:1047D000731F841F951FA01D0895DC01CB01FC01F0
:1047E000E199FECF06C0FFBBEEBBE09A31960DB259
:1047F0000D9241505040B8F70895E199FECF9FBB0C
:104800008EBBE09A99278DB30895DC01CB0102C0DD
:104810002D9105D041505040D8F70895262FE199A9
:10482000FECF9FBB8EBB2DBB0FB6F894E29AE19AE8
:0A4830000FBE01960895F894FFCF23
:10483A00000071042000C00A5D075D075D075D077F
:10484A005D075D075D075D075D075D075D075D073E
:10485A005D075D070060000000E0000000600100E5
:10486A0054696D656F75742077616974696E672024
:10487A00666F722025730A002E2E2F61746D3132F5
:10488A00385F75736172742F75736172742E6370F9
:10489A00700054696D656F757420696E2025732EDA
:1048AA002046696C652025730A007265636569761E
:1048BA00656964202575206F6620006578706563D8
:1048CA00746564206F662025750A006379636C65D8
:1048DA0073203C3D20307866666666554C4C002E47
:1048EA002E2F61746D3132385F74696D6572732F62
:1048FA0074696D65725F722E637070006D735F7498
:10490A006F5F6379636C65730025642025632025D6
:10491A00640A003E25737C25753C005372616D2044
:10492A0072656C6F61646564003078256C780A0082
:10493A0062616E6B2564736574006E616D655F7785
:10494A006561723A25737C25750073657474696EA6
:10495A0067206E616D653A202573006370753A258C
:10496A003035753A253033750A00646967696469B8
:10497A0061672025640A006E636B0054696D656F78
:10498A0075742025730A0073656E645F6E657874AA
:10499A005F7061636B657400656D70747920626124
:1049AA006E6B2058006E616D653A2025730A007798
:1049BA006561723A2025750A0A0054696D656F753A
:1049CA007420666F7220627974657320666F722034
:1049DA00656D756C6174696F6E0A00457870656300
:1049EA007465642025642C20726563656976656444
:1049FA002025640A002E2E2F666C6173685F777219
:104A0A00697465722E6370700052656365697665B4
:104A1A00642062797465733A2025752C20006578C4
:104A2A007065637465643A2025750A000A457261E7
:104A3A0073696E67206174206164647265737320A0
:104A4A00256C640A00667772697465725F726561C3
:104A5A006479005061636B6574732072656365697C
:104A6A00766564202564206F7574206F662025643E
:104A7A0000496E76616C69642062756666657220AB
:104A8A00706F696E7465720A006E61636B004173C0
:104A9A0073657274696F6E206661696C65643A2029
:104AAA00282573292C2066696C652025732C206CB7
:104ABA00696E652025642E0A0041737365727469F4
:104ACA006F6E206661696C65643A20282573292C0B
:104ADA002066756E6374696F6E2025732C20666973
:104AEA006C652025732C206C696E652025642E0A5E
:024AFA000000BA
:00000001FF
