:100000002DC100000C9428110C9453110C947E11F6
:100010000C94A9110C94D4110C94FF110C942A1275
:100020000C94551245C1000043C1000041C10000BD
:100030000C9437080C946F080C94E10839C1000047
:1000400037C1000035C10000BAC60000E5C6000097
:100050002FC100002DC100002BC1000029C10000EC
:100060000C94A70825C100000C9406090C944209C1
:100070000C947E090C94BA093EC7000073C70000B7
:1000800017C1000015C1000013C100003D0D890D0E
:10009000230F6E0D7B0D8F0D9C0DC90DD20D150E0E
:1000A000510E760E230F9A0EB70EBE0EC50ED10E50
:1000B000D50E5365702032352032303139000A5662
:1000C000657273696F6E3A52312E3031000A4254B4
:1000D00020454550524F4D20454D554C41544F52AF
:1000E00020520A436F6D70696C6174696F6E206491
:1000F0006174653A200064697361626C696E67209F
:10010000626F6F746C6F6164657220666C6167000A
:100110000A5372616D206C6F6164656420696E20A2
:100120002575206D73000A4F6E54696D653A202560
:100130006C75206D7300656D756C6174653A007344
:1001400065745F62616E6B5F6E616D653A006474C9
:1001500078006E616B0061636B00726561645F6261
:100160007974650073656E6465725F74657374009D
:1001700064696769646961675F6F6666006469677F
:1001800069646961675F6F6E0077726974696E6731
:1001900074696D650076657273696F6E006469736A
:1001A00061626C655F626F6F746C6F616465720031
:1001B00072756E5F626F6F746C6F616465720063FD
:1001C00070755F6C6F61640065726173655F626119
:1001D0006E6B006765745F62616E6B5F696E666F00
:1001E0000062616E6B735F696E666F007265736546
:1001F000745F62616E6B735F7374617473006261CC
:100200006E6B696E7573650062616E6B61646472BA
:100210000062616E6B337365740062616E6B327382
:1002200065740062616E6B317365740068656C7033
:100230000068616E647368616B65007278666C75E6
:100240007368007265736574656D75006F6F720019
:1002500061636B0059013C039516F71611241FBE0C
:10026000CFEFD0E1DEBFCDBF12E0A0E0B1E0ECE324
:10027000FBE300E00BBF02C007900D92A43CB10766
:10028000D9F723E0A4ECB2E001C01D92A13FB20770
:10029000E1F711E0CDE2D1E004C02197FE010E9418
:1002A0003718CA32D107C9F70E9426150C94921D3F
:1002B000A7CEECECF2E022E330E03183208387E04C
:1002C000828380E390E094838383E7ECF2E03183E0
:1002D000208326E022839483838380910601E4ECCB
:1002E000F2E021E330E03183208382830895962772
:1002F000092E0294202D2F702927692F6025660F63
:10030000607E2627602D6927607F6695092E000C88
:10031000661F9695969596959F7196279827822F9A
:100320000895FC018CE38083168215821086178263
:100330008EE3818712867283618354834383089599
:10034000FC018CE38083148213821682158210864E
:1003500017828EE38187128683E090E09283818307
:1003600008958091D1029091D202EBC30F931F9315
:10037000CF93DF938C01EB0188818823A1F0F801F2
:100380008581968101969683858368818781908592
:10039000AEDFF8019087878369918091D1029091B7
:1003A000D202CFD3E9CFDF91CF911F910F91089562
:1003B000EF92FF921F93CF93DF937C01FB01149187
:1003C000EB0121961123B1F0F70185819681019609
:1003D00096838583612F8781908589DFF7019087D8
:1003E0008783612F8091D1029091D202AAD3FE011E
:1003F0001491E7CFDF91CF911F91FF90EF90089577
:100400001F93CF93DF93EC01162F8091D10290912F
:10041000D20297D38D819E8101969E838D83612F19
:100420008F81988564DF98878F83DF91CF911F91AB
:100430000895CF92DF92EF92FF920F931F93CF9385
:10044000DF9300D0CDB7DEB71A821982FC01228576
:10045000211128C08C0181E08287CE2E7F019091EE
:1004600007018E2D8C19891780F06981C80179DF09
:100470006A81C8010F900F90DF91CF911F910F916A
:10048000FF90EF90DF90CF906CCFF701D1907F017C
:100490006D2DC80166DF6D2D89819A8128DF9A83D1
:1004A0008983DDCF0F900F90DF91CF911F910F9136
:1004B000FF90EF90DF90CF900895BBCFCF93DF9365
:1004C000EC0154DFCE01DF91CF91B3CFCF93DF9317
:1004D000EC016EDFCE01DF91CF91ABCF0F931F9375
:1004E000CF93DF93CDB7DEB7E2970FB6F894DEBFB8
:1004F0000FBECDBF6BAD7CADFB0101900020E9F7D5
:100500003197E61BF70BE634F10580F4AE01435C4E
:100510005F4FCE0101960E94A31A8C01BE016F5F4E
:100520007F4F89AD9AAD22DFC80102C080E090E024
:10053000E2960FB6F894DEBF0FBECDBFDF91CF912C
:100540001F910F9108950F931F93CF93DF93CDB712
:10055000DEB7E2970FB6F894DEBF0FBECDBF6BAD2E
:100560007CADFB0101900020E9F73197E61BF70B0A
:10057000E634F10580F4AE01435C5F4FCE01019695
:100580000E94A31A8C01BE016F5F7F4F89AD9AADA7
:1005900095DFC80102C080E090E0E2960FB6F894C3
:1005A000DEBF0FBECDBFDF91CF911F910F91089598
:1005B0000F931F93CF93DF93CDB7DEB7E2970FB6BC
:1005C000F894DEBF0FBECDBF8BAD9CAD0E943F1A2D
:1005D0008634910590F4AE01435C5F4F6BAD7CAD0A
:1005E000CE0101960E94CB1A8C01BE016F5F7F4F36
:1005F00089AD9AADBBDEC80102C080E090E0E29612
:100600000FB6F894DEBF0FBECDBFDF91CF911F9123
:100610000F9108950F931F93CF93DF93CDB7DEB75C
:10062000E2970FB6F894DEBF0FBECDBF8BAD9CAD89
:100630000E943F1A8634910590F4AE01435C5F4FEF
:100640006BAD7CADCE0101960E94CB1A8C01BE0130
:100650006F5F7F4F89AD9AAD31DFC80102C080E086
:1006600090E0E2960FB6F894DEBF0FBECDBFDF91EB
:10067000CF911F910F9108950E9423159093D2025C
:100680008093D10208951F93CF93DF93EC018A8961
:100690009B89AC89BD89892B8A2B8B2B59F1888149
:1006A0009981AA81BB8128893989F901E80FF91F4D
:1006B00010818A899B89AC89BD890197A109B109FB
:1006C0008A8B9B8BAC8BBD8B88819981AA81BB81E6
:1006D0002C853D854E855F85BC01CD016F5F7F4FC9
:1006E0008F4F9F4F0E941518688379838A839B835D
:1006F000812F01C080E0DF91CF911F910895CF93AA
:10070000DF93FC01A28DB38D4D915D916D917C9134
:10071000A685B785CD91DC91048CF58DE02D9A01ED
:10072000AB0144275527AFEFBFEF0E9440186C0F75
:100730007D1F811D911DAF01DF91CF916AC6AF92E0
:10074000BF92CF92DF92EF92FF920F931F93CF93BE
:10075000DF93EC01EC85FD853581268197818085CD
:100760008E01005F1F4FEE85FF85428953896489A2
:1007700075894AA35BA36CA37DA3408151816281EB
:100780007381488B598B6A8B7B8B44815581668141
:1007900077814C8B5D8B6E8B7F8BC32ED22EE92E97
:1007A000F82EA12CB12CC114D104E104F10409F4F8
:1007B00023C0C80168DF95013827032E0294802DDD
:1007C0008F708327932F9025990F907E8927902DE6
:1007D0009327907F9695032E000C991F369536959A
:1007E00036953F7139273227282F590181E0C81AE1
:1007F000D108E108F108D7CFEC85FD852185328548
:10080000A216B30621F08FEF9FEF9283818381E0E0
:10081000A216B30609F080E0DF91CF911F910F91EE
:10082000FF90EF90DF90CF90BF90AF900895CF9260
:10083000DF92EF92FF920F931F93CF93DF93DC0130
:100840001E96ED91FC911F970289138924893589A1
:100850004091080150E060E070E00417150726079A
:10086000370708F459C0EC018C01005F1F4FEE857B
:10087000FF8582899389A489B589892B8A2B8B2B43
:1008800009F44AC082899389A489B5898AA39BA364
:10089000ACA3BDA380819181A281B381888B998B08
:1008A000AA8BBB8B84819581A681B7818C8B9D8B14
:1008B000AE8BBF8BC801E7DE8E3351F58883D12C18
:1008C000ED2CF12CC09008012C2D30E02150310985
:1008D000E216F30644F4C801D6DEFE01EE0DFF1D5C
:1008E0008183D394EDCF8C3399F40E84DF85C02DB2
:1008F000D12CE12CF12CC114D104E104F10471F0EC
:10090000CE01C1DEB1E0CB1AD108E108F108F3CF86
:100910008E859F85B8DEABCF80E001C081E0DF919E
:10092000CF911F910F91FF90EF90DF90CF9008959E
:100930008F929F92AF92BF92CF92DF92EF92FF92EF
:10094000CF93DF93EC01FB019D878C877F876E87B8
:1009500082E38B8F80819181A281B381888B998B77
:10096000AA8BBB8B84859585A685B7858C8F9D8F3B
:10097000AE8FBF8F82899389A489B5898AA39BA3EF
:10098000ACA3BDA380859185998F888F808991893B
:1009900099A388A381E08A8F1D821E821F821886F8
:1009A0001EA289EA93E0ABDE4B015C01CE013FDF82
:1009B000882309F46AC080E090E0DC01EC85FD85C5
:1009C000458156816781708584179507A607B7070B
:1009D00020F0C12CD12C760125C02CEA2A95F1F704
:1009E00000000196A11DB11DE9CF89EA93E087DEE1
:1009F000DC01CB0188199909AA09BB09803991400A
:100A0000A105B10500F58FEF9FE80197F1F700C050
:100A1000000089EA93E073DE6B017C01C818D908F5
:100A2000EA08FB08EE85FF85428953896489758948
:100A3000EC85FD8585819681A781B085481759078A
:100A40006A077B0790F290E9C91691E0D906E104A4
:100A5000F10438F4CE0173DE8823B9F081E08EA36F
:100A600014C0EE85FF8510821182128213821482D7
:100A7000158216821782128A138A148A158AEC85C7
:100A8000FD858EEF9FEF92878187DF91CF91FF9059
:100A9000EF90DF90CF90BF90AF909F908F90089590
:100AA000CF93DF93EC018C819D81AE81BF8128893A
:100AB0003989F901E80FF91F60838C819D81AE812E
:100AC000BF812C853D854E855F85BC01CD016F5F63
:100AD0007F4F8F4F9F4F0E9415186C837D838E83AD
:100AE0009F834A895B896C897D898C859D85AE85CC
:100AF000BF85481759076A077B0758F48A899B897D
:100B0000AC89BD890196A11DB11D8A8B9B8BAC8BD5
:100B1000BD8B4A895B896C897D898C859D85AE8575
:100B2000BF85481759076A077B0741F48C819D816F
:100B3000AE81BF8188839983AA83BB83DF91CF91E4
:100B400008950F931F93CF93DF93EC0108AD19AD78
:100B50002AAD3BAD8AA99BA9ACA9BDA90817190765
:100B60002A073B0799F3CE0186969ADFEA81FB813B
:100B7000208181E090E00E8402C0880F991F0A94C2
:100B8000E2F7822B8083DF91CF911F910F9108951F
:100B9000CF93DF93EC019A01AB0160E070E18EE04E
:100BA00090E00E941518BA01A9014150510961094C
:100BB000710957FF0EC0E881F98181E090E00F8450
:100BC00002C0880F991F0A94E2F780835F77662737
:100BD0007727E885F985BB27A72F962F852F808358
:100BE000EA85FB854083EA81FB818C858083EC81EB
:100BF000FD818D858083DF91CF9108952F923F9263
:100C00004F925F926F927F928F929F92AF92BF921C
:100C1000CF92DF92EF92FF920F931F93CF93DF93C8
:100C200000D01F92CDB7DEB73C01698319012A01BC
:100C300040969B838A83F301108A118A128A138A51
:100C4000148A158A168A178A82E3838FC48ED58EFA
:100C5000E68EF78E12A213A214A215A282E390E0F0
:100C60000E941A19F301918F808F848D958DA68D26
:100C7000B78D0E941A19F30191A380A3128E63010C
:100C8000F6E2CF0ED11CF30116A217A210A611A6F0
:100C900012A613A614A615A682E381AB82AA93AA74
:100CA000A4AAB5AA10AE11AE12AE13AE82E390E0C4
:100CB0000E941A19F30197A786A782A993A9A4A94C
:100CC000B5A90E941A19F30197AB86AB10AA15AF0C
:100CD00004AFF981F1112CC08BE290E0F301918314
:100CE00080838AE290E09383828385E990E0958314
:100CF00084838CE290E09783868380E990E09187FB
:100D0000808789E290E09387828785E0868781E00B
:100D1000878788E9848786E085878A819B8190938D
:100D2000DA028093D902D092D802C092D7022EC0A4
:100D30009981913059F58BE990E0F301918380839B
:100D40008AE990E0938382838DE990E095838483A0
:100D50008CE990E09783868388E990E0918780878B
:100D600089E990E09387828785E0868789818787F4
:100D700088E9848786E08587EA81FB81F093D60243
:100D8000E093D502D092D402C092D302B201A10165
:100D9000C3010F900F900F90DF91CF911F910F9192
:100DA000FF90EF90DF90CF90BF90AF909F908F908B
:100DB0007F906F905F904F903F902F90E9CE1F9261
:100DC0000F920FB60F9211240BB60F922F933F93F1
:100DD0004F935F936F937F938F939F93AF93BF9343
:100DE000EF93FF938BB16CB18091D9029091DA02AD
:100DF00057DEFF91EF91BF91AF919F918F917F91BE
:100E00006F915F914F913F912F910F900BBE0F907B
:100E10000FBE0F901F9018951F920F920FB60F9252
:100E200011240BB60F921F932F933F934F935F9311
:100E30006F937F938F939F93AF93BF93CF93DF93E2
:100E4000EF93FF93C091D702D091D8028A899B89F2
:100E5000AC89BD89892B8A2B8B2BB1F18A899B891F
:100E6000AC89BD89892B8A2B8B2B59F1888199817B
:100E7000AA81BB8128893989F901E80FF91F1081FE
:100E80008A899B89AC89BD890197A109B1098A8B9F
:100E90009B8BAC8BBD8B88819981AA81BB812C8572
:100EA0003D854E855F85BC01CD016F5F7F4F8F4FC4
:100EB0009F4F0E941518688379838A839B83812FB3
:100EC00001C080E08CB901C05598FF91EF91DF918E
:100ED000CF91BF91AF919F918F917F916F915F91D2
:100EE0004F913F912F911F910F900BBE0F900FBE0E
:100EF0000F901F9018951F920F920FB60F9211240A
:100F00000BB60F922F933F934F935F936F937F9303
:100F10008F939F93AF93BF93EF93FF93CF93DF9301
:100F20001F92CDB7DEB780919C0089836981809143
:100F3000D5029091D602B4DD0F90DF91CF91FF9151
:100F4000EF91BF91AF919F918F917F916F915F9141
:100F50004F913F912F910F900BBE0F900FBE0F90AE
:100F60001F9018951F920F920FB60F9211240BB677
:100F70000F921F932F933F934F935F936F937F93A2
:100F80008F939F93AF93BF93CF93DF93EF93FF9391
:100F9000C091D302D091D4028A899B89AC89BD8942
:100FA000892B8A2B8B2BB9F18A899B89AC89BD89C6
:100FB000892B8A2B8B2B59F188819981AA81BB813E
:100FC00028893989F901E80FF91F10818A899B89DD
:100FD000AC89BD890197A109B1098A8B9B8BAC8B28
:100FE000BD8B88819981AA81BB812C853D854E85E9
:100FF0005F85BC01CD016F5F7F4F8F4F9F4F0E9478
:101000001518688379838A839B83812F01C080E0D0
:1010100080939C0015C080919A008F7D80939A00E8
:10102000E091D302F091D4021082118212821382D5
:101030001482158216821782128A138A148A158ADC
:10104000FF91EF91DF91CF91BF91AF919F918F91E0
:101050007F916F915F914F913F912F911F910F90D1
:101060000BBE0F900FBE0F901F90189508951F9202
:101070000F920FB60F9211240BB60F922F933F933E
:101080004F935F936F937F938F939F93AF93BF9390
:10109000EF93FF93E0911301F091140109952091D2
:1010A000E9023091EA022115310531F08CB59DB588
:1010B000820F931F9BBD8ABDFF91EF91BF91AF91AE
:1010C0009F918F917F916F915F914F913F912F9160
:1010D0000F900BBE0F900FBE0F901F9018951F9290
:1010E0000F920FB60F9211240BB60F922F933F93CE
:1010F0004F935F936F937F938F939F93AF93BF9320
:10110000EF93FF93E0911101F09112010995209165
:10111000E7023091E8022115310531F08CB59DB51B
:10112000820F931F99BD88BDFF91EF91BF91AF9141
:101130009F918F917F916F915F914F913F912F91EF
:101140000F900BBE0F900FBE0F901F9018951F921F
:101150000F920FB60F9211240BB60F922F933F935D
:101160004F935F936F937F938F939F93AF93BF93AF
:10117000EF93FF93E0910F01F091100109952091F9
:10118000E5023091E6022115310541F08CB59DB59F
:10119000820F931F9093790080937800FF91EF91D5
:1011A000BF91AF919F918F917F916F915F914F917F
:1011B0003F912F910F900BBE0F900FBE0F901F907D
:1011C00018951F920F920FB60F9211248F939F9331
:1011D000AF93BF938091EB029091EC02A091ED024E
:1011E000B091EE020196A11DB11D8093EB02909388
:1011F000EC02A093ED02B093EE02BF91AF919F91EC
:101200008F910F900FBE0F901F9018951F920F9205
:101210000FB60F9211240BB60F922F933F934F935B
:101220005F936F937F938F939F93AF93BF93EF934E
:10123000FF93E0910D01F0910E0109952091DF02DD
:101240003091E0022115310551F080918800909194
:101250008900820F931F9093870080938600FF91EF
:10126000EF91BF91AF919F918F917F916F915F911E
:101270004F913F912F910F900BBE0F900FBE0F908B
:101280001F9018951F920F920FB60F9211240BB654
:101290000F922F933F934F935F936F937F938F930F
:1012A0009F93AF93BF93EF93FF93E0910B01F09166
:1012B0000C0109952091DD023091DE0221153105E6
:1012C00051F08091880090918900820F931F909334
:1012D000850080938400FF91EF91BF91AF919F9122
:1012E0008F917F916F915F914F913F912F910F90CF
:1012F0000BBE0F900FBE0F901F9018951F920F926C
:101300000FB60F9211240BB60F922F933F934F936A
:101310005F936F937F938F939F93AF93BF93EF935D
:10132000FF93E0910901F0910A0109952091DB02F8
:101330003091DC022115310551F0809188009091A7
:101340008900820F931F9093830080938200FF9106
:10135000EF91BF91AF919F918F917F916F915F912D
:101360004F913F912F910F900BBE0F900FBE0F909A
:101370001F9018951F920F920FB60F9211248F9302
:101380009F93AF93BF938091E1029091E202A0916D
:10139000E302B091E4020196A11DB11D8093E10228
:1013A0009093E202A093E302B093E402BF91AF9165
:1013B0009F918F910F900FBE0F901F901895FC0179
:1013C000A089B1892D933C93A681B78111965C9336
:1013D0004E93709314016093130106A4F7A5E02DBA
:1013E0008081806180830895FC01A289B3892D9357
:1013F0003C93A085B18511965C934E937093120136
:101400006093110106A4F7A5E02D80818860808398
:1014100008954F925F926F927F928F929F92AF92B8
:10142000BF92CF92DF92EF92FF920F931F93CF93D1
:10143000DF938A0128EE33E040E050E00E944A1832
:1014400029013A014B01D82FC92F980140E050E003
:1014500060E070E081EE90E00E94151889019A0129
:1014600058016901E12CF12C00E010E09201A30188
:10147000B4018D2F9C2F0E947318B901CA01DF910E
:10148000CF911F910F91FF90EF90DF90CF90BF9081
:10149000AF909F908F907F906F905F904F90089546
:1014A0004F925F926F927F928F929F92AF92BF9274
:1014B000CF92DF92EF92FF920F931F938B01BC01AB
:1014C00080E090E029E939E340E050E00E944A18CA
:1014D0005801C12CD12CE12CF12C00E010E00E942D
:1014E000731829013A014114510481E0680671041E
:1014F00050F027E331E045ED50E06BE471E088E621
:1015000091E00E94E618C2011F910F91FF90EF90A9
:10151000DF90CF90BF90AF909F908F907F906F9013
:101520005F904F900895CF93DF93CDB7DEB760976C
:101530000FB6F894DEBF0FBECDBF1A82198281E0CC
:1015400090E09C838B8388E090E09E838D8380E491
:1015500090E098878F8380E091E09A87898780E088
:1015600094E09C878B871E861D86188A1F86FE0145
:10157000E60FF11DE60FF11D8181928160960FB695
:10158000F894DEBF0FBECDBFDF91CF910895CF930A
:10159000DF93EC018FE490E0998388838EE490E000
:1015A0009B838A838AE790E09D838C838AE490E022
:1015B0009F838E8388E490E09987888788E790E00E
:1015C0009B878A8786E490E09D878C878CE490E0F7
:1015D0009F878E8789EE92E0998B888B87EE92E0C9
:1015E0009B8B8A8B85EE92E09D8B8C8B86E590E0C1
:1015F0009F8B8E8B8CE790E0998F888F8BEE92E09B
:101600009B8F8A8F1E8E1F8E18A219A21AA21BA250
:101610001CA21DA21EA21FA218A619A61AA61BA6CE
:101620001CA61DA687E590E09FA78EA78EB560FB40
:1016300080F98EBDEA81FB8161FB992790F9808159
:1016400090FB81F98083EA81FB8162FB992790F905
:10165000808190FB82F98083E881F981808140FB61
:1016600080F98083E881F98141FB992790F9808195
:1016700090FB81F98083EA81FB8142FB992790F9F5
:10168000808190FB83F98083EA81FB8143FB4427BF
:1016900040F9808140FB84F98083CE0144DF9D8F37
:1016A0008C8FEEA5FFA5808184608083DF91CF9130
:1016B0000895CF93DF93EC018BE890E099838883C2
:1016C000EAE8F0E0FB83EA838CE890E09D838C837A
:1016D00086E890E09F838E8384E890E099878887EE
:1016E00082E890E09B878A8780E890E09D878C87DE
:1016F00088E890E09F878E878FED92E0998B888BAA
:101700008DED92E09B8B8A8B8BED92E09D8B8C8B89
:1017100086E590E09F8B8E8B8CE790E0998F888F89
:1017200081EE92E09B8F8A8F1E8E1F8E18A219A2C7
:101730001AA21BA21CA21DA21EA21FA218A619A6B5
:101740001AA61BA61CA61DA68DE790E09FA78EA734
:10175000808160FB80F98083EA81FB8161FB9927AE
:1017600090F9808190FB81F98083EA81FB8162FBA3
:10177000992790F9808190FB82F98083E881F98133
:10178000808140FB80F98083E881F98141FB9927C2
:1017900090F9808190FB81F98083EA81FB8142FB93
:1017A000992790F9808190FB83F98083EA81FB81FE
:1017B00043FB442740F9808140FB84F98083CE01BC
:1017C000B2DE9D8F8C8FEEA5FFA580818460808323
:1017D000DF91CF910895FC01108211821282138251
:1017E0001482158216821782128A138A148A158A25
:1017F0000895CF92DF92EF92FF920F931F93CF93B2
:10180000DF938C016A017B01E901C114D104E10479
:10181000F10499F0F80182899389A489B589892B0B
:101820008A2B8B2B51F0C8010E9443038993F1E06E
:10183000CF1AD108E108F108E8CFDF91CF911F91CD
:101840000F91FF90EF90DF90CF900895CF93DF93AB
:10185000EC0178876F835A8749873C872B8781E023
:101860008D878EE890EEA1E0B0E0ABBFFC018791E0
:1018700090E09E838D8388E18A8380E390E00E94DC
:101880001A19FC019C838B8383E492E0918380830B
:1018900081E392E0938382838CE292E09583848358
:1018A00081EE91E0978386838CEE91E0918780872B
:1018B00088EC91E0938782878FEB91E0958784870E
:1018C00083E292E0978786878AE192E0918B808B12
:1018D00081E192E0938B828B88E092E0958B848B00
:1018E0008EEF91E0978B868B83ED91E0918F808FC7
:1018F0008FE391E0938F828F86E391E0958F848FC1
:1019000080EB91E0978F868F8DE991E091A380A382
:1019100085E991E093A382A384E691E095A384A353
:101920008AE591E097A386A389E891E091A780A733
:101930008BE392E093A782A78DE791E095A784A718
:1019400080E791E097A786A719821882DF91CF914F
:101950000895CF92DF92EF92FF920F931F93CF9350
:10196000DF93CDB7DEB7AB970FB6F894DEBF0FBEEF
:10197000CDBF7C0186E0E1E3F1E0DE0196960190C7
:101980000D928A95E1F7D7011996ED91FC911A977E
:1019900083818E010F5F1F4FF801E80FF11DE80FE3
:1019A000F11DD5A0C6A0DB011C96ED91FC911D9701
:1019B0004381548160E070E0C8010E949101CF92A0
:1019C000DF921F930F930E940A03C8010E945D02D9
:1019D000B801F70181859285D9D2F82EE92E065EED
:1019E0001F4F40E050E060E070E0C8010E949101AC
:1019F000EF92FF928FE791E09F938F931F930F9346
:101A00000E94A302C8010E945D020FB6F894DEBFD7
:101A10000FBECDBFAB960FB6F894DEBF0FBECDBFE5
:101A2000DF91CF911F910F91FF90EF90DF90CF90BA
:101A300008958F929F92AF92BF92EF92FF920F9371
:101A40001F93CF93DF93CDB7DEB7A5970FB6F8946A
:101A5000DEBF0FBECDBFFB01A485B5851196ED910C
:101A6000FC9112973197E331F10508F0ECC17B014D
:101A70008C01EA5BFF4F0C943718DC011B96ED914B
:101A8000FC911C97868197810E947F034B015C012A
:101A9000B701F8018385948557D5D8011B96ED9140
:101AA000FC911C97868197810E947F03D8011B9629
:101AB000ED91FC911C970285138524853585DC0109
:101AC000CB01800F911FA21FB31F88199909AA0982
:101AD000BB0982879387A487B587B5C1DC011796B8
:101AE0008D919C91189740960E944303682FC701DF
:101AF0000E94B217A8C1FC018781908540960E9480
:101B00004303482FB701D8011B968D919C911C97D8
:101B100034D6F8018781908540965DDE94C188EACD
:101B200087BB14BA1ABA109261001092620015BAFB
:101B30001BBA80E688BB87C113964D915C911497C0
:101B40007E01FBE1EF0EF11C60E070E0C7010E9436
:101B50009101D80119968D919C911A973AD386E5F7
:101B600091E09F938F93FF92EF920E940A038E0160
:101B70000F5F1F4FC8010E94A0018BE891E09F9367
:101B80008F931F930F930E94A302C8010E945D02CE
:101B900043C0CB010E940917D80117968D919C91E3
:101BA0001897BACF13964D915C91149763E070E04B
:101BB000FE0131967F01CF010E9491016DEC70E032
:101BC000C7010E94D80162EB70E0C7010E94D801F2
:101BD0006EEB70E0C7010E94D80189EA93E00E9491
:101BE0007F039F938F937F936F9386E291E09F9300
:101BF0008F93FF92EF920E94D802D80111968C9198
:101C000011978F938C918F9380E191E09F938F93A5
:101C1000FF92EF920E94D802C7010E945D020FB6A8
:101C2000F894DEBF0FBECDBF0EC140E050E060E0D3
:101C300070E09E012F5F3F4F7901C9010E94910121
:101C40006AE971E0C7010E94B601D8011B96ED91C7
:101C5000FC911C9781898F9380898F9389EA91E009
:101C60009F938F93FF92EF920E946E02D8011B9672
:101C7000ED91FC911C9787858F9386858F938DEBD3
:101C800091E09F938F93FF92EF920E946E02D80192
:101C90001B96ED91FC911C9717861686118A108A67
:101CA000BBCF13964D915C91149760E070E0CE012C
:101CB00001960E94910162ED71E0CE0101960E94B1
:101CC0005E02CE0101960E945D0261E0D801159688
:101CD0008D919C9116970E94851D98E088E10FB622
:101CE000F894A89581BD0FBE91BDFFCF13964D917D
:101CF0005C91149763E070E0FE0131967F01CF01A3
:101D00000E94910186EF90E09F938F93FF92EF9254
:101D10000E940A03C7010E945D0260E0D801159687
:101D20008D919C9116970E94851D0F900F900F909A
:101D30000F9089C013964D915C91149760E070E00C
:101D4000CE0101960E9491016DED71E0CE010196E8
:101D50000E945E02CE0101960E945D0298E088E139
:101D60000FB6F894A89581BD0FBE91BDFFCF60E07E
:101D7000FC018185928514D260E00DC061E0FC0118
:101D8000818592850DD261E006C062E0FC0181850B
:101D9000928506D262E0D80119968D919C911A978E
:101DA000F1D0B701C801D5DD4EC015964D915D91BA
:101DB0006D917C911897FC01878190859E012F5F22
:101DC0003F4F4901409615DDD7011C96ED91FC91DE
:101DD0001D9785819681A781B0858A319105A105DE
:101DE000B10528F4F401E80FF91F108201C01A8E22
:101DF000B401F80181859285DDD0D7011C96ED9163
:101E0000FC911D97438154815E01BBE1AB0EB11C77
:101E100063E070E0C5010E9491019F928F9281EE74
:101E200091E09F938F93BF92AF920E94A302C5014E
:101E30000E945D02B701C8018CDD0F900F900F90DA
:101E40000F900F900F9081E0A5960FB6F894DEBF2B
:101E50000FBECDBFDF91CF911F910F91FF90EF90FB
:101E6000BF90AF909F908F9008950F931F93CF9343
:101E7000DF93CDB7DEB72B970FB6F894DEBF0FBE5A
:101E8000CDBF8B01DB011C96ED91FC911D9721814B
:101E900032812E3FBFEF3B07D1F02F3F3F4FA1F5DF
:101EA000DC0117968D919C911897409694DCD8018F
:101EB0001C96ED91FC911D97438154816181728143
:101EC000CE0101960E94910162E571E014C0FC010F
:101ED0008781908540967FDCD8011C96ED91FC911E
:101EE0001D974381548161817281CE0101960E94C8
:101EF00091016EE471E0CE0101960E946602CE016E
:101F000001960E945D0201C094DD2B960FB6F894F5
:101F1000DEBF0FBECDBFDF91CF911F910F9108950E
:101F2000FC01718360830895FC012285211104C0A6
:101F3000808991890C94B2190895CF93DF93EC01B5
:101F4000798368838FE78A835E834D8382E090E0A4
:101F50000E94741D8B8381E090E00E94741D8C832D
:101F600088EA87BB14BA1ABA109261001092620014
:101F700015BA1BBA80E688BB8AB7806C8ABFDF912E
:101F8000CF91089582E090E00C94851DCF93DF936C
:101F9000EB01FC016381FCE16F9FB00111246D5FD7
:101FA0007F4F4AE150E0CE010E94641DCE01DF91D7
:101FB000CF910895EF92FF920F931F93CF93DF93EA
:101FC000CDB7DEB76A970FB6F894DEBF0FBECDBFB0
:101FD0008C017B01BE016F5F7F4FD8DFBE016F5F59
:101FE0007F4FC7010E94481A892BA9F0B701CE0183
:101FF00001960E94511AF8016381FCE16F9FB001C4
:1020000011246D5F7F4F4AE150E0CE0101960E949E
:102010007C1D81E001C080E06A960FB6F894DEBFB7
:102020000FBECDBFDF91CF911F910F91FF90EF9029
:102030000895CF92DF92EF92FF920F931F93CF9369
:10204000DF9388EE87BB8FEF809361008ABB84BBF0
:1020500088EA88BBEB01C801D9016C017D01C40E7F
:10206000D51EE11CF11C58E048EA9E01261B370BE7
:102070008C159D05AE05BF0560F50097E1E0AE0744
:10208000B10568F4FC01249120936200D5BBCBBB61
:1020900058BB48BB0196A11DB11D2196E6CF58E063
:1020A00048EAABBFFC01C791C0936200FB01E20F9D
:1020B000F31FF5BBE62FE20FEBBB58BB48BB019605
:1020C000A11DB11D2F5F3F4F8C159D05AE05BF05AE
:1020D00040F388EA87BB14BA1ABA109261001092D2
:1020E000620015BA1BBA80E688BBDF91CF911F91C1
:1020F0000F91FF90EF90DF90CF900895EF92FF92B5
:102100000F931F93CF93DF937C0181E090E00E94B7
:10211000741DD70114968C9314978823D1F1E09104
:10212000E203F091E3032181C1E0D0E0CE01009011
:10213000E10302C0880F991F0A94E2F7822B818382
:102140001596ED91FC9116970081118122813381C2
:1021500040E050E860E070E0C7016BDFE091E2032F
:10216000F091E30381810090E10302C0CC0FDD1FF9
:102170000A94E2F7C095C823C18388EA87BB14BAE2
:102180001ABA109261001092620015BA1BBA80E66A
:1021900088BBDF91CF911F910F91FF90EF90089531
:1021A0000F931F93FC01A581B68124E0629FF0018B
:1021B0001124EB5DFE4F00811181228133810D934B
:1021C0001D932D933C931397FC0163831F910F91F3
:1021D00095CFEF92FF920F931F93CF93DF9321EE52
:1021E000E22E23E0F22ED7011196ED91FC91129789
:1021F0004181C1E0D0E09E010C9002C0220F331F4C
:102200000A94E2F7242B2183DC011596ED91FC91D1
:102210001697008111812281338140E050E860E00F
:1022200070E007DFD7011196ED91FC911297818143
:102230000C9002C0CC0FDD1F0A94E2F7C095C823B2
:10224000C183DF91CF911F910F91FF90EF9008957F
:102250001F920F920FB60F9211240BB60F922F936D
:102260003F934F935F936F937F938F939F93AF931E
:10227000BF93EF93FF93E0912301F091240109951F
:10228000FF91EF91BF91AF919F918F917F916F914E
:102290005F914F913F912F910F900BBE0F900FBE0A
:1022A0000F901F9018951F920F920FB60F92112446
:1022B0000BB60F922F933F934F935F936F937F9340
:1022C0008F939F93AF93BF93EF93FF93E09121017F
:1022D000F09122010995FF91EF91BF91AF919F91EC
:1022E0008F917F916F915F914F913F912F910F90BF
:1022F0000BBE0F900FBE0F901F9018951F920F925C
:102300000FB60F9211240BB60F922F933F934F935A
:102310005F936F937F938F939F93AF93BF93EF934D
:10232000FF93E0911F01F09120010995FF91EF913A
:10233000BF91AF919F918F917F916F915F914F91DD
:102340003F912F910F900BBE0F900FBE0F901F90DB
:1023500018951F920F920FB60F9211240BB60F9281
:102360002F933F934F935F936F937F938F939F939D
:10237000AF93BF93EF93FF93E0911D01F0911E0186
:102380000995FF91EF91BF91AF919F918F917F91AF
:102390006F915F914F913F912F910F900BBE0F90D6
:1023A0000FBE0F901F9018951F920F920FB60F92AD
:1023B00011240BB60F922F933F934F935F936F931C
:1023C0007F938F939F93AF93BF93EF93FF93E0918E
:1023D0001B01F0911C010995FF91EF91BF91AF9105
:1023E0009F918F917F916F915F914F913F912F912D
:1023F0000F900BBE0F900FBE0F901F9018951F925D
:102400000F920FB60F9211240BB60F922F933F939A
:102410004F935F936F937F938F939F93AF93BF93EC
:10242000EF93FF93E0911901F0911A010995FF9143
:10243000EF91BF91AF919F918F917F916F915F913C
:102440004F913F912F910F900BBE0F900FBE0F90A9
:102450001F9018951F920F920FB60F9211240BB672
:102460000F922F933F934F935F936F937F938F932D
:102470009F93AF93BF93EF93FF93E0911701F09178
:1024800018010995FF91EF91BF91AF919F918F91A5
:102490007F916F915F914F913F912F910F900BBE64
:1024A0000F900FBE0F901F9018951F920F920FB6AE
:1024B0000F9211240BB60F922F933F934F935F937C
:1024C0006F937F938F939F93AF93BF93EF93FF93FC
:1024D000E0911501F09116010995FF91EF91BF91DF
:1024E000AF919F918F917F916F915F914F913F91AC
:1024F0002F910F900BBE0F900FBE0F901F9018954D
:102500000F931F93DA01B3958B019C01011580E1B4
:1025100018072105310518F4F801849103C02BBF79
:10252000F8018791FA019191AF01891309C00F5FFA
:102530001F4F2F4F3F4FEA17FB0741F780E001C0C5
:1025400081E01F910F9108952F923F924F925F92D9
:102550006F927F928F929F92AF92BF92CF92DF92B3
:10256000EF92FF920F931F93CF93DF93CDB7DEB718
:102570002C970FB6F894DEBF0FBECDBF8C016B0158
:10258000DC011496ED91FC91159740A151A1809129
:10259000080190E0FA01E80FF91F20812031C8F00E
:1025A000DB011C96ED91FC911D974381548161E004
:1025B00070E0CE0101960E9491016CE472E0CE01C0
:1025C00001960E946602CE0101960E945D0280E0A3
:1025D000ABC0822E912C982C8824990C990C990CC4
:1025E000092C000CAA08BB087C01BFEFEB1AFB0A00
:1025F000E40EF51E412C512C32011C86222423941A
:10260000312CF80180819181A281B381880D991DBF
:10261000AA1DBB1DBC01CD01640D751D861D971D36
:10262000A7016EDF882339F1F801A085B1851196E5
:10263000ED91FC9112972181C1010C9002C0880F8D
:10264000991F0A94E2F782278183F80180819181A2
:10265000A281B381880D991DAA1DBB1DBC01CD01AE
:10266000640D751D861D971D0288F389E02DA70155
:102670000995F1E0FC872FEF521A620A720AF3946F
:102680004114A8E05A066104710409F0BACFF801B8
:10269000A085B1851196ED91FC911297218181E081
:1026A00090E00C9002C0880F991F0A94E2F7809581
:1026B00082238183FC85FF2351F0D80150968D91B0
:1026C0009C915197019651969C938E935097F80147
:1026D000868597850196978786870480F581E02D0A
:1026E000108A118A128A138A148A158A168A178AFE
:1026F00012A213A214A215A2D6011C96ED91FC9170
:102700001D974381548160E070E0CE0101960E94E4
:10271000910160E572E0CE0101960E946602CE0151
:1027200001960E945D0281E02C960FB6F894DEBF00
:102730000FBECDBFDF91CF911F910F91FF90EF9012
:10274000DF90CF90BF90AF909F908F907F906F90D1
:102750005F904F903F902F90089524E0629FF0018A
:102760001124EB5DFE4F4081518162817381FC0138
:10277000408351836283738308958F929F92AF92B7
:10278000BF92CF92DF92EF92FF920F931F93CF935E
:10279000DF93CDB7DEB72B970FB6F894DEBF0FBE31
:1027A000CDBF8C01F42EDB011C96ED91FC911D97A1
:1027B0004381548160E070E0CE0101960E94910156
:1027C000BFE0BF1540F498E088E10FB6F894A895F3
:1027D00081BD0FBE91BD4F2D50E0542F4427550FA2
:1027E000550F550F4A01E8EF9E1A052E000C660B97
:1027F000770BD801CD90DD90ED90FC90C40ED51EE6
:10280000E61EF71EA12CB12CF80180819181A281D6
:10281000B381880D991DAA1DBB1DC816D906EA06ED
:10282000FB06B0F4C114F0E1DF06E104F10418F492
:10283000F601649103C0EBBEF6016791CE010196EB
:102840000E940002FFEFCF1ADF0AEF0AFF0ADCCF77
:10285000CE0101960E945D022B960FB6F894DEBF62
:102860000FBECDBFDF91CF911F910F91FF90EF90E1
:10287000DF90CF90BF90AF909F908F900895E091A0
:10288000E903F091EA0380E090E0309749F0029686
:1028900020813181820F931F0280F381E02DF5CFDB
:1028A00008950F931F93CF93DF9300D0CDB7DEB77A
:1028B0008091E7039091E8038E010F5F1F4F00970F
:1028C00029F4015F13401A83098309C0081B190BFF
:1028D0001A830983D4DF800F911F9A8389838981AA
:1028E0009A810F900F90DF91CF911F910F910895D2
:1028F000CF93DF93A4EEB3E01196ED91FC91129784
:10290000218181E090E00C9002C0880F991F0A9409
:10291000E2F7809582238183E9EAF3E0A685B78513
:10292000CD91DC91648D758D88EE93E00E94500A04
:10293000AC014C0F5D1F20E030E060EE74E189EAED
:1029400093E0DF91CF910C94DF09ABDF9C016091A4
:10295000DB037091DC036115710559F0E0E1F7E2EA
:10296000CF014FD3CF014DD384E690E0861B970B68
:1029700002C084E690E04091DD035091DE034817E9
:10298000590720F49093DE038093DD038091D903EF
:102990009091DA038217930720F43093DA0320939F
:1029A000D9031092DC031092DB030895682F809105
:1029B000DF039091E0030E94A10580E090E008957C
:1029C000CF93DF93A4EEB3E01196ED91FC911297B3
:1029D000218181E090E00C9002C0880F991F0A9439
:1029E000E2F7822B8183E9EAF3E0A685B785CD91F2
:1029F000DC91648D758D81E090E00E94500AAC01FD
:102A00004C0F5D1F20E030E068E774E189EA93E055
:102A1000DF91CF910C94DF09EBE6F3E086ED94E1D2
:102A2000918780871386128682E0838315861486B9
:102A3000ABEEB3E01396FC93EE9312971596FC93CE
:102A4000EE93149708958DE293E00895CF93DF936A
:102A5000CDB7DEB7C255D1090FB6F894DEBF0FBEB1
:102A6000CDBFE091B703F091B80380819181E091EF
:102A7000C303F091C4034081518162817381A0E05E
:102A8000B0E08093C7039093C803A093C903B093A9
:102A9000CA034093CB035093CC036093CD03709350
:102AA000CE030DE213E01DA70CA789EA93E09FA7D0
:102AB0008EA781EE93E099AB88AB60E0CE0188965B
:102AC0004CDE8CE890EEA1E0B0E0ABBFFC0187915A
:102AD00096919BAF8AAF1AAA1BAA1CAA1DAA1FAA6D
:102AE0001EAA19AE18AEAE01485D5F4FB801CE0107
:102AF000865B9F4F22DACE01865B9F4FFFDAE09123
:102B0000B703F091B803E080F180E091C303F09146
:102B1000C4034081518162817381E091C503F091CA
:102B2000C6038091CB039091CC03A091CD03B091CB
:102B3000CE039A01AB01281B390B4A0B5B0BAFEF9D
:102B4000BFEF9ED24701A12CB12CC090C703D090FB
:102B5000C803E090C903F090CA03A50194012C19A1
:102B60003D094E095F09620F731F841F951FAF0156
:102B70000E94090A63967FAF6EAF63971093E003DC
:102B80000093DF03789448DF6091C5037091C6031A
:102B900084EF91E00E94500AE091B703F091B803EE
:102BA000408151814C595F4F9C0160EE74E189EA8C
:102BB00093E00E94DF096091C5037091C60384E62B
:102BC00090E00E94500AE091B703F091B803408171
:102BD00051814C595F4F9C0165EA74E189EA93E0A9
:102BE0000E94F4099E01285D3F4FAE01465B5F4F96
:102BF000B801CE01CC960E94260C63966EAD7FADD7
:102C00006397CE01CC968CD9CE018F5A9F4FAAD311
:102C100010923D0310923E0310923F031092400326
:102C20001092410310924203109243031092440306
:102C300010924F03109250031092510310925203BE
:102C40000FB6F894A89581B5886181BD11BC0FBEFF
:102C500040E050E063E070E0CE0101967C010E940C
:102C6000910181E492E09F938F93FF92EF920E94F3
:102C7000A302C7010E945D020F900F900F900F906A
:102C800000ED17E0C12CD12C94E6A92EB12C013A0D
:102C90009FE0190730F40F5F1F4F003A2FE0120733
:102CA00078F0C601B501ADD1892B51F485E6982E97
:102CB0006EE68DE293E00E94A1059A949110F8CF00
:102CC0003FEFC31AD30A8091DB039091DC03019696
:102CD0009093DC038093DB0386E69EE00197F1F797
:102CE000000040914F035091500360915103709147
:102CF00052038091080190E0A0E0B0E04817590726
:102D00006A077B0720F26DE373E0C7010E94980415
:102D10008FA1882331F0B701CE01CC96A6D800E070
:102D200010E0CE01419600D9B2CF8F929F92AF9220
:102D3000BF92CF92DF92EF92FF920F931F93E4EE38
:102D4000F3E087E0808381E390E0928381838F9A30
:102D5000E1EEF3E026E02083928381838E9AE9ED11
:102D6000F3E011821082138212821582148240E0F5
:102D700065E089EA93E00E94C70A40E065E089E7E0
:102D800093E00E94590B80E8882E912CA12CB12C45
:102D90009EE1C92E98E0D92EE12CF12C09EA13E02E
:102DA00020E032EC41E050E061E08DE293E00E94EF
:102DB000FE0524E1822E912CA12CB12C34E1C32EEE
:102DC000D12CE12CF12C20E835E240E050E060E02D
:102DD0008FEE92E00E94FE051F910F91FF90EF9001
:102DE000DF90CF90BF90AF909F908F90089585E136
:102DF00093E09AD88FEF92E097D883E593E094D848
:102E00008DE393E091C890E000009F5F8917E0F7A1
:102E100008958F929F92AF92BF92EF92FF920F937D
:102E20001F93CF93DF93CDB7DEB72B970FB6F894F0
:102E3000DEBF0FBECDBF8C01E091E503F091E6034C
:102E4000218181E090E00090E40302C0880F991F87
:102E50000A94E2F7822B8183D8011C96ED91FC91B4
:102E60001D97658176818781908523E030E040E081
:102E700050E0DBD0F22EE32E88EE87BB8FEF8093FD
:102E800061008ABB84BB88EA88BB20E030E058E060
:102E900048EAD8011C96ED91FC911D97C901A0E06C
:102EA000B0E085809680A780B08488159905AA0532
:102EB000BB05E8F4D8011E96ED91FC911F97809117
:102EC0000801B901680F711D0088F189E02DE60F36
:102ED000F71F828180936200818185BB80818BBBDB
:102EE00058BB48BB58BB48BB2D5F3F4FD2CF438137
:102EF000548163E070E08E010F5F1F4FC8010E9494
:102F00009101EF92FF9287E492E09F938F931F933A
:102F10000F930E94A302C8010E945D0288EA87BB4A
:102F200014BA1ABA109261001092620015BA1BBA54
:102F300080E688BB0F900F900F900F900F900F902E
:102F400081E02B960FB6F894DEBF0FBECDBFDF91A8
:102F5000CF911F910F91FF90EF90BF90AF909F90F6
:102F60008F900895EF92FF920F931F93CF93DF936B
:102F7000CDB7DEB72B970FB6F894DEBF0FBECDBF2F
:102F8000062FDC011C96ED91FC911D974381548125
:102F900060E070E0CE0101960E94910188EC87BB51
:102FA000109261008FEF8ABB84BB88EA88BB10E077
:102FB000102F0027110F110F110F7801B8EFFB1A16
:102FC0000E151F0568F415BB0BBBC79885E01BDF0A
:102FD00060B1CE0101960E9400020F5F1F4FF0CF3B
:102FE000CE0101960E945D022B960FB6F894DEBFCB
:102FF0000FBECDBFDF91CF911F910F91FF90EF904A
:103000000895AA1BBB1B51E107C0AA1FBB1FA6172F
:10301000B70710F0A61BB70B881F991F5A95A9F781
:1030200080959095BC01CD010895A1E21A2EAA1BAE
:10303000BB1BFD010DC0AA1FBB1FEE1FFF1FA21768
:10304000B307E407F50720F0A21BB30BE40BF50B65
:10305000661F771F881F991F1A9469F760957095EE
:10306000809590959B01AC01BD01CF010895EE0FB5
:10307000FF1F0024001C0BBE0790F691E02D099461
:103080008ED0A59F900DB49F900DA49F800D911D93
:1030900011240895E894DF93CF93FC01DB017FD0E6
:1030A0007F936F93E9019A01AC01BF93AF933F9374
:1030B0002F93DF0174D026F46C1B7D0B820B930BD6
:1030C0009E01EB01FC017AD0AF91BF912F913F910E
:1030D00075D0BE01CF01F9012F913F91CF91DF91C2
:1030E0000895689401C0E8948F929F92CF93DF93E4
:1030F00005D0DF91CF919F908F90089588249924D7
:10310000F401E401B0E49F93AA279A158B049C0470
:10311000ED05FE05CF05D007A10798F4AD2FDC2FF4
:10312000CF2FFE2FE92D982C892E982F872F762FC1
:10313000652F542F432F322F2227B85031F7BF91DC
:1031400027C01B2EBF91BB27220F331F441F551FC3
:10315000661F771F881F991F881C991CEE1FFF1F71
:10316000CC1FDD1FAA1FBB1F8A149B04EC05FD05A5
:10317000CE05DF05A007B10748F08A189B08EC09C7
:10318000FD09CE09DF09A00BB10B21601A94E1F60D
:103190002EF49401AF01BE01CD01000C0895A29F51
:1031A000B001B39FC001A39F700D811D1124911D1B
:1031B000B29F700D811D1124911D0895F0DF460FFF
:1031C000571FC81FD91F08F431960895F091F003D6
:1031D000E091EF030097B1F45F934F937F936F9368
:1031E0003F932F9380E692E09F938F93FF93EF930B
:1031F0005FD18DB79EB70A960FB6F8949EBF0FBEEB
:103200008DBF17C05F934F937F936F939F938F935F
:103210003F932F938BE892E09F938F93FF93EF93CD
:1032200047D18DB79EB70C960FB6F8949EBF0FBED0
:103230008DBF21D10F931F93CF93DF9382309105E0
:1032400010F482E090E0E091E903F091EA0320E0DD
:1032500030E0A0E0B0E0309719F140815181028167
:10326000138148175907C8F08417950769F4109718
:1032700031F012960C93129713961C9327C000936B
:10328000E9031093EA0322C02115310519F0421712
:10329000530718F49A01BD01EF01DF01F801DBCFFC
:1032A00021153105F9F0281B390B2430310580F444
:1032B0008A819B816115710521F0FB0193838283D3
:1032C00004C09093EA038093E903FE01329644C060
:1032D000FE01E20FF31F819391932250310939834C
:1032E00028833AC02091E7033091E803232B41F46F
:1032F00020910201309103013093E8032093E7030A
:1033000020910001309101012115310541F42DB7C3
:103310003EB74091040150910501241B350BE0910B
:10332000E703F091E803E217F307A0F42E1B3F0B2D
:103330002817390778F0AC014E5F5F4F2417350727
:1033400048F04E0F5F1F5093E8034093E7038193CB
:10335000919302C0E0E0F0E0CF01DF91CF911F91A7
:103360000F910895CF93DF93009709F481C0FC017A
:10337000329713821282A091E903B091EA03109769
:1033800081F420813181820F931F2091E7033091D6
:10339000E8032817390751F5F093E803E093E703B2
:1033A00067C0ED0120E030E0CE17DF0740F44A812E
:1033B0005B819E0141155105F1F0EA01F5CFD38300
:1033C000C28340815181840F951FC817D90759F4D2
:1033D00088819981840F951F0296918380838A81C9
:1033E0009B81938382832115310529F4F093EA03AD
:1033F000E093E9033DC0E901FB83EA8349915991D8
:10340000C40FD51FEC17FD0761F480819181840FF3
:10341000951F0296E90199838883828193819B831A
:103420008A83E0E0F0E012968D919C9113970097CB
:1034300019F0FD01DC01F7CF8D919C9111979D0151
:103440002E5F3F4F820F931F2091E7033091E803D7
:103450002817390769F4309729F41092EA0310927B
:10346000E90302C013821282B093E803A093E7033A
:10347000DF91CF91089581E090E0F89453C3FC016F
:1034800005900020E9F7809590958E0F9F1F089575
:10349000FB01DC018D91019080190110D9F3990B8A
:1034A0000895FB01DC0101900D920020E1F70895E1
:1034B000CF93DF93CDB7DEB7AE01475F5F4F6F812C
:1034C00078858D819E818FD0DF91CF9108950F9364
:1034D0001F93CF93DF93FB01238121FD03C08FEF67
:1034E0009FEF2CC022FF16C0468157812481358171
:1034F0004217530744F4A081B1819D012F5F3F4FD4
:10350000318320838C93268137812F5F3F4F378310
:10351000268314C08B01EC01FB010084F185E02DB2
:103520000995892BE1F6D80116968D919C911797F4
:10353000019617969C938E931697CE01DF91CF91AB
:103540001F910F9108950F931F93CF93DF93CDB7E2
:10355000DEB72E970FB6F894DEBF0FBECDBF8C013D
:1035600086E08C831A8309838FEF9FE79E838D8388
:10357000CE01019638D0EF81F885E00FF11F10825F
:103580002E960FB6F894DEBF0FBECDBFDF91CF9160
:103590001F910F9108950F931F93CF93DF93CDB792
:1035A000DEB72E970FB6F894DEBF0FBECDBF8C01ED
:1035B0008EE08C831A8309838FEF9FE79E838D8330
:1035C000CE01019610D0EF81F885E00FF11F108237
:1035D0002E960FB6F894DEBF0FBECDBFDF91CF9110
:1035E0001F910F9108952F923F924F925F926F9289
:1035F0007F928F929F92AF92BF92CF92DF92EF9283
:10360000FF920F931F93CF93DF93CDB7DEB72B9726
:103610000FB6F894DEBF0FBECDBF6C017B018A01EF
:10362000FC0117821682838181FFBFC1CE01019602
:103630003C01F6019381F70193FD859193FF819100
:103640007F01882309F4ADC1853239F493FD85915A
:1036500093FF81917F01853221F4B60190E037DF3D
:10366000E8CF912C212C312CFFE1F315D8F08B32CF
:1036700079F038F4803279F08332A1F4232D20617F
:103680001DC08D3261F0803369F4232D216016C096
:10369000832D8260382EE32DE4603E2E2AC0F32D68
:1036A000F8601DC037FC2DC020ED280F2A3040F0F7
:1036B0008E32B9F436FC75C1232D2064322E19C028
:1036C00036FE06C08AE0989E200D1124922E11C06D
:1036D000EAE02E9E200D1124222EF32DF0623F2EC3
:1036E00008C08C3621F4832D8068382E02C08836BD
:1036F00041F4F70193FD859193FF81917F01811141
:10370000B3CF982F9F7D9554933028F40C5F1F4FB3
:103710009FE399830DC0833631F0833771F0833591
:1037200009F055C020C0F801808189830E5F1F4FCA
:1037300088248394912C530112C02801F2E04F0E8B
:10374000511CF801A080B18036FE03C0692D70E0E5
:1037500002C06FEF7FEFC5014ED14C018201F32D06
:10376000FF773F2E15C0280122E0420E511CF801C0
:10377000A080B18036FE03C0692D70E002C06FEFFB
:103780007FEFC5012DD14C01F32DF0683F2E820152
:1037900033FC19C0822D90E088169906A0F4B6017A
:1037A00080E290E094DE2A94F5CFF50137FC859114
:1037B00037FE81915F01B60190E089DE21102A94E5
:1037C00021E0821A91088114910479F7E1C08436CE
:1037D00011F0893639F5F80137FE07C06081718133
:1037E000828193810C5F1F4F08C060817181072E19
:1037F000000C880B990B0E5F1F4FF32DFF763F2EA9
:1038000097FF09C090958095709561957F4F8F4F78
:103810009F4FF0683F2E2AE030E0A301F7D0882EBA
:10382000861844C0853731F4232D2F7EB22E2AE02E
:1038300030E025C0932D997FB92E8F36C1F018F452
:10384000883579F0AEC0803719F0883721F0A9C0EB
:10385000E92FE061BE2EB4FE0DC0FB2DF460BF2E3B
:1038600009C034FE0AC0292F2660B22E06C028E007
:1038700030E005C020E130E002C020E132E0F80194
:10388000B7FE07C060817181828193810C5F1F4FF9
:1038900006C06081718180E090E00E5F1F4FA30140
:1038A000B5D0882E8618FB2DFF773F2E36FE0DC033
:1038B000232D2E7FA22E891458F434FE0BC032FC27
:1038C00009C0832D8E7EA82E05C0B82CA32C03C062
:1038D000B82C01C0B92CA4FE0FC0FE01E80DF11DEB
:1038E0008081803321F49A2D997EA92E09C0A2FEF1
:1038F00006C0B394B39404C08A2D867809F0B394BB
:10390000A3FC10C0A0FE06C0B21480F4280C922CB8
:103910009B180DC0B21458F4B60180E290E0D7DDD8
:10392000B394F8CFB21418F42B1802C0982C212CA1
:10393000A4FE0FC0B60180E390E0C9DDA2FE16C070
:10394000A1FC03C088E790E002C088E590E0B601E2
:103950000CC08A2D867851F0A1FE02C08BE201C016
:1039600080E2A7FC8DE2B60190E0B1DD891430F46D
:10397000B60180E390E0ABDD9A94F8CF8A94F3012E
:10398000E80DF11D8081B60190E0A1DD8110F6CF38
:10399000222009F44ECEB60180E290E098DD2A9410
:1039A000F7CFF6018681978102C08FEF9FEF2B96AC
:1039B0000FB6F894DEBF0FBECDBFDF91CF911F9140
:1039C0000F91FF90EF90DF90CF90BF90AF909F90BE
:1039D0008F907F906F905F904F903F902F900895C1
:1039E000FC010590615070400110D8F780959095CA
:1039F0008E0F9F1F0895FC016150704001900110CF
:103A0000D8F7809590958E0F9F1F0895FA01AA27E9
:103A1000283051F1203181F1E8946F936E7F6E5F11
:103A20007F4F8F4F9F4FAF4FB1E03ED0B4E03CD0BF
:103A3000670F781F891F9A1FA11D680F791F8A1FA2
:103A4000911DA11D6A0F711D811D911DA11D20D009
:103A500009F468943F912AE0269F11243019305DC3
:103A60003193DEF6CF010895462F4770405D4193B4
:103A7000B3E00FD0C9F7F6CF462F4F70405D4A3301
:103A800018F0495D31FD4052419302D0A9F7EACFC9
:103A9000B4E0A6959795879577956795BA95C9F7F8
:103AA00000976105710508959B01AC010A2E0694EB
:103AB0005795479537952795BA95C9F7620F731FA4
:103AC000841F951FA01D0895DC01CB01FC01E19925
:103AD000FECF06C0FFBBEEBBE09A31960DB20D9251
:103AE00041505040B8F70895E199FECF9FBB8EBB7F
:103AF000E09A99278DB30895DC01CB0102C02D9186
:103B000005D041505040D8F70895262FE199FECFB7
:103B10009FBB8EBB2DBB0FB6F894E29AE19A0FBE05
:103B20000196089511E0CDE2D1E003C0FE019FDAD5
:0C3B30002196CE32D107D1F7F894FFCFD8
:103B3C000000F1032000C00A0C360836083608369F
:103B4C000836083608360836083608360836083679
:103B5C0008360836080060000000E0000000600134
:103B6C000023021A0211026379636C6573203C3DD9
:103B7C0020307866666666554C4C002E2E2F61748C
:103B8C006D3132385F74696D6572732F74696D6550
:103B9C00725F722E637070006D735F746F5F637908
:103BAC00636C65730025642025632025640A00621C
:103BBC00616E6B6E616D653A2573005372616D2099
:103BCC0072656C6F616465640A0077726974696E02
:103BDC00672073746174730A007061636B6574732E
:103BEC00207772697474656E2025640A00706163B5
:103BFC006B657473207265636569766564202564F2
:103C0C000A00626F6F746C6F616465720061636B44
:103C1C00007365742062616E6B206E616D653A2075
:103C2C002573003078256C780A0062616E6B256410
:103C3C00736574006E616D655F776561723A2573AB
:103C4C007C25750073657474696E67206E616D6593
:103C5C003A202573006370753A253035753A253056
:103C6C0033750A0064696769646961672025640AB1
:103C7C000048454C4C4F005372616D207570646167
:103C8C00746564206F662025642062797465730006
:103C9C00417373657274696F6E206661696C6564DB
:103CAC003A20282573292C2066696C652025732CF5
:103CBC00206C696E652025642E0A00417373657251
:103CCC0074696F6E206661696C65643A202825738F
:103CDC00292C2066756E6374696F6E2025732C20F9
:103CEC0066696C652025732C206C696E65202564D3
:043CFC002E0A00008C
:00000001FF
