:100000007AC100000C94D5130C9400140C942B149A
:100010000C9456140C9481140C94AC140C94D714B6
:100020000C94021592C1000090C100008EC1000026
:100030000C94BD090C94F5090C94670A86C1000064
:1000400084C1000082C100000C9465080C949208E1
:100050007CC100007AC1000078C1000076C10000B8
:100060000C942D0A72C100000C948C0A0C94C80ADE
:100070000C94040B0C94400B0C9401090C9438095B
:1000800064C1000062C1000060C10000C30E0F0F18
:10009000A910F40E010F150F220F4F0F580F9B0FD1
:1000A000D70FFC0FA91020103D1044104B10571013
:1000B0005B104E6F762031312032303139000A56D4
:1000C000657273696F6E3A52322E3031000A4254B3
:1000D00020454550524F4D20454D554C41544F52AF
:1000E00020520A436F6D70696C6174696F6E206491
:1000F0006174653A0064697361626C696E6720625D
:100100006F6F746C6F61646572000A5372616D2069
:100110006C6F6164656420696E202575206D7300C5
:100120000A4F6E54696D653A20256C75206D730019
:10013000656D756C6174653A007365745F62616EBC
:100140006B5F6E616D653A00647478006E616B0080
:1001500061636B00726561645F62797465007365E9
:100160006E6465725F74657374006469676964695D
:1001700061675F6F66660064696769646961675F8C
:100180006F6E0077726974696E6774696D65007669
:10019000657273696F6E0064697361626C655F623A
:1001A0006F6F746C6F616465720072756E5F626F01
:1001B0006F746C6F61646572006370755F6C6F6102
:1001C000640065726173655F62616E6B0067657480
:1001D0005F62616E6B5F696E666F0062616E6B730A
:1001E0005F696E666F0072657365745F62616E6BE6
:1001F000735F73746174730062616E6B696E7573A3
:10020000650062616E6B616464720062616E6B3383
:100210007365740062616E6B327365740062616E47
:100220006B317365740068656C700068616E64732F
:1002300068616B65007278666C75736800726573CF
:100240006574656D750096A3810224022016D6A4FC
:1002500080021B97A5D6A558CE55BF3A1AEE0018B6
:10026000A60097A596A3810027022004C6F5D7A56E
:1002700096A381012702200A86FFD6A45454541065
:1002800097A596A381092702200BD6A486081B9761
:10029000A486FF97A396A4812822022004C600D733
:1002A000A418CEB000D6A5B6B02E2AFBF7B02F7C8E
:1002B00000A3CC0350F3B00EFDB0168680B7B02378
:1002C000181C22803B6469676964696167006F6F0D
:1002D000720061636B000A56657273696F6E3A5201
:1002E000322E303100454D55425452200000A601B7
:1002F00013052B1A8C1A11241FBECFEFD0E1DEBFDD
:10030000CDBF13E0A0E0B1E0ECE1F3E400E00BBF0F
:1003100002C007900D92AA33B107D9F724E0AAE3EF
:10032000B3E001C01D92A736B207E1F711E0CAE7BA
:10033000D1E004C02197FE010E94271CC737D107D6
:10034000C9F70E94D3170C9482215ACEE2E4F3E05D
:1003500022E330E03183208387E0828380E390E0F2
:1003600094838383EDE3F3E03183208326E02283CB
:100370009483838380910601EAE3F3E021E330E094
:100380003183208382830895CF93DF93EC018C81A6
:100390009D81AE81BF8128893989F901E80FF91F54
:1003A00060838C819D81AE81BF812C853D854E858A
:1003B0005F85BC01CD016F5F7F4F8F4F9F4F0E94C4
:1003C000051C6C837D838E839F834A895B896C893E
:1003D0007D898C859D85AE85BF85481759076A073D
:1003E0007B0758F48A899B89AC89BD890196A11D38
:1003F000B11D8A8B9B8BAC8BBD8B4A895B896C89C9
:100400007D898C859D85AE85BF85481759076A070C
:100410007B0741F48C819D81AE81BF818883998364
:10042000AA83BB83DF91CF910895CF93DF93EC0133
:10043000188219821A821B821C821D821E821F82D0
:1004400082E38B878AE090E0A0E0B0E08C879D8714
:10045000AE87BF871A8A1B8A1C8A1D8A82E390E0B6
:100460000E940A1D998788878C859D85AE85BF85EA
:100470000E940A1D998B888B1A868FEF8E8B1F8A9C
:10048000188E1A8E198EDF91CF9108959F92AF9298
:10049000BF92CF92DF92EF92FF920F931F93CF9371
:1004A000DF93CDB7DEB765970FB6F894DEBF0FBE0A
:1004B000CDBF8C01F62E85EF681305C081E0F801F1
:1004C000878B65EF21C0F80187898823C1F0868971
:1004D000681719F0FFEF6F1312C081E0F801808FE9
:1004E000178A6F2DC80150DFFFEFFF1621F0F801CA
:1004F0008689815002C08EEFF801868B17C0F80103
:10050000808D882321F06F2DC8013EDF0FC0F801D8
:10051000108211821282138214821582168217822F
:10052000128A138A148A158A108E178AF801828912
:100530009389A489B5890A97A105B10509F071C00D
:10054000108E178A7E01FCE0EF0EF11C5E0186E141
:10055000A80EB11CCE2C9F2CF80182899389A48906
:10056000B589892B8A2B8B2BF1F1F801828993892C
:10057000A489B589892B8A2B8B2B09F450C0F801EB
:1005800080819181A281B38120893189F901E80FAD
:10059000F91FD080F80182899389A489B5890197D0
:1005A000A109B109828B938BA48BB58B808191813A
:1005B000A281B3812485358546855785BC01CD014F
:1005C0006F5F7F4F8F4F9F4F0E94051CF801608324
:1005D0007183828393838D2DF70181937F01EA15C7
:1005E000FB0509F0B9CF40E050E064E070E0CE01D7
:1005F000019643D04AE050E06C2D792DCE01019652
:1006000009D1CE01019605D1F801818D928D019617
:1006100019F481E090E0F801928F818F02C080E0B0
:10062000DBCF65960FB6F894DEBF0FBECDBFDF916E
:10063000CF911F910F91FF90EF90DF90CF90BF90DF
:10064000AF909F9008959627092E0294202D2F7029
:100650002927692F6025660F607E2627602D692770
:10066000607F6695092E000C661F96959695969567
:100670009F7196279827822F0895FC018CE3808331
:1006800016821582108617828EE381871286728306
:100690006183548343830895FC018CE38083148237
:1006A000138216821582108617828EE38187128646
:1006B00083E090E092838183089580914703909135
:1006C0004803C5C30F931F93CF93DF938C01EB01B6
:1006D00088818823A1F0F80185819681019696830F
:1006E0008583688187819085AEDFF8019087878355
:1006F00069918091470390914803A9D3E9CFDF9195
:10070000CF911F910F910895EF92FF921F93CF9376
:10071000DF937C01FB011491EB0121961123B1F0D1
:10072000F70185819681019696838583612F878164
:10073000908589DFF70190878783612F8091470338
:100740009091480384D3FE011491E7CFDF91CF91BC
:100750001F91FF90EF9008951F93CF93DF93EC01CB
:10076000162F809147039091480371D38D819E810C
:1007700001969E838D83612F8F81988564DF988792
:100780008F83DF91CF911F910895CF92DF92EF92E7
:10079000FF920F931F93CF93DF9300D0CDB7DEB7B7
:1007A0001A821982FC012285211128C08C0181E066
:1007B0008287CE2E7F01909107018E2D8C1989178B
:1007C00080F06981C80179DF6A81C8010F900F90BC
:1007D000DF91CF911F910F91FF90EF90DF90CF901D
:1007E0006CCFF701D1907F016D2DC80166DF6D2DB3
:1007F00089819A8128DF9A838983DDCF0F900F90BA
:10080000DF91CF911F910F91FF90EF90DF90CF90EC
:100810000895BBCFEF92FF920F931F93CF93DF9377
:10082000EC018B017B01E40EF51E0E151F05A9F0EE
:100830008D819E8101969E838D83F80160818F81D9
:10084000988501DF98878F83F80161918F018091EE
:10085000470390914803FBD2E8CFCE01DF91CF91BF
:100860001F910F91FF90EF9090CFCF93DF93EC010A
:1008700029DFCE01DF91CF9188CFCF93DF93EC01B9
:1008800043DFCE01DF91CF9180CF0F931F93CF93A2
:10089000DF93CDB7DEB7E2970FB6F894DEBF0FBE99
:1008A000CDBF6BAD7CADFB0101900020E9F7319726
:1008B000E61BF70BE634F10580F4AE01435C5F4FB5
:1008C000CE0101960E94931E8C01BE016F5F7F4F87
:1008D00089AD9AADF7DEC80102C080E090E0E296F3
:1008E0000FB6F894DEBF0FBECDBFDF91CF911F9141
:1008F0000F9108950F931F93CF93DF93CDB7DEB77A
:10090000E2970FB6F894DEBF0FBECDBF6BAD7CADE6
:10091000FB0101900020E9F73197E61BF70BE63465
:10092000F10580F4AE01435C5F4FCE0101960E9459
:10093000931E8C01BE016F5F7F4F89AD9AAD95DF2D
:10094000C80102C080E090E0E2960FB6F894DEBFE6
:100950000FBECDBFDF91CF911F910F9108950F93DF
:100960001F93CF93DF93CDB7DEB7E2970FB6F8941E
:10097000DEBF0FBECDBF8BAD9CAD0E942F1E863457
:10098000910590F4AE01435C5F4F6BAD7CADCE0141
:1009900001960E94BB1E8C01BE016F5F7F4F89AD27
:1009A0009AAD90DEC80102C080E090E0E2960FB6FA
:1009B000F894DEBF0FBECDBFDF91CF911F910F9195
:1009C00008950F931F93CF93DF93CDB7DEB7E297D0
:1009D0000FB6F894DEBF0FBECDBF8BAD9CAD0E94AD
:1009E0002F1E8634910590F4AE01435C5F4F6BADD2
:1009F0007CADCE0101960E94BB1E8C01BE016F5FD3
:100A00007F4F89AD9AAD31DFC80102C080E090E030
:100A1000E2960FB6F894DEBF0FBECDBFDF91CF9147
:100A20001F910F9108950E94D017909348038093CF
:100A3000470308951F93CF93DF93EC018A899B8925
:100A4000AC89BD89892B8A2B8B2B59F1888199819F
:100A5000AA81BB8128893989F901E80FF91F108122
:100A60008A899B89AC89BD890197A109B1098A8BC3
:100A70009B8BAC8BBD8B88819981AA81BB812C8596
:100A80003D854E855F85BC01CD016F5F7F4F8F4FE8
:100A90009F4F0E94051C688379838A839B83812FE3
:100AA00001C080E0DF91CF911F910895CF93DF9334
:100AB000FC01A28DB38D4D915D916D917C91A685C8
:100AC000B785CD91DC91048CF58DE02D9A01AB01B9
:100AD00044275527AFEFBFEF0E94301C6C0F7D1FDE
:100AE000811D911DAF01DF91CF9119C6AF92BF92C9
:100AF000CF92DF92EF92FF920F931F93CF93DF93EA
:100B0000EC01EC85FD8535812681978180858E01FC
:100B1000005F1F4FEE85FF8542895389648975897F
:100B20004AA35BA36CA37DA3408151816281738141
:100B3000488B598B6A8B7B8B448155816681778189
:100B40004C8B5D8B6E8B7F8BC32ED22EE92EF82EB5
:100B5000A12CB12CC114D104E104F10409F423C087
:100B6000C80168DF95013827032E0294802D8F700D
:100B70008327932F9025990F907E8927902D932777
:100B8000907F9695032E000C991F369536953695D5
:100B90003F7139273227282F590181E0C81AD1081F
:100BA000E108F108D7CFEC85FD8521853285A216B5
:100BB000B30621F08FEF9FEF9283818381E0A2162D
:100BC000B30609F080E0DF91CF911F910F91FF9064
:100BD000EF90DF90CF90BF90AF900895CF92DF92CB
:100BE000EF92FF920F931F93CF93DF93DC011E963A
:100BF000ED91FC911F9702891389248935894091D1
:100C0000080150E060E070E0041715072607370779
:100C100008F459C0EC018C01005F1F4FEE85FF8581
:100C200082899389A489B589892B8A2B8B2B09F416
:100C30004AC082899389A489B5898AA39BA3ACA35E
:100C4000BDA380819181A281B381888B998BAA8B6E
:100C5000BB8B84819581A681B7818C8B9D8BAE8B5C
:100C6000BF8BC801E7DE8E3351F58883D12CED2C84
:100C7000F12CC09008012C2D30E021503109E216F2
:100C8000F30644F4C801D6DEFE01EE0DFF1D81839C
:100C9000D394EDCF8C3399F40E84DF85C02DD12C05
:100CA000E12CF12CC114D104E104F10471F0CE0166
:100CB000C1DEB1E0CB1AD108E108F108F3CF8E858F
:100CC0009F85B8DEABCF80E001C081E0DF91CF919E
:100CD0001F910F91FF90EF90DF90CF9008958F922A
:100CE0009F92AF92BF92CF92DF92EF92FF92CF93FB
:100CF000DF93EC01FB019D878C877F876E8782E302
:100D00008B8F80819181A281B381888B998BAA8BF3
:100D1000BB8B84859585A685B7858C8F9D8FAE8F7F
:100D2000BF8F82899389A489B5898AA39BA3ACA329
:100D3000BDA380859185998F888F8089918999A39A
:100D400088A381E08A8F1D821E821F8218861EA2C0
:100D50008FE194E0ABDE4B015C01CE013FDF8823E5
:100D600009F46AC080E090E0DC01EC85FD854581F6
:100D700056816781708584179507A607B70720F00D
:100D8000C12CD12C760125C02CEA2A95F1F7000060
:100D90000196A11DB11DE9CF8FE194E087DEDC0152
:100DA000CB0188199909AA09BB0980399140A1058D
:100DB000B10500F58FEF9FE80197F1F700C0000043
:100DC0008FE194E073DE6B017C01C818D908EA0852
:100DD000FB08EE85FF854289538964897589EC8516
:100DE000FD8585819681A781B085481759076A07D7
:100DF0007B0790F290E9C91691E0D906E104F1046D
:100E000038F4CE0173DE8823B9F081E08EA314C0DC
:100E1000EE85FF8510821182128213821482158260
:100E200016821782128A138A148A158AEC85FD8528
:100E30008EEF9FEF92878187DF91CF91FF90EF90A8
:100E4000DF90CF90BF90AF909F908F9008950F93B9
:100E50001F93CF93DF93EC0108AD19AD2AAD3BADE5
:100E60008AA99BA9ACA9BDA9081719072A073B079E
:100E700099F3CE01869688DAEA81FB81208181E0B0
:100E800090E00E8402C0880F991F0A94E2F7822B2B
:100E90008083DF91CF911F910F910895CF93DF93BE
:100EA000EC019A01AB0160E070E18EE090E00E94FD
:100EB000051CBA01A901415051096109710957FF87
:100EC0000EC0E881F98181E090E00F8402C0880FB4
:100ED000991F0A94E2F780835F7766277727E88572
:100EE000F985BB27A72F962F852F8083EA85FB8561
:100EF0004083EA81FB818C858083EC81FD818D8537
:100F00008083DF91CF9108952F923F924F925F920D
:100F10006F927F928F929F92AF92BF92CF92DF9209
:100F2000EF92FF920F931F93CF93DF9300D01F9206
:100F3000CDB7DEB73C01698319012A0140969B8336
:100F40008A83F301108A118A128A138A148A158AF5
:100F5000168A178A82E3838FC48ED58EE68EF78E2B
:100F600012A213A214A215A282E390E00E940A1D0D
:100F7000F301918F808F848D958DA68DB78D0E9402
:100F80000A1DF30191A380A3128E6301F6E2CF0E36
:100F9000D11CF30116A217A210A611A612A613A621
:100FA00014A615A682E381AB82AA93AAA4AAB5AA25
:100FB00010AE11AE12AE13AE82E390E00E940A1D95
:100FC000F30197A786A782A993A9A4A9B5A90E940E
:100FD0000A1DF30197AB86AB10AA15AF04AFF981D8
:100FE000F1112CC08BE290E0F301918380838AE2BF
:100FF00090E09383828385E990E0958384838CE2FB
:1010000090E09783868380E990E09187808789E2EA
:1010100090E09387828785E0868781E0878788E9EB
:10102000848786E085878A819B8190935003809393
:101030004F03D0924E03C0924D032EC09981913040
:1010400059F58BE990E0F301918380838AE990E080
:10105000938382838DE990E0958384838CE990E08B
:101060009783868388E990E09187808789E990E07B
:101070009387828785E086878981878788E9848747
:1010800086E08587EA81FB81F0934C03E0934B0374
:10109000D0924A03C0924903B201A101C3010F904B
:1010A0000F900F90DF91CF911F910F91FF90EF90D4
:1010B000DF90CF90BF90AF909F908F907F906F9078
:1010C0005F904F903F902F90E9CE1F920F920FB6F6
:1010D0000F9211240BB60F922F933F934F935F9370
:1010E0006F937F938F939F93AF93BF93EF93FF93F0
:1010F0008BB16CB180914F039091500345D9FF9112
:10110000EF91BF91AF919F918F917F916F915F917F
:101110004F913F912F910F900BBE0F900FBE0F90EC
:101120001F9018951F920F920FB60F9211240BB6B5
:101130000F921F932F933F934F935F936F937F93E0
:101140008F939F93AF93BF93CF93DF93EF93FF93CF
:10115000C0914D03D0914E038A899B89AC89BD898A
:10116000892B8A2B8B2BB1F18A899B89AC89BD890C
:10117000892B8A2B8B2B59F188819981AA81BB817C
:1011800028893989F901E80FF91F10818A899B891B
:10119000AC89BD890197A109B1098A8B9B8BAC8B66
:1011A000BD8B88819981AA81BB812C853D854E8527
:1011B0005F85BC01CD016F5F7F4F8F4F9F4F0E94B6
:1011C000051C688379838A839B83812F01C080E01B
:1011D0008CB901C05598FF91EF91DF91CF91BF91EC
:1011E000AF919F918F917F916F915F914F913F91BF
:1011F0002F911F910F900BBE0F900FBE0F901F905D
:1012000018951F920F920FB60F9211240BB60F92E2
:101210002F933F934F935F936F937F938F939F93FE
:10122000AF93BF93EF93FF93CF93DF931F92CDB70D
:10123000DEB780919C008983698180914B039091F6
:101240004C03A2D80F90DF91CF91FF91EF91BF9106
:10125000AF919F918F917F916F915F914F913F914E
:101260002F910F900BBE0F900FBE0F901F901895EF
:101270001F920F920FB60F9211240BB60F921F936D
:101280002F933F934F935F936F937F938F939F938E
:10129000AF93BF93CF93DF93EF93FF93C091490335
:1012A000D0914A038A899B89AC89BD89892B8A2B75
:1012B0008B2BB9F18A899B89AC89BD89892B8A2BB3
:1012C0008B2B59F188819981AA81BB812889398921
:1012D000F901E80FF91F10818A899B89AC89BD89C2
:1012E0000197A109B1098A8B9B8BAC8BBD8B88813F
:1012F0009981AA81BB812C853D854E855F85BC0186
:10130000CD016F5F7F4F8F4F9F4F0E94051C6883F9
:1013100079838A839B83812F01C080E080939C0026
:1013200015C080919A008F7D80939A00E0914903C7
:10133000F0914A0310821182128213821482158264
:1013400016821782128A138A148A158AFF91EF91E6
:10135000DF91CF91BF91AF919F918F917F916F91CD
:101360005F914F913F912F911F910F900BBE0F9066
:101370000FBE0F901F90189508951F920F920FB6F1
:101380000F9211240BB60F922F933F934F935F93BD
:101390006F937F938F939F93AF93BF93EF93FF933D
:1013A000E0911301F0911401099520915F033091B0
:1013B00060032115310531F08CB59DB5820F931F67
:1013C0009BBD8ABDFF91EF91BF91AF919F918F918E
:1013D0007F916F915F914F913F912F910F900BBE35
:1013E0000F900FBE0F901F9018951F920F920FB67F
:1013F0000F9211240BB60F922F933F934F935F934D
:101400006F937F938F939F93AF93BF93EF93FF93CC
:10141000E0911101F0911201099520915D03309145
:101420005E032115310531F08CB59DB5820F931FF8
:1014300099BD88BDFF91EF91BF91AF919F918F9121
:101440007F916F915F914F913F912F910F900BBEC4
:101450000F900FBE0F901F9018951F920F920FB60E
:101460000F9211240BB60F922F933F934F935F93DC
:101470006F937F938F939F93AF93BF93EF93FF935C
:10148000E0910F01F0911001099520915B033091DB
:101490005C032115310541F08CB59DB5820F931F7A
:1014A0009093790080937800FF91EF91BF91AF9175
:1014B0009F918F917F916F915F914F913F912F916C
:1014C0000F900BBE0F900FBE0F901F9018951F929C
:1014D0000F920FB60F9211248F939F93AF93BF93E8
:1014E0008091610390916203A0916303B0916403C2
:1014F0000196A11DB11D8093610390936203A09397
:101500006303B0936403BF91AF919F918F910F904C
:101510000FBE0F901F9018951F920F920FB60F924B
:1015200011240BB60F922F933F934F935F936F93BA
:101530007F938F939F93AF93BF93EF93FF93E0912C
:101540000D01F0910E01099520915503309156033C
:101550002115310551F08091880090918900820F0A
:10156000931F9093870080938600FF91EF91BF9126
:10157000AF919F918F917F916F915F914F913F912B
:101580002F910F900BBE0F900FBE0F901F901895CC
:101590001F920F920FB60F9211240BB60F922F933A
:1015A0003F934F935F936F937F938F939F93AF93EB
:1015B000BF93EF93FF93E0910B01F0910C0109951C
:1015C00020915303309154032115310551F080913E
:1015D000880090918900820F931F909385008093DB
:1015E0008400FF91EF91BF91AF919F918F917F9177
:1015F0006F915F914F913F912F910F900BBE0F9084
:101600000FBE0F901F9018951F920F920FB60F925A
:1016100011240BB60F922F933F934F935F936F93C9
:101620007F938F939F93AF93BF93EF93FF93E0913B
:101630000901F0910A01099520915103309152035B
:101640002115310551F08091880090918900820F19
:10165000931F9093830080938200FF91EF91BF913D
:10166000AF919F918F917F916F915F914F913F913A
:101670002F910F900BBE0F900FBE0F901F901895DB
:101680001F920F920FB60F9211248F939F93AF93D7
:10169000BF938091570390915803A0915903B09143
:1016A0005A030196A11DB11D8093570390935803CF
:1016B000A0935903B0935A03BF91AF919F918F911B
:1016C0000F900FBE0F901F901895FC01A089B18953
:1016D0002D933C93A681B78111965C934E937093A2
:1016E00014016093130106A4F7A5E02D80818061A9
:1016F00080830895FC01A289B3892D933C93A08532
:10170000B18511965C934E93709312016093110111
:1017100006A4F7A5E02D80818860808308954F920C
:101720005F926F927F928F929F92AF92BF92CF9271
:10173000DF92EF92FF920F931F93CF93DF938A0173
:1017400028EE33E040E050E00E943A1C29013A01C3
:101750004B01D82FC92F980140E050E060E070E0C5
:1017600081EE90E00E94051C89019A0158016901EF
:10177000E12CF12C00E010E09201A301B4018D2FC7
:101780009C2F0E94631CB901CA01DF91CF911F9168
:101790000F91FF90EF90DF90CF90BF90AF909F9010
:1017A0008F907F906F905F904F9008954F925F92CF
:1017B0006F927F928F929F92AF92BF92CF92DF9261
:1017C000EF92FF920F931F938B01BC0180E090E09A
:1017D00029E939E340E050E00E943A1C5801C12C4D
:1017E000D12CE12CF12C00E010E00E94631C2901B7
:1017F0003A014114510481E06806710450F02FE36E
:1018000031E045ED50E063E571E080E791E00E9452
:10181000D61CC2011F910F91FF90EF90DF90CF90E7
:10182000BF90AF909F908F907F906F905F904F9000
:101830000895CF93DF93CDB7DEB760970FB6F894D6
:10184000DEBF0FBECDBF1A82198281E090E09C837B
:101850008B8388E090E09E838D8380E490E098877E
:101860008F8380E091E09A87898780E094E09C876D
:101870008B871E861D86188A1F86FE01E60FF11DC6
:10188000E60FF11D8181928160960FB6F894DEBF5C
:101890000FBECDBFDF91CF910895CF93DF93EC01C1
:1018A0008FE490E0998388838EE490E09B838A8321
:1018B0008AE790E09D838C838AE490E09F838E8307
:1018C00088E490E09987888788E790E09B878A87FB
:1018D00086E490E09D878C878CE490E09F878E87DC
:1018E0008FE593E0998B888B8DE593E09B8B8A8BBA
:1018F0008BE593E09D8B8C8B86E590E09F8B8E8BA8
:101900008CE790E0998F888F81E693E09B8F8A8F98
:101910001E8E1F8E18A219A21AA21BA21CA21DA203
:101920001EA21FA218A619A61AA61BA61CA61DA6B3
:1019300087E590E09FA78EA78EB560FB80F98EBDEE
:10194000EA81FB8161FB992790F9808190FB81F905
:101950008083EA81FB8162FB992790F9808190FB6B
:1019600082F98083E881F981808140FB80F980835E
:10197000E881F98141FB992790F9808190FB81F9F9
:101980008083EA81FB8142FB992790F9808190FB5B
:1019900083F98083EA81FB8143FB442740F98081FE
:1019A00040FB84F98083CE0144DF9D8F8C8FEEA5B0
:1019B000FFA5808184608083DF91CF910895CF93CC
:1019C000DF93EC018BE890E099838883EAE8F0E00C
:1019D000FB83EA838CE890E09D838C8386E890E02B
:1019E0009F838E8384E890E09987888782E890E0DF
:1019F0009B878A8780E890E09D878C8788E890E0C5
:101A00009F878E8785E593E0998B888B83E593E0AC
:101A10009B8B8A8B81E593E09D8B8C8B86E590E098
:101A20009F8B8E8B8CE790E0998F888F87E593E072
:101A30009B8F8A8F1E8E1F8E18A219A21AA21BA21C
:101A40001CA21DA21EA21FA218A619A61AA61BA69A
:101A50001CA61DA68DE790E09FA78EA7808160FB46
:101A600080F98083EA81FB8161FB992790F980816D
:101A700090FB81F98083EA81FB8162FB992790F9D1
:101A8000808190FB82F98083E881F981808140FB2D
:101A900080F98083E881F98141FB992790F9808161
:101AA00090FB81F98083EA81FB8142FB992790F9C1
:101AB000808190FB83F98083EA81FB8143FB44278B
:101AC00040F9808140FB84F98083CE01B2DE9D8F96
:101AD0008C8FEEA5FFA5808184608083DF91CF91FC
:101AE0000895FC01108211821282138214821582E1
:101AF00016821782128A138A148A158A0895CF9241
:101B0000DF92EF92FF920F931F93CF93DF938C019D
:101B10006A017B01E901C114D104E104F10499F0E7
:101B2000F80182899389A489B589892B8A2B8B2B0B
:101B300051F0C8010E941A058993F1E0CF1AD1082B
:101B4000E108F108E8CFDF91CF911F910F91FF904D
:101B5000EF90DF90CF900895CF93DF93EC017887DB
:101B60006F835A8749873C872B8781E08D878EE872
:101B700090EEA1E0B0E0ABBFFC01879190E09E83C6
:101B80008D8388E18A8380E390E00E940A1DFC0136
:101B90009C838B838DE392E0918380838BE292E040
:101BA0009383828386E292E0958384838BED91E038
:101BB0009783868386EE91E09187808782EC91E01F
:101BC0009387828789EB91E0958784878DE192E006
:101BD0009787868784E192E0918B808B8BE092E0FF
:101BE000938B828B82E092E0958B848B88EF91E0DF
:101BF000978B868B8DEC91E0918F808F89E391E0BC
:101C0000938F828F80E391E0958F848F8AEA91E0B1
:101C1000978F868F87E991E091A380A38FE891E069
:101C200093A382A38EE591E095A384A384E591E03C
:101C300097A386A383E891E091A780A785E392E02C
:101C400093A782A787E791E095A784A78AE691E00A
:101C500097A786A719821882DF91CF910895CF9216
:101C6000DF92EF92FF920F931F93CF93DF93CDB745
:101C7000DEB7AB970FB6F894DEBF0FBECDBF7C01C9
:101C800086E0E9E3F1E0DE01969601900D928A95F7
:101C9000E1F7D7011996ED91FC911A9784818E0195
:101CA0000F5F1F4FF801E80FF11DE80FF11DD5A0E0
:101CB000C6A0DB011C96ED91FC911D9743815481D8
:101CC00060E070E0C8010E943D03CF92DF921F9355
:101CD0000F930E94E104C8010E940904B801F701B2
:101CE00081859285D9D2F82EE92E065E1F4F40E0FD
:101CF00050E060E070E0C8010E943D03EF92FF9267
:101D000087E891E09F938F931F930F930E947A042B
:101D1000C8010E9409040FB6F894DEBF0FBECDBF04
:101D2000AB960FB6F894DEBF0FBECDBFDF91CF915B
:101D30001F910F91FF90EF90DF90CF9008958F92B9
:101D40009F92AF92BF92EF92FF920F931F93CF9308
:101D5000DF93CDB7DEB7A5970FB6F894DEBF0FBE01
:101D6000CDBFFB01A485B5851196ED91FC9112972D
:101D70003197E331F10508F0ECC17B018C01EA5B9E
:101D8000FF4F0C94271CDC011B96ED91FC911C97D6
:101D9000868197810E9456054B015C01B701F801CD
:101DA000838594857ED6D8011B96ED91FC911C9776
:101DB000868197810E945605D8011B96ED91FC9172
:101DC0001C970285138524853585DC01CB01800FA6
:101DD000911FA21FB31F88199909AA09BB098287FD
:101DE0009387A487B587B5C1DC0117968D919C9127
:101DF000189740960E941A05682FC7010E94A21BDF
:101E0000A8C1FC018781908540960E941A05482F41
:101E1000B701D8011B968D919C911C975BD7F80157
:101E20008781908540965DDE94C188EA87BB14BAAD
:101E30001ABA109261001092620015BA1BBA80E6BD
:101E400088BB87C113964D915C9114977E01FBE18D
:101E5000EF0EF11C60E070E0C7010E943D03D80165
:101E600019968D919C911A97E6D380E591E09F9306
:101E70008F93FF92EF920E94E1048E010F5F1F4F3C
:101E8000C8010E944C0383E991E09F938F931F93B5
:101E90000F930E947A04C8010E94090443C0CB0139
:101EA0000E94A21AD80117968D919C911897BACFCB
:101EB00013964D915C91149763E070E0FE013196AA
:101EC0007F01CF010E943D036DEC70E0C7010E94CD
:101ED000840362EB70E0C7010E9484036EEB70E044
:101EE000C7010E9484038FE194E00E9456059F93EE
:101EF0008F937F936F9380E291E09F938F93FF92F4
:101F0000EF920E94AF04D80111968C9111978F9394
:101F10008C918F938AE091E09F938F93FF92EF9241
:101F20000E94AF04C7010E9409040FB6F894DEBFF7
:101F30000FBECDBF0EC140E050E060E070E09E01FA
:101F40002F5F3F4F7901C9010E943D0362EA71E0B2
:101F5000C7010E946203D8011B96ED91FC911C976A
:101F600081898F9380898F9381EB91E09F938F93E9
:101F7000FF92EF920E944504D8011B96ED91FC91CF
:101F80001C9787858F9386858F9385EC91E09F932F
:101F90008F93FF92EF920E944504D8011B96ED911A
:101FA000FC911C9717861686118A108ABBCF139650
:101FB0004D915C91149760E070E0CE0101960E9413
:101FC0003D036AED71E0CE0101960E943504CE0119
:101FD00001960E94090461E0D80115968D919C91AB
:101FE00016970E94752198E088E10FB6F894A8959D
:101FF00081BD0FBE91BDFFCF13964D915C9114979B
:1020000063E070E0FE0131967F01CF010E943D0345
:1020100085EF90E09F938F93FF92EF920E94E104EF
:10202000C7010E94090460E0D80115968D919C912A
:1020300016970E9475210F900F900F900F9089C0F6
:1020400013964D915C91149760E070E0CE0101967B
:102050000E943D0365EE71E0CE0101960E943504B9
:10206000CE0101960E94090498E088E10FB6F89429
:10207000A89581BD0FBE91BDFFCF60E0FC018185B9
:102080009285C0D260E00DC061E0FC01818592853F
:10209000B9D261E006C062E0FC0181859285B2D2CE
:1020A00062E0D80119968D919C911A97F1D0B701F1
:1020B000C801D5DD4EC015964D915D916D917C9115
:1020C0001897FC01878190859E012F5F3F4F490142
:1020D000409615DDD7011C96ED91FC911D978581E9
:1020E0009681A781B0858A319105A105B10528F4B3
:1020F000F401E80FF91F108201C01A8EB401F80133
:1021000081859285DDD0D7011C96ED91FC911D97BC
:10211000438154815E01BBE1AB0EB11C63E070E012
:10212000C5010E943D039F928F9289EE91E09F939B
:102130008F93BF92AF920E947A04C5010E94090456
:10214000B701C8018CDD0F900F900F900F900F908A
:102150000F9081E0A5960FB6F894DEBF0FBECDBFFD
:10216000DF91CF911F910F91FF90EF90BF90AF90B3
:102170009F908F9008950F931F93CF93DF93CDB7C8
:10218000DEB72B970FB6F894DEBF0FBECDBF8B0125
:10219000DB011C96ED91FC911D97218132812E3F30
:1021A000BFEF3B07D1F02F3F3F4FA1F5DC01179662
:1021B0008D919C911897409694DCD8011C96ED91D6
:1021C000FC911D974381548161817281CE010196FA
:1021D0000E943D036CE471E014C0FC01878190858E
:1021E00040967FDCD8011C96ED91FC911D974381B0
:1021F000548161817281CE0101960E943D0368E4A1
:1022000071E0CE0101960E943D04CE0101960E942C
:10221000090401C094DD2B960FB6F894DEBF0FBE03
:10222000CDBFDF91CF911F910F910895FC01718374
:1022300060830895FC012285211104C08089918961
:102240000C94A21D0895CF93DF93EC0128837A8329
:1022500069838FE78B835F834E831986188682E0BC
:1022600090E00E9464218C8381E090E00E946421D0
:102270008D8388EA87BB14BA1ABA10926100109253
:10228000620015BA1BBA80E688BBDF91CF91089532
:1022900082E090E00C947521CF93DF93EB01FC0179
:1022A0006481FCE16F9FB00111246D5F7F4F4AE1B3
:1022B00050E0CE010E945421CE01DF91CF910895CC
:1022C000EF92FF920F931F93CF93DF93CDB7DEB7BB
:1022D0006A970FB6F894DEBF0FBECDBF8C017B01AD
:1022E000BE016F5F7F4FD8DFBE016F5F7F4FC701B9
:1022F0000E94381E892BA9F0B701CE0101960E94D9
:10230000411EF8016481FCE16F9FB00111246D5FF3
:102310007F4F4AE150E0CE0101960E946C2181E09E
:1023200001C080E06A960FB6F894DEBF0FBECDBF45
:10233000DF91CF911F910F91FF90EF900895DC01F5
:102340001696ED91FC91179780819181A281B381BE
:1023500025EC32E00097E1E0AE07B10588F4855C3A
:102360009240FC01E20FF31F4491F901549145138F
:102370001AC02F5F3F4FF2E02D3C3F0791F711C08D
:102380004DEC52E0ABBFFC017791F90164917613FB
:102390000AC00196A11DB11D2F5F3F4F4217530781
:1023A00089F781E0089580E00895CF92DF92EF925F
:1023B000FF920F931F93CF93DF93CDB7DEB72B9789
:1023C0000FB6F894DEBF0FBECDBFDC0118961C928D
:1023D000189788EE87BB8FEF809361008ABB84BB20
:1023E00088EA88BB022F132F9A0140E050E0680171
:1023F0007901C60ED71EE11CF11C98E00C151D05D5
:102400002E053F0558F50115110561E02607310538
:1024100078F4F80164916093620055BB4BBB98BBA4
:1024200088BB0F5F1F4F2F4F3F4F4F5F5F4FE6CF70
:1024300098E088EA2BBFF80167916093620055BB72
:102440004BBB98BB88BB0F5F1F4F2F4F3F4F4F5F5A
:102450005F4F0C151D052E053F0560F38C918823F9
:1024600009F469C019968C911997811164C08D0186
:1024700040E050E063E070E0CE0101967C010E94F4
:102480003D031F921F9286EA92E09F938F93FF92E3
:10249000EF920E947A04C7010E940904C8014FDF2D
:1024A0000F900F900F900F900F900F90882309F4CA
:1024B00042C090E078E068EA492F50E02091150191
:1024C0003091160142175307A8F4FA01EA5BFD4F59
:1024D000E491E093620020911B0130911C01240FD4
:1024E000351F35BB80911B01890F8BBB78BB68BB47
:1024F0009F5FE2CF80911C01809362008091180160
:1025000085BB809117018BBB38E038BB28EA28BB1C
:1025100080911B01809362008091170190911801B6
:10252000019695BB809117018F5F8BBB38BB28BB91
:1025300081E0F801808788EA87BB14BA1ABA109242
:1025400061001092620015BA1BBA80E688BB2B9618
:102550000FB6F894DEBF0FBECDBFDF91CF911F91B4
:102560000F91FF90EF90DF90CF9008950F931F93FE
:10257000CF93DF938C0181E090E00E946421D80129
:1025800015968C9315978823C1F1E0915804F0912A
:1025900059042181C1E0D0E0CE010090570402C06F
:1025A000880F991F0A94E2F7822B81831696ED918A
:1025B000FC911797208131814281538160E070E85E
:1025C000C801F3DEE0915804F09159048181009034
:1025D000570402C0CC0FDD1F0A94E2F7C095C82350
:1025E000C18388EA87BB14BA1ABA109261001092AC
:1025F000620015BA1BBA80E688BBDF91CF911F91AC
:102600000F9108950F931F93FC01A681B78124E0D9
:10261000629FF0011124E35DFE4F00811181228150
:1026200033810D931D932D933C931397FC01648389
:102630001F910F919BCF0F931F93CF93DF9307E5CC
:1026400014E0D8011196ED91FC9112974181C1E0FF
:10265000D0E09E010C9002C0220F331F0A94E2F7D3
:10266000242B2183DC011696ED91FC911797208194
:1026700031814281538160E070E897DED801119684
:10268000ED91FC91129781810C9002C0CC0FDD1F5F
:102690000A94E2F7C095C823C183DF91CF911F91BF
:1026A0000F910895FC018085882309F47DC0E09195
:1026B0005804F0915904218181E090E00090570482
:1026C00002C0880F991F0A94E2F7822B818388EE5B
:1026D00087BB8FEF809361008ABB84BB88EA88BB8D
:1026E0009BE39093620090911C0195BB90911B011C
:1026F0009BBB98E098BB88BB81E078E068EA482FF4
:1027000050E020911501309116014217530788F4CB
:102710001092620020911B0130911C01240F351F83
:1027200035BB90911B01980F9BBB78BB68BB8F5F3B
:10273000E6CF80911A01809362008091180185BBD9
:10274000809117018BBB48E048BB88EA88BB909119
:1027500019019093620020911701309118012F5FA9
:102760003F4F35BB909117019F5F9BBB48BB88BB18
:1027700087BB14BA1ABA109261001092620015BA9F
:102780001BBA80E688BBE0915804F091590421817E
:1027900081E090E00090570402C0880F991F0A94CE
:1027A000E2F780958223818308951F920F920FB6DE
:1027B0000F9211240BB60F922F933F934F935F9379
:1027C0006F937F938F939F93AF93BF93EF93FF93F9
:1027D000E0912B01F0912C010995FF91EF91BF91B0
:1027E000AF919F918F917F916F915F914F913F91A9
:1027F0002F910F900BBE0F900FBE0F901F9018954A
:102800001F920F920FB60F9211240BB60F922F93B7
:102810003F934F935F936F937F938F939F93AF9368
:10282000BF93EF93FF93E0912901F0912A0109955D
:10283000FF91EF91BF91AF919F918F917F916F9198
:102840005F914F913F912F910F900BBE0F900FBE54
:102850000F901F9018951F920F920FB60F92112490
:102860000BB60F922F933F934F935F936F937F938A
:102870008F939F93AF93BF93EF93FF93E0912701C3
:10288000F09128010995FF91EF91BF91AF919F9130
:102890008F917F916F915F914F913F912F910F9009
:1028A0000BBE0F900FBE0F901F9018951F920F92A6
:1028B0000FB60F9211240BB60F922F933F934F93A5
:1028C0005F936F937F938F939F93AF93BF93EF9398
:1028D000FF93E0912501F09126010995FF91EF9179
:1028E000BF91AF919F918F917F916F915F914F9128
:1028F0003F912F910F900BBE0F900FBE0F901F9026
:1029000018951F920F920FB60F9211240BB60F92CB
:102910002F933F934F935F936F937F938F939F93E7
:10292000AF93BF93EF93FF93E0912301F0912401C4
:102930000995FF91EF91BF91AF919F918F917F91F9
:102940006F915F914F913F912F910F900BBE0F9020
:102950000FBE0F901F9018951F920F920FB60F92F7
:1029600011240BB60F922F933F934F935F936F9366
:102970007F938F939F93AF93BF93EF93FF93E091D8
:102980002101F09122010995FF91EF91BF91AF9143
:102990009F918F917F916F915F914F913F912F9177
:1029A0000F900BBE0F900FBE0F901F9018951F92A7
:1029B0000F920FB60F9211240BB60F922F933F93E5
:1029C0004F935F936F937F938F939F93AF93BF9337
:1029D000EF93FF93E0911F01F09120010995FF9182
:1029E000EF91BF91AF919F918F917F916F915F9187
:1029F0004F913F912F910F900BBE0F900FBE0F90F4
:102A00001F9018951F920F920FB60F9211240BB6BC
:102A10000F922F933F934F935F936F937F938F9377
:102A20009F93AF93BF93EF93FF93E0911D01F091BC
:102A30001E010995FF91EF91BF91AF919F918F91E9
:102A40007F916F915F914F913F912F910F900BBEAE
:102A50000F900FBE0F901F9018950F931F93DA01E0
:102A6000B3958B019C01011580E118072105310503
:102A700018F4F801849103C02BBFF8018791FA0183
:102A80009191AF01891309C00F5F1F4F2F4F3F4F27
:102A9000EA17FB0741F780E001C081E01F910F9129
:102AA00008952F923F924F925F926F927F928F92F2
:102AB0009F92AF92BF92CF92DF92EF92FF920F93CD
:102AC0001F93CF93DF93CDB7DEB72C970FB6F89453
:102AD000DEBF0FBECDBF8C016B01DC011496ED9102
:102AE000FC91159740A151A18091080190E0FA0155
:102AF000E80FF91F20812031C8F0DB011C96ED9111
:102B0000FC911D974381548161E070E0CE010196F4
:102B10000E943D036EEC72E0CE0101960E943D04DE
:102B2000CE0101960E94090480E0ABC0822E912C58
:102B3000982C8824990C990C990C092C000CAA0843
:102B4000BB087C01BFEFEB1AFB0AE40EF51E412C1B
:102B5000512C32011C8622242394312CF8018081CF
:102B60009181A281B381880D991DAA1DBB1DBC0155
:102B7000CD01640D751D861D971DA7016EDF88238D
:102B800039F1F801A085B1851196ED91FC9112976C
:102B90002181C1010C9002C0880F991F0A94E2F7AD
:102BA00082278183F80180819181A281B381880D80
:102BB000991DAA1DBB1DBC01CD01640D751D861D8F
:102BC000971D0288F389E02DA7010995F1E0FC87A4
:102BD0002FEF521A620A720AF3944114A8E05A06BF
:102BE0006104710409F0BACFF801A085B18511968E
:102BF000ED91FC911297218181E090E00C9002C050
:102C0000880F991F0A94E2F7809582238183FC85BF
:102C1000FF2351F0D80150968D919C9151970196C8
:102C200051969C938E935097F801868597850196CF
:102C3000978786870480F581E02D108A118A128A91
:102C4000138A148A158A168A178A12A213A214A24A
:102C500015A2D6011C96ED91FC911D9743815481DC
:102C600060E070E0CE0101960E943D0362ED72E0EB
:102C7000CE0101960E943D04CE0101960E940904F6
:102C800081E02C960FB6F894DEBF0FBECDBFDF916A
:102C9000CF911F910F91FF90EF90DF90CF90BF9059
:102CA000AF909F908F907F906F905F904F903F90EC
:102CB0002F90089524E0629FF0011124E35DFE4F00
:102CC0004081518162817381FC0140835183628321
:102CD000738308958F929F92AF92BF92CF92DF92AB
:102CE000EF92FF920F931F93CF93DF93CDB7DEB791
:102CF0002B970FB6F894DEBF0FBECDBF8C01F42E1C
:102D0000DB011C96ED91FC911D974381548160E09D
:102D100070E0CE0101960E943D03BFE0BF1540F474
:102D200098E088E10FB6F894A89581BD0FBE91BDDB
:102D30004F2D50E0542F4427550F550F550F4A0182
:102D4000E8EF9E1A052E000C660B770BD801CD908C
:102D5000DD90ED90FC90C40ED51EE61EF71EA12C52
:102D6000B12CF80180819181A281B381880D991DD8
:102D7000AA1DBB1DC816D906EA06FB06B0F4C1148D
:102D8000F0E1DF06E104F10418F4F601649103C0F8
:102D9000EBBEF6016791CE0101960E94AC03FFEFF6
:102DA000CF1ADF0AEF0AFF0ADCCFCE0101960E949C
:102DB00009042B960FB6F894DEBF0FBECDBFDF918E
:102DC000CF911F910F91FF90EF90DF90CF90BF9028
:102DD000AF909F908F900895E0915F04F091600410
:102DE00080E090E0309749F0029620813181820F97
:102DF000931F0280F381E02DF5CF08950F931F9369
:102E0000CF93DF9300D0CDB7DEB780915D04909172
:102E10005E048E010F5F1F4F009729F40756144080
:102E20001A83098309C0081B190B1A830983D4DF8D
:102E3000800F911F9A83898389819A810F900F90C7
:102E4000DF91CF911F910F910895CF93DF93AAE562
:102E5000B4E01196ED91FC911297218181E090E010
:102E60000C9002C0880F991F0A94E2F78095822384
:102E70008183EFE1F4E0A685B785CD91DC91648D87
:102E8000758D88EE93E00E94D60BAC014C0F5D1F50
:102E900020E030E06DE877E18FE194E0DF91CF91C1
:102EA0000C94650BABDF9C0160915104709152044E
:102EB0006115710559F0E0E1F7E2CF0192D4CF013D
:102EC00090D484E690E0861B970B02C084E690E0E5
:102ED00040915304509154044817590720F490939B
:102EE00054048093530480914F04909150048217AE
:102EF000930720F43093500420934F04109252040F
:102F0000109251040895682F8091550490915604B1
:102F10000E94270780E090E00895CF93DF93AAE511
:102F2000B4E01196ED91FC911297218181E090E03F
:102F30000C9002C0880F991F0A94E2F7822B8183BC
:102F4000EFE1F4E0A685B785CD91DC91648D758DB8
:102F500081E090E00E94D60BAC014C0F5D1F20E099
:102F600030E065E277E18FE194E0DF91CF910C945E
:102F7000650BE1EEF3E083E897E1918780871386A4
:102F8000128682E0838315861486A1E6B4E0139648
:102F9000FC93EE9312971596FC93EE931497089575
:102FA00083EA93E00895CF93DF93CDB7DEB7C057A0
:102FB000D1090FB6F894DEBF0FBECDBFE0912D044E
:102FC000F0912E0480819181E0913904F0913A04CE
:102FD0004081518162817381A0E0B0E080933D0423
:102FE00090933E04A0933F04B09340044093410467
:102FF000509342046093430470934404CE01889636
:103000000E94150282E090E00E94642103EA13E02E
:1030100029961FAF0EAF29972FE134E02B963FAFD3
:103020002EAF2B9727E534E02D963FAF2EAF2D978F
:10303000682FCE018D5B9F4F3DDE8CE890EEA1E0C6
:10304000B0E0ABBFFC018791969167969FAF8EAFC2
:10305000679761961CAE1DAE1EAE1FAE619763965C
:103060001FAE1EAE639765961FAE1EAE659721E03C
:10307000AE014D5B5F4FB801CE018B599F4FE3D836
:10308000CE018B599F4F72DAE0912D04F0912E04FE
:10309000E080F180E0913904F0913A04408151815F
:1030A00062817381E0913B04F0913C048091410482
:1030B00090914204A0914304B09144049A01AB0161
:1030C000281B390B4A0B5B0BAFEFBFEFC9D347018E
:1030D000A12CB12CC0903D04D0903E04E0903F0460
:1030E000F0904004A50194012C193D094E095F0997
:1030F000620F731F841F951FAF010E948F0BE19613
:103100007FAF6EAFE1971093560400935504789407
:1031100030DF60913B0470913C0484EF91E00E94A9
:10312000D60BE0912D04F0912E04408151814C5931
:103130005F4F9C016DE877E18FE194E00E94650BA1
:1031400060913B0470913C0484E690E00E94D60BB1
:10315000E0912D04F0912E04408151814C595F4F34
:103160009C0162E577E18FE194E00E947A0B9E0179
:103170002D5B3F4FAE014B595F4FB801CE01895ACD
:103180009F4F0E94AC0DE1966EAD7FADE197CE01F1
:10319000895A9F4F4BD8CE0181599F4FD3D410925B
:1031A000B3031092B4031092B5031092B6031092B9
:1031B000B7031092B8031092B9031092BA03109299
:1031C000C5031092C6031092C7031092C80340E0D3
:1031D00050E063E070E08E010F5F1F4FC8010E9456
:1031E0003D0365EE72E0C8010E94840366ED72E063
:1031F000C8010E948403C8010E94090488EBE82EDC
:103200008BE0F82EC12C98E1992E2FE0822E3EEA19
:10321000A32E32E0B32E5524539439EBE3163BE052
:10322000F30649F04FEFE41AF40A58EBE5165BE0B9
:10323000F50608F477C08091870390918803A091E8
:103240008903B0918A03892B8A2B8B2B09F0CCC080
:1032500069C08091870390918803A0918903B09100
:103260008A03892B8A2B8B2B09F4C5C080917503A7
:1032700090917603A0917703B09178032091850314
:1032800030918603F901E80FF91FD0808091870300
:1032900090918803A0918903B0918A030197A109B5
:1032A000B1098093870390938803A0938903B09317
:1032B0008A038091750390917603A0917703B09172
:1032C00078032091810330918203409183035091D0
:1032D0008403BC01CD016F5F7F4F8F4F9F4F95D20D
:1032E00060937503709376038093770390937803CC
:1032F0006D2DCE0188960E944602809187039091A1
:103300008803A0918903B0918A03892B8A2B8B2B88
:1033100009F09FCF0FB6F894A89581B5886181BD5B
:1033200011BC0FBE8091510490915204019690936C
:1033300052048093510486E69EE00197F1F7000065
:103340004091C5035091C6036091C7037091C803B3
:103350008091080190E0A0E0B0E0481759076A07A3
:103360007B07A0F063EB73E0C8010E946F068FA19A
:10337000882341F0B801CE01895A9F4F0E94BB10AB
:10338000E12CF12CCE0141960E941A11AE968FAD20
:10339000AE97882309F441CFC1103FCFE0913904A3
:1033A000F0913A0480819181A281B381E0912D0452
:1033B000F0912E0460807180E0913B04F0913C0418
:1033C0009C01AD0144275527AFEFBFEF49D2660DF1
:1033D000771D811D911DAF010E948F0B693E7340C7
:1033E0008105910550F419CF0FB6F894A89591BCBA
:1033F0000FBE81BC82CF60E07CCF2296DFAC2297EB
:103400002396CFAC239740E050E063E070E0C80122
:103410000E943D03CF92DF92BF92AF921F930F9312
:103420000E947A04C8010E9409040F900F900F9027
:103430000F900F900F9023968EAD9FAD2397892B01
:1034400039F4AF965FAEAF97CE018B599F4F2AD913
:10345000CC24C394E2CE8F929F92AF92BF92CF9230
:10346000DF92EF92FF920F931F93EAE5F4E087E07B
:10347000808381E390E0928381838F9AE7E5F4E093
:1034800026E02083928381838E9AEFE4F4E0118218
:103490001082138212821582148240E065E08FE16F
:1034A00094E00E944D0C40E065E08FEE93E00E94B6
:1034B000DF0C80E4882E912CA12CB12C9EE1C92E2A
:1034C00098E0D92EE12CF12C0FE114E020E032EC51
:1034D00041E050E061E083EA93E00E948407812CA0
:1034E000912C540183943AE0C32ED12CE12CF12C81
:1034F00020E835E240E050E060E085E693E00E949D
:1035000084071F910F91FF90EF90DF90CF90BF90B5
:10351000AF909F908F9008958BE893E00E941A11CE
:1035200085E793E00E941A1189EC93E00E941A113A
:1035300083EB93E00C941A1190E000009F5F8917D1
:10354000E0F708953F924F925F926F927F928F9231
:103550009F92AF92BF92CF92DF92EF92FF920F9322
:103560001F93CF93DF93CDB7DEB72E970FB6F894A6
:10357000DEBF0FBECDBF7C01E0915B04F0915C0427
:10358000218181E090E000905A0402C0880F991FC9
:103590000A94E2F7822B8183D7011C96ED91FC916E
:1035A0001D97658176818781908523E030E040E03A
:1035B00050E02BD1622E532E88EE87BB8FEF809385
:1035C00061008ABB84BB88EA88BBC12CD12C4E0128
:1035D000BFE08B0E911C88E0382E98EA492ED70167
:1035E0001C96ED91FC911D97C601A0E0B0E04581CD
:1035F00056816781708584179507A607B70708F07D
:103600005FC0F701068517855E01FCE0AF0EB11CB7
:10361000F80182899389A489B589892B8A2B8B2B00
:1036200009F43FC0F80182899389A489B589892B5F
:103630008A2B8B2BA1F1F80180819181A281B3812A
:1036400020893189F901E80FF91F7080F80182891A
:103650009389A489B5890197A109B109828B938BBC
:10366000A48BB58B80819181A281B381248535851E
:1036700046855785BC01CD016F5F7F4F8F4F9F4FB0
:10368000C4D0D8016D937D938D939C931397872D10
:10369000F50181935F01E815F90519F0B9CF80E0D4
:1036A000F7CF8E85809362008D8585BB8C858BBB23
:1036B00038BA48BA38BA48BAF3E0CF0ED11C8FCF27
:1036C0004381548163E070E08E010F5F1F4FC8019A
:1036D0000E943D035F926F928DEB92E09F938F93D8
:1036E0001F930F930E947A04C8010E94090488EA7C
:1036F00087BB14BA1ABA109261001092620015BA10
:103700001BBA80E688BB0F900F900F900F900F9020
:103710000F9081E02E960FB6F894DEBF0FBECDBF9E
:10372000DF91CF911F910F91FF90EF90DF90CF909D
:10373000BF90AF909F908F907F906F905F904F90D1
:103740003F900895EF92FF920F931F93CF93DF93D3
:10375000CDB7DEB72B970FB6F894DEBF0FBECDBF47
:10376000062FDC011C96ED91FC911D97438154813D
:1037700060E070E0CE0101960E943D0388EC87BBBB
:10378000109261008FEF8ABB84BB88EA88BB10E08F
:10379000102F0027110F110F110F7801B8EFFB1A2E
:1037A0000E151F0568F415BB0BBBC79885E0C4DE7A
:1037B00060B1CE0101960E94AC030F5F1F4FF0CFA6
:1037C000CE0101960E9409042B960FB6F894DEBF35
:1037D0000FBECDBFDF91CF911F910F91FF90EF9062
:1037E0000895AA1BBB1B51E107C0AA1FBB1FA61748
:1037F000B70710F0A61BB70B881F991F5A95A9F79A
:1038000080959095BC01CD010895A1E21A2EAA1BC6
:10381000BB1BFD010DC0AA1FBB1FEE1FFF1FA21780
:10382000B307E407F50720F0A21BB30BE40BF50B7D
:10383000661F771F881F991F1A9469F76095709506
:10384000809590959B01AC01BD01CF010895EE0FCD
:10385000FF1F0024001C0BBE0790F691E02D099479
:103860008ED0A59F900DB49F900DA49F800D911DAB
:1038700011240895E894DF93CF93FC01DB017FD0FE
:103880007F936F93E9019A01AC01BF93AF933F938C
:103890002F93DF0174D026F46C1B7D0B820B930BEE
:1038A0009E01EB01FC017AD0AF91BF912F913F9126
:1038B00075D0BE01CF01F9012F913F91CF91DF91DA
:1038C0000895689401C0E8948F929F92CF93DF93FC
:1038D00005D0DF91CF919F908F90089588249924EF
:1038E000F401E401B0E49F93AA279A158B049C0489
:1038F000ED05FE05CF05D007A10798F4AD2FDC2F0D
:10390000CF2FFE2FE92D982C892E982F872F762FD9
:10391000652F542F432F322F2227B85031F7BF91F4
:1039200027C01B2EBF91BB27220F331F441F551FDB
:10393000661F771F881F991F881C991CEE1FFF1F89
:10394000CC1FDD1FAA1FBB1F8A149B04EC05FD05BD
:10395000CE05DF05A007B10748F08A189B08EC09DF
:10396000FD09CE09DF09A00BB10B21601A94E1F625
:103970002EF49401AF01BE01CD01000C0895A29F69
:10398000B001B39FC001A39F700D811D1124911D33
:10399000B29F700D811D1124911D0895F0DF460F17
:1039A000571FC81FD91F08F431960895F091660477
:1039B000E09165040097B1F45F934F937F936F9309
:1039C0003F932F9386ED92E09F938F93FF93EF9316
:1039D0005FD18DB79EB70A960FB6F8949EBF0FBE03
:1039E0008DBF17C05F934F937F936F939F938F9378
:1039F0003F932F9381E093E09F938F93FF93EF93F7
:103A000047D18DB79EB70C960FB6F8949EBF0FBEE8
:103A10008DBF21D10F931F93CF93DF9382309105F8
:103A200010F482E090E0E0915F04F091600420E007
:103A300030E0A0E0B0E0309719F14081518102817F
:103A4000138148175907C8F08417950769F4109730
:103A500031F012960C93129713961C9327C0009383
:103A60005F041093600422C02115310519F042173C
:103A7000530718F49A01BD01EF01DF01F801DBCF14
:103A800021153105F9F0281B390B2430310580F45C
:103A90008A819B816115710521F0FB0193838283EB
:103AA00004C09093600480935F04FE01329644C08A
:103AB000FE01E20FF31F8193919322503109398364
:103AC00028833AC020915D0430915E04232B41F499
:103AD000209102013091030130935E0420935D0434
:103AE00020910001309101012115310541F42DB7DC
:103AF0003EB74091040150910501241B350BE09124
:103B00005D04F0915E04E217F307A0F42E1B3F0B57
:103B10002817390778F0AC014E5F5F4F241735073F
:103B200048F04E0F5F1F50935E0440935D048193F5
:103B3000919302C0E0E0F0E0CF01DF91CF911F91BF
:103B40000F910895CF93DF93009709F481C0FC0192
:103B5000329713821282A0915F04B0916004109793
:103B600081F420813181820F931F20915D04309177
:103B70005E042817390751F5F0935E04E0935D0465
:103B800067C0ED0120E030E0CE17DF0740F44A8146
:103B90005B819E0141155105F1F0EA01F5CFD38318
:103BA000C28340815181840F951FC817D90759F4EA
:103BB00088819981840F951F0296918380838A81E1
:103BC0009B81938382832115310529F4F09360044E
:103BD000E0935F043DC0E901FB83EA834991599179
:103BE000C40FD51FEC17FD0761F480819181840F0C
:103BF000951F0296E90199838883828193819B8333
:103C00008A83E0E0F0E012968D919C9113970097E3
:103C100019F0FD01DC01F7CF8D919C9111979D0169
:103C20002E5F3F4F820F931F20915D0430915E0401
:103C30002817390769F4309729F41092600410921C
:103C40005F0402C013821282B0935E04A0935D04ED
:103C5000DF91CF91089581E090E0F89453C3FC0187
:103C600005900020E9F7809590958E0F9F1F08958D
:103C7000FB01DC018D91019080190110D9F3990BA2
:103C80000895FB01DC0101900D920020E1F70895F9
:103C9000CF93DF93CDB7DEB7AE01475F5F4F6F8144
:103CA00078858D819E818FD0DF91CF9108950F937C
:103CB0001F93CF93DF93FB01238121FD03C08FEF7F
:103CC0009FEF2CC022FF16C0468157812481358189
:103CD0004217530744F4A081B1819D012F5F3F4FEC
:103CE000318320838C93268137812F5F3F4F378329
:103CF000268314C08B01EC01FB010084F185E02DCB
:103D00000995892BE1F6D80116968D919C9117970C
:103D1000019617969C938E931697CE01DF91CF91C3
:103D20001F910F9108950F931F93CF93DF93CDB7FA
:103D3000DEB72E970FB6F894DEBF0FBECDBF8C0155
:103D400086E08C831A8309838FEF9FE79E838D83A0
:103D5000CE01019638D0EF81F885E00FF11F108277
:103D60002E960FB6F894DEBF0FBECDBFDF91CF9178
:103D70001F910F9108950F931F93CF93DF93CDB7AA
:103D8000DEB72E970FB6F894DEBF0FBECDBF8C0105
:103D90008EE08C831A8309838FEF9FE79E838D8348
:103DA000CE01019610D0EF81F885E00FF11F10824F
:103DB0002E960FB6F894DEBF0FBECDBFDF91CF9128
:103DC0001F910F9108952F923F924F925F926F92A1
:103DD0007F928F929F92AF92BF92CF92DF92EF929B
:103DE000FF920F931F93CF93DF93CDB7DEB72B973F
:103DF0000FB6F894DEBF0FBECDBF6C017B018A0108
:103E0000FC0117821682838181FFBFC1CE0101961A
:103E10003C01F6019381F70193FD859193FF819118
:103E20007F01882309F4ADC1853239F493FD859172
:103E300093FF81917F01853221F4B60190E037DF55
:103E4000E8CF912C212C312CFFE1F315D8F08B32E7
:103E500079F038F4803279F08332A1F4232D206197
:103E60001DC08D3261F0803369F4232D216016C0AE
:103E7000832D8260382EE32DE4603E2E2AC0F32D80
:103E8000F8601DC037FC2DC020ED280F2A3040F00F
:103E90008E32B9F436FC75C1232D2064322E19C040
:103EA00036FE06C08AE0989E200D1124922E11C085
:103EB000EAE02E9E200D1124222EF32DF0623F2EDB
:103EC00008C08C3621F4832D8068382E02C08836D5
:103ED00041F4F70193FD859193FF81917F01811159
:103EE000B3CF982F9F7D9554933028F40C5F1F4FCC
:103EF0009FE399830DC0833631F0833771F08335AA
:103F000009F055C020C0F801808189830E5F1F4FE2
:103F100088248394912C530112C02801F2E04F0EA3
:103F2000511CF801A080B18036FE03C0692D70E0FD
:103F300002C06FEF7FEFC5014ED14C018201F32D1E
:103F4000FF773F2E15C0280122E0420E511CF801D8
:103F5000A080B18036FE03C0692D70E002C06FEF13
:103F60007FEFC5012DD14C01F32DF0683F2E82016A
:103F700033FC19C0822D90E088169906A0F4B60192
:103F800080E290E094DE2A94F5CFF50137FC85912C
:103F900037FE81915F01B60190E089DE21102A94FD
:103FA00021E0821A91088114910479F7E1C08436E6
:103FB00011F0893639F5F80137FE07C0608171814B
:103FC000828193810C5F1F4F08C060817181072E31
:103FD000000C880B990B0E5F1F4FF32DFF763F2EC1
:103FE00097FF09C090958095709561957F4F8F4F91
:103FF0009F4FF0683F2E2AE030E0A301F7D0882ED3
:10400000861844C0853731F4232D2F7EB22E2AE046
:1040100030E025C0932D997FB92E8F36C1F018F46A
:10402000883579F0AEC0803719F0883721F0A9C003
:10403000E92FE061BE2EB4FE0DC0FB2DF460BF2E53
:1040400009C034FE0AC0292F2660B22E06C028E01F
:1040500030E005C020E130E002C020E132E0F801AC
:10406000B7FE07C060817181828193810C5F1F4F11
:1040700006C06081718180E090E00E5F1F4FA30158
:10408000B5D0882E8618FB2DFF773F2E36FE0DC04B
:10409000232D2E7FA22E891458F434FE0BC032FC3F
:1040A00009C0832D8E7EA82E05C0B82CA32C03C07A
:1040B000B82C01C0B92CA4FE0FC0FE01E80DF11D03
:1040C0008081803321F49A2D997EA92E09C0A2FE09
:1040D00006C0B394B39404C08A2D867809F0B394D3
:1040E000A3FC10C0A0FE06C0B21480F4280C922CD1
:1040F0009B180DC0B21458F4B60180E290E0D7DDF1
:10410000B394F8CFB21418F42B1802C0982C212CB9
:10411000A4FE0FC0B60180E390E0C9DDA2FE16C088
:10412000A1FC03C088E790E002C088E590E0B601FA
:104130000CC08A2D867851F0A1FE02C08BE201C02E
:1041400080E2A7FC8DE2B60190E0B1DD891430F485
:10415000B60180E390E0ABDD9A94F8CF8A94F30146
:10416000E80DF11D8081B60190E0A1DD8110F6CF50
:10417000222009F44ECEB60180E290E098DD2A9428
:10418000F7CFF6018681978102C08FEF9FEF2B96C4
:104190000FB6F894DEBF0FBECDBFDF91CF911F9158
:1041A0000F91FF90EF90DF90CF90BF90AF909F90D6
:1041B0008F907F906F905F904F903F902F900895D9
:1041C000FC010590615070400110D8F780959095E2
:1041D0008E0F9F1F0895FC016150704001900110E7
:1041E000D8F7809590958E0F9F1F0895FA01AA2702
:1041F000283051F1203181F1E8946F936E7F6E5F2A
:104200007F4F8F4F9F4FAF4FB1E03ED0B4E03CD0D7
:10421000670F781F891F9A1FA11D680F791F8A1FBA
:10422000911DA11D6A0F711D811D911DA11D20D021
:1042300009F468943F912AE0269F11243019305DDB
:104240003193DEF6CF010895462F4770405D4193CC
:10425000B3E00FD0C9F7F6CF462F4F70405D4A3319
:1042600018F0495D31FD4052419302D0A9F7EACFE1
:10427000B4E0A6959795879577956795BA95C9F710
:1042800000976105710508959B01AC010A2E069403
:104290005795479537952795BA95C9F7620F731FBC
:1042A000841F951FA01D0895DC01CB01FC01E1993D
:1042B000FECF06C0FFBBEEBBE09A31960DB20D9269
:1042C00041505040B8F70895E199FECF9FBB8EBB97
:1042D000E09A99278DB30895DC01CB0102C02D919E
:1042E00005D041505040D8F70895262FE199FECFD0
:1042F0009FBB8EBB2DBB0FB6F894E29AE19A0FBE1E
:104300000196089511E0CAE7D1E003C0FE019FDAEB
:0C4310002196CB37D107D1F7F894FFCFEE
:10431C00000067042000C00A0CBC09BC09BC09BC25
:10432C0009BC09BC097F00E87F186E4055BC09BC6C
:10433C0009BC09BC09BC09BC09BC09BC090060006A
:10434C000000E00000006001001D0214020B02637B
:10435C0079636C6573203C3D2030786666666655E3
:10436C004C4C002E2E2F61746D3132385F74696D98
:10437C006572732F74696D65725F722E6370700055
:10438C006D735F746F5F6379636C65730025642074
:10439C0025632025640A0062616E6B6E616D653A5F
:1043AC002573005372616D2072656C6F6164656476
:1043BC000A0077726974696E672073746174730A8A
:1043CC00007061636B657473207772697474656EC9
:1043DC002025640A007061636B65747320726563D9
:1043EC0065697665642025640A00626F6F746C6F72
:1043FC00616465720061636B0042616E6B206E617B
:10440C006D65207365743A202573003078256C78BF
:10441C000A0062616E6B2564736574006E616D6574
:10442C005F776561723A25737C25750073657474CA
:10443C00696E67206E616D653A2025730063707537
:10444C003A253035753A253033750A006469676949
:10445C00646961672025640A00656D707479206257
:10446C00616E6B2058006E616D653A2025730A00F1
:10447C00776561723A2025750A0A0054696D656F7B
:10448C00757420666F7220627974657320666F7222
:10449C0020656D756C6174696F6E0A004578706586
:1044AC00637465642025642C207265636569766588
:1044BC00642025640A0068696465202564006469C9
:1044CC0067696672616D65733A2025640053726189
:1044DC006D2075706461746564206F66202564209E
:1044EC00627974657300417373657274696F6E20C1
:1044FC006661696C65643A20282573292C206669ED
:10450C006C652025732C206C696E652025642E0A41
:10451C0000417373657274696F6E206661696C65B6
:10452C00643A20282573292C2066756E6374696F94
:10453C006E2025732C2066696C652025732C206CED
:0A454C00696E652025642E0A000048
:00000001FF
