:100000007BC100000C94ED130C9418140C94431451
:100010000C946E140C9499140C94C4140C94EF1456
:100020000C941A1593C1000091C100008FC100000B
:100030000C94BE090C94F6090C94680A87C1000060
:1000400085C1000083C100000C9466080C949308DD
:100050007DC100007BC1000079C1000077C10000B4
:100060000C942E0A73C100000C948D0A0C94C90ADA
:100070000C94050B0C94410B0C9402090C94390957
:1000800065C1000063C1000061C10000FB0E2C0FC0
:1000900008110811300F7B0F880FB30FB70FFA0F3D
:1000A00036105B1008117F109C10A310AA10B61018
:1000B000BA104E6F762031322032303139000A5674
:1000C000657273696F6E3A52322E312E31000A42D8
:1000D0005420454550524F4D20454D554C41544FAD
:1000E0005220520A436F6D70696C6174696F6E20A3
:1000F000646174653A0064697361626C696E67205B
:10010000626F6F746C6F61646572000A5372616D27
:10011000206C6F6164656420696E202575206D73A5
:10012000000A4F6E54696D653A20256C75206D7319
:1001300000656D756C6174653A007365745F62612A
:100140006E6B5F6E616D653A00647478006E616B12
:100150000061636B00726561645F6279746500734E
:10016000656E6465725F7465737400646967696461
:100170006961675F6F666600646967696469616782
:100180005F6F6E0077726974696E6774696D650080
:1001900076657273696F6E0064697361626C655F26
:1001A000626F6F746C6F616465720072756E5F620E
:1001B0006F6F746C6F61646572006370755F6C6FF4
:1001C00061640065726173655F62616E6B00676593
:1001D000745F62616E6B5F696E666F0062616E6B09
:1001E000735F696E666F0072657365745F62616EDE
:1001F0006B735F73746174730062616E6B696E75AB
:1002000073650062616E6B616464720062616E6B43
:10021000337365740062616E6B3273657400626182
:100220006E6B317365740068656C700068616E6434
:100230007368616B65007278666C757368007265CF
:10024000736574656D750096A3810224022016D62D
:10025000A480021B97A5D6A558CE55BF3A1AEE002A
:1002600018A60097A596A3810027022004C6F5D7FB
:10027000A596A381012702200A86FFD6A4545454D0
:100280001097A596A381092702200BD6A486081BE8
:1002900097A486FF97A396A4812822022004C60073
:1002A000D7A418CEB000D6A5B6B02E2AFBF7B02F33
:1002B0007C00A3CC0350F3B00EFDB0168680B7B01F
:1002C00023181C22803B6469676964696167006F59
:1002D0006F720061636B000A56657273696F6E3AE4
:1002E00052322E312E3100454D55425452200000DD
:1002F000A7011405201A811A11241FBECFEFD0E1E7
:10030000DEBFCDBF12E0A0E0B1E0ECE5F2E400E03A
:100310000BBF02C007900D92A43CB107D9F723E0B0
:10032000A4ECB2E001C01D92A13FB207E1F711E0D9
:10033000CBE7D1E004C02197FE010E94C71BC8375C
:10034000D107C9F70E94EB170C94222159CEECEC8F
:10035000F2E022E330E03183208387E0828380E390
:1003600090E094838383E7ECF2E03183208326E0FE
:1003700022839483838380910601E4ECF2E021E3FD
:1003800030E03183208382830895CF93DF93EC01A3
:100390008C819D81AE81BF8128893989F901E80F5F
:1003A000F91F60838C819D81AE81BF812C853D8545
:1003B0004E855F85BC01CD016F5F7F4F8F4F9F4F93
:1003C0000E94A51B6C837D838E839F834A895B89F2
:1003D0006C897D898C859D85AE85BF8548175907B9
:1003E0006A077B0758F48A899B89AC89BD89019685
:1003F000A11DB11D8A8B9B8BAC8BBD8B4A895B8900
:100400006C897D898C859D85AE85BF854817590788
:100410006A077B0741F48C819D81AE81BF8188830F
:100420009983AA83BB83DF91CF910895CF93DF9304
:10043000EC01188219821A821B821C821D821E8284
:100440001F8282E38B878AE090E0A0E0B0E08C8797
:100450009D87AE87BF871A8A1B8A1C8A1D8A82E302
:1004600090E00E94AA1C998788878C859D85AE851F
:10047000BF850E94AA1C998B888B1A868FEF8E8B62
:100480001F8A188E1A8E198EDF91CF9108959F9230
:10049000AF92BF92CF92DF92EF92FF920F931F9392
:1004A000CF93DF93CDB7DEB765970FB6F894DEBF75
:1004B0000FBECDBF8C01F62E85EF681305C081E01D
:1004C000F801878B65EF21C0F80187898823C1F087
:1004D0008689681719F0FFEF6F1312C081E0F801E9
:1004E000808F178A6F2DC80150DFFFEFFF1621F0B4
:1004F000F8018689815002C08EEFF801868B17C003
:10050000F801808D882321F06F2DC8013EDF0FC0D8
:10051000F8011082118212821382148215821682CF
:100520001782128A138A148A158A108E178AF80184
:1005300082899389A489B5890A97A105B10509F033
:1005400071C0108E178A7E01FCE0EF0EF11C5E0177
:1005500086E1A80EB11CCE2C9F2CF80182899389CC
:10056000A489B589892B8A2B8B2BF1F1F80182891B
:100570009389A489B589892B8A2B8B2B09F450C0C8
:10058000F80180819181A281B38120893189F901AB
:10059000E80FF91FD080F80182899389A489B58971
:1005A0000197A109B109828B938BA48BB58B8081B4
:1005B0009181A281B3812485358546855785BC010B
:1005C000CD016F5F7F4F8F4F9F4F0E94A51BF8019A
:1005D00060837183828393838D2DF70181937F01E3
:1005E000EA15FB0509F0B9CF40E050E064E070E0A7
:1005F000CE01019643D04AE050E06C2D792DCE011A
:10060000019609D1CE01019605D1F801818D928D17
:10061000019619F481E090E0F801928F818F02C079
:1006200080E0DBCF65960FB6F894DEBF0FBECDBF7E
:10063000DF91CF911F910F91FF90EF90DF90CF90BE
:10064000BF90AF909F9008959627092E0294202D79
:100650002F702927692F6025660F607E2627602D61
:100660006927607F6695092E000C661F9695969502
:1006700096959F7196279827822F0895FC018CE309
:10068000808316821582108617828EE381871286F8
:1006900072836183548343830895FC018CE38083D8
:1006A0001482138216821582108617828EE3818748
:1006B000128683E090E09283818308958091D10235
:1006C0009091D202C5C30F931F93CF93DF938C01F8
:1006D000EB0188818823A1F0F8018581968101963C
:1006E00096838583688187819085AEDFF801908746
:1006F000878369918091D1029091D202A9D3E9CFE9
:10070000DF91CF911F910F910895EF92FF921F9368
:10071000CF93DF937C01FB011491EB012196112310
:10072000B1F0F70185819681019696838583612FCB
:100730008781908589DFF70190878783612F80917A
:10074000D1029091D20284D3FE011491E7CFDF91C0
:10075000CF911F91FF90EF9008951F93CF93DF9358
:10076000EC01162F8091D1029091D20271D38D812C
:100770009E8101969E838D83612F8F81988564DF92
:1007800098878F83DF91CF911F910895CF92DF9249
:10079000EF92FF920F931F93CF93DF9300D0CDB7CB
:1007A000DEB71A821982FC012285211128C08C0132
:1007B00081E08287CE2E7F01909107018E2D8C19CA
:1007C000891780F06981C80179DF6A81C8010F90BB
:1007D0000F90DF91CF911F910F91FF90EF90DF90DD
:1007E000CF906CCFF701D1907F016D2DC80166DFEE
:1007F0006D2D89819A8128DF9A838983DDCF0F90BF
:100800000F90DF91CF911F910F91FF90EF90DF90AC
:10081000CF900895BBCFEF92FF920F931F93CF938A
:10082000DF93EC018B017B01E40EF51E0E151F0515
:10083000A9F08D819E8101969E838D83F801608150
:100840008F81988501DF98878F83F80161918F01EF
:100850008091D1029091D202FBD2E8CFCE01DF91FC
:10086000CF911F910F91FF90EF9090CFCF93DF9397
:10087000EC0129DFCE01DF91CF9188CFCF93DF93B9
:10088000EC0143DFCE01DF91CF9180CF0F931F9317
:10089000CF93DF93CDB7DEB7E2970FB6F894DEBF04
:1008A0000FBECDBF6BAD7CADFB0101900020E9F721
:1008B0003197E61BF70BE634F10580F4AE01435C9B
:1008C0005F4FCE0101960E94331E8C01BE016F5F07
:1008D0007F4F89AD9AADF7DEC80102C080E090E09D
:1008E000E2960FB6F894DEBF0FBECDBFDF91CF9179
:1008F0001F910F9108950F931F93CF93DF93CDB75F
:10090000DEB7E2970FB6F894DEBF0FBECDBF6BAD7A
:100910007CADFB0101900020E9F73197E61BF70B56
:10092000E634F10580F4AE01435C5F4FCE010196E1
:100930000E94331E8C01BE016F5F7F4F89AD9AAD5F
:1009400095DFC80102C080E090E0E2960FB6F8940F
:10095000DEBF0FBECDBFDF91CF911F910F910895E4
:100960000F931F93CF93DF93CDB7DEB7E2970FB608
:10097000F894DEBF0FBECDBF8BAD9CAD0E94CF1DE6
:100980008634910590F4AE01435C5F4F6BAD7CAD56
:10099000CE0101960E945B1E8C01BE016F5F7F4FEE
:1009A00089AD9AAD90DEC80102C080E090E0E29689
:1009B0000FB6F894DEBF0FBECDBFDF91CF911F9170
:1009C0000F9108950F931F93CF93DF93CDB7DEB7A9
:1009D000E2970FB6F894DEBF0FBECDBF8BAD9CADD6
:1009E0000E94CF1D8634910590F4AE01435C5F4FA9
:1009F0006BAD7CADCE0101960E945B1E8C01BE01E9
:100A00006F5F7F4F89AD9AAD31DFC80102C080E0D2
:100A100090E0E2960FB6F894DEBF0FBECDBFDF9137
:100A2000CF911F910F9108950E94E8179093D202E1
:100A30008093D10208951F93CF93DF93EC018A89AD
:100A40009B89AC89BD89892B8A2B8B2B59F1888195
:100A50009981AA81BB8128893989F901E80FF91F99
:100A600010818A899B89AC89BD890197A109B10947
:100A70008A8B9B8BAC8BBD8B88819981AA81BB8132
:100A80002C853D854E855F85BC01CD016F5F7F4F15
:100A90008F4F9F4F0E94A51B688379838A839B8316
:100AA000812F01C080E0DF91CF911F910895CF93F6
:100AB000DF93FC01A28DB38D4D915D916D917C9181
:100AC000A685B785CD91DC91048CF58DE02D9A013A
:100AD000AB0144275527AFEFBFEF0E94D01B6C0F2F
:100AE0007D1F811D911DAF01DF91CF9119C6AF927E
:100AF000BF92CF92DF92EF92FF920F931F93CF930B
:100B0000DF93EC01EC85FD85358126819781808519
:100B10008E01005F1F4FEE85FF85428953896489EE
:100B200075894AA35BA36CA37DA340815181628137
:100B30007381488B598B6A8B7B8B4481558166818D
:100B400077814C8B5D8B6E8B7F8BC32ED22EE92EE3
:100B5000F82EA12CB12CC114D104E104F10409F444
:100B600023C0C80168DF95013827032E0294802D29
:100B70008F708327932F9025990F907E8927902D32
:100B80009327907F9695032E000C991F36953695E6
:100B900036953F7139273227282F590181E0C81A2D
:100BA000D108E108F108D7CFEC85FD852185328594
:100BB000A216B30621F08FEF9FEF9283818381E02D
:100BC000A216B30609F080E0DF91CF911F910F913B
:100BD000FF90EF90DF90CF90BF90AF900895CF92AD
:100BE000DF92EF92FF920F931F93CF93DF93DC017D
:100BF0001E96ED91FC911F970289138924893589EE
:100C00004091080150E060E070E0041715072607E6
:100C1000370708F459C0EC018C01005F1F4FEE85C7
:100C2000FF8582899389A489B589892B8A2B8B2B8F
:100C300009F44AC082899389A489B5898AA39BA3B0
:100C4000ACA3BDA380819181A281B381888B998B54
:100C5000AA8BBB8B84819581A681B7818C8B9D8B60
:100C6000AE8BBF8BC801E7DE8E3351F58883D12C64
:100C7000ED2CF12CC09008012C2D30E021503109D1
:100C8000E216F30644F4C801D6DEFE01EE0DFF1DA8
:100C90008183D394EDCF8C3399F40E84DF85C02DFE
:100CA000D12CE12CF12CC114D104E104F10471F038
:100CB000CE01C1DEB1E0CB1AD108E108F108F3CFD3
:100CC0008E859F85B8DEABCF80E001C081E0DF91EB
:100CD000CF911F910F91FF90EF90DF90CF900895EB
:100CE0008F929F92AF92BF92CF92DF92EF92FF923C
:100CF000CF93DF93EC01FB019D878C877F876E8705
:100D000082E38B8F80819181A281B381888B998BC3
:100D1000AA8BBB8B84859585A685B7858C8F9D8F87
:100D2000AE8FBF8F82899389A489B5898AA39BA33B
:100D3000ACA3BDA380859185998F888F8089918987
:100D400099A388A381E08A8F1D821E821F82188644
:100D50001EA289EA93E0ABDE4B015C01CE013FDFCE
:100D6000882309F46AC080E090E0DC01EC85FD8511
:100D7000458156816781708584179507A607B70757
:100D800020F0C12CD12C760125C02CEA2A95F1F750
:100D900000000196A11DB11DE9CF89EA93E087DE2D
:100DA000DC01CB0188199909AA09BB098039914056
:100DB000A105B10500F58FEF9FE80197F1F700C09D
:100DC000000089EA93E073DE6B017C01C818D90842
:100DD000EA08FB08EE85FF85428953896489758995
:100DE000EC85FD8585819681A781B08548175907D7
:100DF0006A077B0790F290E9C91691E0D906E104F1
:100E0000F10438F4CE0173DE8823B9F081E08EA3BB
:100E100014C0EE85FF851082118212821382148223
:100E2000158216821782128A138A148A158AEC8513
:100E3000FD858EEF9FEF92878187DF91CF91FF90A5
:100E4000EF90DF90CF90BF90AF909F908F900895DC
:100E50000F931F93CF93DF93EC0108AD19AD2AAD2B
:100E60003BAD8AA99BA9ACA9BDA9081719072A07F8
:100E70003B0799F3CE01869688DAEA81FB812081CF
:100E800081E090E00E8402C0880F991F0A94E2F777
:100E9000822B8083DF91CF911F910F910895CF9383
:100EA000DF93EC019A01AB0160E070E18EE090E02D
:100EB0000E94A51BBA01A90141505109610971099C
:100EC00057FF0EC0E881F98181E090E00F8402C0F5
:100ED000880F991F0A94E2F780835F776627772748
:100EE000E885F985BB27A72F962F852F8083EA8574
:100EF000FB854083EA81FB818C858083EC81FD81C9
:100F00008D858083DF91CF9108952F923F924F92EC
:100F10005F926F927F928F929F92AF92BF92CF9289
:100F2000DF92EF92FF920F931F93CF93DF9300D046
:100F30001F92CDB7DEB73C01698319012A014096A3
:100F40009B838A83F301108A118A128A138A148A76
:100F5000158A168A178A82E3838FC48ED58EE68E11
:100F6000F78E12A213A214A215A282E390E00E94AF
:100F7000AA1CF301918F808F848D958DA68DB78DDE
:100F80000E94AA1CF30191A380A3128E6301F6E2D2
:100F9000CF0ED11CF30116A217A210A611A612A6FD
:100FA00013A614A615A682E381AB82AA93AAA4AACB
:100FB000B5AA10AE11AE12AE13AE82E390E00E945D
:100FC000AA1CF30197A786A782A993A9A4A9B5A9EA
:100FD0000E94AA1CF30197AB86AB10AA15AF04AF11
:100FE000F981F1112CC08BE290E0F30191838083B1
:100FF0008AE290E09383828385E990E095838483FD
:101000008CE290E09783868380E990E091878087E7
:1010100089E290E09387828785E0868781E08787F1
:1010200088E9848786E085878A819B819093DA02AC
:101030008093D902D092D802C092D7022EC0998153
:10104000913059F58BE990E0F301918380838AE92F
:1010500090E0938382838DE990E0958384838CE98B
:1010600090E09783868388E990E09187808789E97B
:1010700090E09387828785E086878981878788E9E2
:10108000848786E08587EA81FB81F093D602E0932E
:10109000D502D092D402C092D302B201A101C30101
:1010A0000F900F900F90DF91CF911F910F91FF90B4
:1010B000EF90DF90CF90BF90AF909F908F907F90F8
:1010C0006F905F904F903F902F90E9CE1F920F92BC
:1010D0000FB60F9211240BB60F922F933F934F939D
:1010E0005F936F937F938F939F93AF93BF93EF9390
:1010F000FF938BB16CB18091D9029091DA0245D9FE
:10110000FF91EF91BF91AF919F918F917F916F91DF
:101110005F914F913F912F910F900BBE0F900FBE9B
:101120000F901F9018951F920F920FB60F921124D7
:101130000BB60F921F932F933F934F935F936F9331
:101140007F938F939F93AF93BF93CF93DF93EF934F
:10115000FF93C091D702D091D8028A899B89AC892C
:10116000BD89892B8A2B8B2BB1F18A899B89AC890C
:10117000BD89892B8A2B8B2B59F188819981AA8172
:10118000BB8128893989F901E80FF91F10818A8903
:101190009B89AC89BD890197A109B1098A8B9B8B79
:1011A000AC8BBD8B88819981AA81BB812C853D85C3
:1011B0004E855F85BC01CD016F5F7F4F8F4F9F4F85
:1011C0000E94A51B688379838A839B83812F01C03A
:1011D00080E08CB901C05598FF91EF91DF91CF91DC
:1011E000BF91AF919F918F917F916F915F914F913F
:1011F0003F912F911F910F900BBE0F900FBE0F903C
:101200001F9018951F920F920FB60F9211240BB6D4
:101210000F922F933F934F935F936F937F938F938F
:101220009F93AF93BF93EF93FF93CF93DF931F925F
:10123000CDB7DEB780919C00898369818091D5020A
:101240009091D602A2D80F90DF91CF91FF91EF91AC
:10125000BF91AF919F918F917F916F915F914F91CE
:101260003F912F910F900BBE0F900FBE0F901F90CC
:1012700018951F920F920FB60F9211240BB60F9272
:101280001F932F933F934F935F936F937F938F930E
:101290009F93AF93BF93CF93DF93EF93FF93C0914F
:1012A000D302D091D4028A899B89AC89BD89892BCC
:1012B0008A2B8B2BB9F18A899B89AC89BD89892BB3
:1012C0008A2B8B2B59F188819981AA81BB8128892E
:1012D0003989F901E80FF91F10818A899B89AC8946
:1012E000BD890197A109B1098A8B9B8BAC8BBD8B02
:1012F00088819981AA81BB812C853D854E855F853A
:10130000BC01CD016F5F7F4F8F4F9F4F0E94A51B88
:10131000688379838A839B83812F01C080E08093D7
:101320009C0015C080919A008F7D80939A00E09177
:10133000D302F091D402108211821282138214829D
:10134000158216821782128A138A148A158AFF91CF
:10135000EF91DF91CF91BF91AF919F918F917F914D
:101360006F915F914F913F912F911F910F900BBE05
:101370000F900FBE0F901F90189508951F920F9217
:101380000FB60F9211240BB60F922F933F934F93EA
:101390005F936F937F938F939F93AF93BF93EF93DD
:1013A000FF93E0911301F091140109952091E90256
:1013B0003091EA022115310531F08CB59DB5820FCF
:1013C000931F9BBD8ABDFF91EF91BF91AF919F91FC
:1013D0008F917F916F915F914F913F912F910F90DE
:1013E0000BBE0F900FBE0F901F9018951F920F927B
:1013F0000FB60F9211240BB60F922F933F934F937A
:101400005F936F937F938F939F93AF93BF93EF936C
:10141000FF93E0911101F091120109952091E702EB
:101420003091E8022115310531F08CB59DB5820F60
:10143000931F99BD88BDFF91EF91BF91AF919F918F
:101440008F917F916F915F914F913F912F910F906D
:101450000BBE0F900FBE0F901F9018951F920F920A
:101460000FB60F9211240BB60F922F933F934F9309
:101470005F936F937F938F939F93AF93BF93EF93FC
:10148000FF93E0910F01F091100109952091E50281
:101490003091E6022115310541F08CB59DB5820FE2
:1014A000931F9093790080937800FF91EF91BF9103
:1014B000AF919F918F917F916F915F914F913F91EC
:1014C0002F910F900BBE0F900FBE0F901F9018958D
:1014D0001F920F920FB60F9211248F939F93AF9389
:1014E000BF938091EB029091EC02A091ED02B0913C
:1014F000EE020196A11DB11D8093EB029093EC02C8
:10150000A093ED02B093EE02BF91AF919F918F91A6
:101510000F900FBE0F901F9018951F920F920FB64D
:101520000F9211240BB60F922F933F934F935F931B
:101530006F937F938F939F93AF93BF93EF93FF939B
:10154000E0910D01F0910E0109952091DF0230919B
:10155000E0022115310551F08091880090918900B9
:10156000820F931F9093870080938600FF91EF91E5
:10157000BF91AF919F918F917F916F915F914F91AB
:101580003F912F910F900BBE0F900FBE0F901F90A9
:1015900018951F920F920FB60F9211240BB60F924F
:1015A0002F933F934F935F936F937F938F939F936B
:1015B000AF93BF93EF93FF93E0910B01F0910C0178
:1015C00009952091DD023091DE022115310551F09F
:1015D0008091880090918900820F931F90938500DD
:1015E00080938400FF91EF91BF91AF919F918F9174
:1015F0007F916F915F914F913F912F910F900BBE13
:101600000F900FBE0F901F9018951F920F920FB65C
:101610000F9211240BB60F922F933F934F935F932A
:101620006F937F938F939F93AF93BF93EF93FF93AA
:10163000E0910901F0910A0109952091DB023091B6
:10164000DC022115310551F08091880090918900CC
:10165000820F931F9093830080938200FF91EF91FC
:10166000BF91AF919F918F917F916F915F914F91BA
:101670003F912F910F900BBE0F900FBE0F901F90B8
:1016800018951F920F920FB60F9211248F939F936C
:10169000AF93BF938091E1029091E202A091E302A7
:1016A000B091E4020196A11DB11D8093E1029093D7
:1016B000E202A093E302B093E402BF91AF919F9145
:1016C0008F910F900FBE0F901F901895FC01A0896D
:1016D000B1892D933C93A681B78111965C934E936B
:1016E000709314016093130106A4F7A5E02D808187
:1016F000806180830895FC01A289B3892D933C9376
:10170000A085B18511965C934E93709312016093FE
:10171000110106A4F7A5E02D8081886080830895DB
:101720004F925F926F927F928F929F92AF92BF92F1
:10173000CF92DF92EF92FF920F931F93CF93DF939D
:101740008A0128EE33E040E050E00E94DA1B2901D4
:101750003A014B01D82FC92F980140E050E060E0DA
:1017600070E081EE90E00E94A51B89019A0158016A
:101770006901E12CF12C00E010E09201A301B40119
:101780008D2F9C2F0E94031CB901CA01DF91CF91BC
:101790001F910F91FF90EF90DF90CF90BF90AF908F
:1017A0009F908F907F906F905F904F9008954F9291
:1017B0005F926F927F928F929F92AF92BF92CF92E1
:1017C000DF92EF92FF920F931F938B01BC0180E099
:1017D00090E029E939E340E050E00E94DA1B58012B
:1017E000C12CD12CE12CF12C00E010E00E94031C54
:1017F00029013A014114510481E06806710450F056
:101800002DE331E045ED50E061E571E08EE691E0D9
:101810000E94761CC2011F910F91FF90EF90DF9004
:10182000CF90BF90AF909F908F907F906F905F9080
:101830004F900895CF93DF93CDB7DEB760970FB683
:10184000F894DEBF0FBECDBF1A82198281E090E00E
:101850009C838B8388E090E09E838D8380E490E07E
:1018600098878F8380E091E09A87898780E094E071
:101870009C878B871E861D86188A1F86FE01E60FB1
:10188000F11DE60FF11D8181928160960FB6F894EB
:10189000DEBF0FBECDBFDF91CF910895CF93DF9311
:1018A000EC018FE490E0998388838EE490E09B8341
:1018B0008A838AE790E09D838C838AE490E09F830B
:1018C0008E8388E490E09987888788E790E09B87FB
:1018D0008A8786E490E09D878C878CE490E09F87E0
:1018E0008E8789EE92E0998B888B87EE92E09B8BB6
:1018F0008A8B85EE92E09D8B8C8B86E590E09F8BAA
:101900008E8B8CE790E0998F888F8BEE92E09B8F87
:101910008A8F1E8E1F8E18A219A21AA21BA21CA2A9
:101920001DA21EA21FA218A619A61AA61BA61CA6B7
:101930001DA687E590E09FA78EA78EB560FB80F976
:101940008EBDEA81FB8161FB992790F9808190FB34
:1019500081F98083EA81FB8162FB992790F980817C
:1019600090FB82F98083E881F981808140FB80F9D6
:101970008083E881F98141FB992790F9808190FB70
:1019800081F98083EA81FB8142FB992790F980816C
:1019900090FB83F98083EA81FB8143FB442740F974
:1019A000808140FB84F98083CE0144DF9D8F8C8F42
:1019B000EEA5FFA5808184608083DF91CF9108959B
:1019C000CF93DF93EC018BE890E099838883EAE87A
:1019D000F0E0FB83EA838CE890E09D838C8386E8CB
:1019E00090E09F838E8384E890E09987888782E8DF
:1019F00090E09B878A8780E890E09D878C8788E8C5
:101A000090E09F878E878FED92E0998B888B8DED8C
:101A100092E09B8B8A8B8BED92E09D8B8C8B86E585
:101A200090E09F8B8E8B8CE790E0998F888F81EE72
:101A300092E09B8F8A8F1E8E1F8E18A219A21AA267
:101A40001BA21CA21DA21EA21FA218A619A61AA69E
:101A50001BA61CA61DA68DE790E09FA78EA78081E0
:101A600060FB80F98083EA81FB8161FB992790F913
:101A7000808190FB81F98083EA81FB8162FB992759
:101A800090F9808190FB82F98083E881F9818081DF
:101A900040FB80F98083E881F98141FB992790F927
:101AA000808190FB81F98083EA81FB8142FB992749
:101AB00090F9808190FB83F98083EA81FB8143FB6D
:101AC000442740F9808140FB84F98083CE01B2DE57
:101AD0009D8F8C8FEEA5FFA5808184608083DF9130
:101AE000CF910895FC011082118212821382148218
:101AF000158216821782128A138A148A158A08950B
:101B0000AF92BF92CF92DF92EF92FF921F93CF934B
:101B1000DF93EC016A017B015901C114D104E10496
:101B2000F10409F445C08A899B89AC89BD89892B58
:101B30008A2B8B2BE9F18A899B89AC89BD89892BFA
:101B40008A2B8B2B99F188819981AA81BB81288965
:101B50003989F901E80FF91F10818A899B89AC89BD
:101B6000BD890197A109B1098A8B9B8BAC8BBD8B79
:101B700088819981AA81BB812C853D854E855F85B1
:101B8000BC01CD016F5F7F4F8F4F9F4F0E94A51B00
:101B9000688379838A839B83812FF50181935F0119
:101BA000F1E0CF1AD108E108F108B7CF80E0F5CF16
:101BB000DF91CF911F91FF90EF90DF90CF90BF907A
:101BC000AF900895CF93DF93EC0178876F835A87A6
:101BD00049873C872B8781E08D878EE890EEA1E0D6
:101BE000B0E0ABBFFC01879190E09E838D8388E1DC
:101BF0008A8380E390E00E94AA1CFC019C838B8373
:101C00008EE392E0918380838CE292E093838283DF
:101C100087E292E0958384838CED91E097838683BD
:101C200087EE91E09187808783EC91E093878287AC
:101C30008AEB91E0958784878EE192E0978786878B
:101C400085E192E0918B808B8CE092E0938B828B8C
:101C500083E092E0958B848B89EF91E0978B868B64
:101C60008EEC91E0918F808F8AE391E0938F828F49
:101C700081E391E0958F848F8BEA91E0978F868F37
:101C800088E991E091A380A380E991E093A382A3E6
:101C90008FE591E095A384A385E591E097A386A3C2
:101CA00084E891E091A780A786E392E093A782A7BA
:101CB00088E791E095A784A78BE691E097A786A790
:101CC00019821882DF91CF910895CF92DF92EF921F
:101CD000FF920F931F93CF93DF93CDB7DEB7AB97F0
:101CE0000FB6F894DEBF0FBECDBF7C0186E0E7E300
:101CF000F1E0DE01969601900D928A95E1F7D70109
:101D00001996ED91FC911A9784818E010F5F1F4FF8
:101D1000F801E80FF11DE80FF11DD5A0C6A0DB0109
:101D20001C96ED91FC911D974381548160E070E019
:101D3000C8010E943E03CF92DF921F930F930E942F
:101D4000E204C8010E940A04B801F7018185928566
:101D500004D3F82EE92E065E1F4F40E050E060E00D
:101D600070E0C8010E943E03EF92FF9285E891E087
:101D70009F938F931F930F930E947B04C8010E942F
:101D80000A040FB6F894DEBF0FBECDBFAB960FB6F8
:101D9000F894DEBF0FBECDBFDF91CF911F910F91A1
:101DA000FF90EF90DF90CF9008958F929F92AF9227
:101DB000BF92CF92DF92EF92FF920F931F93CF9338
:101DC000DF93CDB7DEB7A5970FB6F894DEBF0FBE91
:101DD000CDBFFB01A485B5851196ED91FC911297BD
:101DE0003197E331F10508F013C27B018C01EA5B06
:101DF000FF4F0C94C71BDC011B96ED91FC911C97C7
:101E0000868197810E9457054B015C01B701F8015B
:101E1000838594855ED6D8011B96ED91FC911C9725
:101E2000868197810E945705D8011B96ED91FC9100
:101E30001C970285138524853585DC01CB01800F35
:101E4000911FA21FB31F88199909AA09BB0982878C
:101E50009387A487B587DCC1FC018781908548C042
:101E6000DC011796CD90DC901897F60182A193A122
:101E7000A4A1B5A1892B8A2B8B2B79F1808991891B
:101E8000A289B38920A131A1F901E80FF91FB0801F
:101E9000F60182A193A1A4A1B5A10197A109B1095D
:101EA00082A393A3A4A3B5A380899189A289B389AE
:101EB000248D358D468D578DBC01CD016F5F7F4FD1
:101EC0008F4F9F4F0E94A51BD60150966D937D9317
:101ED0008D939C9353974B2D01C040E0B701F801BF
:101EE000838594850FD7D80117968D919C9118976B
:101EF0004096F8DD8DC188EA87BB14BA1ABA1092F1
:101F000061001092620015BA1BBA80E688BB80C1DE
:101F100013964D915C9114977E01BBE1EB0EF11C81
:101F200060E070E0C7010E943E03F8018185928560
:101F3000B8D381E591E09F938F93FF92EF920E9437
:101F4000E2048E010F5F1F4FC8010E944D0381E91B
:101F500091E09F938F931F930F930E947B04C8017E
:101F60000E940A043EC0CB010E94911ABCCF139676
:101F70004D915C91149763E070E0FE0131967F0112
:101F8000CF010E943E036EEC70E0C7010E94850302
:101F900062EB70E0C7010E9485036EEB70E0C70141
:101FA0000E94850389EA93E00E9457059F938F93CF
:101FB0007F936F9381E291E09F938F93FF92EF92D3
:101FC0000E94B004D80111968C9111978F938C9137
:101FD0008F938BE091E09F938F93FF92EF920E94FB
:101FE000B004C7010E940A040FB6F894DEBF0FBE0A
:101FF000CDBF0EC140E050E060E070E09E012F5F79
:102000003F4F7901C9010E943E0360EA71E0C701B8
:102010000E946303D8011B96ED91FC911C97818966
:102020008F9380898F938FEA91E09F938F93FF9294
:10203000EF920E944604D8011B96ED91FC911C97EB
:1020400087858F9386858F9383EC91E09F938F9301
:10205000FF92EF920E944604D8011B96ED91FC91ED
:102060001C9717861686118A108ABBCF13964D913E
:102070005C91149760E070E0CE0101960E943E03EF
:1020800068ED71E0CE0101960E943604CE01019602
:102090000E940A0461E0D80115968D919C911697D3
:1020A0000E94152198E088E10FB6F894A89581BDAB
:1020B0000FBE91BDFFCF13964D915C91149763E0D5
:1020C00070E0FE0131967F01CF010E943E0386EF52
:1020D00090E09F938F93FF92EF920E94E204C701DA
:1020E0000E940A0460E0D80115968D919C91169784
:1020F0000E9415210F900F900F900F9089C013969A
:102100004D915C91149760E070E0CE0101960E94C1
:102110003E0363EE71E0CE0101960E943604CE01CB
:1021200001960E940A0498E088E10FB6F894A895F9
:1021300081BD0FBE91BDFFCF60E0FC01818592851E
:1021400097D260E00DC061E0FC018185928590D25C
:1021500061E006C062E0FC018185928589D262E07F
:10216000D80119968D919C911A97F3D0B701C801A7
:10217000ACDD4EC015964D915D916D917C91189797
:10218000FC01878190859E012F5F3F4F590140964A
:10219000B7DCD7011C96ED91FC911D978581968146
:1021A000A781B0858A319105A105B10528F4F50113
:1021B000E80FF91F108201C01A8EB501F801818560
:1021C0009285DFD0D7011C96ED91FC911D9743813C
:1021D00054816E01BBE1CB0ED11C63E070E0C601FF
:1021E0000E943E03BF92AF9287EE91E09F938F9340
:1021F000DF92CF920E947B04C6010E940A04B701BD
:10220000C80163DD0F900F900F900F900F900F900B
:1022100081E0A5960FB6F894DEBF0FBECDBFDF916B
:10222000CF911F910F91FF90EF90DF90CF90BF90D3
:10223000AF909F908F9008950F931F93CF93DF934C
:10224000CDB7DEB72B970FB6F894DEBF0FBECDBF6C
:102250008B01DB011C96ED91FC911D972181328150
:102260002E3FBFEF3B07D1F02F3F3F4FA1F5DC01E1
:1022700017968D919C911897409634DCD8011C9646
:10228000ED91FC911D974381548161817281CE0152
:1022900001960E943E036DE471E014C0FC01878149
:1022A000908540961FDCD8011C96ED91FC911D97FE
:1022B0004381548161817281CE0101960E943E0367
:1022C00069E471E0CE0101960E943E04CE010196C0
:1022D0000E940A0401C069DD2B960FB6F894DEBF98
:1022E0000FBECDBFDF91CF911F910F910895FC01DB
:1022F000718360830895FC012285211104C08089C7
:1023000091890C94421D0895CF93DF93EC012883AB
:102310007A8369838FE78B835F834E831986188660
:1023200082E090E00E9404218C8381E090E00E9492
:1023300004218D8388EA87BB14BA1ABA109261000F
:102340001092620015BA1BBA80E688BBDF91CF916C
:10235000089582E090E00C941521CF93DF93EB0178
:10236000FC016481FCE16F9FB00111246D5F7F4F20
:102370004AE150E0CE010E94F420CE01DF91CF91DE
:102380000895EF92FF920F931F93CF93DF93CDB7F2
:10239000DEB76A970FB6F894DEBF0FBECDBF8C01D3
:1023A0007B01BE016F5F7F4FD8DFBE016F5F7F4F44
:1023B000C7010E94D81D892BA9F0B701CE01019653
:1023C0000E94E11DF8016481FCE16F9FB0011124BE
:1023D0006D5F7F4F4AE150E0CE0101960E940C21D3
:1023E00081E001C080E06A960FB6F894DEBF0FBEB0
:1023F000CDBFDF91CF911F910F91FF90EF90089586
:10240000DC011696ED91FC91179780819181A28154
:10241000B38126EC32E00097E1E0AE07B10588F425
:10242000865C9240FC01E20FF31F4491F901549144
:1024300045131AC02F5F3F4FF2E02E3C3F0791F744
:1024400011C04EEC52E0ABBFFC017791F9016491F1
:1024500076130AC00196A11DB11D2F5F3F4F421791
:10246000530789F781E0089580E00895CF92DF92C5
:10247000EF92FF920F931F93CF93DF93DC01189697
:102480001C92189788EE87BB8FEF809361008ABB00
:1024900084BB88EA88BB022F132F9A0140E050E0EA
:1024A00068017901C60ED71EE11CF11C98E00C15DD
:1024B0001D052E053F0558F50115110561E026079C
:1024C000310578F4F80164916093620055BB4BBB11
:1024D00098BB88BB0F5F1F4F2F4F3F4F4F5F5F4F22
:1024E000E6CF98E088EA2BBFF8016791609362001D
:1024F00055BB4BBB98BB88BB0F5F1F4F2F4F3F4F48
:102500004F5F5F4F0C151D052E053F0560F38C9145
:10251000882309F44CC019968C911997811147C0F2
:10252000ED01CD016DDF882309F441C090E078E032
:1025300068EA492F50E020911501309116014217A9
:102540005307A8F4FA01E95BFD4FE491E0936200C0
:102550002091190130911A01240F351F35BB80914C
:102560001901890F8BBB78BB68BB9F5FE2CF80915D
:102570001A01809362008091180185BB8091170138
:102580008BBB38E038BB28EA28BB809119018093C7
:1025900062008091170190911801019695BB80917E
:1025A00017018F5F8BBB38BB28BB81E0888788EA27
:1025B00087BB14BA1ABA109261001092620015BA61
:1025C0001BBA80E688BBDF91CF911F910F91FF90DE
:1025D000EF90DF90CF9008950F931F93CF93DF93E9
:1025E0008C0181E090E00E940421D80115968C9323
:1025F00015978823C1F1E091E203F091E303218173
:10260000C1E0D0E0CE010090E10302C0880F991F25
:102610000A94E2F7822B81831696ED91FC9117972D
:10262000208131814281538160E070E8C8011EDF62
:10263000E091E203F091E30381810090E10302C0A5
:10264000CC0FDD1F0A94E2F7C095C823C18388EA46
:1026500087BB14BA1ABA109261001092620015BAC0
:102660001BBA80E688BBDF91CF911F910F9108952F
:102670000F931F93FC01A681B78124E0629FF001B4
:102680001124E55DFE4F00811181228133810D937C
:102690001D932D933C931397FC0164831F910F911D
:1026A0009BCF0F931F93CF93DF9301EE13E0D801DD
:1026B0001196ED91FC9112974181C1E0D0E09E010D
:1026C0000C9002C0220F331F0A94E2F7242B2183BF
:1026D000DC011696ED91FC911797208131814281A2
:1026E000538160E070E8C2DED8011196ED91FC9153
:1026F000129781810C9002C0CC0FDD1F0A94E2F783
:10270000C095C823C183DF91CF911F910F91089588
:10271000FC018085882309F45FC0E091E203F09119
:10272000E303218181E090E00090E10302C0880F83
:10273000991F0A94E2F7822B818388EE87BB8FEF83
:10274000809361008ABB84BB88EA88BB9BE390933B
:10275000620090911A0195BB909119019BBB98E082
:1027600098BB88BB81E078E068EA482F50E0209170
:102770001501309116014217530788F41092620038
:102780002091190130911A01240F351F35BB90910A
:102790001901980F9BBB78BB68BB8F5FE6CF88EAB7
:1027A00087BB14BA1ABA109261001092620015BA6F
:1027B0001BBA80E688BBE091E203F091E30321813C
:1027C00081E090E00090E10302C0880F991F0A9415
:1027D000E2F780958223818308951F920F920FB6AE
:1027E0000F9211240BB60F922F933F934F935F9349
:1027F0006F937F938F939F93AF93BF93EF93FF93C9
:10280000E0912901F0912A010995FF91EF91BF9183
:10281000AF919F918F917F916F915F914F913F9178
:102820002F910F900BBE0F900FBE0F901F90189519
:102830001F920F920FB60F9211240BB60F922F9387
:102840003F934F935F936F937F938F939F93AF9338
:10285000BF93EF93FF93E0912701F0912801099531
:10286000FF91EF91BF91AF919F918F917F916F9168
:102870005F914F913F912F910F900BBE0F900FBE24
:102880000F901F9018951F920F920FB60F92112460
:102890000BB60F922F933F934F935F936F937F935A
:1028A0008F939F93AF93BF93EF93FF93E091250195
:1028B000F09126010995FF91EF91BF91AF919F9102
:1028C0008F917F916F915F914F913F912F910F90D9
:1028D0000BBE0F900FBE0F901F9018951F920F9276
:1028E0000FB60F9211240BB60F922F933F934F9375
:1028F0005F936F937F938F939F93AF93BF93EF9368
:10290000FF93E0912301F09124010995FF91EF914C
:10291000BF91AF919F918F917F916F915F914F91F7
:102920003F912F910F900BBE0F900FBE0F901F90F5
:1029300018951F920F920FB60F9211240BB60F929B
:102940002F933F934F935F936F937F938F939F93B7
:10295000AF93BF93EF93FF93E0912101F091220198
:102960000995FF91EF91BF91AF919F918F917F91C9
:102970006F915F914F913F912F910F900BBE0F90F0
:102980000FBE0F901F9018951F920F920FB60F92C7
:1029900011240BB60F922F933F934F935F936F9336
:1029A0007F938F939F93AF93BF93EF93FF93E091A8
:1029B0001F01F09120010995FF91EF91BF91AF9117
:1029C0009F918F917F916F915F914F913F912F9147
:1029D0000F900BBE0F900FBE0F901F9018951F9277
:1029E0000F920FB60F9211240BB60F922F933F93B5
:1029F0004F935F936F937F938F939F93AF93BF9307
:102A0000EF93FF93E0911D01F0911E010995FF9155
:102A1000EF91BF91AF919F918F917F916F915F9156
:102A20004F913F912F910F900BBE0F900FBE0F90C3
:102A30001F9018951F920F920FB60F9211240BB68C
:102A40000F922F933F934F935F936F937F938F9347
:102A50009F93AF93BF93EF93FF93E0911B01F0918E
:102A60001C010995FF91EF91BF91AF919F918F91BB
:102A70007F916F915F914F913F912F910F900BBE7E
:102A80000F900FBE0F901F9018950F931F93DA01B0
:102A9000B3958B019C01011580E1180721053105D3
:102AA00018F4F801849103C02BBFF8018791FA0153
:102AB0009191AF01891309C00F5F1F4F2F4F3F4FF7
:102AC000EA17FB0741F780E001C081E01F910F91F9
:102AD00008952F923F924F925F926F927F928F92C2
:102AE0009F92AF92BF92CF92DF92EF92FF920F939D
:102AF0001F93CF93DF93CDB7DEB72C970FB6F89423
:102B0000DEBF0FBECDBF8C016B01DC011496ED91D1
:102B1000FC91159740A151A18091080190E0FA0124
:102B2000E80FF91F20812031C8F0DB011C96ED91E0
:102B3000FC911D974381548161E070E0CE010196C4
:102B40000E943E036FEC72E0CE0101960E943E04AB
:102B5000CE0101960E940A0480E0ABC0822E912C27
:102B6000982C8824990C990C990C092C000CAA0813
:102B7000BB087C01BFEFEB1AFB0AE40EF51E412CEB
:102B8000512C32011C8622242394312CF80180819F
:102B90009181A281B381880D991DAA1DBB1DBC0125
:102BA000CD01640D751D861D971DA7016EDF88235D
:102BB00039F1F801A085B1851196ED91FC9112973C
:102BC0002181C1010C9002C0880F991F0A94E2F77D
:102BD00082278183F80180819181A281B381880D50
:102BE000991DAA1DBB1DBC01CD01640D751D861D5F
:102BF000971D0288F389E02DA7010995F1E0FC8774
:102C00002FEF521A620A720AF3944114A8E05A068E
:102C10006104710409F0BACFF801A085B18511965D
:102C2000ED91FC911297218181E090E00C9002C01F
:102C3000880F991F0A94E2F7809582238183FC858F
:102C4000FF2351F0D80150968D919C915197019698
:102C500051969C938E935097F8018685978501969F
:102C6000978786870480F581E02D108A118A128A61
:102C7000138A148A158A168A178A12A213A214A21A
:102C800015A2D6011C96ED91FC911D9743815481AC
:102C900060E070E0CE0101960E943E0363ED72E0B9
:102CA000CE0101960E943E04CE0101960E940A04C4
:102CB00081E02C960FB6F894DEBF0FBECDBFDF913A
:102CC000CF911F910F91FF90EF90DF90CF90BF9029
:102CD000AF909F908F907F906F905F904F903F90BC
:102CE0002F90089524E0629FF0011124E55DFE4FCE
:102CF0004081518162817381FC01408351836283F1
:102D0000738308958F929F92AF92BF92CF92DF927A
:102D1000EF92FF920F931F93CF93DF93CDB7DEB760
:102D20002B970FB6F894DEBF0FBECDBF8C01F42EEB
:102D3000DB011C96ED91FC911D974381548160E06D
:102D400070E0CE0101960E943E03BFE0BF1540F443
:102D500098E088E10FB6F894A89581BD0FBE91BDAB
:102D60004F2D50E0542F4427550F550F550F4A0152
:102D7000E8EF9E1A052E000C660B770BD801CD905C
:102D8000DD90ED90FC90C40ED51EE61EF71EA12C22
:102D9000B12CF80180819181A281B381880D991DA8
:102DA000AA1DBB1DC816D906EA06FB06B0F4C1145D
:102DB000F0E1DF06E104F10418F4F601649103C0C8
:102DC000EBBEF6016791CE0101960E94AD03FFEFC5
:102DD000CF1ADF0AEF0AFF0ADCCFCE0101960E946C
:102DE0000A042B960FB6F894DEBF0FBECDBFDF915D
:102DF000CF911F910F91FF90EF90DF90CF90BF90F8
:102E0000AF909F908F900895E091E903F091EA03CD
:102E100080E090E0309749F0029620813181820F66
:102E2000931F0280F381E02DF5CF08950F931F9338
:102E3000CF93DF9300D0CDB7DEB78091E7039091B9
:102E4000E8038E010F5F1F4F009729F4015F1340C5
:102E50001A83098309C0081B190B1A830983D4DF5D
:102E6000800F911F9A83898389819A810F900F9097
:102E7000DF91CF911F910F910895CF93DF93A4EE2F
:102E8000B3E01196ED91FC911297218181E090E0E1
:102E90000C9002C0880F991F0A94E2F78095822354
:102EA0008183E9EAF3E0A685B785CD91DC91648D55
:102EB000758D88EE93E00E94D70BAC014C0F5D1F1F
:102EC00020E030E065EA77E189EA93E0DF91CF9195
:102ED0000C94660BABDF9C016091DB037091DC030B
:102EE0006115710559F0E0E1F7E2CF011AD4CF0185
:102EF00018D484E690E0861B970B02C084E690E02D
:102F00004091DD035091DE034817590720F4909358
:102F1000DE038093DD038091D9039091DA03821759
:102F2000930720F43093DA032093D9031092DC0343
:102F30001092DB030895682F8091DF039091E003E6
:102F40000E94280780E090E00895CF93DF93A4EEDD
:102F5000B3E01196ED91FC911297218181E090E010
:102F60000C9002C0880F991F0A94E2F7822B81838C
:102F7000E9EAF3E0A685B785CD91DC91648D758D86
:102F800081E090E00E94D70BAC014C0F5D1F20E068
:102F900030E06DE377E189EA93E0DF91CF910C9423
:102FA000660BEBE6F3E08BE997E191878087138668
:102FB000128682E0838315861486ABEEB3E0139607
:102FC000FC93EE9312971596FC93EE931497089545
:102FD0008DE293E00895CF93DF93CDB7DEB7C0576E
:102FE000D1090FB6F894DEBF0FBECDBFE091B70395
:102FF000F091B80380819181E091C303F091C40303
:103000004081518162817381A0E0B0E08093C70369
:103010009093C803A093C903B093CA034093CB0312
:103020005093CC036093CD037093CE03CE0188966A
:103030000E94160282E090E00E9404210DE213E05B
:1030400029961FAF0EAF299729EA33E02B963FAFA1
:103050002EAF2B9721EE33E02D963FAF2EAF2D975D
:10306000682FCE018D5B9F4F3DDE8CE890EEA1E096
:10307000B0E0ABBFFC018791969167969FAF8EAF92
:10308000679761961CAE1DAE1EAE1FAE619763962C
:103090001FAE1EAE639765961FAE1EAE659721E00C
:1030A000AE014D5B5F4FB801CE018B599F4F2CD9BC
:1030B000CE018B599F4F90DAE091B703F091B8039E
:1030C000E080F180E091C303F091C403408151811D
:1030D00062817381E091C503F091C6038091CB03B7
:1030E0009091CC03A091CD03B091CE039A01AB0196
:1030F000281B390B4A0B5B0BAFEFBFEF51D34701D6
:10310000A12CB12CC090C703D090C803E090C90394
:10311000F090CA03A50194012C193D094E095F09DD
:10312000620F731F841F951FAF010E94900BE196E1
:103130007FAF6EAFE1971093E0030093DF037894C5
:1031400030DF6091C5037091C60384EF91E00E9467
:10315000D70BE091B703F091B803408151814C59EE
:103160005F4F9C0165EA77E189EA93E00E94660B74
:103170006091C5037091C60384E690E00E94D70B6E
:10318000E091B703F091B803408151814C595F4FF2
:103190009C016AE677E189EA93E00E947B0B9E013D
:1031A0002D5B3F4FAE014B595F4FB801CE01895A9D
:1031B0009F4F0E94E20DE1966EAD7FADE197CE018B
:1031C000895A9F4F94D8CE0181599F4F5BD410925A
:1031D0003D0310923E0310923F0310924003109261
:1031E0004103109242031092430310924403109241
:1031F0004F0310925003109251031092520340E07B
:1032000050E063E070E0CE0101960E943E0367EE5D
:1032100072E0CE0101960E94850367ED72E0CE0157
:1032200001960E948503CE0101960E940A0408EBD4
:103230001BE0E12C88E1D82E9FE0C92EBB24B3947B
:10324000093B3BE0130739F00F5F1F4F083B4BE092
:10325000140708F477C08091110390911203A09194
:103260001303B0911403892B8A2B8B2B09F0CFC049
:1032700069C08091110390911203A0911303B09142
:103280001403892B8A2B8B2B09F4C8C08091FF0271
:1032900090910003A0910103B091020320910F03CC
:1032A00030911003F901E80FF91FF08080911103AC
:1032B00090911203A0911303B09114030197A109F7
:1032C000B1098093110390931203A0931303B09359
:1032D00014038091FF0290910003A0910103B0912B
:1032E000020320910B0330910C0340910D03509188
:1032F0000E03BC01CD016F5F7F4F8F4F9F4F25D2D3
:103300006093FF0270930003809301039093020384
:103310006F2DCE0188960E944702809111039091F3
:103320001203A0911303B0911403892B8A2B8B2BCA
:1033300009F09FCF0FB6F894A89581B5886181BD3B
:1033400011BC0FBE8091DB039091DC03019690933A
:10335000DC038093DB0386E69EE00197F1F7000033
:1033600040914F035091500360915103709152036B
:103370008091080190E0A0E0B0E0481759076A0783
:103380007B07B8F06DE373E0CE0101960E947006F2
:103390008FA1882351F0BE016F5F7F4FCE01895A04
:1033A0009F4F0E941C1100E010E0CE0141960E9448
:1033B0007B11AE968FADAE97882309F441CFE11013
:1033C0003FCFE091C303F091C40380819181A2813A
:1033D000B381E091B703F091B80380809180E091D0
:1033E000C503F091C6039C01AD0144275527AFEFFB
:1033F000BFEFD6D1680D791D811D911DAF010E94CF
:10340000900B693E73408105910550F419CF0FB6BA
:10341000F894A895D1BC0FBEC1BC7FCF60E079CF36
:1034200023968EAD9FAD2397892B39F4AF96BFAE0F
:10343000AF97CE018B599F4F6BD9EE24E39400CF09
:103440008F929F92AF92BF92CF92DF92EF92FF92B4
:103450000F931F93E4EEF3E087E0808381E390E035
:10346000928381838F9AE1EEF3E026E020839283BA
:1034700081838E9AE9EDF3E0118210821382128229
:103480001582148240E065E089EA93E00E944E0CC8
:1034900040E065E089E793E00E94E00C80E4882E3C
:1034A000912CA12CB12C9EE1C92E98E0D92EE12CB3
:1034B000F12C09EA13E020E032EC41E050E061E059
:1034C0008DE293E00E948507812C912C5401839416
:1034D0003AE0C32ED12CE12CF12C20E835E240E07B
:1034E00050E060E08FEE92E00E9485071F910F91FF
:1034F000FF90EF90DF90CF90BF90AF909F908F9014
:10350000089585E193E00E947B118FEF92E00E9485
:103510007B1183E593E00E947B118DE393E00C9493
:103520007B113F924F925F926F927F928F929F9208
:10353000AF92BF92CF92DF92EF92FF920F931F93C1
:10354000CF93DF93CDB7DEB72E970FB6F894DEBFDB
:103550000FBECDBF7C01E091E503F091E603218130
:1035600081E090E00090E40302C0880F991F0A9464
:10357000E2F7822B8183D7011C96ED91FC911D9778
:10358000658176818781908523E030E040E050E0DE
:10359000DCD0622E532E88EE87BB8FEF80936100C4
:1035A0008ABB84BB88EA88BBC12CD12C4E01BFE00A
:1035B0008B0E911C88E0382E98EA492ED7011C9674
:1035C000ED91FC911D97C601A0E0B0E045815681C8
:1035D0006781708584179507A607B70708F05FC055
:1035E000F701068517855E01FCE0AF0EB11CF801FE
:1035F00082899389A489B589892B8A2B8B2B09F41D
:103600003FC0F80182899389A489B589892B8A2BC7
:103610008B2BA1F1F80180819181A281B381208956
:103620003189F901E80FF91F7080F80182899389C7
:10363000A489B5890197A109B109828B938BA48BC9
:10364000B58B80819181A281B381248535854685A2
:103650005785BC01CD016F5F7F4F8F4F9F4F75D056
:10366000D8016D937D938D939C931397872DF501CE
:1036700081935F01E815F90519F0B9CF80E0F7CF24
:103680008E85809362008D8585BB8C858BBB38BA17
:1036900048BA38BA48BAF3E0CF0ED11C8FCF438175
:1036A000548163E070E08E010F5F1F4FC8010E94DC
:1036B0003E035F926F9287E492E09F938F931F93F4
:1036C0000F930E947B04C8010E940A0488EA87BB0A
:1036D00014BA1ABA109261001092620015BA1BBA9D
:1036E00080E688BB0F900F900F900F900F900F9077
:1036F00081E02E960FB6F894DEBF0FBECDBFDF91EE
:10370000CF911F910F91FF90EF90DF90CF90BF90DE
:10371000AF909F908F907F906F905F904F903F9071
:103720000895AA1BBB1B51E107C0AA1FBB1FA61708
:10373000B70710F0A61BB70B881F991F5A95A9F75A
:1037400080959095BC01CD010895A1E21A2EAA1B87
:10375000BB1BFD010DC0AA1FBB1FEE1FFF1FA21741
:10376000B307E407F50720F0A21BB30BE40BF50B3E
:10377000661F771F881F991F1A9469F760957095C7
:10378000809590959B01AC01BD01CF010895EE0F8E
:10379000FF1F0024001C0BBE0790F691E02D09943A
:1037A0008ED0A59F900DB49F900DA49F800D911D6C
:1037B00011240895E894DF93CF93FC01DB017FD0BF
:1037C0007F936F93E9019A01AC01BF93AF933F934D
:1037D0002F93DF0174D026F46C1B7D0B820B930BAF
:1037E0009E01EB01FC017AD0AF91BF912F913F91E7
:1037F00075D0BE01CF01F9012F913F91CF91DF919B
:103800000895689401C0E8948F929F92CF93DF93BC
:1038100005D0DF91CF919F908F90089588249924AF
:10382000F401E401B0E49F93AA279A158B049C0449
:10383000ED05FE05CF05D007A10798F4AD2FDC2FCD
:10384000CF2FFE2FE92D982C892E982F872F762F9A
:10385000652F542F432F322F2227B85031F7BF91B5
:1038600027C01B2EBF91BB27220F331F441F551F9C
:10387000661F771F881F991F881C991CEE1FFF1F4A
:10388000CC1FDD1FAA1FBB1F8A149B04EC05FD057E
:10389000CE05DF05A007B10748F08A189B08EC09A0
:1038A000FD09CE09DF09A00BB10B21601A94E1F6E6
:1038B0002EF49401AF01BE01CD01000C0895A29F2A
:1038C000B001B39FC001A39F700D811D1124911DF4
:1038D000B29F700D811D1124911D0895F0DF460FD8
:1038E000571FC81FD91F08F431960895F091F003AF
:1038F000E091EF030097B1F45F934F937F936F9341
:103900003F932F9380E692E09F938F93FF93EF93E3
:103910005FD18DB79EB70A960FB6F8949EBF0FBEC3
:103920008DBF17C05F934F937F936F939F938F9338
:103930003F932F938BE892E09F938F93FF93EF93A6
:1039400047D18DB79EB70C960FB6F8949EBF0FBEA9
:103950008DBF21D10F931F93CF93DF9382309105B9
:1039600010F482E090E0E091E903F091EA0320E0B6
:1039700030E0A0E0B0E0309719F140815181028140
:10398000138148175907C8F08417950769F41097F1
:1039900031F012960C93129713961C9327C0009344
:1039A000E9031093EA0322C02115310519F04217EB
:1039B000530718F49A01BD01EF01DF01F801DBCFD5
:1039C00021153105F9F0281B390B2430310580F41D
:1039D0008A819B816115710521F0FB0193838283AC
:1039E00004C09093EA038093E903FE01329644C039
:1039F000FE01E20FF31F8193919322503109398325
:103A000028833AC02091E7033091E803232B41F447
:103A100020910201309103013093E8032093E703E2
:103A200020910001309101012115310541F42DB79C
:103A30003EB74091040150910501241B350BE091E4
:103A4000E703F091E803E217F307A0F42E1B3F0B06
:103A50002817390778F0AC014E5F5F4F2417350700
:103A600048F04E0F5F1F5093E8034093E7038193A4
:103A7000919302C0E0E0F0E0CF01DF91CF911F9180
:103A80000F910895CF93DF93009709F481C0FC0153
:103A9000329713821282A091E903B091EA03109742
:103AA00081F420813181820F931F2091E7033091AF
:103AB000E8032817390751F5F093E803E093E7038B
:103AC00067C0ED0120E030E0CE17DF0740F44A8107
:103AD0005B819E0141155105F1F0EA01F5CFD383D9
:103AE000C28340815181840F951FC817D90759F4AB
:103AF00088819981840F951F0296918380838A81A2
:103B00009B81938382832115310529F4F093EA0385
:103B1000E093E9033DC0E901FB83EA8349915991B0
:103B2000C40FD51FEC17FD0761F480819181840FCC
:103B3000951F0296E90199838883828193819B83F3
:103B40008A83E0E0F0E012968D919C9113970097A4
:103B500019F0FD01DC01F7CF8D919C9111979D012A
:103B60002E5F3F4F820F931F2091E7033091E803B0
:103B70002817390769F4309729F41092EA03109254
:103B8000E90302C013821282B093E803A093E70313
:103B9000DF91CF91089581E090E0F89453C3FC0148
:103BA00005900020E9F7809590958E0F9F1F08954E
:103BB000FB01DC018D91019080190110D9F3990B63
:103BC0000895FB01DC0101900D920020E1F70895BA
:103BD000CF93DF93CDB7DEB7AE01475F5F4F6F8105
:103BE00078858D819E818FD0DF91CF9108950F933D
:103BF0001F93CF93DF93FB01238121FD03C08FEF40
:103C00009FEF2CC022FF16C0468157812481358149
:103C10004217530744F4A081B1819D012F5F3F4FAC
:103C2000318320838C93268137812F5F3F4F3783E9
:103C3000268314C08B01EC01FB010084F185E02D8B
:103C40000995892BE1F6D80116968D919C911797CD
:103C5000019617969C938E931697CE01DF91CF9184
:103C60001F910F9108950F931F93CF93DF93CDB7BB
:103C7000DEB72E970FB6F894DEBF0FBECDBF8C0116
:103C800086E08C831A8309838FEF9FE79E838D8361
:103C9000CE01019638D0EF81F885E00FF11F108238
:103CA0002E960FB6F894DEBF0FBECDBFDF91CF9139
:103CB0001F910F9108950F931F93CF93DF93CDB76B
:103CC000DEB72E970FB6F894DEBF0FBECDBF8C01C6
:103CD0008EE08C831A8309838FEF9FE79E838D8309
:103CE000CE01019610D0EF81F885E00FF11F108210
:103CF0002E960FB6F894DEBF0FBECDBFDF91CF91E9
:103D00001F910F9108952F923F924F925F926F9261
:103D10007F928F929F92AF92BF92CF92DF92EF925B
:103D2000FF920F931F93CF93DF93CDB7DEB72B97FF
:103D30000FB6F894DEBF0FBECDBF6C017B018A01C8
:103D4000FC0117821682838181FFBFC1CE010196DB
:103D50003C01F6019381F70193FD859193FF8191D9
:103D60007F01882309F4ADC1853239F493FD859133
:103D700093FF81917F01853221F4B60190E037DF16
:103D8000E8CF912C212C312CFFE1F315D8F08B32A8
:103D900079F038F4803279F08332A1F4232D206158
:103DA0001DC08D3261F0803369F4232D216016C06F
:103DB000832D8260382EE32DE4603E2E2AC0F32D41
:103DC000F8601DC037FC2DC020ED280F2A3040F0D0
:103DD0008E32B9F436FC75C1232D2064322E19C001
:103DE00036FE06C08AE0989E200D1124922E11C046
:103DF000EAE02E9E200D1124222EF32DF0623F2E9C
:103E000008C08C3621F4832D8068382E02C0883695
:103E100041F4F70193FD859193FF81917F01811119
:103E2000B3CF982F9F7D9554933028F40C5F1F4F8C
:103E30009FE399830DC0833631F0833771F083356A
:103E400009F055C020C0F801808189830E5F1F4FA3
:103E500088248394912C530112C02801F2E04F0E64
:103E6000511CF801A080B18036FE03C0692D70E0BE
:103E700002C06FEF7FEFC5014ED14C018201F32DDF
:103E8000FF773F2E15C0280122E0420E511CF80199
:103E9000A080B18036FE03C0692D70E002C06FEFD4
:103EA0007FEFC5012DD14C01F32DF0683F2E82012B
:103EB00033FC19C0822D90E088169906A0F4B60153
:103EC00080E290E094DE2A94F5CFF50137FC8591ED
:103ED00037FE81915F01B60190E089DE21102A94BE
:103EE00021E0821A91088114910479F7E1C08436A7
:103EF00011F0893639F5F80137FE07C0608171810C
:103F0000828193810C5F1F4F08C060817181072EF1
:103F1000000C880B990B0E5F1F4FF32DFF763F2E81
:103F200097FF09C090958095709561957F4F8F4F51
:103F30009F4FF0683F2E2AE030E0A301F7D0882E93
:103F4000861844C0853731F4232D2F7EB22E2AE007
:103F500030E025C0932D997FB92E8F36C1F018F42B
:103F6000883579F0AEC0803719F0883721F0A9C0C4
:103F7000E92FE061BE2EB4FE0DC0FB2DF460BF2E14
:103F800009C034FE0AC0292F2660B22E06C028E0E0
:103F900030E005C020E130E002C020E132E0F8016D
:103FA000B7FE07C060817181828193810C5F1F4FD2
:103FB00006C06081718180E090E00E5F1F4FA30119
:103FC000B5D0882E8618FB2DFF773F2E36FE0DC00C
:103FD000232D2E7FA22E891458F434FE0BC032FC00
:103FE00009C0832D8E7EA82E05C0B82CA32C03C03B
:103FF000B82C01C0B92CA4FE0FC0FE01E80DF11DC4
:104000008081803321F49A2D997EA92E09C0A2FEC9
:1040100006C0B394B39404C08A2D867809F0B39493
:10402000A3FC10C0A0FE06C0B21480F4280C922C91
:104030009B180DC0B21458F4B60180E290E0D7DDB1
:10404000B394F8CFB21418F42B1802C0982C212C7A
:10405000A4FE0FC0B60180E390E0C9DDA2FE16C049
:10406000A1FC03C088E790E002C088E590E0B601BB
:104070000CC08A2D867851F0A1FE02C08BE201C0EF
:1040800080E2A7FC8DE2B60190E0B1DD891430F446
:10409000B60180E390E0ABDD9A94F8CF8A94F30107
:1040A000E80DF11D8081B60190E0A1DD8110F6CF11
:1040B000222009F44ECEB60180E290E098DD2A94E9
:1040C000F7CFF6018681978102C08FEF9FEF2B9685
:1040D0000FB6F894DEBF0FBECDBFDF91CF911F9119
:1040E0000F91FF90EF90DF90CF90BF90AF909F9097
:1040F0008F907F906F905F904F903F902F9008959A
:10410000FC010590615070400110D8F780959095A2
:104110008E0F9F1F0895FC016150704001900110A7
:10412000D8F7809590958E0F9F1F0895FA01AA27C2
:10413000283051F1203181F1E8946F936E7F6E5FEA
:104140007F4F8F4F9F4FAF4FB1E03ED0B4E03CD098
:10415000670F781F891F9A1FA11D680F791F8A1F7B
:10416000911DA11D6A0F711D811D911DA11D20D0E2
:1041700009F468943F912AE0269F11243019305D9C
:104180003193DEF6CF010895462F4770405D41938D
:10419000B3E00FD0C9F7F6CF462F4F70405D4A33DA
:1041A00018F0495D31FD4052419302D0A9F7EACFA2
:1041B000B4E0A6959795879577956795BA95C9F7D1
:1041C00000976105710508959B01AC010A2E0694C4
:1041D0005795479537952795BA95C9F7620F731F7D
:1041E000841F951FA01D0895DC01CB01FC01E199FE
:1041F000FECF06C0FFBBEEBBE09A31960DB20D922A
:1042000041505040B8F70895E199FECF9FBB8EBB57
:10421000E09A99278DB30895DC01CB0102C02D915E
:1042200005D041505040D8F70895262FE199FECF90
:104230009FBB8EBB2DBB0FB6F894E29AE19A0FBEDE
:104240000196089511E0CBE7D1E003C0FE019FDAAB
:0C4250002196CC37D107D1F7F894FFCFAE
:10425C000000F1032000C00A0CBD09BD09BD09BD59
:10426C0009BD09BD097F00E87F4055BD09BD09BDE9
:10427C0009BD09BD09BD09BD09BD090060000000EB
:10428C00E00000006001001E0215020C026379635D
:10429C006C6573203C3D20307866666666554C4CE8
:1042AC00002E2E2F61746D3132385F74696D65721A
:1042BC00732F74696D65725F722E637070006D730D
:1042CC005F746F5F6379636C65730025642025638D
:1042DC002025640A0062616E6B6E616D653A257310
:1042EC00005372616D2072656C6F616465640A00C5
:1042FC0077726974696E672073746174730A0070E5
:10430C0061636B657473207772697474656E2025B4
:10431C00640A007061636B65747320726563656910
:10432C007665642025640A00626F6F746C6F61643B
:10433C0065720061636B0042616E6B206E616D652E
:10434C00207365743A202573003078256C780A0048
:10435C0062616E6B2564736574006E616D655F7769
:10436C006561723A25737C25750073657474696E8A
:10437C0067206E616D653A202573006370753A2570
:10438C003035753A253033750A006469676964699C
:10439C0061672025640A005372616D207570646139
:1043AC00746564206F6620256420627974657300DF
:1043BC00417373657274696F6E206661696C6564B4
:1043CC003A20282573292C2066696C652025732CCE
:1043DC00206C696E652025642E0A0041737365722A
:1043EC0074696F6E206661696C65643A2028257368
:1043FC00292C2066756E6374696F6E2025732C20D2
:10440C0066696C652025732C206C696E65202564AB
:04441C002E0A000064
:00000001FF
