:1000000024C100000C94BF100C94EA100C9415113C
:100010000C9440110C946B110C9496110C94C1111A
:100020000C94EC113CC100003AC1000038C1000042
:10003000E1C700000C9432080C94A40830C1000001
:100040002EC100002CC100007DC60000A8C6000023
:1000500026C1000024C1000022C1000020C1000010
:100060000C946A081CC100000C94C9080C94050982
:100070000C9441090C947D0901C7000036C70000AB
:100080000EC100000CC100000AC10000820CB30CBC
:10009000D70CFD0C1D0D2A0D560D630D7D0D970D12
:1000A000D20D140E390E53657020313720323031A5
:1000B000390056657273696F6E3A52312E303100D5
:1000C000425420454550524F4D20454D554C4154CA
:1000D0004F5220520A436F6D70696C6174696F6E84
:1000E00020646174653A200064697361626C696EB2
:1000F0006720626F6F746C6F6164657220666C61FB
:1001000067005372616D206C6F6164656420696E75
:10011000202575206D73000A4F6E54696D653A2075
:10012000256C75206D7300656D756C6174653A00A2
:100130007365745F62616E6B5F6E616D653A0064DA
:100140007478006E616B0061636B00726561645F5F
:10015000627974650073656E6465725F746573744B
:100160000064696769646961675F6F6666006469F6
:100170006769646961675F6F6E0077726974696E41
:100180006774696D650076657273696F6E00646986
:100190007361626C655F626F6F746C6F61646572CE
:1001A0000072756E5F626F6F746C6F616465720070
:1001B0006370755F6C6F61640065726173655F6227
:1001C000616E6B006765745F62616E6B5F696E661E
:1001D0006F0062616E6B735F696E666F007265734C
:1001E00065745F62616E6B735F73746174730062D8
:1001F000616E6B696E7573650062616E6B616464DC
:10020000720062616E6B337365740062616E6B3293
:100210007365740062616E6B317365740068656C40
:10022000700068616E647368616B65007278666CFB
:10023000757368007265736574656D75006F6F72B4
:1002400000005001FF022B168D1611241FBECFEFA8
:10025000D0E1DEBFCDBF13E0A0E0B1E0E0E3FBE31F
:1002600000E00BBF02C007900D92A836B107D9F786
:1002700024E0A8E6B3E001C01D92A539B207E1F77A
:1002800011E0C4E2D1E004C02197FE010E94B91739
:10029000C132D107C9F70E941F150C948C1DB0CE36
:1002A000E0E7F3E022E330E03183208387E08283DC
:1002B00080E390E094838383EBE6F3E03183208353
:1002C00026E022839483838380910601E8E6F3E0AD
:1002D00021E330E031832083828308959627092E1D
:1002E0000294202D2F702927692F6025660F607ECC
:1002F0002627602D6927607F6695092E000C661FF2
:100300009695969596959F7196279827822F089592
:10031000FC018CE3808316821582108617828EE39F
:100320008187128672836183548343830895809109
:10033000750390917603C8C30F931F93CF93DF93F8
:100340008C01EB0188818823A1F0F80185819681D9
:10035000019696838583688187819085BFDFF80148
:100360009087878369918091750390917603ACD3D0
:10037000E9CFDF91CF911F910F910895EF92FF92F6
:100380001F93CF93DF937C01FB011491EB01219626
:100390001123B1F0F70185819681019696838583BB
:1003A000612F878190859ADFF70190878783612F7E
:1003B000809175039091760387D3FE011491E7CF66
:1003C000DF91CF911F91FF90EF9008951F93CF93EE
:1003D000DF93EC01162F809175039091760374D30F
:1003E0008D819E8101969E838D83612F8F8198855B
:1003F00075DF98878F83DF91CF911F910895FF92CA
:100400000F931F93CF93DF93FC012285211112C01C
:10041000EC0181E08287FE2E0E2F1D2F90910701A7
:10042000802F8F19891730F4F80161918F01CE0167
:100430007EDFF4CFDF91CF911F910F91FF90089550
:10044000DECFCF93DF93EC0177DFCE01DF91CF9149
:10045000D6CFCF93DF93EC0191DFCE01DF91CF9127
:10046000CECF0F931F93CF93DF93CDB7DEB7E29735
:100470000FB6F894DEBF0FBECDBF6BAD7CADFB01F8
:1004800001900020E9F73197E61BF70BE634F10500
:1004900080F4AE01435C5F4FCE0101960E949D1A2D
:1004A0008C01BE016F5F7F4F89AD9AAD45DFC801FA
:1004B00002C080E090E0E2960FB6F894DEBF0FBE77
:1004C000CDBFDF91CF911F910F9108950F931F938F
:1004D000CF93DF93CDB7DEB7E2970FB6F894DEBFC8
:1004E0000FBECDBF6BAD7CADFB0101900020E9F7E5
:1004F0003197E61BF70BE634F10580F4AE01435C5F
:100500005F4FCE0101960E949D1A8C01BE016F5F64
:100510007F4F89AD9AAD95DFC80102C080E090E0C1
:10052000E2960FB6F894DEBF0FBECDBFDF91CF913C
:100530001F910F9108950F931F93CF93DF93CDB722
:10054000DEB7E2970FB6F894DEBF0FBECDBF8BAD1E
:100550009CAD0E94C1198634910590F4AE01435CB4
:100560005F4F6BAD7CADCE0101960E94C51A8C0128
:10057000BE016F5F7F4F89AD9AADDEDEC80102C05C
:1005800080E090E0E2960FB6F894DEBF0FBECDBFDC
:10059000DF91CF911F910F9108950F931F93CF93E8
:1005A000DF93CDB7DEB7E2970FB6F894DEBF0FBE8C
:1005B000CDBF8BAD9CAD0E94C1198634910590F4DE
:1005C000AE01435C5F4F6BAD7CADCE0101960E94E6
:1005D000C51A8C01BE016F5F7F4F89AD9AAD31DFC7
:1005E000C80102C080E090E0E2960FB6F894DEBF4A
:1005F0000FBECDBFDF91CF911F910F9108950E9443
:100600001C15909376038093750308951F93CF93E1
:10061000DF93EC018A899B89AC89BD89892B8A2B60
:100620008B2B59F188819981AA81BB8128893989CD
:10063000F901E80FF91F10818A899B89AC89BD896E
:100640000197A109B1098A8B9B8BAC8BBD8B8881EB
:100650009981AA81BB812C853D854E855F85BC0132
:10066000CD016F5F7F4F8F4F9F4F0E949717688319
:1006700079838A839B83812F01C080E0DF91CF91B2
:100680001F910895CF93DF93FC01A28DB38D4D91FF
:100690005D916D917C91A685B785CD91DC91048C9F
:1006A000F58DE02D9A01AB0144275527AFEFBFEF41
:1006B0000E94C2176C0F7D1F811D911DAF01DF913C
:1006C000CF916AC6AF92BF92CF92DF92EF92FF9224
:1006D0000F931F93CF93DF93EC01EC85FD8535815C
:1006E0002681978180858E01005F1F4FEE85FF85F3
:1006F00042895389648975894AA35BA36CA37DA34E
:100700004081518162817381488B598B6A8B7B8BCD
:1007100044815581668177814C8B5D8B6E8B7F8B9D
:10072000C32ED22EE92EF82EA12CB12CC114D10447
:10073000E104F10409F423C0C80168DF95013827FA
:10074000032E0294802D8F708327932F9025990F6D
:10075000907E8927902D9327907F9695032E000CED
:10076000991F3695369536953F7139273227282FB0
:10077000590181E0C81AD108E108F108D7CFEC850A
:10078000FD8521853285A216B30621F08FEF9FEFFC
:100790009283818381E0A216B30609F080E0DF91A5
:1007A000CF911F910F91FF90EF90DF90CF90BF906E
:1007B000AF900895CF92DF92EF92FF920F931F9325
:1007C000CF93DF93DC011E96ED91FC911F97028978
:1007D0001389248935894091080150E060E070E078
:1007E000041715072607370708F459C0EC018C01D8
:1007F000005F1F4FEE85FF8582899389A489B589A3
:10080000892B8A2B8B2B09F44AC082899389A4896E
:10081000B5898AA39BA3ACA3BDA380819181A2814A
:10082000B381888B998BAA8BBB8B84819581A681A0
:10083000B7818C8B9D8BAE8BBF8BC801E7DE8E336F
:1008400051F58883D12CED2CF12CC09008012C2D72
:1008500030E021503109E216F30644F4C801D6DE37
:10086000FE01EE0DFF1D8183D394EDCF8C3399F4FF
:100870000E84DF85C02DD12CE12CF12CC114D104C4
:10088000E104F10471F0CE01C1DEB1E0CB1AD10870
:10089000E108F108F3CF8E859F85B8DEABCF80E00D
:1008A00001C081E0DF91CF911F910F91FF90EF90F8
:1008B000DF90CF9008958F929F92AF92BF92CF9288
:1008C000DF92EF92FF92CF93DF93EC01FB019D87C4
:1008D0008C877F876E8782E38B8F80819181A28155
:1008E000B381888B998BAA8BBB8B84859585A685D4
:1008F000B7858C8F9D8FAE8FBF8F82899389A48996
:10090000B5898AA39BA3ACA3BDA380859185998F4C
:10091000888F8089918999A388A381E08A8F1D821D
:100920001E821F8218861EA28DE494E0ABDE4B016E
:100930005C01CE013FDF882309F46AC080E090E0CB
:10094000DC01EC85FD8545815681678170858417C2
:100950009507A607B70720F0C12CD12C760125C03A
:100960002CEA2A95F1F700000196A11DB11DE9CFEF
:100970008DE494E087DEDC01CB0188199909AA098E
:10098000BB0980399140A105B10500F58FEF9FE8C3
:100990000197F1F700C000008DE494E073DE6B0175
:1009A0007C01C818D908EA08FB08EE85FF85428952
:1009B000538964897589EC85FD8585819681A78138
:1009C000B085481759076A077B0790F290E9C91666
:1009D00091E0D906E104F10438F4CE0173DE8823F6
:1009E000B9F081E08EA314C0EE85FF8510821182DC
:1009F000128213821482158216821782128A138A37
:100A0000148A158AEC85FD858EEF9FEF928781878A
:100A1000DF91CF91FF90EF90DF90CF90BF90AF909C
:100A20009F908F900895CF93DF93EC018C819D81EF
:100A3000AE81BF8128893989F901E80FF91F6083E8
:100A40008C819D81AE81BF812C853D854E855F85E2
:100A5000BC01CD016F5F7F4F8F4F9F4F0E94971753
:100A60006C837D838E839F834A895B896C897D89B2
:100A70008C859D85AE85BF85481759076A077B071A
:100A800058F48A899B89AC89BD890196A11DB11D45
:100A90008A8B9B8BAC8BBD8B4A895B896C897D89EA
:100AA0008C859D85AE85BF85481759076A077B07EA
:100AB00041F48C819D81AE81BF8188839983AA8313
:100AC000BB83DF91CF9108950F931F93CF93DF9353
:100AD000EC0108AD19AD2AAD3BAD8AA99BA9ACA923
:100AE000BDA9081719072A073B0799F3CE01869677
:100AF0009ADFEA81FB81208181E090E00E8402C0D0
:100B0000880F991F0A94E2F7822B8083DF91CF919F
:100B10001F910F910895CF93DF93EC019A01AB01E0
:100B200060E070E18EE090E00E949717BA01A901A1
:100B3000415051096109710957FF0EC0E881F981DF
:100B400081E090E00F8402C0880F991F0A94E2F7B9
:100B500080835F7766277727E885F985BB27A72FEE
:100B6000962F852F8083EA85FB854083EA81FB8170
:100B70008C858083EC81FD818D858083DF91CF9191
:100B800008952F923F924F925F926F927F928F9231
:100B90009F92AF92BF92CF92DF92EF92FF920F930C
:100BA0001F93CF93DF9300D01F92CDB7DEB73C01E8
:100BB000698319012A0140969B838A83F301108A75
:100BC000118A128A138A148A158A168A178A82E36E
:100BD000838FC48ED58EE68EF78E12A213A214A236
:100BE00015A282E390E00E949C18F301918F808F00
:100BF000848D958DA68DB78D0E949C18F30191A3CD
:100C000080A3128E6301F6E2CF0ED11CF30116A26F
:100C100017A210A611A612A613A614A615A682E363
:100C200081AB82AA93AAA4AAB5AA10AE11AE12AE45
:100C300013AE82E390E00E949C18F30197A786A769
:100C400082A993A9A4A9B5A90E949C18F30197AB06
:100C500086AB10AA15AF04AFF981F1112CC08BE25D
:100C600090E0F301918380838AE290E09383828312
:100C700085E990E0958384838CE290E09783868376
:100C800080E990E09187808789E290E0938782876E
:100C900085E0868781E0878788E9848786E0858785
:100CA0008A819B8190937E0380937D03D0927C0305
:100CB000C0927B032EC09981913059F58BE990E069
:100CC000F301918380838AE990E0938382838DE9A5
:100CD00090E0958384838CE990E09783868388E90C
:100CE00090E09187808789E990E09387828785E00B
:100CF00086878981878788E9848786E08587EA8176
:100D0000FB81F0937A03E0937903D0927803C09249
:100D10007703B201A101C3010F900F900F90DF91F3
:100D2000CF911F910F91FF90EF90DF90CF90BF90E8
:100D3000AF909F908F907F906F905F904F903F907B
:100D40002F90E9CE1F920F920FB60F9211240BB67F
:100D50000F922F933F934F935F936F937F938F9354
:100D60009F93AF93BF93EF93FF938BB16CB180913F
:100D70007D0390917E0357DEFF91EF91BF91AF917C
:100D80009F918F917F916F915F914F913F912F91A3
:100D90000F900BBE0F900FBE0F901F9018951F92D3
:100DA0000F920FB60F9211240BB60F921F932F9331
:100DB0003F934F935F936F937F938F939F93AF93E3
:100DC000BF93CF93DF93EF93FF93C0917B03D091B9
:100DD0007C038A899B89AC89BD89892B8A2B8B2BC3
:100DE000B1F18A899B89AC89BD89892B8A2B8B2B90
:100DF00059F188819981AA81BB8128893989F901B2
:100E0000E80FF91F10818A899B89AC89BD890197F8
:100E1000A109B1098A8B9B8BAC8BBD8B8881998191
:100E2000AA81BB812C853D854E855F85BC01CD01A6
:100E30006F5F7F4F8F4F9F4F0E9497176883798313
:100E40008A839B83812F01C080E08CB901C05598B3
:100E5000FF91EF91DF91CF91BF91AF919F918F91D2
:100E60007F916F915F914F913F912F911F910F90C3
:100E70000BBE0F900FBE0F901F9018951F920F92F0
:100E80000FB60F9211240BB60F922F933F934F93EF
:100E90005F936F937F938F939F93AF93BF93EF93E2
:100EA000FF93CF93DF931F92CDB7DEB780919C0065
:100EB000898369818091790390917A03B4DD0F90E1
:100EC000DF91CF91FF91EF91BF91AF919F918F9162
:100ED0007F916F915F914F913F912F910F900BBE3A
:100EE0000F900FBE0F901F9018951F920F920FB684
:100EF0000F9211240BB60F921F932F933F934F9392
:100F00005F936F937F938F939F93AF93BF93CF9391
:100F1000DF93EF93FF93C0917703D09178038A8991
:100F20009B89AC89BD89892B8A2B8B2BB9F18A8946
:100F30009B89AC89BD89892B8A2B8B2B59F18881A0
:100F40009981AA81BB8128893989F901E80FF91FA4
:100F500010818A899B89AC89BD890197A109B10952
:100F60008A8B9B8BAC8BBD8B88819981AA81BB813D
:100F70002C853D854E855F85BC01CD016F5F7F4F20
:100F80008F4F9F4F0E949717688379838A839B8333
:100F9000812F01C080E080939C0015C080919A0051
:100FA0008F7D80939A00E0917703F091780310820F
:100FB0001182128213821482158216821782128A7B
:100FC000138A148A158AFF91EF91DF91CF91BF9117
:100FD000AF919F918F917F916F915F914F913F91D1
:100FE0002F911F910F900BBE0F900FBE0F901F906F
:100FF000189508951F920F920FB60F9211240BB6F9
:101000000F922F933F934F935F936F937F938F93A1
:101010009F93AF93BF93EF93FF93E0911301F091F0
:101020001401099520918D0330918E03211531050E
:1010300031F08CB59DB5820F931F9BBD8ABDFF918A
:10104000EF91BF91AF919F918F917F916F915F9140
:101050004F913F912F910F900BBE0F900FBE0F90AD
:101060001F9018951F920F920FB60F9211240BB676
:101070000F922F933F934F935F936F937F938F9331
:101080009F93AF93BF93EF93FF93E0911101F09182
:101090001201099520918B0330918C0321153105A4
:1010A00031F08CB59DB5820F931F99BD88BDFF911E
:1010B000EF91BF91AF919F918F917F916F915F91D0
:1010C0004F913F912F910F900BBE0F900FBE0F903D
:1010D0001F9018951F920F920FB60F9211240BB606
:1010E0000F922F933F934F935F936F937F938F93C1
:1010F0009F93AF93BF93EF93FF93E0910F01F09114
:10110000100109952091890330918A032115310539
:1011100041F08CB59DB5820F931F90937900809319
:101120007800FF91EF91BF91AF919F918F917F9147
:101130006F915F914F913F912F910F900BBE0F9048
:101140000FBE0F901F9018951F920F920FB60F921F
:1011500011248F939F93AF93BF9380918F039091AE
:101160009003A0919103B09192030196A11DB11D2E
:1011700080938F0390939003A0939103B093920375
:10118000BF91AF919F918F910F900FBE0F901F90C5
:1011900018951F920F920FB60F9211240BB60F9253
:1011A0002F933F934F935F936F937F938F939F936F
:1011B000AF93BF93EF93FF93E0910D01F0910E0178
:1011C000099520918303309184032115310551F055
:1011D0008091880090918900820F931F90938700DF
:1011E00080938600FF91EF91BF91AF919F918F9176
:1011F0007F916F915F914F913F912F910F900BBE17
:101200000F900FBE0F901F9018951F920F920FB660
:101210000F9211240BB60F922F933F934F935F932E
:101220006F937F938F939F93AF93BF93EF93FF93AE
:10123000E0910B01F0910C0109952091810330910F
:1012400082032115310551F0809188009091890029
:10125000820F931F9093850080938400FF91EF91FC
:10126000BF91AF919F918F917F916F915F914F91BE
:101270003F912F910F900BBE0F900FBE0F901F90BC
:1012800018951F920F920FB60F9211240BB60F9262
:101290002F933F934F935F936F937F938F939F937E
:1012A000AF93BF93EF93FF93E0910901F0910A018F
:1012B000099520917F03309180032115310551F06C
:1012C0008091880090918900820F931F90938300F2
:1012D00080938200FF91EF91BF91AF919F918F9189
:1012E0007F916F915F914F913F912F910F900BBE26
:1012F0000F900FBE0F901F9018951F920F920FB670
:101300000F9211248F939F93AF93BF938091850386
:1013100090918603A0918703B09188030196A11D47
:10132000B11D8093850390938603A0938703B093A8
:101330008803BF91AF919F918F910F900FBE0F9037
:101340001F901895FC01A089B1892D933C93A6812B
:10135000B78111965C934E937093140160931301BF
:1013600006A4F7A5E02D8081806180830895FC01AB
:10137000A289B3892D933C93A085B18511965C9386
:101380004E93709312016093110106A4F7A5E02D0E
:1013900080818860808308954F925F926F927F92E0
:1013A0008F929F92AF92BF92CF92DF92EF92FF9275
:1013B0000F931F93CF93DF938A0128EE33E040E031
:1013C00050E00E94CC1729013A014B01D82FC92FB8
:1013D000980140E050E060E070E081EE90E00E9413
:1013E000971789019A0158016901E12CF12C00E05D
:1013F00010E09201A301B4018D2F9C2F0E94F517DC
:10140000B901CA01DF91CF911F910F91FF90EF9029
:10141000DF90CF90BF90AF909F908F907F906F9014
:101420005F904F9008954F925F926F927F928F924C
:101430009F92AF92BF92CF92DF92EF92FF920F9363
:101440001F938B01BC0180E090E029E939E340E083
:1014500050E00E94CC175801C12CD12CE12CF12C6A
:1014600000E010E00E94F51729013A0141145104EF
:1014700081E06806710450F021E331E045ED50E071
:1014800065E471E082E691E00E946818C2011F9154
:101490000F91FF90EF90DF90CF90BF90AF909F9013
:1014A0008F907F906F905F904F900895CF93DF93D0
:1014B000CDB7DEB760970FB6F894DEBF0FBECDBFD5
:1014C0001A82198281E090E09C838B8388E090E00F
:1014D0009E838D8380E490E098878F8380E091E005
:1014E0009A87898780E094E09C878B871E861D867B
:1014F000188A1F86FE01E60FF11DE60FF11D81819E
:10150000928160960FB6F894DEBF0FBECDBFDF911B
:10151000CF910895CF93DF93EC018FE490E099830E
:1015200088838EE490E09B838A838AE790E09D83A2
:101530008C838AE490E09F838E8388E490E099878F
:10154000888788E790E09B878A8786E490E09D877C
:101550008C878CE490E09F878E878DE893E0998B51
:10156000888B8BE893E09B8B8A8B89E893E09D8B3B
:101570008C8B86E590E09F8B8E8B8CE790E0998F2B
:10158000888F8FE893E09B8F8A8F1E8E1F8E18A204
:1015900019A21AA21BA21CA21DA21EA21FA218A65B
:1015A00019A61AA61BA61CA61DA687E590E09FA754
:1015B0008EA78EB560FB80F98EBDEA81FB8161FB51
:1015C000992790F9808190FB81F98083EA81FB81E2
:1015D00062FB992790F9808190FB82F98083E881F2
:1015E000F981808140FB80F98083E881F98141FBAA
:1015F000992790F9808190FB81F98083EA81FB81B2
:1016000042FB992790F9808190FB83F98083EA81DE
:10161000FB8143FB442740F9808140FB84F98083B0
:10162000CE0144DF9D8F8C8FEEA5FFA58081846065
:101630008083DF91CF910895CF93DF93EC018BE806
:1016400090E099838883EAE8F0E0FB83EA838CE802
:1016500090E09D838C8386E890E09F838E8384E86E
:1016600090E09987888782E890E09B878A8780E866
:1016700090E09D878C8788E890E09F878E8783E83D
:1016800093E0998B888B81E893E09B8B8A8B8FE723
:1016900093E09D8B8C8B86E590E09F8B8E8B8CE707
:1016A00090E0998F888F85E893E09B8F8A8F1E8EBC
:1016B0001F8E18A219A21AA21BA21CA21DA21EA252
:1016C0001FA218A619A61AA61BA61CA61DA68DE762
:1016D00090E09FA78EA7808160FB80F98083EA81DC
:1016E000FB8161FB992790F9808190FB81F98083D0
:1016F000EA81FB8162FB992790F9808190FB82F956
:101700008083E881F981808140FB80F98083E881D2
:10171000F98141FB992790F9808190FB81F98083C1
:10172000EA81FB8142FB992790F9808190FB83F944
:101730008083EA81FB8143FB442740F9808140FBA1
:1017400084F98083CE01B2DE9D8F8C8FEEA5FFA53C
:10175000808184608083DF91CF910895CF92DF9262
:10176000EF92FF920F931F93CF93DF938C016A0147
:101770007B01E901C114D104E104F10499F0F801FD
:1017800082899389A489B589892B8A2B8B2B51F067
:10179000C8010E9406038993F1E0CF1AD108E1083D
:1017A000F108E8CFDF91CF911F910F91FF90EF905B
:1017B000DF90CF900895CF93DF93EC0178876F830C
:1017C0005A8749873C872B8781E08D878EE890EE8A
:1017D000A1E0B0E0ABBFFC01879190E09E838D83D8
:1017E00088E18A8380E390E00E949C18FC019C833E
:1017F0008B8384E392E09183808382E292E09383FF
:1018000082838DE192E09583848382ED91E09783DA
:1018100086838DED91E09187808789EB91E09387B6
:10182000828780EB91E09587848784E192E09787B7
:1018300086878BE092E0918B808B82E092E0938BA5
:10184000828B89EF91E0958B848B8FEE91E0978B63
:10185000868B84EC91E0918F808F80E391E0938F71
:10186000828F87E291E0958F848F81EA91E0978F54
:10187000868F8EE891E091A380A386E891E093A300
:1018800082A385E591E095A384A38BE491E097A3DF
:1018900086A38AE791E091A780A78CE292E093A7C4
:1018A00082A78EE691E095A784A781E691E097A7AD
:1018B00086A719821882DF91CF9108958F929F9207
:1018C000AF92BF92EF92FF920F931F93CF93DF934C
:1018D000CDB7DEB769970FB6F894DEBF0FBECDBFA8
:1018E000FB01A485B5851196ED91FC911297319776
:1018F000ED30F10508F0DEC17B018C01EA5BFF4FA2
:101900000C94B917DC011B96ED91FC911C97868114
:1019100097810E9442034B015C01B701F801838566
:101920009485C3D5D8011B96ED91FC911C978681B7
:1019300097810E944203D8011B96ED91FC911C9760
:101940000285138524853585DC01CB01800F911F2D
:10195000A21FB31F88199909AA09BB098287938717
:10196000A487B587A7C1DC011796ED91FC91189764
:10197000108A118A128A138A148A158A168A178A7B
:1019800012A213A214A215A240E050E060E070E0A1
:10199000CE0101960E94880169E771E0CE010196AF
:1019A0000E942102CE0101960E94200283C1159659
:1019B0004D915D916D917C911897FC018781908587
:1019C0009E012F5F3F4F4096C9DED7011C96ED91D7
:1019D000FC911D9785819681A781B085E1E0F0E0BB
:1019E000EC0FFD1FE80FF91F1082BE016F5F7F4FE4
:1019F000F8018185928574D25DC1DC0119968D91C3
:101A00009C911A97ACD2F82EE92EBE016F5F7F4FE2
:101A1000F8018185928550D2EF92FF929F938F9328
:101A20008BE891E09F938F930E94251A0F900F905F
:101A30000F900F900F900F903DC1DC0117968D9184
:101A40009C91189740960E940603682FC7010E9438
:101A50001D1730C1FC018781908540960E940603C6
:101A6000F82E87E491E09F938F930E94381A8CECB4
:101A70009CE10197F1F700C000006F2DD8011B9683
:101A80008D919C911C9763D6D8011796ED91FC918E
:101A90001897108A118A128A138A148A158A168A4C
:101AA000178A12A213A214A215A224C088EA87BB27
:101AB00014BA1ABA109261001092620015BA1BBAD9
:101AC00080E688BBF7C0FC018185928519D387E445
:101AD00091E09F938F930E94381AFFEF2FE784E0E5
:101AE000F15020408040E1F700C0000083E991E020
:101AF0000E945F1A0F900F90DDC0CB010E94B916B3
:101B0000D8011796ED91FC911897108A118A128AC4
:101B1000138A148A158A168A178A12A213A214A28B
:101B200015A287E491E09F938F9366D7E3CF139636
:101B30004D915C91149760E070E0FE0131967F0159
:101B4000CF010E94880160EC70E0C7010E94BE01D5
:101B500066EA70E0C7010E94BE0162EB70E0C70157
:101B60000E94BE018DE494E00E9442039F938F93F4
:101B70007F936F9387E191E09F938F93FF92EF9212
:101B80000E949B02D80111968C9111978F938C9192
:101B90008F9382E091E09F938F93FF92EF920E9448
:101BA0009B0239C040E050E060E070E0CE01019659
:101BB0007C010E94880161EA71E0C7010E949C01DA
:101BC000D8011B96ED91FC911C9781898F93808998
:101BD0008F9380EB91E09F938F93FF92EF920E94FF
:101BE0003102D8011B96ED91FC911C9787858F934C
:101BF00086858F9384EC91E09F938F93FF92EF9271
:101C00000E943102D8011B96ED91FC911C9717861A
:101C10001686118A108AC7010E9420020FB6F89416
:101C2000DEBF0FBECDBF46C013964D915C91149799
:101C300060E070E0CE0101960E94880169ED71E0DC
:101C4000CE0101960E942102CE0101960E9420023F
:101C500061E0D80115968D919C9116970E947F1D89
:101C600098E088E10FB6F894A89581BD0FBE91BDAC
:101C7000FFCF40E050E060E070E0FE0131967F0170
:101C8000CF010E94880188EE90E09F938F93FF928E
:101C9000EF920E94CD02C7010E94200260E0D801AD
:101CA00015968D919C9116970E947F1D0F900F9015
:101CB0000F900F9081E069960FB6F894DEBF0FBECB
:101CC000CDBFDF91CF911F910F91FF90EF90BF900B
:101CD000AF909F908F900895FF920F931F93CF9393
:101CE000DF93CDB7DEB7E2970FB6F894DEBF0FBE35
:101CF000CDBFDC011796ED91FC91189702A113A1BD
:101D000024A135A14091080150E060E070E0041783
:101D100015072607370708F48FC08C01BF01605FE5
:101D20007F4FCE0101960E945B04FFA0ED85FE85EA
:101D3000FF2009F44FC0818192818E3FBFEF9B0746
:101D400031F1019609F040C0D80117968D919C9110
:101D50001897DC0150961D921D921D921C9253976C
:101D600054961D921D921D921C92579792961D9209
:101D70001D921D921C929597438154816FEF7FEFC6
:101D8000CE0188960E94880163E471E045C0D801C5
:101D900017968D919C911897DC0150961D921D927B
:101DA0001D921C92539754961D921D921D921C9247
:101DB000579792961D921D921D921C929597438162
:101DC00054816EEF7FEF22C0BE016F5F7F4FC8016D
:101DD00075DD2AC0D80117968D919C911897DC016A
:101DE00050961D921D921D921C92539754961D92CF
:101DF0001D921D921C92579792961D921D921D92B4
:101E00001C9295974381548161817281CE0188969D
:101E10000E9488016FE371E0CE0188960E9429023A
:101E2000CE0188960E9420028B8D811106C089A167
:101E30009AA10E94341901C0F12C8F2DE2960FB6A1
:101E4000F894DEBF0FBECDBFDF91CF911F910F91F0
:101E5000FF900895FC01718360830895FC01228541
:101E6000211104C0808991890C9434190895CF936D
:101E7000DF93EC01798368838FE78A835E834D83E8
:101E800082E090E00E946E1D8B8381E090E00E94D2
:101E90006E1D8C8388EA87BB14BA1ABA109261004F
:101EA0001092620015BA1BBA80E688BB8AB7806CB4
:101EB0008ABFDF91CF910895CF93DF93EB01FC01AF
:101EC0006381FBE16F9FB00111246D5F7F4F49E19A
:101ED00050E0CE010E945E1DCE01DF91CF910895AA
:101EE000EF92FF920F931F93CF93DF93CDB7DEB79F
:101EF00069970FB6F894DEBF0FBECDBF8C017B0192
:101F0000BE016F5F7F4FD8DFBE016F5F7F4FC7019C
:101F10000E94CA19892BA9F0B701CE0101960E942F
:101F2000D319F8016381FBE16F9FB00111246D5F4C
:101F30007F4F49E150E0CE0101960E94761D81E07D
:101F400001C080E069960FB6F894DEBF0FBECDBF2A
:101F5000DF91CF911F910F91FF90EF900895CF9354
:101F6000DF9300D0CDB7DEB7FC016381FBE16F9F4B
:101F7000B0011124645E7F4F42E050E0CE01019633
:101F80000E945E1D89819A810F900F90DF91CF9101
:101F90000895CF92DF92EF92FF920F931F93CF930A
:101FA000DF9388EE87BB8FEF809361008ABB84BB91
:101FB00088EA88BBEB01C801D9016C017D01C40E20
:101FC000D51EE11CF11C58E048EA9E01261B370B88
:101FD0008C159D05AE05BF0560F50097E1E0AE07E5
:101FE000B10568F4FC01249120936200D5BBCBBB02
:101FF00058BB48BB0196A11DB11D2196E6CF58E004
:1020000048EAABBFFC01C791C0936200FB01E20F3D
:10201000F31FF5BBE62FE20FEBBB58BB48BB0196A5
:10202000A11DB11D2F5F3F4F8C159D05AE05BF054E
:1020300040F388EA87BB14BA1ABA10926100109272
:10204000620015BA1BBA80E688BBDF91CF911F9161
:102050000F91FF90EF90DF90CF900895EF92FF9255
:102060000F931F93CF93DF937C0181E090E00E9458
:102070006E1DD70114968C9314978823D1F1E091AB
:102080008604F09187042181C1E0D0E0CE01009068
:10209000850402C0880F991F0A94E2F7822B81837E
:1020A0001596ED91FC911697008111812281338163
:1020B00040E050E860E070E0C7016BDFE09186042B
:1020C000F091870481810090850402C0CC0FDD1F50
:1020D0000A94E2F7C095C823C18388EA87BB14BA83
:1020E0001ABA109261001092620015BA1BBA80E60B
:1020F00088BBDF91CF911F910F91FF90EF900895D2
:10210000EF92FF920F931F93CF93DF9325E8E22E78
:1021100024E0F22ED7011196ED91FC9112974181A6
:10212000C1E0D0E09E010C9002C0220F331F0A9440
:10213000E2F7242B2183DC011596ED91FC91169793
:10214000008111812281338140E050E860E070E03D
:1021500020DFD7011196ED91FC91129781810C90AF
:1021600002C0CC0FDD1F0A94E2F7C095C823C183DB
:10217000DF91CF911F910F91FF90EF9008951F92E3
:102180000F920FB60F9211240BB60F922F933F931D
:102190004F935F936F937F938F939F93AF93BF936F
:1021A000EF93FF93E0912301F09124010995FF91B2
:1021B000EF91BF91AF919F918F917F916F915F91BF
:1021C0004F913F912F910F900BBE0F900FBE0F902C
:1021D0001F9018951F920F920FB60F9211240BB6F5
:1021E0000F922F933F934F935F936F937F938F93B0
:1021F0009F93AF93BF93EF93FF93E0912101F091F1
:1022000022010995FF91EF91BF91AF919F918F911D
:102210007F916F915F914F913F912F910F900BBEE6
:102220000F900FBE0F901F9018951F920F920FB630
:102230000F9211240BB60F922F933F934F935F93FE
:102240006F937F938F939F93AF93BF93EF93FF937E
:10225000E0911F01F09120010995FF91EF91BF914D
:10226000AF919F918F917F916F915F914F913F912E
:102270002F910F900BBE0F900FBE0F901F901895CF
:102280001F920F920FB60F9211240BB60F922F933D
:102290003F934F935F936F937F938F939F93AF93EE
:1022A000BF93EF93FF93E0911D01F0911E010995FB
:1022B000FF91EF91BF91AF919F918F917F916F911E
:1022C0005F914F913F912F910F900BBE0F900FBEDA
:1022D0000F901F9018951F920F920FB60F92112416
:1022E0000BB60F922F933F934F935F936F937F9310
:1022F0008F939F93AF93BF93EF93FF93E0911B0155
:10230000F0911C010995FF91EF91BF91AF919F91C1
:102310008F917F916F915F914F913F912F910F908E
:102320000BBE0F900FBE0F901F9018951F920F922B
:102330000FB60F9211240BB60F922F933F934F932A
:102340005F936F937F938F939F93AF93BF93EF931D
:10235000FF93E0911901F0911A010995FF91EF9116
:10236000BF91AF919F918F917F916F915F914F91AD
:102370003F912F910F900BBE0F900FBE0F901F90AB
:1023800018951F920F920FB60F9211240BB60F9251
:102390002F933F934F935F936F937F938F939F936D
:1023A000AF93BF93EF93FF93E0911701F091180162
:1023B0000995FF91EF91BF91AF919F918F917F917F
:1023C0006F915F914F913F912F910F900BBE0F90A6
:1023D0000FBE0F901F9018951F920F920FB60F927D
:1023E00011240BB60F922F933F934F935F936F93EC
:1023F0007F938F939F93AF93BF93EF93FF93E0915E
:102400001501F09116010995FF91EF91BF91AF91E0
:102410009F918F917F916F915F914F913F912F91FC
:102420000F900BBE0F900FBE0F901F901895962720
:10243000092E0294202D2F702927692F6025660F01
:10244000607E2627602D6927607F6695092E000C27
:10245000661F9695969596959F7196279827822F39
:1024600008950F931F93DA01B3958B019C01011519
:1024700080E118072105310518F4F801849103C0A3
:102480002BBFF8018791FA019191AF01891309C01F
:102490000F5F1F4F2F4F3F4FEA17FB0741F780E0B9
:1024A00001C081E01F910F9108952F923F924F92AA
:1024B0005F926F927F928F929F92AF92BF92CF92D4
:1024C000DF92EF92FF920F931F93CF93DF93CDB7DD
:1024D000DEB72B970FB6F894DEBF0FBECDBF8C01D1
:1024E0006B01DC011496ED91FC911597E0A0F1A031
:1024F0008091080190E0F701E80FF91F3080BFE0FC
:10250000B31558F5DB011C96ED91FC911D974381A5
:10251000548161E070E0CE0101960E9488016DE374
:1025200072E0CE0101960E942902CE0101960E941E
:10253000200240E050E060E070E0CE0101960E9491
:1025400088016AE972E0CE0101960E942102CE0163
:1025500001960E94200280E0D1C0832C912C982CFF
:102560008824990C990C990C092C000CAA08BB081A
:102570000196E80EF91E412C512C3201212CF80154
:1025800080819181A281B381880D991DAA1DBB1DF7
:10259000BC01CD01640D751D861D971DA70161DF6E
:1025A000882341F1F801A085B1851196ED91FC9148
:1025B0001297218181E090E00C9002C0880F991F52
:1025C0000A94E2F782278183F80180819181A281B8
:1025D000B381880D991DAA1DBB1DBC01CD01640DE1
:1025E000751D861D971D0288F389E02DA7010995A9
:1025F00022242394A895FFEF5F1A6F0A7F0AF394B1
:10260000411488E058066104710409F0B8CFF8015C
:10261000A085B1851196ED91FC911297218181E001
:1026200090E00C9002C0880F991F0A94E2F7809501
:1026300082238183CE0101967C0140E050E060E07E
:1026400070E02220D1F00E9488011F923F928EE913
:1026500092E09F938F93FF92EF920E946602C701D0
:102660000E942002D80150968D919C91519701961D
:1026700051969C938E9350970FC00E9488011F9291
:102680003F928DEA92E09F938F93FF92EF920E9488
:102690006602C7010E9420020F900F900F900F90CA
:1026A0000F900F90F801868597850196978786870A
:1026B000D6011C96ED91FC911D974381548160E0F9
:1026C00070E0C7010E94880161E073E0C7010E94C9
:1026D0002102C7010E942002D8011496ED91FC91BD
:1026E0001597108A118A128A138A148A158A168AF3
:1026F000178A12A213A214A215A281E02B960FB67C
:10270000F894DEBF0FBECDBFDF91CF911F910F9127
:10271000FF90EF90DF90CF90BF90AF909F908F9001
:102720007F906F905F904F903F902F90089524E09E
:10273000629FF0011124EB5DFE4F40815181628167
:102740007381FC01408351836283738308957F9278
:102750008F929F92AF92BF92CF92DF92EF92FF92B1
:102760000F931F93CF93DF93EC01603140F098E01B
:1027700088E10FB6F894A89581BD0FBE91BD862F54
:1027800090E0982F8827990F990F990F4C0128EF07
:10279000921A092E000CAA0BBB0BC880D980EA80C4
:1027A000FB80C80ED91EEA1EFB1E712C00E0A12C76
:1027B000B12C488159816A817B81480D591D6A1D60
:1027C0007B1D8C819D81C416D506E606F706D8F4DC
:1027D000C114E0E1DE06E104F10418F4F6011491FD
:1027E00003C0EBBEF6011791612F0E946405612FB3
:1027F000872D902F1CDE782E092FFFEFCF1ADF0ACE
:10280000EF0AFF0AD6CF672D0E946405602F8C81E6
:102810009D81DF91CF911F910F91FF90EF90DF90FD
:10282000CF90BF90AF909F908F907F900C94640555
:10283000E0918D04F0918E0480E090E0309749F0B3
:10284000029620813181820F931F0280F381E02D57
:10285000F5CF08950F931F93CF93DF9300D0CDB79B
:10286000DEB780918B0490918C048E010F5F1F4F17
:10287000009729F4055914401A83098309C0081BDD
:10288000190B1A830983D4DF800F911F9A838983E0
:1028900089819A810F900F90DF91CF911F910F91B5
:1028A0000895CF93DF93A8E8B4E01196ED91FC91E1
:1028B0001297218181E090E00C9002C0880F991F4F
:1028C0000A94E2F7809582238183EDE4F4E0A68503
:1028D000B785CD91DC91648D758D88EE93E00E9473
:1028E000130AAC014C0F5D1F20E030E069EB74E18E
:1028F0008DE494E0DF91CF910C94A209ABDF9C01B1
:1029000060917F04709180046115710559F0E0E1D8
:10291000F7E2CF01F8D2CF01F6D284E690E0861B31
:10292000970B02C084E690E04091810450918204AC
:102930004817590720F49093820480938104809172
:102940007D0490917E048217930720F430937E04D7
:1029500020937D041092800410927F040895682FC4
:1029600080918304909184040E94640580E090E04B
:102970000895CF93DF93A8E8B4E01196ED91FC9110
:102980001297218181E090E00C9002C0880F991F7E
:102990000A94E2F7822B8183EDE4F4E0A685B78503
:1029A000CD91DC91648D758D81E090E00E94130AD9
:1029B000AC014C0F5D1F20E030E061E574E18DE477
:1029C00094E0DF91CF910C94A209EFE0F4E08FEA5C
:1029D00094E1918780871386128682E0838315862F
:1029E0001486AFE8B4E01396FC93EE931297159615
:1029F000FC93EE93149708950F931F93CF93DF9357
:102A0000CDB7DEB7AE01495F5F4FFA0161917191B9
:102A1000AF01809191049091920481D58C0160E086
:102A200080918304909184040E946405C801DF9121
:102A3000CF911F910F91089581ED93E00895CF9369
:102A4000DF93CDB7DEB7AB970FB6F894DEBF0FBEFE
:102A5000CDBFE0915B04F0915C0480819181E091B5
:102A60006704F09168044081518162817381A0E024
:102A7000B0E080936B0490936C04A0936D04B093CA
:102A80006E0440936F0450937004609371047093CC
:102A9000720401ED13E01E830D838DE494E09887AA
:102AA0008F8385E894E09A87898760E0CE0101965C
:102AB0003EDE8CE890EEA1E0B0E0ABBFFC01879178
:102AC00096919C8B8B8B1B861C861D861E86188A76
:102AD0001F861A8A198AAE014F5F5F4FB801CE0177
:102AE0008396C5D9CE018396B9DAE0915B04F09163
:102AF0005C04E080F180E0916704F091680440811B
:102B0000518162817381E0916904F0916A0480913E
:102B10006F0490917004A0917104B09172049A01B5
:102B2000AB01281B390B4A0B5B0BAFEFBFEF2AD26F
:102B30004701A12CB12CC0906B04D0906C04E090A4
:102B40006D04F0906E04A50194012C193D094E0905
:102B50005F09620F731F841F951FAF010E94CC098C
:102B60007BA76AA7109384040093830478942DDFD5
:102B70006091690470916A0484EF91E00E94130AE5
:102B8000E0915B04F0915C04408151814C595F4FAE
:102B90009C0169EB74E18DE494E00E94A2096091CC
:102BA000690470916A0484E690E00E94130AE0913F
:102BB0005B04F0915C04408151814C595F4F9C0152
:102BC0006EE774E18DE494E00E94B7099E012F5FE7
:102BD0003F4FAE014D5D5F4FB801CE0145960E945B
:102BE000DB0B6AA57BA5CE01459634D9CE018A962A
:102BF0003BD31092E1031092E2031092E303109290
:102C0000E4031092E5031092E6031092E70310929A
:102C1000E8031092F3031092F4031092F50310925C
:102C2000F6030FB6F894A89581B5886181BD11BCF3
:102C30000FBECE01459650D880917F0490918004BC
:102C400001969093800480937F0486E69EE001972E
:102C5000F1F70000EECF8F929F92AF92BF92CF928A
:102C6000DF92EF92FF920F931F93E8E8F4E087E082
:102C7000808381E390E0928381838F9AE5E8F4E09A
:102C800026E02083928381838E9AEDE7F4E011821F
:102C90001082138212821582148240E065E08DE476
:102CA00094E00E948A0A40E065E08DE194E00E9491
:102CB0001C0B80E8882E912CA12CB12C9EE1C92EF2
:102CC00098E0D92EE12CF12C0DE414E020E032EC58
:102CD00041E050E061E081ED93E00E94C10524E114
:102CE000822E912CA12CB12C34E1C32ED12CE12CBD
:102CF000F12C20E835E240E050E060E083E993E029
:102D00000E94C1051F910F91FF90EF90DF90CF902F
:102D1000BF90AF909F908F90089589EB93E09ED8DD
:102D200083EA93E09BD887EF93E098D881EE93E015
:102D300095C89627092E0294202D2F702927692FD8
:102D40006025660F607E2627602D6927607F669567
:102D5000092E000C661F9695969596959F7196275D
:102D60009827822F089590E000009F5F8917E0F771
:102D70000895CF92DF92EF92FF920F931F93E0910D
:102D80008904F0918A04418121E030E000908804B8
:102D900002C0220F331F0A94E2F7242B218328EE6E
:102DA00027BB2FEF209361002ABB24BB28EA28BB56
:102DB00040E050E078E068EA8A0120E030E0DC01A1
:102DC0001C96ED91FC911D97C580D680E780F0841C
:102DD0000C151D052E053F05E0F41E96ED91FC91A6
:102DE0001F9720910801DA01A20FB11D0088F18917
:102DF000E02DEA0FFB1F228120936200218125BB79
:102E000020812BBB78BB68BB78BB68BB4D5F5F4F35
:102E1000D3CF88EA87BB14BA1ABA10926100109215
:102E2000620015BA1BBA80E688BB81E01F910F9142
:102E3000FF90EF90DF90CF900895AF92BF92DF9216
:102E4000EF92FF920F931F93CF93DF93CDB7DEB72F
:102E50002B970FB6F894DEBF0FBECDBF062FDC0157
:102E60001C96ED91FC911D974381548160E070E0C8
:102E7000CE0101960E94880188EC87BB1092610008
:102E80008FEF8ABB84BB88EA88BB10E0102F002735
:102E9000110F110F110F5801B8EFBB1AE12CF12CD3
:102EA0000A151B0590F415BB0BBBC79885E05BDFCB
:102EB000D0B06D2DCE0101960E94E6016D2DC701A7
:102EC00038DF7C010F5F1F4FEBCF6E2DCE010196D7
:102ED0000E94E6016F2DCE0101960E94E601CE010F
:102EE00001960E9420022B960FB6F894DEBF0FBE0B
:102EF000CDBFDF91CF911F910F91FF90EF90DF90A9
:102F0000BF90AF900895AA1BBB1B51E107C0AA1F39
:102F1000BB1FA617B70710F0A61BB70B881F991F7A
:102F20005A95A9F780959095BC01CD010895A1E22D
:102F30001A2EAA1BBB1BFD010DC0AA1FBB1FEE1F33
:102F4000FF1FA217B307E407F50720F0A21BB30B7E
:102F5000E40BF50B661F771F881F991F1A9469F7FA
:102F600060957095809590959B01AC01BD01CF0156
:102F70000895EE0FFF1F0024001C0BBE0790F69172
:102F8000E02D09948ED0A59F900DB49F900DA49F25
:102F9000800D911D11240895E894DF93CF93FC01D7
:102FA000DB017FD07F936F93E9019A01AC01BF935E
:102FB000AF933F932F93DF0174D026F46C1B7D0BEE
:102FC000820B930B9E01EB01FC017AD0AF91BF9174
:102FD0002F913F9175D0BE01CF01F9012F913F9103
:102FE000CF91DF910895689401C0E8948F929F92E9
:102FF000CF93DF9305D0DF91CF919F908F9008956D
:1030000088249924F401E401B0E49F93AA279A1537
:103010008B049C04ED05FE05CF05D007A10798F4AD
:10302000AD2FDC2FCF2FFE2FE92D982C892E982F36
:10303000872F762F652F542F432F322F2227B850FA
:1030400031F7BF9127C01B2EBF91BB27220F331F23
:10305000441F551F661F771F881F991F881C991CC6
:10306000EE1FFF1FCC1FDD1FAA1FBB1F8A149B046E
:10307000EC05FD05CE05DF05A007B10748F08A186D
:103080009B08EC09FD09CE09DF09A00BB10B2160FB
:103090001A94E1F62EF49401AF01BE01CD01000CAB
:1030A0000895A29FB001B39FC001A39F700D811D21
:1030B0001124911DB29F700D811D1124911D089541
:1030C000F0DF460F571FC81FD91F08F43196089527
:1030D000F0919404E09193040097B1F45F934F93BF
:1030E0007F936F933F932F9385E093E09F938F930C
:1030F000FF93EF935FD18DB79EB70A960FB6F89402
:103100009EBF0FBE8DBF17C05F934F937F936F938A
:103110009F938F933F932F9380E393E09F938F939D
:10312000FF93EF9347D18DB79EB70C960FB6F894E7
:103130009EBF0FBE8DBF21D10F931F93CF93DF93FF
:103140008230910510F482E090E0E0918D04F091DE
:103150008E0420E030E0A0E0B0E0309719F140812B
:1031600051810281138148175907C8F084179507C8
:1031700069F4109731F012960C93129713961C93E2
:1031800027C000938D0410938E0422C021153105B1
:1031900019F04217530718F49A01BD01EF01DF013E
:1031A000F801DBCF21153105F9F0281B390B24304C
:1031B000310580F48A819B816115710521F0FB0145
:1031C0009383828304C090938E0480938D04FE01C8
:1031D000329644C0FE01E20FF31F81939193225077
:1031E0003109398328833AC020918B0430918C04B3
:1031F000232B41F4209102013091030130938C0480
:1032000020938B042091000130910101211531059B
:1032100041F42DB73EB74091040150910501241BA4
:10322000350BE0918B04F0918C04E217F307A0F4C6
:103230002E1B3F0B2817390778F0AC014E5F5F4F0C
:103240002417350748F04E0F5F1F50938C044093AE
:103250008B048193919302C0E0E0F0E0CF01DF9115
:10326000CF911F910F910895CF93DF93009709F4A9
:1032700081C0FC01329713821282A0918D04B0911B
:103280008E04109781F420813181820F931F209149
:103290008B0430918C042817390751F5F0938C0476
:1032A000E0938B0467C0ED0120E030E0CE17DF072C
:1032B00040F44A815B819E0141155105F1F0EA011C
:1032C000F5CFD383C28340815181840F951FC817E6
:1032D000D90759F488819981840F951F02969183AB
:1032E00080838A819B81938382832115310529F410
:1032F000F0938E04E0938D043DC0E901FB83EA83E3
:1033000049915991C40FD51FEC17FD0761F48081D5
:103310009181840F951F0296E901998388838281A8
:1033200093819B838A83E0E0F0E012968D919C91DB
:103330001397009719F0FD01DC01F7CF8D919C9157
:1033400011979D012E5F3F4F820F931F20918B0499
:1033500030918C042817390769F4309729F41092BA
:103360008E0410928D0402C013821282B0938C04DA
:10337000A0938B04DF91CF91089581E090E0F894C1
:10338000CBC3FC0105900020E9F7809590958E0F46
:103390009F1F0895FB01DC018D91019080190110A0
:1033A000D9F3990B0895FB01DC0101900D920020E7
:1033B000E1F70895CF93DF93CDB7DEB7AE01475F56
:1033C0005F4F6F8178858D819E8107D1DF91CF918D
:1033D00008950F931F93CF93DF93FB01238121FD6A
:1033E00003C08FEF9FEF2CC022FF16C0468157818C
:1033F000248135814217530744F4A081B1819D0196
:103400002F5F3F4F318320838C93268137812F5F3D
:103410003F4F3783268314C08B01EC01FB010084EE
:10342000F185E02D0995892BE1F6D80116968D914D
:103430009C911797019617969C938E931697CE01A1
:10344000DF91CF911F910F910895CF93DF93CDB767
:10345000DEB7AE014B5F5F4FFA0161917191AF0131
:103460008091910490919204B8D0DF91CF9108950A
:103470000F931F93CF93DF93CDB7DEB7AE01495FB4
:103480005F4FDA016D917D91AD010FE814E0F80115
:1034900082819381DC0113962C91139728601396F7
:1034A0002C939BD0D8011296ED91FC911397238118
:1034B000277F2383DF91CF911F910F9108950F9361
:1034C0001F93CF93DF93E0919104F09192042381B5
:1034D00021FF1BC08C01D0E0C0E0F80181918F0179
:1034E0006091910470919204DB011896ED91FC912A
:1034F0001997882331F00995892B79F3DFEFCFEF06
:10350000ECCF8AE00995892B19F08FEF9FEF02C06D
:103510008D2F9C2FDF91CF911F910F910895CF9305
:10352000DF93EC018B8188608B83CE0156D02B8199
:10353000277F2B83DF91CF9108950F931F93CF9314
:10354000DF93CDB7DEB72E970FB6F894DEBF0FBE70
:10355000CDBF8C0186E08C831A8309838FEF9FE7B0
:103560009E838D83CE01019638D0EF81F885E00FE0
:10357000F11F10822E960FB6F894DEBF0FBECDBF9E
:10358000DF91CF911F910F9108950F931F93CF93C8
:10359000DF93CDB7DEB72E970FB6F894DEBF0FBE20
:1035A000CDBF8C018EE08C831A8309838FEF9FE758
:1035B0009E838D83CE01019610D0EF81F885E00FB8
:1035C000F11F10822E960FB6F894DEBF0FBECDBF4E
:1035D000DF91CF911F910F9108952F923F924F92BB
:1035E0005F926F927F928F929F92AF92BF92CF9293
:1035F000DF92EF92FF920F931F93CF93DF93CDB79C
:10360000DEB72B970FB6F894DEBF0FBECDBF6C01AF
:103610007B018A01FC0117821682838181FFBFC171
:10362000CE0101963C01F6019381F70193FD85914E
:1036300093FF81917F01882309F4ADC1853239F46C
:1036400093FD859193FF81917F01853221F4B6012D
:1036500090E0BFDEE8CF912C212C312CFFE1F31557
:10366000D8F08B3279F038F4803279F08332A1F4DB
:10367000232D20611DC08D3261F0803369F4232D2C
:10368000216016C0832D8260382EE32DE4603E2E2B
:103690002AC0F32DF8601DC037FC2DC020ED280F87
:1036A0002A3040F08E32B9F436FC75C1232D2064E7
:1036B000322E19C036FE06C08AE0989E200D1124D5
:1036C000922E11C0EAE02E9E200D1124222EF32D01
:1036D000F0623F2E08C08C3621F4832D8068382E8E
:1036E00002C0883641F4F70193FD859193FF8191E3
:1036F0007F018111B3CF982F9F7D9554933028F48B
:103700000C5F1F4F9FE399830DC0833631F08337E1
:1037100071F0833509F055C020C0F801808189839C
:103720000E5F1F4F88248394912C530112C02801EF
:10373000F2E04F0E511CF801A080B18036FE03C0AC
:10374000692D70E002C06FEF7FEFC5014ED14C01D3
:103750008201F32DFF773F2E15C0280122E0420E93
:10376000511CF801A080B18036FE03C0692D70E0C5
:1037700002C06FEF7FEFC5012DD14C01F32DF06832
:103780003F2E820133FC19C0822D90E088169906E5
:10379000A0F4B60180E290E01CDE2A94F5CFF5019A
:1037A00037FC859137FE81915F01B60190E011DE13
:1037B00021102A9421E0821A91088114910479F74A
:1037C000E1C0843611F0893639F5F80137FE07C0BB
:1037D00060817181828193810C5F1F4F08C060817D
:1037E0007181072E000C880B990B0E5F1F4FF32D74
:1037F000FF763F2E97FF09C0909580957095619553
:103800007F4F8F4F9F4FF0683F2E2AE030E0A3019B
:10381000F7D0882E861844C0853731F4232D2F7EAB
:10382000B22E2AE030E025C0932D997FB92E8F3635
:10383000C1F018F4883579F0AEC0803719F08837B8
:1038400021F0A9C0E92FE061BE2EB4FE0DC0FB2D12
:10385000F460BF2E09C034FE0AC0292F2660B22EA4
:1038600006C028E030E005C020E130E002C020E1E1
:1038700032E0F801B7FE07C06081718182819381D7
:103880000C5F1F4F06C06081718180E090E00E5F89
:103890001F4FA301B5D0882E8618FB2DFF773F2E32
:1038A00036FE0DC0232D2E7FA22E891458F434FE2F
:1038B0000BC032FC09C0832D8E7EA82E05C0B82C0B
:1038C000A32C03C0B82C01C0B92CA4FE0FC0FE016C
:1038D000E80DF11D8081803321F49A2D997EA92E67
:1038E00009C0A2FE06C0B394B39404C08A2D8678A2
:1038F00009F0B394A3FC10C0A0FE06C0B21480F47B
:10390000280C922C9B180DC0B21458F4B60180E21A
:1039100090E05FDDB394F8CFB21418F42B1802C016
:10392000982C212CA4FE0FC0B60180E390E051DD5D
:10393000A2FE16C0A1FC03C088E790E002C088E5A3
:1039400090E0B6010CC08A2D867851F0A1FE02C02D
:103950008BE201C080E2A7FC8DE2B60190E039DD88
:10396000891430F4B60180E390E033DD9A94F8CF07
:103970008A94F301E80DF11D8081B60190E029DD04
:103980008110F6CF222009F44ECEB60180E290E0FD
:1039900020DD2A94F7CFF6018681978102C08FEF50
:1039A0009FEF2B960FB6F894DEBF0FBECDBFDF9111
:1039B000CF911F910F91FF90EF90DF90CF90BF902C
:1039C000AF909F908F907F906F905F904F903F90BF
:1039D0002F900895FC010590615070400110D8F7B8
:1039E000809590958E0F9F1F0895FC016150704047
:1039F00001900110D8F7809590958E0F9F1F089524
:103A0000FA01AA27283051F1203181F1E8946F930F
:103A10006E7F6E5F7F4F8F4F9F4FAF4FB1E03ED0B5
:103A2000B4E03CD0670F781F891F9A1FA11D680F53
:103A3000791F8A1F911DA11D6A0F711D811D911D86
:103A4000A11D20D009F468943F912AE0269F1124FB
:103A50003019305D3193DEF6CF010895462F47705F
:103A6000405D4193B3E00FD0C9F7F6CF462F4F70BA
:103A7000405D4A3318F0495D31FD4052419302D018
:103A8000A9F7EACFB4E0A6959795879577956795BE
:103A9000BA95C9F700976105710508959B01AC01BE
:103AA0000A2E06945795479537952795BA95C9F7E5
:103AB000620F731F841F951FA01D0895DC01CB01A9
:103AC000FC01E199FECF06C0FFBBEEBBE09A319648
:103AD0000DB20D9241505040B8F70895E199FECFD4
:103AE0009FBB8EBBE09A99278DB30895DC01CB0173
:103AF00002C02D9105D041505040D8F70895262F8F
:103B0000E199FECF9FBB8EBB2DBB0FB6F894E29A16
:103B1000E19A0FBE0196089511E0C4E2D1E003C01E
:103B2000FE0127DA2196C532D107D1F7F894FFCFED
:103B3000000095042000C00A0CF907F907F907F9FD
:103B400007F907F907F907F907F907F907F907F975
:103B500007F907F9070060000000E00000006001BD
:103B6000006379636C6573203C3D2030786666663F
:103B700066554C4C002E2E2F61746D3132385F74B7
:103B8000696D6572732F74696D65725F722E6370F3
:103B900070006D735F746F5F6379636C657300258C
:103BA000642025632025640A0072782062756666A9
:103BB000657220666C7573686564003E25737C25AC
:103BC000753C005372616D2072656C6F6164656451
:103BD0000077726974696E672073746174730A0088
:103BE0007061636B657473207772697474656E209D
:103BF00025640A007061636B657473207265636588
:103C0000697665642025640A00626F6F746C6F6169
:103C1000646572003078256C780A0062616E6B25ED
:103C200064736574006E616D655F776561723A25D6
:103C3000737C25750073657474696E67206E616DA1
:103C4000653A202573006370753A253035753A253D
:103C50003033750A006469676964696167202564A7
:103C60000A002E2E2F666C6173685F777269746527
:103C7000722E6370700054696D656F757420696E83
:103C80002025732E2046696C652025730A00526535
:103C90006365697665642062797465733A20257579
:103CA0002C200065787065637465643A2025750A78
:103CB000000A45726173696E6720617420616464F3
:103CC0007265737320256C640A004F4F5200504197
:103CD000434B45543A20253264205752005041430B
:103CE0004B45543A20253264202D2D0066777269A9
:103CF0007465725F7265616479005061636B6574AD
:103D000073207265636569766564202564206F752C
:103D100074206F6620256400496E76616C696420AA
:103D200062756666657220706F696E7465720A00EE
:103D30006E61636B00417373657274696F6E2066A8
:103D400061696C65643A20282573292C2066696CAA
:103D5000652025732C206C696E652025642E0A0071
:103D6000417373657274696F6E206661696C656416
:103D70003A20282573292C2066756E6374696F6E4E
:103D80002025732C2066696C652025732C206C69B6
:083D90006E652025642E0A0077
:00000001FF
