:10000000FBC100000C94DD190C94081A0C94331AEF
:100010000C945E1A0C94891A0C94B41A0C94DF1A7E
:100020000C940A1B13C2000011C200000FC2000092
:100030000C94E60F0C941E100C94901007C2000054
:1000400005C2000003C200000C948D0E0C94BA0E81
:10005000FDC10000FBC10000F9C10000F7C10000B4
:100060000C945610F3C100000C94B5100C94F110D0
:100070000C942D110C9469110C94290F0C94610FA0
:10008000E5C10000E3C10000E1C10000681499145B
:1000900011181118AF14F114FE142A15351578151E
:1000A000D815FB1511181B1637163F164716631681
:1000B0007816E5161118111811189816B4156A1645
:1000C0007516101700010203040506073637383984
:1000D0003A3B3C3D3E3F40414243444550855556A6
:1000E0007D8A2B2C1D1954594B4C7E540001020360
:1000F00004050607353637383A3B3C3D3F40414220
:100100004445464750855556868A2A2B1D1958590D
:100110004B4C7E5496AD810224022016D6AE80024E
:100120001B97AFD6AF58CE55BF3A1AEE0018A600AF
:1001300097AF96AD810027022004C6F5D7AF96ADE4
:1001400081012702200A86FFD6AE5454541097AF7F
:1001500096AD81092702200BD6AE86081B97AE8686
:10016000FF97AD96AE812822022004C600D7AE18B4
:10017000CEB000D6AFB6B02E2AFBF7B02F7C00ADC4
:10018000CC0350F3B00EFDB0168680B7B023181C18
:1001900022803BB7B0098630B7B02B8608B7B02DA8
:1001A000181C2280CC0000DDAD398E00FF860BB715
:1001B000103D8608B7B00086C1B7B0248690B7B0AE
:1001C0003918CEB00086804E6F7420737570706FD2
:1001D000727465642062696E61727900446967694E
:1001E00066616E7420334D41502066696C65004431
:1001F00069676966616E7420314D41502066696C93
:10020000650042616E6B7320726573657400626194
:100210006E6B337365740062616E6B32736574006C
:1002200062616E6B3173657400776970696E672007
:10023000646F6E6500776970696E672062616E6BCE
:1002400073004D61722032332032303230000A5652
:10025000657273696F6E3A52322E325F32333033C9
:1002600032305F666978000A425420454550524F4B
:100270004D20454D554C41544F5220520A436F6D0D
:1002800070696C6174696F6E20646174653A0064B2
:10029000697361626C696E6720626F6F746C6F6105
:1002A000646572000A5372616D206C6F61646564ED
:1002B00020696E202575206D73000A4F6E54696D9C
:1002C000653A20256C75206D730042616E6B206E5F
:1002D000616D65207365743A202573007061636BEE
:1002E0006574732072656365697665642025640AA8
:1002F000007061636B657473207772697474656EE6
:100300002025640A0077726974696E6720737461CE
:1003100074730A005372616D2072656C6F6164655D
:10032000640A0062616E6B6E616D653A25730064EC
:100330007478006E616B0061636B0073746172743A
:10034000696E6720626F6F746C6F61646572207391
:100350006D617274206D6F646500626F6F746C6F95
:10036000616465720062616E6B3373657400626113
:100370006E6B327365740062616E6B31736574000D
:1003800064686964006F6F720061636B000A526594
:100390006C6561736520666C61673A202564000AAC
:1003A00056657273696F6E3A52322E325F32333055
:1003B0003332305F666978000A5374617274757005
:1003C0002074696D653A202575206D7300454D5583
:1003D00042545220005372616D20757064617465DF
:1003E00064206F662025642062797465730027029B
:1003F0005609250B2D20882011241FBECFEFD0E1F8
:10040000DEBFCDBF11E0A0E0B1E0E2E2FEE400E03B
:100410000BBF02C007900D92AC3EB107D9F723E0A5
:10042000ACEEB1E001C01D92AE31B207E1F711E0D0
:10043000CBEFD1E004C02197FE010E94CA21C73F43
:10044000D107C9F70E94EF1D0C940527D9CDE4EF21
:10045000F1E022E330E03183208387E0828380E390
:1004600090E094838383EFEEF1E03183208326E0F4
:1004700022839483838380910601ECEEF1E021E3F3
:1004800030E03183208382830895CF93DF93EC01A2
:100490008C819D81AE81BF8128893989F901E80F5E
:1004A000F91F60838C819D81AE81BF812A893B8940
:1004B0004C895D89BC01CD016F5F7F4F8F4F9F4F8E
:1004C0000E94A8216C837D838E839F834C855D85EC
:1004D0006E857F858A899B89AC89BD8948175907B4
:1004E0006A077B0758F48C859D85AE85BF8501968C
:1004F000A11DB11D8C879D87AE87BF874C855D850B
:100500006E857F858A899B89AC89BD894817590783
:100510006A077B0741F48C819D81AE81BF8188830E
:100520009983AA83BB83DF91CF910895CF93DF9303
:10053000EC018FEF888319821A8281E08B831C8201
:100540001D821E821F82188619861A861B8684E1E8
:100550008D87188A198A1A8A1B8A8AE090E0A0E09F
:10056000B0E08E8B9F8BA88FB98F84E190E00E94C2
:10057000AD229F878E878E899F89A88DB98D0E9415
:10058000AD229D8B8C8B1C86DF91CF91089581E0ED
:10059000809307018FEF9FEF9093090180930801EB
:1005A000089581E02091080130910901232B09F47D
:1005B00080E08093070110920901109208010895CC
:1005C0009F92AF92BF92CF92DF92EF92FF920F93E2
:1005D0001F93CF93DF93CDB7DEB765970FB6F8942F
:1005E000DEBF0FBECDBF8C01F62E85EF681305C0B0
:1005F00081E0F801818365EF22C0F80181818823C1
:10060000C9F08081681719F0FFEF6F1313C081E004
:10061000F801828311826F2DC801049636DFFFEF47
:10062000FF1621F0F8018081815002C08EEFF801A1
:10063000808318C0F8018281882329F06F2DC801BA
:10064000049623DF0FC0F8011482158216821782E8
:100650001086118612861386108A118A128A138ACE
:1006600012821182F80180899189A289B3890A973F
:10067000A105B10509F077C0128211827E01FCE06C
:10068000EF0EF11C5E0186E1A80EB11CCE2C9F2C52
:10069000F80180899189A289B389892B8A2B8B2BB8
:1006A000F1F1F80180899189A289B389892B8A2B7C
:1006B0008B2B09F456C0F80184819581A681B781FE
:1006C00024893589F901E80FF91FD080F801808964
:1006D0009189A289B3890197A109B109808B918B76
:1006E000A28BB38B84819581A681B78126893789B6
:1006F000408D518DBC01CD016F5F7F4F8F4F9F4F5C
:100700000E94A821F80164837583868397838D2DC9
:10071000F70181937F01EA15FB0509F0B9CFF801D4
:100720008381882389F040E050E065E070E0CE01ED
:100730000196F3D54AE050E06C2D792DCE0101965B
:10074000E5D6CE010196E1D680910801909109018C
:10075000019611F481E090E09093090180930801E3
:1007600002C080E0D5CF65960FB6F894DEBF0FBE0D
:10077000CDBFDF91CF911F910F91FF90EF90DF9050
:10078000CF90BF90AF909F900895AC01092E000CC0
:10079000660B770B4F3F2FEF52076105710518F479
:1007A000FC01849108956BBFFA014791842F08954D
:1007B0006F3F2FEF72078105910518F4FB018491BB
:1007C00008958BBFFB016791862F08956F3F2FEF30
:1007D00072078105910558F4FB0124913196E4914B
:1007E000822F90E0982F88278E0F911D08958BBF40
:1007F000FB012791AB01BC014F5F5F4F6F4F7F4FF4
:100800006BBFFA014791822F90E0982F8827840FC1
:10081000911D0895FC0180819181A281B381BC0169
:10082000CD01625070488F4F9F4FD0CFCF92DF9253
:10083000EF92FF92CF93DF93D82FC42FC42ED52EE3
:100840007B018C2D8C1B8D1760F48FEFC81AD80A92
:10085000E80AF80AC701B601ABDF813491F380E002
:1008600001C081E0DF91CF91FF90EF90DF90CF90BA
:1008700008958F929F92AF92BF92CF92DF92EF92A4
:10088000FF921F93CF93DF93EC01162FC880D9807E
:10089000EA80FB80C40ED51EE11CF11C862E912C33
:1008A000A12CB12C88819981AA81BB819058AF4F2E
:1008B000BF4F88199909AA09BB09C816D906EA06C3
:1008C000FB06A8F4B701A601812FB0DF882349F009
:1008D0002881398181E090E0821B930B8C0D9D1D56
:1008E00008C08FEFC81AD80AE80AF80ADBCF80E000
:1008F00090E0DF91CF911F91FF90EF90DF90CF902C
:10090000BF90AF909F908F900895FC01808191815E
:10091000A281B381BC01CD01605170488F4F9F4FC0
:1009200055DF8831F1E69F0711F480E090E00895EB
:10093000BF92CF92DF92EF92FF920F931F93CF93CC
:10094000DF9300D01F92CDB7DEB77C018DEB89839A
:10095000D7011A968C911A971B969C919A838B8338
:10096000FE01319680E090E058E048EA2191209322
:100970006200D70153962D913C915497280F391F4F
:1009800035BB53962C915397280F2BBB58BB48BBB4
:1009900001968330910551F71A96DC901A970D2D28
:1009A0001B961C9188E0B82E98EAC92E802F8D19CD
:1009B000F701978522853385290F311D021713070B
:1009C00068F490E08D569E4FE0DE8093620015BB88
:1009D0000BBBB8BAC8BA0F5F1F4FE8CF0F900F908C
:1009E0000F90DF91CF911F910F91FF90EF90DF90CB
:1009F000CF90BF900895DF92EF92FF920F931F93D5
:100A0000CF93DF93EC01FC800F2D1D8188E0D82E61
:100A100098EAE92E802F8F199E852C813D81290F20
:100A2000311D0217130768F490E08C5E9E4FADDE17
:100A30008093620015BB0BBBD8BAE8BA0F5F1F4F9B
:100A4000E9CF8F81809362008C819D81439695BB15
:100A50008C818D5E8BBB38E038BB28EA28BB8E8149
:100A6000809362008C819D81449695BB8C818C5EC5
:100A70008BBB38BB28BBDF91CF911F910F91FF90AB
:100A8000EF90DF900895DF92EF92FF920F931F9304
:100A9000CF93DF937C01FC01C681D78110E088E011
:100AA000D82E08EAF70181891817B8F4109262006D
:100AB000D5BBCBBBD8BA08BBF7018789908D810F16
:100AC000911D63DE80936200CE01019695BB8BBBC6
:100AD000D8BA08BB22961F5FE5CFDF91CF911F9157
:100AE0000F91FF90EF90DF900895FC0126813781F0
:100AF00090E058E048EA81899817C0F410926200AB
:100B000035BB2BBB58BB48BBDB01A90FB11D8C917A
:100B100080936200D9011196B5BB81E0820F8BBB37
:100B200058BB48BB2E5F3F4F9F5FE5CF0895FC0148
:100B300081E880936200858585BB84858BBB98E0C6
:100B400098BB88EA88BB228921110BC02EE620932E
:100B500062002FE725BB30EF3BBB98BB88BB38E179
:100B60000CC0213089F426E7209362002FE725BBD3
:100B700030EF3BBB98BB88BB34E13093620025BBB0
:100B800021EF2BBB98BB88BB8581809362002FE748
:100B900025BB88EE8BBB98E098BB88EA88BB348184
:100BA0003093620025BB29EE2BBB98BB88BB089510
:100BB0000F931F93CF93DF93CDB7DEB7C654D10900
:100BC0000FB6F894DEBF0FBECDBF8C01CE010196EB
:100BD00040D38B8D882311F1F80182898230F0F4A3
:100BE00082859385892BD1F086819781892BB1F0FD
:100BF000C8019DDFC8019CDEC801FDDEC80143DFDE
:100C00008E8D882331F0BE01615E7F4FC8016DDF9C
:100C100002C0C80138DFBBDC81E001C080E0CA5BF4
:100C2000DF4F0FB6F894DEBF0FBECDBFDF91CF917F
:100C30001F910F9108950F931F93CF93DF938C0112
:100C4000C0E0F8018089C817E0F48C2F90E0865549
:100C50009E4F9BDDD82FF8012085318580819181C1
:100C6000A281B381820F931FA11DB11DBC01CD01D3
:100C70006C0F711D811D911D9BDDD81304C0CF5FCA
:100C8000E0CF81E001C080E0DF91CF911F910F9113
:100C90000895CF93DF93EC0188819981AA81BB816C
:100CA000CC96A11DB11D28853985BC01CD01620FEF
:100CB000731F811D911D7CDD8E3441F0823561F4FE
:100CC0008FEE91E09E8B8D8B80E00BC08CED91E0E0
:100CD0009E8B8D8B81E005C087EC91E09E8B8D8B88
:100CE00082E0DF91CF910895CF93DF93EC014883A9
:100CF00059836A837B838FE78E8787E18F878DE1B6
:100D0000888B198A87EC91E09E8B8D8BCE0182DDDA
:100D100099878887CE01F9DD9D838C8388859985A5
:100D20009C01225F3F4F3D872C87C8969C8B8B8B05
:100D30001F821E821B861A86CE017DDF882331F139
:100D4000CE01A7DF8A8B882339F0813059F488E2FD
:100D5000898B84EC90E004C088E2898B8CEE90E073
:100D6000988F8F8B488559856F85CE0182DD9C01D8
:100D70009B878A879F85492F50E041505109420F38
:100D8000531F6989CE0175DD9F838E83DF91CF91DB
:100D90000895EF92FF920F931F93CF93DF93CDB7F8
:100DA000DEB72B970FB6F894DEBF0FBECDBFFC01A8
:100DB000F588E68840E050E063E070E08E010F5F68
:100DC0001F4FC801AAD2EF92FF921F930F930BD42B
:100DD000C8019BD30F900F900F900F902B960FB6DA
:100DE000F894DEBF0FBECDBFDF91CF911F910F9161
:100DF000FF90EF9008950895CF92DF92EF92FF92C7
:100E00000F931F93CF93DF93CDB7DEB76A970FB6DB
:100E1000F894DEBF0FBECDBF062F7A01CA01ECD217
:100E200086E4089F800111246091FE017091FF010A
:100E3000600F711F4AE150E0CE0101960E94CF265B
:100E40004AE150E0BE016F5F7F4FC701EED2809153
:100E5000FE019091FF01800F911F4A960E94DF26AC
:100E6000682FC701C9D28091FE019091FF01800FC8
:100E7000911F4B960E94E726D82E692FC701BCD23E
:100E80006D2DC701B9D28091FE019091FF01800FB5
:100E9000911F4D960E94DF26682FC701ADD2C12C4D
:100EA000D12C8091FE019091FF01800F911F96013E
:100EB000225E3F4F820F931F0E94DF26682FC701DB
:100EC0009BD28FEFC81AD80A88E2C816D10449F716
:100ED0006A960FB6F894DEBF0FBECDBFDF91CF91FB
:100EE0001F910F91FF90EF90DF90CF9008958F9218
:100EF0009F92AF92BF92CF92DF92EF92FF920F93A9
:100F00001F93CF93DF93CDB7DEB769970FB6F894F1
:100F1000DEBF0FBECDBF5C01AB018E01045F1F4F72
:100F200067E070E0C801F9D18091360190913701F6
:100F3000A09138018F8B988FA98F7E0187E1E80EF1
:100F4000F11C48016E01EAE1CE0ED11CF70161915E
:100F50007F018BE0F401DE01119601900D928A95DC
:100F6000E1F7AE014F5F5F4FC50146DFCE0101964D
:100F7000CCD2EC14FD0451F7C801C7D269960FB664
:100F8000F894DEBF0FBECDBFDF91CF911F910F91BF
:100F9000FF90EF90DF90CF90BF90AF909F908F9099
:100FA00008959F92AF92BF92CF92DF92EF92FF92FD
:100FB0000F931F93CF93DF93CDB7DEB764970FB630
:100FC000F894DEBF0FBECDBF86E0E5E4F1E0DE01C0
:100FD0001C9601900D928A95E1F7809136019091CF
:100FE0003701A09138018A8B9B8BAC8B6E0182E11B
:100FF000C80ED11C5E01E5E1AE0EB11C96E4992E3F
:10100000F601F1906F019F9C800111246091FE0117
:101010007091FF01600F711F46E050E0CE010C9609
:101020000E94EC2661E36F0D8091FE019091FF011B
:10103000800F911F04960E94F52686E0E82EF12C81
:101040008091FE019091FF01800F911F60E08E0D55
:101050009F1D0E94F526FFEFEF1AFF0A8AE1E816AE
:10106000F10471F78091FE019091FF01800F911FB3
:1010700061E04A960E94F5268091FE019091FF0161
:10108000800F911F60E070E04B960E9402278091D4
:10109000FE019091FF01800F911F61E04D960E942B
:1010A000F526E12CF12C61E06E0D8091FE0190910E
:1010B000FF01800F911F9701225E3F4F820F931F08
:1010C0000E94F526EFEFEE1AFE0AF8E2EF16F104A1
:1010D00051F7AC14BD0409F093CF40E050E063E059
:1010E00070E08E010F5F1F4FC80117D182E092E0C0
:1010F0009F938F931F930F9376D2C80106D20F90C0
:101100000F900F900F9064960FB6F894DEBF0FBE4D
:10111000CDBFDF91CF911F910F91FF90EF90DF90A6
:10112000CF90BF90AF909F900895EF92FF920F9352
:101130001F93CF93DF93C091FE01D091FF0196E4FE
:10114000899FC00DD11D11248B017E01E6E4EE0EB6
:10115000F11CCE010E94DF26F80161918F018617F4
:1011600019F0CE010E94F5262196CE15DF0589F7EC
:10117000DF91CF911F910F91FF90EF900895809391
:10118000FD0194E0899FF0011124E65FFE4F80810C
:101190009181A281B3818093F9019093FA01A09388
:1011A000FB01B093FC010895CF93DF93EB01809195
:1011B000FD016091FE017091FF0196E4899F600D31
:1011C000711D11244AE150E0CE010E94CF26CE01CC
:1011D000DF91CF910895FF920F931F93CF93DF93E9
:1011E000CDB7DEB76A970FB6F894DEBF0FBECDBF9E
:1011F0008B01F42EBE016F5F7F4FD6DFBE016F5FA4
:101200007F4FC8010E94DB23892BB1F0B801CE01CA
:1012100001960E94E4236091FE017091FF0186E433
:10122000F89E600D711D11244AE150E0CE01019637
:101230000E94EC2681E001C080E06A960FB6F89427
:10124000DEBF0FBECDBFDF91CF911F910F91FF90F9
:101250000895CF92DF92EF92FF920F931F93CF9357
:10126000DF937C018091FD01C091FE01D091FF01CF
:1012700096E4899FC00DD11D112487016E01E6E41B
:10128000CE0ED11CCE010E94DF26F80181938F0182
:101290002196CC15DD05B1F7C701DF91CF911F91E4
:1012A0000F91FF90EF90DF90CF90089580911601FD
:1012B000909117019093FF018093FE01E091FD0151
:1012C00084E0E89FF0011124E65FFE4F8081918168
:1012D000A281B3818093F9019093FA01A093FB015D
:1012E000B093FC0108959627092E0294202D2F70AB
:1012F0002927692F6025660F607E2627602D6927C4
:10130000607F6695092E000C661F969596959695BA
:101310009F7196279827822F0895FC018CE3808384
:1013200016821582108617828EE381871286728359
:101330006183548343830895FC018CE3808314828A
:10134000138216821582108617828EE38187128699
:1013500083E090E0928381830895809100029091D0
:10136000010286C30F931F93CF93DF938C01EB0190
:1013700088818823A1F0F801858196810196968362
:101380008583688187819085AEDFF80190878783A8
:10139000699180910002909101026AD3E9CFDF91B7
:1013A000CF911F910F910895EF92FF921F93CF93CA
:1013B000DF937C01FB011491EB0121961123B1F025
:1013C000F70185819681019696838583612F8781B8
:1013D000908589DFF70190878783612F80910002D4
:1013E0009091010245D3FE011491E7CFDF91CF9197
:1013F0001F91FF90EF9008951F93CF93DF93EC011F
:10140000162F809100029091010232D38D819E812E
:1014100001969E838D83612F8F81988564DF9887E5
:101420008F83DF91CF911F910895DF92EF92FF920A
:101430000F931F93CF93DF938C01EB017B01E40E9D
:10144000F51ECE15DF05A9F0D9906D2D8091000213
:10145000909101020DD3F8018581968101969683C2
:1014600085836D2D878190853EDFF8019087878386
:10147000E8CFDF91CF911F910F91FF90EF90DF9018
:101480000895CF92DF92EF92FF920F931F93CF9325
:10149000DF9300D0CDB7DEB71A821982FC01228516
:1014A000211128C08C0181E08287CE2E7F0190918E
:1014B00018018E2D8C19891780F06981C8014DDFC4
:1014C0006A81C8010F900F90DF91CF911F910F910A
:1014D000FF90EF90DF90CF9040CFF701D1907F0148
:1014E0006D2DC8013ADF6D2D89819A81FCDE9A83CA
:1014F0008983DDCF0F900F90DF91CF911F910F91D6
:10150000FF90EF90DF90CF900895BBCFEF92FF92C6
:101510000F931F93CF93DF93EC018B017B01E40EBC
:10152000F51E0E151F05A9F08D819E8101969E83E3
:101530008D83F80160818F819885D5DE98878F83B0
:10154000F80161918F01809100029091010290D287
:10155000E8CFCE01DF91CF911F910F91FF90EF90D7
:1015600090CFCF93DF93EC01FDDECE01DF91CF91E1
:1015700088CFCF93DF93EC0117DFCE01DF91CF91BE
:1015800080CF0F931F93CF93DF93CDB7DEB7E29752
:101590000FB6F894DEBF0FBECDBF8BAD9CAD0E94E1
:1015A000D2238634910590F4AE01435C5F4F6BAD5E
:1015B0007CADCE0101960E94FA238C01BE016F5FC3
:1015C0007F4F89AD9AADCEDEC80102C080E090E0C9
:1015D000E2960FB6F894DEBF0FBECDBFDF91CF917C
:1015E0001F910F9108950F931F93CF93DF93CDB762
:1015F000DEB7E2970FB6F894DEBF0FBECDBF8BAD5E
:101600009CAD0E94D2238634910590F4AE01435CD8
:101610005F4F6BAD7CADCE0101960E94FA238C0129
:10162000BE016F5F7F4F89AD9AAD9BDFC80102C0DD
:1016300080E090E0E2960FB6F894DEBF0FBECDBF1B
:10164000DF91CF911F910F9108950E94D71D909324
:1016500001028093000208951F93CF93DF93EC0162
:101660008C859D85AE85BF85892B8A2B8B2B59F167
:1016700088819981AA81BB8128893989F901E80F7C
:10168000F91F10818C859D85AE85BF850197A109C5
:10169000B1098C879D87AE87BF8788819981AA8190
:1016A000BB812A893B894C895D89BC01CD016F5F73
:1016B0007F4F8F4F9F4F0E94A821688379838A8331
:1016C0009B83812F01C080E0DF91CF911F9108950E
:1016D000CF93DF93FC01A28DB38D4D915D916D9100
:1016E0007C91A685B785CD91DC91048CF58DE02D9C
:1016F0009A01AB0144275527AFEFBFEF0E94D321DA
:101700006C0F7D1F811D911DAF01DF91CF9145C6EB
:10171000AF92BF92CF92DF92EF92FF920F931F93FF
:10172000CF93DF93EC01EC85FD8535812681978190
:1017300080858E01005F1F4FEE85FF8544855585AE
:10174000668577854C8F5D8F6E8F7F8F408151814D
:1017500062817381488B598B6A8B7B8B4481558165
:10176000668177814C8B5D8B6E8B7F8BC32ED22EE7
:10177000E92EF82EA12CB12CC114D104E104F104FE
:1017800009F423C0C80168DF95013827032E0294AD
:10179000802D8F708327932F9025990F907E892716
:1017A000902D9327907F9695032E000C991F3695C8
:1017B000369536953F7139273227282F590181E018
:1017C000C81AD108E108F108D7CFEC85FD8521853D
:1017D0003285A216B30621F08FEF9FEF92838183AB
:1017E00081E0A216B30609F080E0DF91CF911F914E
:1017F0000F91FF90EF90DF90CF90BF90AF90089542
:10180000CF92DF92EF92FF920F931F93CF93DF93CC
:10181000DC011E96ED91FC911F97048515852685A8
:1018200037854091190150E060E070E0041715071A
:101830002607370708F459C0EC018C01005F1F4FE1
:10184000EE85FF8584859585A685B785892B8A2BAE
:101850008B2B09F44AC084859585A685B7858C8F26
:101860009D8FAE8FBF8F80819181A281B381888B44
:10187000998BAA8BBB8B84819581A681B7818C8B38
:101880009D8BAE8BBF8BC801E7DE8E3351F588830D
:10189000D12CED2CF12CC09019012C2D30E02150D1
:1018A0003109E216F30644F4C801D6DEFE01EE0D5E
:1018B000FF1D8183D394EDCF8C3399F40E84DF85A3
:1018C000C02DD12CE12CF12CC114D104E104F10480
:1018D00071F0CE01C1DEB1E0CB1AD108E108F10808
:1018E000F3CF8E859F85B8DEABCF80E001C081E06D
:1018F000DF91CF911F910F91FF90EF90DF90CF90EC
:1019000008958F929F92AF92BF92CF92DF92EF9203
:10191000FF92CF93DF93EC01FB019D878C877F873C
:101920006E8784E1898F80819181A281B381888BC8
:10193000998BAA8BBB8B82899389A489B5898AA349
:101940009BA3ACA3BDA384859585A685B7858C8F05
:101950009D8FAE8FBF8F828593859B8F8A8F808965
:10196000918999A388A381E0888F1D821E821F829E
:1019700018861EA286ED92E0ABDE4B015C01CE0123
:101980003FDF882309F469C080E090E0DC01EC854A
:10199000FD85458156816781708584179507A60767
:1019A000B70720F0C12CD12C760125C02CEA2A954E
:1019B000F1F700000196A11DB11DE9CF86ED92E07F
:1019C00087DEDC01CB0188199909AA09BB09883C8B
:1019D0009105A105B10500F58FEF97E40197F1F7A7
:1019E00000C0000086ED92E073DE6B017C01C81838
:1019F000D908EA08FB08EE85FF854485558566858C
:101A00007785EC85FD8585819681A781B08548170E
:101A100059076A077B0790F298ECC916D104E104D4
:101A2000F10438F4CE0174DE8823B9F081E08EA38E
:101A300014C0EE85FF8510821182128213821482F7
:101A40001582168217821486158616861786EC85EF
:101A5000FD858EEF9FEF92878187DF91CF91FF9079
:101A6000EF90DF90CF90BF90AF909F908F900895B0
:101A70000F931F93CF93DF93EC010BA91CA92DA902
:101A80003EA989AD9AADABADBCAD081719072A07C1
:101A90003B0799F3CE0187960E944502EA81FB81BC
:101AA000208181E090E00F8402C0880F991F0A9482
:101AB000E2F7822B8083DF91CF911F910F910895E0
:101AC000CF93DF93EC019A01AB0160E070E18EE00F
:101AD00090E00E94A821BA01A90141505109610971
:101AE000710957FF0EC0E881F98181E090E0088814
:101AF00002C0880F991F0A94E2F780835F776627F8
:101B00007727E885F985BB27A72F962F852F808318
:101B1000EA85FB854083EA81FB818D858083EC81AA
:101B2000FD818E858083DF91CF9108952F923F9222
:101B30004F925F926F927F928F929F92AF92BF92DD
:101B4000CF92DF92EF92FF920F931F93CF93DF9389
:101B5000EC01962E29013A011C0181E1280E311C6D
:101B6000198A1A8A1B8A1C8A1D8A1E8A1F8A188E45
:101B700084E1882E8A8E1D8E1E8E1F8E18A2EBA2E7
:101B8000FCA20DA31EA384E190E00E94AD229C8FD5
:101B90008B8F8BA19CA1ADA1BEA10E94AD229AA367
:101BA00089A3198E7E0187E2E80EF11C1FA218A6F8
:101BB00019A61AA61BA61CA61DA61EA688AA1BAAA5
:101BC0001CAA1DAA1EAAA9AEBAAECBAEDCAE84E199
:101BD00090E00E94AD229AAB89AB89AD9AADABADD6
:101BE000BCAD0E94AD2298AF8FAB1FA691102BC049
:101BF0008BE290E0998388838AE290E09B838A83DA
:101C000085E990E09D838C838CE290E09F838E83B6
:101C100080E990E09987888789E290E09B878A87AE
:101C200085E08F8781E0888B87E08C8788E98D87C6
:101C300086E08E873092090220920802F092070215
:101C4000E09206022CC081E0981229C08BE990E056
:101C5000998388838AE990E09B838A838DE990E069
:101C60009D838C838CE990E09F838E8388E990E04C
:101C70009987888789E990E09B878A8785E08F87A5
:101C8000988A87E08C8788E98D8786E08E873092F6
:101C9000050220920402F0920302E0920202B301D4
:101CA000A201CE01DF91CF911F910F91FF90EF9094
:101CB000DF90CF90BF90AF909F908F907F906F906C
:101CC0005F904F903F902F90FBCEDC011296ED91EC
:101CD000FC911397408121E030E0B9011C960C90F3
:101CE00002C0660F771F0A94E2F7CB018095842328
:101CF00080830895DC011296ED91FC911397408149
:101D000021E030E0C9011C960C9002C0880F991F99
:101D10000A94E2F7842B808308951F920F920FB6E6
:101D20000F9211240BB60F922F933F934F935F9313
:101D30006F937F938F939F93AF93BF93EF93FF9393
:101D40006CB180910802909109020E944502FF91B6
:101D5000EF91BF91AF919F918F917F916F915F9123
:101D60004F913F912F910F900BBE0F900FBE0F9090
:101D70001F9018951F920F920FB60F9211240BB659
:101D80000F921F932F933F934F935F936F937F9384
:101D90008F939F93AF93BF93CF93DF93EF93FF9373
:101DA000C0910602D09107028C859D85AE85BF85C6
:101DB000892B8A2B8B2BB1F18C859D85AE85BF85B8
:101DC000892B8A2B8B2B59F188819981AA81BB8120
:101DD00028893989F901E80FF91F10818C859D85C3
:101DE000AE85BF850197A109B1098C879D87AE8714
:101DF000BF8788819981AA81BB812A893B894C89C7
:101E00005D89BC01CD016F5F7F4F8F4F9F4F0E9457
:101E1000A821688379838A839B83812F01C080E016
:101E20008CB901C05598FF91EF91DF91CF91BF918F
:101E3000AF919F918F917F916F915F914F913F9162
:101E40002F911F910F900BBE0F900FBE0F901F9000
:101E500018951F920F920FB60F9211240BB60F9286
:101E60002F933F934F935F936F937F938F939F93A2
:101E7000AF93BF93EF93FF93CF93DF931F92CDB7B1
:101E8000DEB780919C0089836981809104029091E2
:101E900005020E9445020F90DF91CF91FF91EF91D3
:101EA000BF91AF919F918F917F916F915F914F9172
:101EB0003F912F910F900BBE0F900FBE0F901F9070
:101EC00018951F920F920FB60F9211240BB60F9216
:101ED0001F932F933F934F935F936F937F938F93B2
:101EE0009F93AF93BF93CF93DF93EF93FF93C091F3
:101EF0000202D09103028C859D85AE85BF85892B1A
:101F00008A2B8B2BB9F18C859D85AE85BF85892B5E
:101F10008A2B8B2B59F188819981AA81BB812889D1
:101F20003989F901E80FF91F10818C859D85AE85EF
:101F3000BF850197A109B1098C879D87AE87BF87AF
:101F400088819981AA81BB812A893B894C895D89D5
:101F5000BC01CD016F5F7F4F8F4F9F4F0E94A82123
:101F6000688379838A839B83812F01C080E080937B
:101F70009C0015C080919A008F7D80939A00E0911B
:101F80000202F091030210821182128213821482E3
:101F90001582168217821486158616861786FF917B
:101FA000EF91DF91CF91BF91AF919F918F917F91F1
:101FB0006F915F914F913F912F911F910F900BBEA9
:101FC0000F900FBE0F901F90189508951F920F92BB
:101FD0000FB60F9211240BB60F922F933F934F938E
:101FE0005F936F937F938F939F93AF93BF93EF9381
:101FF000FF93E0912401F0912501099520911802A9
:10200000309119022115310531F08CB59DB5820F43
:10201000931F9BBD8ABDFF91EF91BF91AF919F919F
:102020008F917F916F915F914F913F912F910F9081
:102030000BBE0F900FBE0F901F9018951F920F921E
:102040000FB60F9211240BB60F922F933F934F931D
:102050005F936F937F938F939F93AF93BF93EF9310
:10206000FF93E0912201F09123010995209116023E
:10207000309117022115310531F08CB59DB5820FD5
:10208000931F99BD88BDFF91EF91BF91AF919F9133
:102090008F917F916F915F914F913F912F910F9011
:1020A0000BBE0F900FBE0F901F9018951F920F92AE
:1020B0000FB60F9211240BB60F922F933F934F93AD
:1020C0005F936F937F938F939F93AF93BF93EF93A0
:1020D000FF93E0912001F0912101099520911402D4
:1020E000309115022115310541F08CB59DB5820F57
:1020F000931F9093790080937800FF91EF91BF91A7
:10210000AF919F918F917F916F915F914F913F918F
:102110002F910F900BBE0F900FBE0F901F90189530
:102120001F920F920FB60F9211248F939F93AF932C
:10213000BF9380911A0290911B02A0911C02B09152
:102140001D020196A11DB11D80931A0290931B02DE
:10215000A0931C02B0931D02BF91AF919F918F91EC
:102160000F900FBE0F901F9018951F920F920FB6F1
:102170000F9211240BB60F922F933F934F935F93BF
:102180006F937F938F939F93AF93BF93EF93FF933F
:10219000E0911E01F0911F01099520910E023091EE
:1021A0000F022115310551F080918800909189002E
:1021B000820F931F9093870080938600FF91EF9189
:1021C000BF91AF919F918F917F916F915F914F914F
:1021D0003F912F910F900BBE0F900FBE0F901F904D
:1021E00018951F920F920FB60F9211240BB60F92F3
:1021F0002F933F934F935F936F937F938F939F930F
:10220000AF93BF93EF93FF93E0911C01F0911D01F9
:10221000099520910C0230910D022115310551F0E4
:102220008091880090918900820F931F9093850080
:1022300080938400FF91EF91BF91AF919F918F9117
:102240007F916F915F914F913F912F910F900BBEB6
:102250000F900FBE0F901F9018951F920F920FB600
:102260000F9211240BB60F922F933F934F935F93CE
:102270006F937F938F939F93AF93BF93EF93FF934E
:10228000E0911A01F0911B01099520910A02309109
:102290000B022115310551F0809188009091890041
:1022A000820F931F9093830080938200FF91EF91A0
:1022B000BF91AF919F918F917F916F915F914F915E
:1022C0003F912F910F900BBE0F900FBE0F901F905C
:1022D00018951F920F920FB60F9211248F939F9310
:1022E000AF93BF938091100290911102A0911202BE
:1022F000B09113020196A11DB11D8093100290931D
:102300001102A0931202B0931302BF91AF919F915B
:102310008F910F900FBE0F901F901895FC01A08910
:10232000B1892D933C93A681B78111965C934E930E
:10233000709325016093240106A4F7A5E02D808108
:10234000806180830895FC01A289B3892D933C9319
:10235000A085B18511965C934E9370932301609391
:10236000220106A4F7A5E02D80818860808308956E
:10237000FC01A089B1892D933C93A681B781119668
:102380005C934E9370931F0160931E0106A4F7A502
:10239000E02D80818061808308954F925F926F92DB
:1023A0007F928F929F92AF92BF92CF92DF92EF92E5
:1023B000FF920F931F93CF93DF938A0128EE33E0B0
:1023C00040E050E00E94DD2129013A014B01D82F65
:1023D000C92F980140E050E060E070E081EE90E0AD
:1023E0000E94A82189019A0158016901E12CF12C70
:1023F00000E010E09201A301B4018D2F9C2F0E94F8
:102400000622B901CA01DF91CF911F910F91FF9070
:10241000EF90DF90CF90BF90AF909F908F907F9084
:102420006F905F904F9008954F925F926F927F925E
:102430008F929F92AF92BF92CF92DF92EF92FF92D4
:102440000F931F938B01BC0180E090E029E939E3F1
:1024500040E050E00E94DD215801C12CD12CE12C3C
:10246000F12C00E010E00E94062229013A014114FB
:10247000510481E06806710450F02BE431E045ED31
:1024800050E06FE571E08CE791E00E947922C20193
:102490001F910F91FF90EF90DF90CF90BF90AF9082
:1024A0009F908F907F906F905F904F900895CF9303
:1024B000DF93CDB7DEB760970FB6F894DEBF0FBEDF
:1024C000CDBF1A82198281E090E09C838B8388E0E3
:1024D00090E09E838D8380E490E098878F8380E0F6
:1024E00091E09A87898780E094E09C878B871E869D
:1024F0001D86188A1F86FE01E60FF11DE60FF11DED
:102500008181928160960FB6F894DEBF0FBECDBF79
:10251000DF91CF910895CF93DF93EC018FE490E0AA
:10252000998388838EE490E09B838A838AE790E096
:102530009D838C838AE490E09F838E8388E490E07F
:102540009987888788E790E09B878A8786E490E070
:102550009D878C878CE490E09F878E8788E192E04E
:10256000998B888B86E192E09B8B8A8B84E192E049
:102570009D8B8C8B86E590E09F8B8E8B8CE790E01B
:10258000998F888F8AE192E09B8F8A8F1E8E1F8E93
:1025900018A219A21AA21BA21CA21DA21EA21FA24F
:1025A00018A619A61AA61BA61CA61DA687E590E0CC
:1025B0009FA78EA78EB560FB80F98EBDEA81FB8157
:1025C00061FB992790F9808190FB81F98083EA81F2
:1025D000FB8162FB992790F9808190FB82F98083CF
:1025E000E881F981808140FB80F98083E881F9816D
:1025F00041FB992790F9808190FB81F98083EA81E2
:10260000FB8142FB992790F9808190FB83F98083BD
:10261000EA81FB8143FB442740F9808140FB84F938
:102620008083CE0144DF9D8F8C8FEEA5FFA5808136
:1026300084608083DF91CF910895CF93DF93EC0185
:102640008BE890E099838883EAE8F0E0FB83EA83F3
:102650008CE890E09D838C8386E890E09F838E8356
:1026600084E890E09987888782E890E09B878A8752
:1026700080E890E09D878C8788E890E09F878E8730
:102680008EE092E0998B888B8CE092E09B8B8A8B1A
:102690008AE092E09D8B8C8B86E590E09F8B8E8B01
:1026A0008CE790E0998F888F80E192E09B8F8A8FF2
:1026B0001E8E1F8E18A219A21AA21BA21CA21DA256
:1026C0001EA21FA218A619A61AA61BA61CA61DA606
:1026D0008DE790E09FA78EA7808160FB80F98083C3
:1026E000EA81FB8161FB992790F9808190FB81F958
:1026F0008083EA81FB8162FB992790F9808190FBBE
:1027000082F98083E881F981808140FB80F98083B0
:10271000E881F98141FB992790F9808190FB81F94B
:102720008083EA81FB8142FB992790F9808190FBAD
:1027300083F98083EA81FB8143FB442740F9808150
:1027400040FB84F98083CE01B2DE9D8F8C8FEEA595
:10275000FFA5808184608083DF91CF910895FC0183
:1027600010821182128213821482158216821782BD
:1027700014861586168617860895FC017583648372
:10278000578346833187208781E0828713821282B4
:10279000118210820895EF92FF920F931F93CF93AF
:1027A000DF93CDB7DEB7AC970FB6F894DEBF0FBEA0
:1027B000CDBFAB0186E0EFE3F1E0DE01969601903C
:1027C0000D928A95E1F78091FD018E010F5F1F4FF9
:1027D000F801E80FF11DE80FF11DF5A0E6A060E09B
:1027E00070E0C8010E948D09EF92FF921F930F9332
:1027F0000E94F30AC8010E94850ACE018C960E94AD
:10280000FB06B801CE018C960E94D408F82EE92E62
:10281000065E1F4F40E050E060E070E0C8010E949B
:102820008D09EF92FF9283E293E09F938F931F9322
:102830000F930E94F30AC8010E94850AC8010E94F2
:10284000FB0660E070E0C8010E9477070FB6F894BD
:10285000DEBF0FBECDBFAC960FB6F894DEBF0FBE85
:10286000CDBFDF91CF911F910F91FF90EF90089511
:102870002F923F924F925F926F927F928F929F9290
:10288000AF92BF92CF92DF92EF92FF920F931F937E
:10289000CF93DF93CDB7DEB7CC50D1400FB6F894CD
:1028A000DEBF0FBECDBFDB011C96ED90FC901D97E7
:1028B000D7011196ED91FC9112973197EC31F1050A
:1028C00008F0AFC36B018C01EA5BFF4F0C94CA2187
:1028D000DC011896ED91FC911997828193810E94F9
:1028E000680B4B015C01B601F80180859185E1D64A
:1028F000D8011896ED91FC911997828193810E94DD
:10290000680BD8011896ED91FC91199706811781F3
:1029100020853185DC01CB01800F911FA21FB31FE1
:1029200088199909AA09BB0986839783A087B1876B
:1029300078C3F701E380F480DC0114968D919C91BB
:10294000159741960CDFA70163E070E0CE01019678
:102950000E948D09CE0101960E94850A62C3FC0186
:10296000E480F580F701858D968DA78DB0A1892B28
:102970008A2B8B2B79F181899289A389B48921A132
:1029800032A1F901E80FF91FB080F701858D968D0E
:10299000A78DB0A10197A109B109858F968FA78F47
:1029A000B0A381899289A389B48923A134A145A1C7
:1029B00056A1BC01CD016F5F7F4F8F4F9F4F0E948B
:1029C000A821D70151966D937D938D939C93549735
:1029D0004B2D01C040E0B601F8018085918577D785
:1029E0003CC088EA87BB14BA1ABA109261001092F0
:1029F000620015BA1BBA80E688BB13C3F701438196
:102A000054817E01F1E0EF0EFF1E60E070E0C7012F
:102A10000E948D09D80116968D919C911797E4D349
:102A200087E393E09F938F93FF92EF920E94F30AC4
:102A30008E010F5F1F4FC8010E949C0984E193E043
:102A40009F938F931F930F930E94F30AC8010E94D4
:102A5000850A45C0CB010E949420D80114968D911F
:102A60009C91159741967BDEDCC2F701438154812E
:102A700063E070E09E012F5F3F4F7901C9010E9422
:102A80008D0967E672E0C7010E94D40962E472E032
:102A9000C7010E94D4096EE472E0C7010E94D40904
:102AA00086ED92E00E94680B9F938F937F936F93C4
:102AB0008AEB92E09F938F93FF92EF920E94C10A5C
:102AC000D80111968C9111978F938C918F9384EAF2
:102AD00092E09F938F93FF92EF920E94C10AC701E9
:102AE0000E94850A0FB6F894DEBF0FBECDBF99C213
:102AF00040E050E060E070E09E012F5F3F4F7901C1
:102B0000C9010E948D0965E073E0C7010E94D409E4
:102B1000D8011896ED91FC91199785858F9384853E
:102B20008F9381EF92E09F938F93FF92EF920E9499
:102B3000C10AD8011896ED91FC91199783858F935E
:102B400082858F938CED92E09F938F93FF92EF920B
:102B50000E94C10AD8011896ED91FC91199713862D
:102B6000128615861486BBCFD70113964D915C91C2
:102B7000149760E070E0CE0101960E948D096AE52D
:102B800073E0CE0101960E94B90ACE0101960E941F
:102B9000850A61E0F801828193810E94F52698E020
:102BA00088E10FB6F894A89581BD0FBE91BDFFCF07
:102BB000D70113964D915C91149763E070E0CE01BC
:102BC00001960E948D096BE373E0CE0101960E948D
:102BD000B90ACE0101960E94850A61E080E090E08A
:102BE0000E94F52661E085ED90E00E94F526F894BC
:102BF0000C9400F016C2F7014381548163E070E049
:102C00009E012F5F3F4F7901C9010E948D098FE816
:102C100092E09F938F93FF92EF920E94F30AC70175
:102C20000E94850A60E0D80112968D919C911397BD
:102C30000E94F526F0C0F7014381548160E070E006
:102C4000CE0101960E948D0967E373E0CE010196E3
:102C50000E94B90ACE0101960E94850A98E088E197
:102C60000FB6F894A89581BD0FBE91BDFFCFD701D7
:102C700013964D915C9114979C0160E00FC0D701B1
:102C800013964D915C9114979C0161E007C0D701A8
:102C900013964D915C9114979C0162E0F801868136
:102CA00097811FD34091F9015091FA016091FB0186
:102CB0007091FC01CE0101960E947406CE0101962E
:102CC0000E94C906AEC1D70113966D917C911497ED
:102CD00062DDA7C1F70103811481CE0101960E9434
:102CE000FB06B801CE01019606C10E94D10799C129
:102CF000D70115962D903D904D905C901897FC0152
:102D0000A480B5809E012F5F3F4F490139012114F6
:102D100031044104510409F43EC1F501858D968DBD
:102D2000A78DB0A1892B8A2B8B2B09F0E7C033C16B
:102D3000F7014381548163E070E09E012F5F3F4FB4
:102D40007901C9010E948D0985E392E09F938F93D9
:102D5000FF92EF920E94F30AC7010E94850A80E069
:102D600091E0D701FC011D923197E9F70F900F9088
:102D70000F900F90812C90E6992EA12CB12CD801A8
:102D80001896ED91FC9119970684F785E02DA7011F
:102D9000C501B4010995BFEF9B1AAB0ABB0A8114A8
:102DA000E0EE9E06E1E0AE06B10449F78E010F5F4A
:102DB0001E4F40E050E063E070E0C8010E948D09C2
:102DC00089E292E09F938F931FC04091F901509147
:102DD000FA016091FB017091FC01CE0101960E9405
:102DE0007406FE88EF88D6011C96ED91FC911D9724
:102DF000438154818E010F5F1E4F63E070E0C80174
:102E00000E948D09EF92FF921F930F930E94F30A85
:102E1000C8010E94850A0F900F900F900F9001C17A
:102E2000E0910F03F09110032281EE24E394F12C42
:102E3000C70100900E0302C0880F991F0A94E2F7A1
:102E4000822B8283F801848195810E94650ED801CE
:102E50001496ED91FC9115972091190181A192A1F1
:102E6000820F911D26E4FC013196DE01119601903E
:102E70000D922A95E1F7BE016F5F7F4FFC018081C3
:102E80000E949508D80114968D919C9115970E94E7
:102E90007A0EE0910F03F0911003828100900E03EF
:102EA00002C0EE0CFF1C0A94E2F7E094E822E282F2
:102EB000D6011C96ED91FC911D974381548160E0F1
:102EC00070E0CE018F5F9E4F0E948D09CE018F5F13
:102ED0009E4F0E94850AD6011C96ED91FC911D978C
:102EE00003811481CE018F5F9E4F0E94FB06B801C3
:102EF000CE018F5F9E4F0E94770793C0F501858DAD
:102F0000968DA78DB0A1892B8A2B8B2B09F441C0FC
:102F1000F50181899289A389B48921A132A1F9019E
:102F2000E80FF91F2081C45FDE4F2883CC50D140C9
:102F3000F501858D968DA78DB0A10197A109B109E5
:102F4000858F968FA78FB0A381899289A389B48931
:102F500023A134A145A156A1BC01CD016F5F7F4FD4
:102F60008F4F9F4F0E94A821D50151966D937D935D
:102F70008D939C935497C45FDE4F8881CC50D14091
:102F8000F40181934F01F1E02F1A310841085108F3
:102F9000BECE80E0F5CFF70185819681A781B0850F
:102FA0008A319105A105B10528F4F301E80FF91F55
:102FB000108201C01A8EB090FD017E0121E0E20E68
:102FC000F21EC7010E94FB064B2DB301C7010E94F0
:102FD000EB08D6011C96ED91FC911D97438154811D
:102FE00063E070E0C7010E948D097F926F928AECC6
:102FF00092E09F938F93FF92EF920E94F30AC70192
:103000000E94850AD6011C96ED91FC911D97638163
:103010007481C801C0DB0F900F900F900F900F903C
:103020000F9081E0C45FDE4F0FB6F894DEBF0FBE95
:10303000CDBFDF91CF911F910F91FF90EF90DF9067
:10304000CF90BF90AF909F908F907F906F905F9048
:103050004F903F902F9008950F931F93CF93DF933E
:10306000CDB7DEB72B970FB6F894DEBF0FBECDBF3E
:103070008B01DB011C96ED91FC911D972181328122
:103080002E3FBFEF3B07D1F02F3F3F4FA1F5DC01B3
:1030900014968D919C911597419661DBD8011C96F1
:1030A000ED91FC911D974381548161817281CE0124
:1030B00001960E948D0963E373E014C0FC018481D2
:1030C000958141964CDBD8011C96ED91FC911D97A2
:1030D0004381548161817281CE0101960E948D09E4
:1030E0006FE273E0CE0101960E94B90ACE0101960B
:1030F0000E94850A01C0BCDB2B960FB6F894DEBF98
:103100000FBECDBFDF91CF911F910F910895FC01AC
:10311000718360830895CF93DF93EC017983688393
:103120008FE78A835D834C831E8282E090E00E9459
:10313000DF260E94BF0881E090E00E94DF268B839B
:1031400088EA87BB14BA1ABA109261001092620022
:1031500015BA1BBA80E688BBDF91CF9108951F9303
:10316000CF93DF938091F9019091FA01A091FB0137
:10317000B091FC0120E030E0AC01BD0150586F4F30
:103180007F4FD8E0C8EA84179507A607B70740F530
:103190000097E1E0AE07B10570F4FC0114911093C3
:1031A000620035BB2BBBD8BBC8BB0196A11DB11DAE
:1031B0002F5F3F4FE8CFD8E0C8EAABBFFC011791C3
:1031C0001093620035BB2BBBD8BBC8BB0196A11DB9
:1031D000B11D2F5F3F4F84179507A607B70768F308
:1031E000DF91CF911F910895CF92DF92FF920F93BD
:1031F0001F93CF93DF93CDB7DEB769970FB6F894DF
:10320000DEBF0FBECDBF6C0188EE87BB01E610E0CC
:103210008FEFF80180838ABB84BB88EAF82EF8BA66
:10322000C6019DDF4091F9015091FA016091FB01C7
:103230007091FC01CE0101960E947406CE010196A8
:103240000E94D805F6018683F7BA14BA1ABAF801B3
:1032500010821092620015BA1BBA80E688BB69968C
:103260000FB6F894DEBF0FBECDBFDF91CF911F9197
:103270000F91FF90DF90CF9008950F931F93CF93FE
:10328000DF938C0181E090E00E94DF26F8018383C8
:10329000882311F1E0910F03F09110032281C1E026
:1032A000D0E0CE0100900E0302C0880F991F0A944F
:1032B000E2F7822B8283C80197DFE0910F03F09140
:1032C0001003828100900E0302C0CC0FDD1F0A9410
:1032D000E2F7C095C823C283DF91CF911F910F9170
:1032E0000895CF92DF92EF92FF920F931F93CF93A7
:1032F0006C01C62F7A018901862F0E94BF08C60182
:10330000BCDF6C2F82E090E00E94F526B701C80177
:10331000CF911F910F91FF90EF90DF90CF903BCA1C
:10332000FF920F931F93CF93DF93CDB7DEB72B9709
:103330000FB6F894DEBF0FBECDBFFC01168288EE3B
:1033400087BB01E610E09FEFD8019C939ABB94BB2A
:1033500088EAF82EF8BACF0102DFF7BA14BA1ABA1F
:10336000F80110821092620015BA1BBA80E688BB81
:1033700040E050E064E070E08E010F5F1F4FC80135
:103380000E948D0980E893E09F938F931F930F9382
:103390000E94F30AC8010E94850A0F900F900F90B7
:1033A0000F902B960FB6F894DEBF0FBECDBFDF9106
:1033B000CF911F910F91FF9008951F920F920FB61A
:1033C0000F9211240BB60F922F933F934F935F935D
:1033D0006F937F938F939F93AF93BF93EF93FF93DD
:1033E000E0913401F09135010995FF91EF91BF9182
:1033F000AF919F918F917F916F915F914F913F918D
:103400002F910F900BBE0F900FBE0F901F9018952D
:103410001F920F920FB60F9211240BB60F922F939B
:103420003F934F935F936F937F938F939F93AF934C
:10343000BF93EF93FF93E0913201F091330109952F
:10344000FF91EF91BF91AF919F918F917F916F917C
:103450005F914F913F912F910F900BBE0F900FBE38
:103460000F901F9018951F920F920FB60F92112474
:103470000BB60F922F933F934F935F936F937F936E
:103480008F939F93AF93BF93EF93FF93E09130019E
:10349000F09131010995FF91EF91BF91AF919F910B
:1034A0008F917F916F915F914F913F912F910F90ED
:1034B0000BBE0F900FBE0F901F9018951F920F928A
:1034C0000FB60F9211240BB60F922F933F934F9389
:1034D0005F936F937F938F939F93AF93BF93EF937C
:1034E000FF93E0912E01F0912F010995FF91EF914B
:1034F000BF91AF919F918F917F916F915F914F910C
:103500003F912F910F900BBE0F900FBE0F901F9009
:1035100018951F920F920FB60F9211240BB60F92AF
:103520002F933F934F935F936F937F938F939F93CB
:10353000AF93BF93EF93FF93E0912C01F0912D0196
:103540000995FF91EF91BF91AF919F918F917F91DD
:103550006F915F914F913F912F910F900BBE0F9004
:103560000FBE0F901F9018951F920F920FB60F92DB
:1035700011240BB60F922F933F934F935F936F934A
:103580007F938F939F93AF93BF93EF93FF93E091BC
:103590002A01F0912B010995FF91EF91BF91AF9115
:1035A0009F918F917F916F915F914F913F912F915B
:1035B0000F900BBE0F900FBE0F901F9018951F928B
:1035C0000F920FB60F9211240BB60F922F933F93C9
:1035D0004F935F936F937F938F939F93AF93BF931B
:1035E000EF93FF93E0912801F09129010995FF9154
:1035F000EF91BF91AF919F918F917F916F915F916B
:103600004F913F912F910F900BBE0F900FBE0F90D7
:103610001F9018951F920F920FB60F9211240BB6A0
:103620000F922F933F934F935F936F937F938F935B
:103630009F93AF93BF93EF93FF93E0912601F09197
:1036400027010995FF91EF91BF91AF919F918F91C4
:103650007F916F915F914F913F912F910F900BBE92
:103660000F900FBE0F901F9018950F931F93DA01C4
:10367000B3958B019C01011580E1180721053105E7
:1036800018F4F801849103C02BBFF8018791FA0167
:103690009191AF01891309C00F5F1F4F2F4F3F4F0B
:1036A000EA17FB0741F780E001C081E01F910F910D
:1036B00008952F923F924F925F926F927F928F92D6
:1036C0009F92AF92BF92CF92DF92EF92FF920F93B1
:1036D0001F93CF93DF93CDB7DEB72C970FB6F89437
:1036E000DEBF0FBECDBF7C016B01DC01ED91FC9113
:1036F00041A152A18091190190E0FA01E80FF91F50
:1037000020812031C8F0DB011C96ED91FC911D97C2
:103710004381548161E070E0CE0101960E948D09E1
:1037200065E873E0CE0101960E94B90ACE010196C8
:103730000E94850A80E0B2C0822E912C982C8824A9
:10374000990C990C990C092C000CAA08BB088C0147
:103750000F5F1F4F040F151F412C512C32011C8687
:1037600022242394312C8091F9019091FA01A091A7
:10377000FB01B091FC01880D991DAA1DBB1DBC0168
:10378000CD01640D751D861D971DA8016EDF882370
:1037900061F1F701A481B5811196ED91FC91129729
:1037A0002281C1010C9002C0880F991F0A94E2F790
:1037B000822782838091F9019091FA01A091FB0107
:1037C000B091FC01880D991DAA1DBB1DBC01CD0146
:1037D000640D751D861D971DD7011E96ED91FC91F8
:1037E0001F97A8010995B1E0BC87EFEF5E1A6E0A3A
:1037F0007E0A13954114F8E05F066104710409F034
:10380000B2CFF701A481B5811196ED91FC91129789
:10381000228181E090E00C9002C0880F991F0A94E9
:10382000E2F7809582238283FC85FF2351F0D70144
:103830001C968D919C911D9701961D969C938E933D
:103840001C97F70182859385019693878287019063
:10385000F081E02D118A128A138A148A158A168A39
:10386000178A108E158E168E178E10A2D6011C96F2
:10387000ED91FC911D974381548160E070E0CE0191
:1038800001960E948D0969E873E0CE0101960E94BD
:10389000B90ACE0101960E94850A81E02C960FB6E6
:1038A000F894DEBF0FBECDBFDF91CF911F910F9176
:1038B000FF90EF90DF90CF90BF90AF909F908F9050
:1038C0007F906F905F904F903F902F9008958F92D0
:1038D0009F92AF92BF92CF92DF92EF92FF921F938F
:1038E000CF93DF93CDB7DEB72B970FB6F894DEBF3B
:1038F0000FBECDBF142FDB011C96ED91FC911D97DF
:103900004381548160E070E0CE0101960E948D09F0
:10391000103140F098E088E10FB6F894A89581BD89
:103920000FBE91BD412F50E0542F4427550F550F26
:10393000550F4A01B8EF9B1A052E000C660B770B4A
:10394000C090F901D090FA01E090FB01F090FC01E9
:10395000C40ED51EE61EF71EA12CB12C8091F901D4
:103960009091FA01A091FB01B091FC01880D991D85
:10397000AA1DBB1DC816D906EA06FB06B0F4C11481
:10398000E0E1DE06E104F10418F4F601649103C0FD
:10399000EBBEF6016791CE0101960E94FC09FFEF94
:1039A000CF1ADF0AEF0AFF0AD9CFCE0101960E9493
:1039B000850A2B960FB6F894DEBF0FBECDBFDF9100
:1039C000CF911F91FF90EF90DF90CF90BF90AF907D
:1039D0009F908F900895E0911603F091170380E077
:1039E00090E0309749F0029620813181820F931F39
:1039F0000280F381E02DF5CF08950F931F93CF93AD
:103A0000DF9300D0CDB7DEB78091140390911503FA
:103A10008E010F5F1F4F009729F40E5113401A8338
:103A2000098309C0081B190B1A830983D4DF800F8F
:103A3000911F9A83898389819A810F900F90DF91DA
:103A4000CF911F910F910895CF93DF93A1E1B3E040
:103A50001196ED91FC911297228181E090E00C90FB
:103A600002C0880F991F0A94E2F7822B8283E6ED49
:103A7000F2E0A685B785CD91DC91648D758D81E0EE
:103A800090E00E941412AC014C0F5D1F20E030E06A
:103A90006BE87DE186ED92E0DF91CF910C948E1181
:103AA000ACDF9C01609108037091090361157105F9
:103AB00059F088EE93E038D480E197E235D484E67B
:103AC00090E0861B970B02C084E690E040910A03C9
:103AD00050910B034817590720F490930B038093E0
:103AE0000A0380910603909107038217930720F43D
:103AF00030930703209306031092090310920803E2
:103B00000895682F80910C0390910D030E94380D49
:103B100080E090E00895CF93DF93A1E1B3E01196A8
:103B2000ED91FC911297228181E090E00C9002C00F
:103B3000880F991F0A94E2F7809582238283E6ED2D
:103B4000F2E0A685B785CD91DC91648D758D88EE08
:103B500093E00E941412AC014C0F5D1F20E030E096
:103B600064E27DE186ED92E0DF91CF910C948E11BD
:103B7000FC012085211103C08089918986C50895A3
:103B8000E8E9F2E081E89DE191878087138612865B
:103B900082E0838315861486A8E1B3E01396FC9334
:103BA000EE9312971596FC93EE93149708958BE578
:103BB00092E0089585ED90E00E94DF26813071F457
:103BC00060E085ED90E00E94F52698E088E10FB670
:103BD000F894A89581BD0FBE91BDFFCF0895CF93F6
:103BE000DF93CDB7DEB7C556D1090FB6F894DEBF67
:103BF0000FBECDBFE091E402F091E502808191819A
:103C0000E091F002F091F102408151816281738173
:103C1000A0E0B0E08093F4029093F502A093F60246
:103C2000B093F7024093F8025093F9026093FA02BE
:103C30007093FB02CE0188960E9496020BE512E07B
:103C400024961FAF0EAF249786ED92E026969FAF85
:103C50008EAF26978EE093E028969FAF8EAF289781
:103C60008CE890EEA1E0B0E0ABBFFC0187919691AB
:103C700062969FAF8EAF62972C961CAE1DAE1EAEA5
:103C80001FAE2C972E961FAE1EAE2E9760961FAEBF
:103C90001EAE6097AE014E5B5F4FB801CE01835AF6
:103CA0009F4F39DA87DFCE01835A9F4FE6DA1093B0
:103CB0000D0300930C037894E091E402F091E50287
:103CC00000811181E091F002F091F1024081518177
:103CD00062817381E091F202F091F3028091F80227
:103CE0009091F902A091FA02B091FB029A01AB0106
:103CF000281B390B4A0B5B0BAFEFBFEF54D36801A6
:103D0000E12CF12C0091F4021091F5022091F602C1
:103D10003091F70246015701801A910AA20AB30AAC
:103D2000680D791D8A1D9B1DAF010E94CD11F62ED5
:103D3000E72EA5966FAFA597A6967FAFA69720DF33
:103D40006091F2027091F30284EF91E00E941412EC
:103D5000E091E402F091E502408151814C595F4FBE
:103D60009C0164E27DE186ED92E00E948E116091FB
:103D7000F2027091F3028AE090E00E941412E09146
:103D8000E402F091E502408151814C595F4F9C0162
:103D900060E57DE186ED92E00E94A3116091C20290
:103DA0007091C30288EC90E00E9414129C0140E0E4
:103DB00050E061ED72E086EA92E00E94B8119E0147
:103DC0002E5B3F4FAE01435A5F4F6BE572E0CE0171
:103DD0008E5A9F4F0E94BD136F2D7E2DCE018E5A9D
:103DE0009F4F95D910926C0210926D0210926E0244
:103DF00010926F0210927002109271021092720271
:103E000010927302109278021092790210927A0244
:103E100010927B0240E050E063E070E08E010F5FA3
:103E20001F4FC8010E948D096DEC73E0C8010E940C
:103E3000D4096FE973E0C8010E94D4091F9281E0A0
:103E40008F938DE893E09F938F931F930F930E941E
:103E5000C10AEF92FF9288EB93E09F938F931F9399
:103E60000F930E94C10AC8010E94850ACE018C5995
:103E70009F4F0BD40FB6F894DEBF0FBECDBF80EDC1
:103E8000E82E87E0F82E98E1C92E2FE0B22E40915F
:103E900078025091790260917A0270917B02809150
:103EA000190190E0A0E0B0E0481759076A077B07C6
:103EB00090F06CE672E0C8010E94810C8FA188230B
:103EC00039F0B801CE018E5A9F4FC6D8E12CF12CA3
:103ED000CE0141964DDE91EDE91697E0F90608F521
:103EE000EFEFEE1AFE0A6090AC027090AD02E09126
:103EF000B402F091B502808091806091C20270910D
:103F0000C3028CE291E00E941412880D991DF30106
:103F100091838083F0EDEF16F7E0FF0608F485C08B
:103F20000DC0A4968FADA497882341F0809107011E
:103F3000811104C0CE01835A9F4FF2D980913B0278
:103F400090913C02A0913D02B0913E02892B8A2BB8
:103F50008B2B09F079C069C080913B0290913C02A3
:103F6000A0913D02B0913E02892B8A2B8B2B09F444
:103F700072C080912F0290913002A0913102B091D5
:103F8000320220913F0230914002F901E80FF91FFF
:103F9000D08080913B0290913C02A0913D02B09173
:103FA0003E020197A109B10980933B0290933C0224
:103FB000A0933D02B0933E0280912F029091300277
:103FC000A0913102B091320220914102309142021F
:103FD0004091430250914402BC01CD016F5F7F4F7D
:103FE0008F4F9F4FB5D160932F0270933002809313
:103FF0003102909332026D2DCE0188960E94E0022C
:1040000080913B0290913C02A0913D02B0913E0212
:10401000892B8A2B8B2B09F09FCF0FB6F894A8958C
:1040200081B5886181BD11BC0FBE8091080390915C
:1040300009030196909309038093080386E69EE0A6
:104040000197F1F7000023CF0FB6F894A895C1BCF3
:104050000FBEB1BCD5CF60E0CFCFAF92BF92CF92B1
:10406000DF92EF92FF920F931F93E1E1F3E087E07D
:10407000808380E390E0928381838F9AEEE0F3E087
:1040800026E02083928381838E9AE6E0F3E011821A
:104090001082138212821582148240E065E086ED60
:1040A00092E00E948B1240E065E086EA92E00E9476
:1040B0001D1380E1A82EB12CC12CD12C1FE0E12EC4
:1040C00018E0F12E00E010E020E032EC41E050E09A
:1040D00061E08BE592E00E94960DA12CB12C650168
:1040E000A3941AE0E12EF12C00E010E020E835E284
:1040F00040E050E060E08EE192E00E94960D1F915A
:104100000F91FF90EF90DF90CF90BF90AF90089508
:1041100085E492E02DDD8FE292E02ADD82E892E0F4
:1041200027DD8CE692E024CD3F924F925F926F9212
:104130007F928F929F92AF92BF92CF92DF92EF9237
:10414000FF920F931F93CF93DF93CDB7DEB72E97D8
:104150000FB6F894DEBF0FBECDBF7C01E091120315
:10416000F0911303228181E090E00090110302C0DE
:10417000880F991F0A94E2F7822B8283D7011C963D
:10418000ED91FC911D97658176818781908523E073
:1041900030E040E050E0DCD0622E532E88EE87BB4A
:1041A0008FEF809361008ABB84BB88EA88BBC12CF7
:1041B000D12C4E01BFE08B0E911C88E0382E98EA7E
:1041C000492ED7011C96ED91FC911D97C601A0E0E8
:1041D000B0E0458156816781708584179507A607F1
:1041E000B70708F05FC0F701068517855E01FCE0A0
:1041F000AF0EB11CF80184859585A685B785892BFE
:104200008A2B8B2B09F43FC0F80184859585A68500
:10421000B785892B8A2B8B2BA1F1F80180819181A5
:10422000A281B38120893189F901E80FF91F7080DB
:10423000F80184859585A685B7850197A109B109FF
:1042400084879587A687B78780819181A281B38172
:104250002289338944895589BC01CD016F5F7F4F25
:104260008F4F9F4F75D0D8016D937D938D939C9305
:104270001397872DF50181935F01E815F90519F072
:10428000B9CF80E0F7CF8E85809362008D8585BBA6
:104290008C858BBB38BA48BA38BA48BAF3E0CF0E2F
:1042A000D11C8FCF4381548163E070E08E010F5F9A
:1042B0001F4FC8010E948D095F926F9285ED93E0B8
:1042C0009F938F931F930F930E94F30AC8010E943C
:1042D000850A88EA87BB14BA1ABA10926100109254
:1042E000620015BA1BBA80E688BB0F900F900F9042
:1042F0000F900F900F9081E02E960FB6F894DEBFCE
:104300000FBECDBFDF91CF911F910F91FF90EF9026
:10431000DF90CF90BF90AF909F908F907F906F90E5
:104320005F904F903F900895AA1BBB1B51E107C0BF
:10433000AA1FBB1FA617B70710F0A61BB70B881F35
:10434000991F5A95A9F780959095BC01CD010895C4
:10435000A1E21A2EAA1BBB1BFD010DC0AA1FBB1F89
:10436000EE1FFF1FA217B307E407F50720F0A21BFB
:10437000B30BE40BF50B661F771F881F991F1A9468
:1043800069F760957095809590959B01AC01BD0192
:10439000CF010895EE0FFF1F0024001C0BBE0790F5
:1043A000F691E02D09948ED0A59F900DB49F900DAD
:1043B000A49F800D911D11240895E894DF93CF935D
:1043C000FC01DB017FD07F936F93E9019A01AC017F
:1043D000BF93AF933F932F93DF0174D026F46C1BF0
:1043E0007D0B820B930B9E01EB01FC017AD0AF9108
:1043F000BF912F913F9175D0BE01CF01F9012F914F
:104400003F91CF91DF910895689401C0E8948F9215
:104410009F92CF93DF9305D0DF91CF919F908F90A4
:10442000089588249924F401E401B0E49F93AA2715
:104430009A158B049C04ED05FE05CF05D007A10756
:1044400098F4AD2FDC2FCF2FFE2FE92D982C892E3D
:10445000982F872F762F652F542F432F322F222707
:10446000B85031F7BF9127C01B2EBF91BB27220F39
:10447000331F441F551F661F771F881F991F881CF5
:10448000991CEE1FFF1FCC1FDD1FAA1FBB1F8A1424
:104490009B04EC05FD05CE05DF05A007B10748F03C
:1044A0008A189B08EC09FD09CE09DF09A00BB10BA6
:1044B00021601A94E1F62EF49401AF01BE01CD0102
:1044C000000C0895A29FB001B39FC001A39F700D7F
:1044D000811D1124911DB29F700D811D1124911D0C
:1044E0000895F0DF460F571FC81FD91F08F43196F3
:1044F0000895F0911D03E0911C030097B1F45F93C0
:104500004F937F936F933F932F9389E891E09F930D
:104510008F93FF93EF935FD18DB79EB70A960FB637
:10452000F8949EBF0FBE8DBF17C05F934F937F93CC
:104530006F939F938F933F932F9384EB91E09F937F
:104540008F93FF93EF9347D18DB79EB70C960FB61D
:10455000F8949EBF0FBE8DBF21D10F931F93CF93B1
:10456000DF938230910510F482E090E0E091160331
:10457000F091170320E030E0A0E0B0E0309719F1AF
:10458000408151810281138148175907C8F084176F
:10459000950769F4109731F012960C9312971396C1
:1045A0001C9327C0009316031093170322C02115F4
:1045B000310519F04217530718F49A01BD01EF01B4
:1045C000DF01F801DBCF21153105F9F0281B390B8C
:1045D0002430310580F48A819B816115710521F0B9
:1045E000FB019383828304C0909317038093160387
:1045F000FE01329644C0FE01E20FF31F81939193B6
:1046000022503109398328833AC020911403309114
:104610001503232B41F420910201309103013093C3
:1046200015032093140320910001309101012115FD
:10463000310541F42DB73EB7409104015091050179
:10464000241B350BE0911403F0911503E217F307D7
:10465000A0F42E1B3F0B2817390778F0AC014E5FF2
:104660005F4F2417350748F04E0F5F1F5093150317
:10467000409314038193919302C0E0E0F0E0CF01F6
:10468000DF91CF911F910F910895CF93DF93009702
:1046900009F481C0FC01329713821282A0911603A3
:1046A000B0911703109781F420813181820F931FFD
:1046B00020911403309115032817390751F5F09311
:1046C0001503E093140367C0ED0120E030E0CE173E
:1046D000DF0740F44A815B819E0141155105F1F0ED
:1046E000EA01F5CFD383C28340815181840F951FA6
:1046F000C817D90759F488819981840F951F0296AC
:10470000918380838A819B819383828321153105E4
:1047100029F4F0931703E09316033DC0E901FB83EE
:10472000EA8349915991C40FD51FEC17FD0761F435
:1047300080819181840F951F0296E9019983888376
:10474000828193819B838A83E0E0F0E012968D91D1
:104750009C911397009719F0FD01DC01F7CF8D9123
:104760009C9111979D012E5F3F4F820F931F2091C7
:104770001403309115032817390769F4309729F489
:10478000109217031092160302C013821282B09384
:104790001503A0931403DF91CF91089581E090E079
:1047A000F89433C3FC0105900020E9F780959095BB
:1047B0008E0F9F1F0895FB01DC018D9101908019E0
:1047C0000110D9F3990B0895FB01DC0101900D92C2
:1047D0000020E1F70895CF93DF93CDB7DEB7AE01A8
:1047E000475F5F4F6F8178858D819E812BD0DF91F0
:1047F000CF9108950F931F93CF93DF93CDB7DEB77B
:104800002E970FB6F894DEBF0FBECDBF8C018EE0A1
:104810008C831A8309838FEF9FE79E838D83CE015C
:10482000019610D0EF81F885E00FF11F10822E96CF
:104830000FB6F894DEBF0FBECDBFDF91CF911F91B1
:104840000F9108952F923F924F925F926F927F92B5
:104850008F929F92AF92BF92CF92DF92EF92FF9290
:104860000F931F93CF93DF93CDB7DEB72B970FB680
:10487000F894DEBF0FBECDBF6C017B018A01FC0145
:1048800017821682838181FFBFC1CE0101963C0150
:10489000F6019381F70193FD859193FF81917F014B
:1048A000882309F4ADC1853239F493FD859193FFD6
:1048B00081917F01853221F4B60190E0D6D1E8CF15
:1048C000912C212C312CFFE1F315D8F08B3279F0AB
:1048D00038F4803279F08332A1F4232D20611DC099
:1048E0008D3261F0803369F4232D216016C0832D51
:1048F0008260382EE32DE4603E2E2AC0F32DF8604E
:104900001DC037FC2DC020ED280F2A3040F08E321C
:10491000B9F436FC75C1232D2064322E19C036FE41
:1049200006C08AE0989E200D1124922E11C0EAE064
:104930002E9E200D1124222EF32DF0623F2E08C052
:104940008C3621F4832D8068382E02C0883641F4DD
:10495000F70193FD859193FF81917F018111B3CF81
:10496000982F9F7D9554933028F40C5F1F4F9FE341
:1049700099830DC0833631F0833771F0833509F0A8
:1049800055C020C0F801808189830E5F1F4F8824A5
:104990008394912C530112C02801F2E04F0E511C58
:1049A000F801A080B18036FE03C0692D70E002C01E
:1049B0006FEF7FEFC5014ED14C018201F32DFF77E0
:1049C0003F2E15C0280122E0420E511CF801A080A4
:1049D000B18036FE03C0692D70E002C06FEF7FEF3B
:1049E000C5012DD14C01F32DF0683F2E820133FC1F
:1049F00019C0822D90E088169906A0F4B60180E2D5
:104A000090E033D12A94F5CFF50137FC859137FE3C
:104A100081915F01B60190E028D121102A9421E014
:104A2000821A91088114910479F7E1C0843611F05B
:104A3000893639F5F80137FE07C0608171818281BE
:104A400093810C5F1F4F08C060817181072E000C9D
:104A5000880B990B0E5F1F4FF32DFF763F2E97FFAC
:104A600009C090958095709561957F4F8F4F9F4FAE
:104A7000F0683F2E2AE030E0A30133D1882E86185B
:104A800044C0853731F4232D2F7EB22E2AE030E04A
:104A900025C0932D997FB92E8F36C1F018F4883533
:104AA00079F0AEC0803719F0883721F0A9C0E92F1E
:104AB000E061BE2EB4FE0DC0FB2DF460BF2E09C018
:104AC00034FE0AC0292F2660B22E06C028E030E04E
:104AD00005C020E130E002C020E132E0F801B7FE7D
:104AE00007C060817181828193810C5F1F4F06C076
:104AF0006081718180E090E00E5F1F4FA301F1D0D3
:104B0000882E8618FB2DFF773F2E36FE0DC0232DF5
:104B10002E7FA22E891458F434FE0BC032FC09C03B
:104B2000832D8E7EA82E05C0B82CA32C03C0B82CD4
:104B300001C0B92CA4FE0FC0FE01E80DF11D80815B
:104B4000803321F49A2D997EA92E09C0A2FE06C0B9
:104B5000B394B39404C08A2D867809F0B394A3FC6F
:104B600010C0A0FE06C0B21480F4280C922C9B1832
:104B70000DC0B21458F4B60180E290E076D0B39440
:104B8000F8CFB21418F42B1802C0982C212CA4FED4
:104B90000FC0B60180E390E068D0A2FE16C0A1FC71
:104BA00003C088E790E002C088E590E0B6010CC041
:104BB0008A2D867851F0A1FE02C08BE201C080E20E
:104BC000A7FC8DE2B60190E050D0891430F4B60114
:104BD00080E390E04AD09A94F8CF8A94F301E80DEC
:104BE000F11D8081B60190E040D08110F6CF2220E7
:104BF00009F44ECEB60180E290E037D02A94F7CF88
:104C0000F6018681978102C08FEF9FEF2B960FB63A
:104C1000F894DEBF0FBECDBFDF91CF911F910F91F2
:104C2000FF90EF90DF90CF90BF90AF909F908F90CC
:104C30007F906F905F904F903F902F900895FC0170
:104C40000590615070400110D8F7809590958E0FB7
:104C50009F1F0895FC016150704001900110D8F72A
:104C6000809590958E0F9F1F08950F931F93CF935C
:104C7000DF93FB01238121FD03C08FEF9FEF2CC049
:104C800022FF16C046815781248135814217530780
:104C900044F4A081B1819D012F5F3F4F3183208378
:104CA0008C93268137812F5F3F4F3783268314C033
:104CB0008B01EC01FB010084F185E02D0995892B26
:104CC000E1F6D80116968D919C911797019617964B
:104CD0009C938E931697CE01DF91CF911F910F91E8
:104CE0000895FA01AA27283051F1203181F1E89482
:104CF0006F936E7F6E5F7F4F8F4F9F4FAF4FB1E0CF
:104D00003ED0B4E03CD0670F781F891F9A1FA11DC9
:104D1000680F791F8A1F911DA11D6A0F711D811DCA
:104D2000911DA11D20D009F468943F912AE0269F8F
:104D300011243019305D3193DEF6CF010895462FEE
:104D40004770405D4193B3E00FD0C9F7F6CF462FCF
:104D50004F70405D4A3318F0495D31FD4052419338
:104D600002D0A9F7EACFB4E0A695979587957795F5
:104D70006795BA95C9F700976105710508959B017C
:104D8000AC010A2E06945795479537952795BA9505
:104D9000C9F7620F731F841F951FA01D0895DC01C2
:104DA000CB01FC01E199FECF06C0FFBBEEBBE09A50
:104DB00031960DB20D9241505040B8F70895E199E7
:104DC000FECF9FBB8EBBE09A99278DB30895A8E1D3
:104DD000B0E042E050E0E5CFDC01CB0102C02D9114
:104DE00005D041505040D8F70895262FE199FECFC5
:104DF0009FBB8EBB2DBB0FB6F894E29AE19A0FBE13
:104E000001960895F2DF272FF1CF11E0CBEFD1E02B
:104E100003C0FE01BFDA2196CC3FD107D1F7F89449
:024E2000FFCFC2
:104E220000001E032000C001FFFF0060000000E040
:104E320000000060010003000A0CE50FE50FE50F1A
:104E4200E50FE50FE50FE50FE50FE50FE50FE50FC0
:104E5200E50FE50FE50F000102200217020E0277AF
:104E6200036E03650362616E6B30006379636C6588
:104E720073203C3D20307866666666554C4C002EA9
:104E82002E2F61746D3132385F74696D6572732FC4
:104E920074696D65725F722E637070006D735F74FA
:104EA2006F5F6379636C65730041737365727469D4
:104EB2006F6E206661696C65643A20282573292C1F
:104EC2002066696C652025732C206C696E6520252F
:104ED200642E0A00417373657274696F6E20666195
:104EE200696C65643A20282573292C2066756E63E7
:104EF20074696F6E2025732C2066696C652025739A
:0C4F02002C206C696E652025642E0A00CE
:00000001FF
